{
  "contractName": "ERC1155BurnableMock",
  "abi": [
    {
      "inputs": [
        {
          "internalType": "string",
          "name": "uri",
          "type": "string"
        }
      ],
      "stateMutability": "nonpayable",
      "type": "constructor"
    },
    {
      "anonymous": false,
      "inputs": [
        {
          "indexed": true,
          "internalType": "address",
          "name": "account",
          "type": "address"
        },
        {
          "indexed": true,
          "internalType": "address",
          "name": "operator",
          "type": "address"
        },
        {
          "indexed": false,
          "internalType": "bool",
          "name": "approved",
          "type": "bool"
        }
      ],
      "name": "ApprovalForAll",
      "type": "event"
    },
    {
      "anonymous": false,
      "inputs": [
        {
          "indexed": true,
          "internalType": "address",
          "name": "operator",
          "type": "address"
        },
        {
          "indexed": true,
          "internalType": "address",
          "name": "from",
          "type": "address"
        },
        {
          "indexed": true,
          "internalType": "address",
          "name": "to",
          "type": "address"
        },
        {
          "indexed": false,
          "internalType": "uint256[]",
          "name": "ids",
          "type": "uint256[]"
        },
        {
          "indexed": false,
          "internalType": "uint256[]",
          "name": "values",
          "type": "uint256[]"
        }
      ],
      "name": "TransferBatch",
      "type": "event"
    },
    {
      "anonymous": false,
      "inputs": [
        {
          "indexed": true,
          "internalType": "address",
          "name": "operator",
          "type": "address"
        },
        {
          "indexed": true,
          "internalType": "address",
          "name": "from",
          "type": "address"
        },
        {
          "indexed": true,
          "internalType": "address",
          "name": "to",
          "type": "address"
        },
        {
          "indexed": false,
          "internalType": "uint256",
          "name": "id",
          "type": "uint256"
        },
        {
          "indexed": false,
          "internalType": "uint256",
          "name": "value",
          "type": "uint256"
        }
      ],
      "name": "TransferSingle",
      "type": "event"
    },
    {
      "anonymous": false,
      "inputs": [
        {
          "indexed": false,
          "internalType": "string",
          "name": "value",
          "type": "string"
        },
        {
          "indexed": true,
          "internalType": "uint256",
          "name": "id",
          "type": "uint256"
        }
      ],
      "name": "URI",
      "type": "event"
    },
    {
      "inputs": [
        {
          "internalType": "address",
          "name": "account",
          "type": "address"
        },
        {
          "internalType": "uint256",
          "name": "id",
          "type": "uint256"
        }
      ],
      "name": "balanceOf",
      "outputs": [
        {
          "internalType": "uint256",
          "name": "",
          "type": "uint256"
        }
      ],
      "stateMutability": "view",
      "type": "function"
    },
    {
      "inputs": [
        {
          "internalType": "address[]",
          "name": "accounts",
          "type": "address[]"
        },
        {
          "internalType": "uint256[]",
          "name": "ids",
          "type": "uint256[]"
        }
      ],
      "name": "balanceOfBatch",
      "outputs": [
        {
          "internalType": "uint256[]",
          "name": "",
          "type": "uint256[]"
        }
      ],
      "stateMutability": "view",
      "type": "function"
    },
    {
      "inputs": [
        {
          "internalType": "address",
          "name": "account",
          "type": "address"
        },
        {
          "internalType": "uint256",
          "name": "id",
          "type": "uint256"
        },
        {
          "internalType": "uint256",
          "name": "value",
          "type": "uint256"
        }
      ],
      "name": "burn",
      "outputs": [],
      "stateMutability": "nonpayable",
      "type": "function"
    },
    {
      "inputs": [
        {
          "internalType": "address",
          "name": "account",
          "type": "address"
        },
        {
          "internalType": "uint256[]",
          "name": "ids",
          "type": "uint256[]"
        },
        {
          "internalType": "uint256[]",
          "name": "values",
          "type": "uint256[]"
        }
      ],
      "name": "burnBatch",
      "outputs": [],
      "stateMutability": "nonpayable",
      "type": "function"
    },
    {
      "inputs": [
        {
          "internalType": "address",
          "name": "account",
          "type": "address"
        },
        {
          "internalType": "address",
          "name": "operator",
          "type": "address"
        }
      ],
      "name": "isApprovedForAll",
      "outputs": [
        {
          "internalType": "bool",
          "name": "",
          "type": "bool"
        }
      ],
      "stateMutability": "view",
      "type": "function"
    },
    {
      "inputs": [
        {
          "internalType": "address",
          "name": "from",
          "type": "address"
        },
        {
          "internalType": "address",
          "name": "to",
          "type": "address"
        },
        {
          "internalType": "uint256[]",
          "name": "ids",
          "type": "uint256[]"
        },
        {
          "internalType": "uint256[]",
          "name": "amounts",
          "type": "uint256[]"
        },
        {
          "internalType": "bytes",
          "name": "data",
          "type": "bytes"
        }
      ],
      "name": "safeBatchTransferFrom",
      "outputs": [],
      "stateMutability": "nonpayable",
      "type": "function"
    },
    {
      "inputs": [
        {
          "internalType": "address",
          "name": "from",
          "type": "address"
        },
        {
          "internalType": "address",
          "name": "to",
          "type": "address"
        },
        {
          "internalType": "uint256",
          "name": "id",
          "type": "uint256"
        },
        {
          "internalType": "uint256",
          "name": "amount",
          "type": "uint256"
        },
        {
          "internalType": "bytes",
          "name": "data",
          "type": "bytes"
        }
      ],
      "name": "safeTransferFrom",
      "outputs": [],
      "stateMutability": "nonpayable",
      "type": "function"
    },
    {
      "inputs": [
        {
          "internalType": "address",
          "name": "operator",
          "type": "address"
        },
        {
          "internalType": "bool",
          "name": "approved",
          "type": "bool"
        }
      ],
      "name": "setApprovalForAll",
      "outputs": [],
      "stateMutability": "nonpayable",
      "type": "function"
    },
    {
      "inputs": [
        {
          "internalType": "bytes4",
          "name": "interfaceId",
          "type": "bytes4"
        }
      ],
      "name": "supportsInterface",
      "outputs": [
        {
          "internalType": "bool",
          "name": "",
          "type": "bool"
        }
      ],
      "stateMutability": "view",
      "type": "function"
    },
    {
      "inputs": [
        {
          "internalType": "uint256",
          "name": "",
          "type": "uint256"
        }
      ],
      "name": "uri",
      "outputs": [
        {
          "internalType": "string",
          "name": "",
          "type": "string"
        }
      ],
      "stateMutability": "view",
      "type": "function"
    },
    {
      "inputs": [
        {
          "internalType": "address",
          "name": "to",
          "type": "address"
        },
        {
          "internalType": "uint256",
          "name": "id",
          "type": "uint256"
        },
        {
          "internalType": "uint256",
          "name": "value",
          "type": "uint256"
        },
        {
          "internalType": "bytes",
          "name": "data",
          "type": "bytes"
        }
      ],
      "name": "mint",
      "outputs": [],
      "stateMutability": "nonpayable",
      "type": "function"
    }
  ],
  "bytecode": "0x60806040523480156200001157600080fd5b50604051620035043803806200350483398181016040528101906200003791906200018f565b8062000049816200005160201b60201c565b505062000344565b8060029080519060200190620000699291906200006d565b5050565b8280546200007b9062000269565b90600052602060002090601f0160209004810192826200009f5760008555620000eb565b82601f10620000ba57805160ff1916838001178555620000eb565b82800160010185558215620000eb579182015b82811115620000ea578251825591602001919060010190620000cd565b5b509050620000fa9190620000fe565b5090565b5b8082111562000119576000816000905550600101620000ff565b5090565b6000620001346200012e84620001fd565b620001d4565b9050828152602081018484840111156200014d57600080fd5b6200015a84828562000233565b509392505050565b600082601f8301126200017457600080fd5b8151620001868482602086016200011d565b91505092915050565b600060208284031215620001a257600080fd5b600082015167ffffffffffffffff811115620001bd57600080fd5b620001cb8482850162000162565b91505092915050565b6000620001e0620001f3565b9050620001ee82826200029f565b919050565b6000604051905090565b600067ffffffffffffffff8211156200021b576200021a62000304565b5b620002268262000333565b9050602081019050919050565b60005b838110156200025357808201518184015260208101905062000236565b8381111562000263576000848401525b50505050565b600060028204905060018216806200028257607f821691505b60208210811415620002995762000298620002d5565b5b50919050565b620002aa8262000333565b810181811067ffffffffffffffff82111715620002cc57620002cb62000304565b5b80604052505050565b7f4e487b7100000000000000000000000000000000000000000000000000000000600052602260045260246000fd5b7f4e487b7100000000000000000000000000000000000000000000000000000000600052604160045260246000fd5b6000601f19601f8301169050919050565b6131b080620003546000396000f3fe608060405234801561001057600080fd5b50600436106100a85760003560e01c80636b20c454116100715780636b20c45414610189578063731133e9146101a5578063a22cb465146101c1578063e985e9c5146101dd578063f242432a1461020d578063f5298aca14610229576100a8565b8062fdd58e146100ad57806301ffc9a7146100dd5780630e89341c1461010d5780632eb2c2d61461013d5780634e1273f414610159575b600080fd5b6100c760048036038101906100c291906120cd565b610245565b6040516100d4919061289d565b60405180910390f35b6100f760048036038101906100f2919061223f565b61030e565b60405161010491906126c0565b60405180910390f35b61012760048036038101906101229190612291565b6103f0565b60405161013491906126db565b60405180910390f35b61015760048036038101906101529190611ec4565b610484565b005b610173600480360381019061016e91906121d3565b610525565b6040516101809190612667565b60405180910390f35b6101a3600480360381019061019e9190612012565b6106d6565b005b6101bf60048036038101906101ba9190612158565b610773565b005b6101db60048036038101906101d69190612091565b610785565b005b6101f760048036038101906101f29190611e88565b610906565b60405161020491906126c0565b60405180910390f35b61022760048036038101906102229190611f83565b61099a565b005b610243600480360381019061023e9190612109565b610a3b565b005b60008073ffffffffffffffffffffffffffffffffffffffff168373ffffffffffffffffffffffffffffffffffffffff1614156102b6576040517f08c379a00000000000000000000000000000000000000000000000000000000081526004016102ad9061273d565b60405180910390fd5b60008083815260200190815260200160002060008473ffffffffffffffffffffffffffffffffffffffff1673ffffffffffffffffffffffffffffffffffffffff16815260200190815260200160002054905092915050565b60007fd9b67a26000000000000000000000000000000000000000000000000000000007bffffffffffffffffffffffffffffffffffffffffffffffffffffffff1916827bffffffffffffffffffffffffffffffffffffffffffffffffffffffff191614806103d957507f0e89341c000000000000000000000000000000000000000000000000000000007bffffffffffffffffffffffffffffffffffffffffffffffffffffffff1916827bffffffffffffffffffffffffffffffffffffffffffffffffffffffff1916145b806103e957506103e882610ad8565b5b9050919050565b6060600280546103ff90612b0c565b80601f016020809104026020016040519081016040528092919081815260200182805461042b90612b0c565b80156104785780601f1061044d57610100808354040283529160200191610478565b820191906000526020600020905b81548152906001019060200180831161045b57829003601f168201915b50505050509050919050565b61048c610b42565b73ffffffffffffffffffffffffffffffffffffffff168573ffffffffffffffffffffffffffffffffffffffff1614806104d257506104d1856104cc610b42565b610906565b5b610511576040517f08c379a0000000000000000000000000000000000000000000000000000000008152600401610508906127bd565b60405180910390fd5b61051e8585858585610b4a565b5050505050565b6060815183511461056b576040517f08c379a00000000000000000000000000000000000000000000000000000000081526004016105629061283d565b60405180910390fd5b6000835167ffffffffffffffff8111156105ae577f4e487b7100000000000000000000000000000000000000000000000000000000600052604160045260246000fd5b6040519080825280602002602001820160405280156105dc5781602001602082028036833780820191505090505b50905060005b84518110156106cb57610675858281518110610627577f4e487b7100000000000000000000000000000000000000000000000000000000600052603260045260246000fd5b6020026020010151858381518110610668577f4e487b7100000000000000000000000000000000000000000000000000000000600052603260045260246000fd5b6020026020010151610245565b8282815181106106ae577f4e487b7100000000000000000000000000000000000000000000000000000000600052603260045260246000fd5b602002602001018181525050806106c490612b6f565b90506105e2565b508091505092915050565b6106de610b42565b73ffffffffffffffffffffffffffffffffffffffff168373ffffffffffffffffffffffffffffffffffffffff16148061072457506107238361071e610b42565b610906565b5b610763576040517f08c379a000000000000000000000000000000000000000000000000000000000815260040161075a9061277d565b60405180910390fd5b61076e838383610eaa565b505050565b61077f848484846111a7565b50505050565b8173ffffffffffffffffffffffffffffffffffffffff166107a4610b42565b73ffffffffffffffffffffffffffffffffffffffff1614156107fb576040517f08c379a00000000000000000000000000000000000000000000000000000000081526004016107f29061281d565b60405180910390fd5b8060016000610808610b42565b73ffffffffffffffffffffffffffffffffffffffff1673ffffffffffffffffffffffffffffffffffffffff16815260200190815260200160002060008473ffffffffffffffffffffffffffffffffffffffff1673ffffffffffffffffffffffffffffffffffffffff16815260200190815260200160002060006101000a81548160ff0219169083151502179055508173ffffffffffffffffffffffffffffffffffffffff166108b5610b42565b73ffffffffffffffffffffffffffffffffffffffff167f17307eab39ab6107e8899845ad3d59bd9653f200f220920489ca2b5937696c31836040516108fa91906126c0565b60405180910390a35050565b6000600160008473ffffffffffffffffffffffffffffffffffffffff1673ffffffffffffffffffffffffffffffffffffffff16815260200190815260200160002060008373ffffffffffffffffffffffffffffffffffffffff1673ffffffffffffffffffffffffffffffffffffffff16815260200190815260200160002060009054906101000a900460ff16905092915050565b6109a2610b42565b73ffffffffffffffffffffffffffffffffffffffff168573ffffffffffffffffffffffffffffffffffffffff1614806109e857506109e7856109e2610b42565b610906565b5b610a27576040517f08c379a0000000000000000000000000000000000000000000000000000000008152600401610a1e9061277d565b60405180910390fd5b610a34858585858561133d565b5050505050565b610a43610b42565b73ffffffffffffffffffffffffffffffffffffffff168373ffffffffffffffffffffffffffffffffffffffff161480610a895750610a8883610a83610b42565b610906565b5b610ac8576040517f08c379a0000000000000000000000000000000000000000000000000000000008152600401610abf9061277d565b60405180910390fd5b610ad38383836115bf565b505050565b60007f01ffc9a7000000000000000000000000000000000000000000000000000000007bffffffffffffffffffffffffffffffffffffffffffffffffffffffff1916827bffffffffffffffffffffffffffffffffffffffffffffffffffffffff1916149050919050565b600033905090565b8151835114610b8e576040517f08c379a0000000000000000000000000000000000000000000000000000000008152600401610b859061285d565b60405180910390fd5b600073ffffffffffffffffffffffffffffffffffffffff168473ffffffffffffffffffffffffffffffffffffffff161415610bfe576040517f08c379a0000000000000000000000000000000000000000000000000000000008152600401610bf59061279d565b60405180910390fd5b6000610c08610b42565b9050610c188187878787876117dc565b60005b8451811015610e15576000858281518110610c5f577f4e487b7100000000000000000000000000000000000000000000000000000000600052603260045260246000fd5b602002602001015190506000858381518110610ca4577f4e487b7100000000000000000000000000000000000000000000000000000000600052603260045260246000fd5b60200260200101519050600080600084815260200190815260200160002060008b73ffffffffffffffffffffffffffffffffffffffff1673ffffffffffffffffffffffffffffffffffffffff16815260200190815260200160002054905081811015610d45576040517f08c379a0000000000000000000000000000000000000000000000000000000008152600401610d3c906127fd565b60405180910390fd5b81810360008085815260200190815260200160002060008c73ffffffffffffffffffffffffffffffffffffffff1673ffffffffffffffffffffffffffffffffffffffff168152602001908152602001600020819055508160008085815260200190815260200160002060008b73ffffffffffffffffffffffffffffffffffffffff1673ffffffffffffffffffffffffffffffffffffffff1681526020019081526020016000206000828254610dfa9190612a00565b9250508190555050505080610e0e90612b6f565b9050610c1b565b508473ffffffffffffffffffffffffffffffffffffffff168673ffffffffffffffffffffffffffffffffffffffff168273ffffffffffffffffffffffffffffffffffffffff167f4a39dc06d4c0dbc64b70af90fd698a233a518aa5d07e595d983b8c0526c8f7fb8787604051610e8c929190612689565b60405180910390a4610ea28187878787876117e4565b505050505050565b600073ffffffffffffffffffffffffffffffffffffffff168373ffffffffffffffffffffffffffffffffffffffff161415610f1a576040517f08c379a0000000000000000000000000000000000000000000000000000000008152600401610f11906127dd565b60405180910390fd5b8051825114610f5e576040517f08c379a0000000000000000000000000000000000000000000000000000000008152600401610f559061285d565b60405180910390fd5b6000610f68610b42565b9050610f88818560008686604051806020016040528060008152506117dc565b60005b8351811015611121576000848281518110610fcf577f4e487b7100000000000000000000000000000000000000000000000000000000600052603260045260246000fd5b602002602001015190506000848381518110611014577f4e487b7100000000000000000000000000000000000000000000000000000000600052603260045260246000fd5b60200260200101519050600080600084815260200190815260200160002060008973ffffffffffffffffffffffffffffffffffffffff1673ffffffffffffffffffffffffffffffffffffffff168152602001908152602001600020549050818110156110b5576040517f08c379a00000000000000000000000000000000000000000000000000000000081526004016110ac9061275d565b60405180910390fd5b81810360008085815260200190815260200160002060008a73ffffffffffffffffffffffffffffffffffffffff1673ffffffffffffffffffffffffffffffffffffffff16815260200190815260200160002081905550505050808061111990612b6f565b915050610f8b565b50600073ffffffffffffffffffffffffffffffffffffffff168473ffffffffffffffffffffffffffffffffffffffff168273ffffffffffffffffffffffffffffffffffffffff167f4a39dc06d4c0dbc64b70af90fd698a233a518aa5d07e595d983b8c0526c8f7fb8686604051611199929190612689565b60405180910390a450505050565b600073ffffffffffffffffffffffffffffffffffffffff168473ffffffffffffffffffffffffffffffffffffffff161415611217576040517f08c379a000000000000000000000000000000000000000000000000000000000815260040161120e9061287d565b60405180910390fd5b6000611221610b42565b905061124281600087611233886119cb565b61123c886119cb565b876117dc565b8260008086815260200190815260200160002060008773ffffffffffffffffffffffffffffffffffffffff1673ffffffffffffffffffffffffffffffffffffffff16815260200190815260200160002060008282546112a19190612a00565b925050819055508473ffffffffffffffffffffffffffffffffffffffff16600073ffffffffffffffffffffffffffffffffffffffff168273ffffffffffffffffffffffffffffffffffffffff167fc3d58168c5ae7397731d063d5bbf3d657854427343f4c083240f7aacaa2d0f62878760405161131f9291906128b8565b60405180910390a461133681600087878787611a91565b5050505050565b600073ffffffffffffffffffffffffffffffffffffffff168473ffffffffffffffffffffffffffffffffffffffff1614156113ad576040517f08c379a00000000000000000000000000000000000000000000000000000000081526004016113a49061279d565b60405180910390fd5b60006113b7610b42565b90506113d78187876113c8886119cb565b6113d1886119cb565b876117dc565b600080600086815260200190815260200160002060008873ffffffffffffffffffffffffffffffffffffffff1673ffffffffffffffffffffffffffffffffffffffff1681526020019081526020016000205490508381101561146e576040517f08c379a0000000000000000000000000000000000000000000000000000000008152600401611465906127fd565b60405180910390fd5b83810360008087815260200190815260200160002060008973ffffffffffffffffffffffffffffffffffffffff1673ffffffffffffffffffffffffffffffffffffffff168152602001908152602001600020819055508360008087815260200190815260200160002060008873ffffffffffffffffffffffffffffffffffffffff1673ffffffffffffffffffffffffffffffffffffffff16815260200190815260200160002060008282546115239190612a00565b925050819055508573ffffffffffffffffffffffffffffffffffffffff168773ffffffffffffffffffffffffffffffffffffffff168373ffffffffffffffffffffffffffffffffffffffff167fc3d58168c5ae7397731d063d5bbf3d657854427343f4c083240f7aacaa2d0f6288886040516115a09291906128b8565b60405180910390a46115b6828888888888611a91565b50505050505050565b600073ffffffffffffffffffffffffffffffffffffffff168373ffffffffffffffffffffffffffffffffffffffff16141561162f576040517f08c379a0000000000000000000000000000000000000000000000000000000008152600401611626906127dd565b60405180910390fd5b6000611639610b42565b90506116698185600061164b876119cb565b611654876119cb565b604051806020016040528060008152506117dc565b600080600085815260200190815260200160002060008673ffffffffffffffffffffffffffffffffffffffff1673ffffffffffffffffffffffffffffffffffffffff16815260200190815260200160002054905082811015611700576040517f08c379a00000000000000000000000000000000000000000000000000000000081526004016116f79061275d565b60405180910390fd5b82810360008086815260200190815260200160002060008773ffffffffffffffffffffffffffffffffffffffff1673ffffffffffffffffffffffffffffffffffffffff16815260200190815260200160002081905550600073ffffffffffffffffffffffffffffffffffffffff168573ffffffffffffffffffffffffffffffffffffffff168373ffffffffffffffffffffffffffffffffffffffff167fc3d58168c5ae7397731d063d5bbf3d657854427343f4c083240f7aacaa2d0f6287876040516117cd9291906128b8565b60405180910390a45050505050565b505050505050565b6118038473ffffffffffffffffffffffffffffffffffffffff16611c78565b156119c3578373ffffffffffffffffffffffffffffffffffffffff1663bc197c8187878686866040518663ffffffff1660e01b81526004016118499594939291906125a5565b602060405180830381600087803b15801561186357600080fd5b505af192505050801561189457506040513d601f19601f820116820180604052508101906118919190612268565b60015b61193a576118a0612c45565b806308c379a014156118fd57506118b5613088565b806118c057506118ff565b806040517f08c379a00000000000000000000000000000000000000000000000000000000081526004016118f491906126db565b60405180910390fd5b505b6040517f08c379a0000000000000000000000000000000000000000000000000000000008152600401611931906126fd565b60405180910390fd5b63bc197c8160e01b7bffffffffffffffffffffffffffffffffffffffffffffffffffffffff1916817bffffffffffffffffffffffffffffffffffffffffffffffffffffffff1916146119c1576040517f08c379a00000000000000000000000000000000000000000000000000000000081526004016119b89061271d565b60405180910390fd5b505b505050505050565b60606000600167ffffffffffffffff811115611a10577f4e487b7100000000000000000000000000000000000000000000000000000000600052604160045260246000fd5b604051908082528060200260200182016040528015611a3e5781602001602082028036833780820191505090505b5090508281600081518110611a7c577f4e487b7100000000000000000000000000000000000000000000000000000000600052603260045260246000fd5b60200260200101818152505080915050919050565b611ab08473ffffffffffffffffffffffffffffffffffffffff16611c78565b15611c70578373ffffffffffffffffffffffffffffffffffffffff1663f23a6e6187878686866040518663ffffffff1660e01b8152600401611af695949392919061260d565b602060405180830381600087803b158015611b1057600080fd5b505af1925050508015611b4157506040513d601f19601f82011682018060405250810190611b3e9190612268565b60015b611be757611b4d612c45565b806308c379a01415611baa5750611b62613088565b80611b6d5750611bac565b806040517f08c379a0000000000000000000000000000000000000000000000000000000008152600401611ba191906126db565b60405180910390fd5b505b6040517f08c379a0000000000000000000000000000000000000000000000000000000008152600401611bde906126fd565b60405180910390fd5b63f23a6e6160e01b7bffffffffffffffffffffffffffffffffffffffffffffffffffffffff1916817bffffffffffffffffffffffffffffffffffffffffffffffffffffffff191614611c6e576040517f08c379a0000000000000000000000000000000000000000000000000000000008152600401611c659061271d565b60405180910390fd5b505b505050505050565b600080823b905060008111915050919050565b6000611c9e611c9984612906565b6128e1565b90508083825260208201905082856020860282011115611cbd57600080fd5b60005b85811015611ced5781611cd38882611da1565b845260208401935060208301925050600181019050611cc0565b5050509392505050565b6000611d0a611d0584612932565b6128e1565b90508083825260208201905082856020860282011115611d2957600080fd5b60005b85811015611d595781611d3f8882611e73565b845260208401935060208301925050600181019050611d2c565b5050509392505050565b6000611d76611d718461295e565b6128e1565b905082815260208101848484011115611d8e57600080fd5b611d99848285612aca565b509392505050565b600081359050611db08161311e565b92915050565b600082601f830112611dc757600080fd5b8135611dd7848260208601611c8b565b91505092915050565b600082601f830112611df157600080fd5b8135611e01848260208601611cf7565b91505092915050565b600081359050611e1981613135565b92915050565b600081359050611e2e8161314c565b92915050565b600081519050611e438161314c565b92915050565b600082601f830112611e5a57600080fd5b8135611e6a848260208601611d63565b91505092915050565b600081359050611e8281613163565b92915050565b60008060408385031215611e9b57600080fd5b6000611ea985828601611da1565b9250506020611eba85828601611da1565b9150509250929050565b600080600080600060a08688031215611edc57600080fd5b6000611eea88828901611da1565b9550506020611efb88828901611da1565b945050604086013567ffffffffffffffff811115611f1857600080fd5b611f2488828901611de0565b935050606086013567ffffffffffffffff811115611f4157600080fd5b611f4d88828901611de0565b925050608086013567ffffffffffffffff811115611f6a57600080fd5b611f7688828901611e49565b9150509295509295909350565b600080600080600060a08688031215611f9b57600080fd5b6000611fa988828901611da1565b9550506020611fba88828901611da1565b9450506040611fcb88828901611e73565b9350506060611fdc88828901611e73565b925050608086013567ffffffffffffffff811115611ff957600080fd5b61200588828901611e49565b9150509295509295909350565b60008060006060848603121561202757600080fd5b600061203586828701611da1565b935050602084013567ffffffffffffffff81111561205257600080fd5b61205e86828701611de0565b925050604084013567ffffffffffffffff81111561207b57600080fd5b61208786828701611de0565b9150509250925092565b600080604083850312156120a457600080fd5b60006120b285828601611da1565b92505060206120c385828601611e0a565b9150509250929050565b600080604083850312156120e057600080fd5b60006120ee85828601611da1565b92505060206120ff85828601611e73565b9150509250929050565b60008060006060848603121561211e57600080fd5b600061212c86828701611da1565b935050602061213d86828701611e73565b925050604061214e86828701611e73565b9150509250925092565b6000806000806080858703121561216e57600080fd5b600061217c87828801611da1565b945050602061218d87828801611e73565b935050604061219e87828801611e73565b925050606085013567ffffffffffffffff8111156121bb57600080fd5b6121c787828801611e49565b91505092959194509250565b600080604083850312156121e657600080fd5b600083013567ffffffffffffffff81111561220057600080fd5b61220c85828601611db6565b925050602083013567ffffffffffffffff81111561222957600080fd5b61223585828601611de0565b9150509250929050565b60006020828403121561225157600080fd5b600061225f84828501611e1f565b91505092915050565b60006020828403121561227a57600080fd5b600061228884828501611e34565b91505092915050565b6000602082840312156122a357600080fd5b60006122b184828501611e73565b91505092915050565b60006122c68383612587565b60208301905092915050565b6122db81612a56565b82525050565b60006122ec8261299f565b6122f681856129cd565b93506123018361298f565b8060005b8381101561233257815161231988826122ba565b9750612324836129c0565b925050600181019050612305565b5085935050505092915050565b61234881612a68565b82525050565b6000612359826129aa565b61236381856129de565b9350612373818560208601612ad9565b61237c81612c67565b840191505092915050565b6000612392826129b5565b61239c81856129ef565b93506123ac818560208601612ad9565b6123b581612c67565b840191505092915050565b60006123cd6034836129ef565b91506123d882612c85565b604082019050919050565b60006123f06028836129ef565b91506123fb82612cd4565b604082019050919050565b6000612413602b836129ef565b915061241e82612d23565b604082019050919050565b60006124366024836129ef565b915061244182612d72565b604082019050919050565b60006124596029836129ef565b915061246482612dc1565b604082019050919050565b600061247c6025836129ef565b915061248782612e10565b604082019050919050565b600061249f6032836129ef565b91506124aa82612e5f565b604082019050919050565b60006124c26023836129ef565b91506124cd82612eae565b604082019050919050565b60006124e5602a836129ef565b91506124f082612efd565b604082019050919050565b60006125086029836129ef565b915061251382612f4c565b604082019050919050565b600061252b6029836129ef565b915061253682612f9b565b604082019050919050565b600061254e6028836129ef565b915061255982612fea565b604082019050919050565b60006125716021836129ef565b915061257c82613039565b604082019050919050565b61259081612ac0565b82525050565b61259f81612ac0565b82525050565b600060a0820190506125ba60008301886122d2565b6125c760208301876122d2565b81810360408301526125d981866122e1565b905081810360608301526125ed81856122e1565b90508181036080830152612601818461234e565b90509695505050505050565b600060a08201905061262260008301886122d2565b61262f60208301876122d2565b61263c6040830186612596565b6126496060830185612596565b818103608083015261265b818461234e565b90509695505050505050565b6000602082019050818103600083015261268181846122e1565b905092915050565b600060408201905081810360008301526126a381856122e1565b905081810360208301526126b781846122e1565b90509392505050565b60006020820190506126d5600083018461233f565b92915050565b600060208201905081810360008301526126f58184612387565b905092915050565b60006020820190508181036000830152612716816123c0565b9050919050565b60006020820190508181036000830152612736816123e3565b9050919050565b6000602082019050818103600083015261275681612406565b9050919050565b6000602082019050818103600083015261277681612429565b9050919050565b600060208201905081810360008301526127968161244c565b9050919050565b600060208201905081810360008301526127b68161246f565b9050919050565b600060208201905081810360008301526127d681612492565b9050919050565b600060208201905081810360008301526127f6816124b5565b9050919050565b60006020820190508181036000830152612816816124d8565b9050919050565b60006020820190508181036000830152612836816124fb565b9050919050565b600060208201905081810360008301526128568161251e565b9050919050565b6000602082019050818103600083015261287681612541565b9050919050565b6000602082019050818103600083015261289681612564565b9050919050565b60006020820190506128b26000830184612596565b92915050565b60006040820190506128cd6000830185612596565b6128da6020830184612596565b9392505050565b60006128eb6128fc565b90506128f78282612b3e565b919050565b6000604051905090565b600067ffffffffffffffff82111561292157612920612c16565b5b602082029050602081019050919050565b600067ffffffffffffffff82111561294d5761294c612c16565b5b602082029050602081019050919050565b600067ffffffffffffffff82111561297957612978612c16565b5b61298282612c67565b9050602081019050919050565b6000819050602082019050919050565b600081519050919050565b600081519050919050565b600081519050919050565b6000602082019050919050565b600082825260208201905092915050565b600082825260208201905092915050565b600082825260208201905092915050565b6000612a0b82612ac0565b9150612a1683612ac0565b9250827fffffffffffffffffffffffffffffffffffffffffffffffffffffffffffffffff03821115612a4b57612a4a612bb8565b5b828201905092915050565b6000612a6182612aa0565b9050919050565b60008115159050919050565b60007fffffffff0000000000000000000000000000000000000000000000000000000082169050919050565b600073ffffffffffffffffffffffffffffffffffffffff82169050919050565b6000819050919050565b82818337600083830152505050565b60005b83811015612af7578082015181840152602081019050612adc565b83811115612b06576000848401525b50505050565b60006002820490506001821680612b2457607f821691505b60208210811415612b3857612b37612be7565b5b50919050565b612b4782612c67565b810181811067ffffffffffffffff82111715612b6657612b65612c16565b5b80604052505050565b6000612b7a82612ac0565b91507fffffffffffffffffffffffffffffffffffffffffffffffffffffffffffffffff821415612bad57612bac612bb8565b5b600182019050919050565b7f4e487b7100000000000000000000000000000000000000000000000000000000600052601160045260246000fd5b7f4e487b7100000000000000000000000000000000000000000000000000000000600052602260045260246000fd5b7f4e487b7100000000000000000000000000000000000000000000000000000000600052604160045260246000fd5b600060033d1115612c645760046000803e612c61600051612c78565b90505b90565b6000601f19601f8301169050919050565b60008160e01c9050919050565b7f455243313135353a207472616e7366657220746f206e6f6e204552433131353560008201527f526563656976657220696d706c656d656e746572000000000000000000000000602082015250565b7f455243313135353a204552433131353552656365697665722072656a6563746560008201527f6420746f6b656e73000000000000000000000000000000000000000000000000602082015250565b7f455243313135353a2062616c616e636520717565727920666f7220746865207a60008201527f65726f2061646472657373000000000000000000000000000000000000000000602082015250565b7f455243313135353a206275726e20616d6f756e7420657863656564732062616c60008201527f616e636500000000000000000000000000000000000000000000000000000000602082015250565b7f455243313135353a2063616c6c6572206973206e6f74206f776e6572206e6f7260008201527f20617070726f7665640000000000000000000000000000000000000000000000602082015250565b7f455243313135353a207472616e7366657220746f20746865207a65726f20616460008201527f6472657373000000000000000000000000000000000000000000000000000000602082015250565b7f455243313135353a207472616e736665722063616c6c6572206973206e6f742060008201527f6f776e6572206e6f7220617070726f7665640000000000000000000000000000602082015250565b7f455243313135353a206275726e2066726f6d20746865207a65726f206164647260008201527f6573730000000000000000000000000000000000000000000000000000000000602082015250565b7f455243313135353a20696e73756666696369656e742062616c616e636520666f60008201527f72207472616e7366657200000000000000000000000000000000000000000000602082015250565b7f455243313135353a2073657474696e6720617070726f76616c2073746174757360008201527f20666f722073656c660000000000000000000000000000000000000000000000602082015250565b7f455243313135353a206163636f756e747320616e6420696473206c656e67746860008201527f206d69736d617463680000000000000000000000000000000000000000000000602082015250565b7f455243313135353a2069647320616e6420616d6f756e7473206c656e6774682060008201527f6d69736d61746368000000000000000000000000000000000000000000000000602082015250565b7f455243313135353a206d696e7420746f20746865207a65726f2061646472657360008201527f7300000000000000000000000000000000000000000000000000000000000000602082015250565b600060443d10156130985761311b565b6130a06128fc565b60043d036004823e80513d602482011167ffffffffffffffff821117156130c857505061311b565b808201805167ffffffffffffffff8111156130e6575050505061311b565b80602083010160043d03850181111561310357505050505061311b565b61311282602001850186612b3e565b82955050505050505b90565b61312781612a56565b811461313257600080fd5b50565b61313e81612a68565b811461314957600080fd5b50565b61315581612a74565b811461316057600080fd5b50565b61316c81612ac0565b811461317757600080fd5b5056fea2646970667358221220b0dc9745efcfda835c7e6e47b46ef7e3db5becd479ed05da6622f4d8be4ce68f64736f6c63430008020033",
  "immutableReferences": {},
  "source": "// SPDX-License-Identifier: MIT\n\npragma solidity ^0.8.0;\n\nimport \"../token/ERC1155/extensions/ERC1155Burnable.sol\";\n\ncontract ERC1155BurnableMock is ERC1155Burnable {\n    constructor(string memory uri) ERC1155(uri) {}\n\n    function mint(\n        address to,\n        uint256 id,\n        uint256 value,\n        bytes memory data\n    ) public {\n        _mint(to, id, value, data);\n    }\n}\n",
  "sourcePath": "/home/sushant/Documents/blockchain_work/EatTheBlock/ecomapp2/contracts/openzeppelin/contracts/mocks/ERC1155BurnableMock.sol",
  "compiler": {
    "name": "solc",
    "version": "0.8.2+commit.661d1103.Emscripten.clang"
  },
  "schemaVersion": "3.4.2",
  "updatedAt": "2021-08-09T18:32:24.081Z",
  "devdoc": {
    "kind": "dev",
    "methods": {
      "balanceOf(address,uint256)": {
        "details": "See {IERC1155-balanceOf}. Requirements: - `account` cannot be the zero address."
      },
      "balanceOfBatch(address[],uint256[])": {
        "details": "See {IERC1155-balanceOfBatch}. Requirements: - `accounts` and `ids` must have the same length."
      },
      "isApprovedForAll(address,address)": {
        "details": "See {IERC1155-isApprovedForAll}."
      },
      "safeBatchTransferFrom(address,address,uint256[],uint256[],bytes)": {
        "details": "See {IERC1155-safeBatchTransferFrom}."
      },
      "safeTransferFrom(address,address,uint256,uint256,bytes)": {
        "details": "See {IERC1155-safeTransferFrom}."
      },
      "setApprovalForAll(address,bool)": {
        "details": "See {IERC1155-setApprovalForAll}."
      },
      "supportsInterface(bytes4)": {
        "details": "See {IERC165-supportsInterface}."
      },
      "uri(uint256)": {
        "details": "See {IERC1155MetadataURI-uri}. This implementation returns the same URI for *all* token types. It relies on the token type ID substitution mechanism https://eips.ethereum.org/EIPS/eip-1155#metadata[defined in the EIP]. Clients calling this function must replace the `\\{id\\}` substring with the actual token type ID."
      }
    },
    "version": 1
  },
  "userdoc": {
    "kind": "user",
    "methods": {},
    "version": 1
  }
}