{
  "contractName": "ERC1155PausableMock",
  "abi": [
    {
      "inputs": [
        {
          "internalType": "string",
          "name": "uri",
          "type": "string"
        }
      ],
      "stateMutability": "nonpayable",
      "type": "constructor"
    },
    {
      "anonymous": false,
      "inputs": [
        {
          "indexed": true,
          "internalType": "address",
          "name": "account",
          "type": "address"
        },
        {
          "indexed": true,
          "internalType": "address",
          "name": "operator",
          "type": "address"
        },
        {
          "indexed": false,
          "internalType": "bool",
          "name": "approved",
          "type": "bool"
        }
      ],
      "name": "ApprovalForAll",
      "type": "event"
    },
    {
      "anonymous": false,
      "inputs": [
        {
          "indexed": false,
          "internalType": "address",
          "name": "account",
          "type": "address"
        }
      ],
      "name": "Paused",
      "type": "event"
    },
    {
      "anonymous": false,
      "inputs": [
        {
          "indexed": true,
          "internalType": "address",
          "name": "operator",
          "type": "address"
        },
        {
          "indexed": true,
          "internalType": "address",
          "name": "from",
          "type": "address"
        },
        {
          "indexed": true,
          "internalType": "address",
          "name": "to",
          "type": "address"
        },
        {
          "indexed": false,
          "internalType": "uint256[]",
          "name": "ids",
          "type": "uint256[]"
        },
        {
          "indexed": false,
          "internalType": "uint256[]",
          "name": "values",
          "type": "uint256[]"
        }
      ],
      "name": "TransferBatch",
      "type": "event"
    },
    {
      "anonymous": false,
      "inputs": [
        {
          "indexed": true,
          "internalType": "address",
          "name": "operator",
          "type": "address"
        },
        {
          "indexed": true,
          "internalType": "address",
          "name": "from",
          "type": "address"
        },
        {
          "indexed": true,
          "internalType": "address",
          "name": "to",
          "type": "address"
        },
        {
          "indexed": false,
          "internalType": "uint256",
          "name": "id",
          "type": "uint256"
        },
        {
          "indexed": false,
          "internalType": "uint256",
          "name": "value",
          "type": "uint256"
        }
      ],
      "name": "TransferSingle",
      "type": "event"
    },
    {
      "anonymous": false,
      "inputs": [
        {
          "indexed": false,
          "internalType": "string",
          "name": "value",
          "type": "string"
        },
        {
          "indexed": true,
          "internalType": "uint256",
          "name": "id",
          "type": "uint256"
        }
      ],
      "name": "URI",
      "type": "event"
    },
    {
      "anonymous": false,
      "inputs": [
        {
          "indexed": false,
          "internalType": "address",
          "name": "account",
          "type": "address"
        }
      ],
      "name": "Unpaused",
      "type": "event"
    },
    {
      "inputs": [
        {
          "internalType": "address",
          "name": "account",
          "type": "address"
        },
        {
          "internalType": "uint256",
          "name": "id",
          "type": "uint256"
        }
      ],
      "name": "balanceOf",
      "outputs": [
        {
          "internalType": "uint256",
          "name": "",
          "type": "uint256"
        }
      ],
      "stateMutability": "view",
      "type": "function"
    },
    {
      "inputs": [
        {
          "internalType": "address[]",
          "name": "accounts",
          "type": "address[]"
        },
        {
          "internalType": "uint256[]",
          "name": "ids",
          "type": "uint256[]"
        }
      ],
      "name": "balanceOfBatch",
      "outputs": [
        {
          "internalType": "uint256[]",
          "name": "",
          "type": "uint256[]"
        }
      ],
      "stateMutability": "view",
      "type": "function"
    },
    {
      "inputs": [
        {
          "internalType": "address",
          "name": "owner",
          "type": "address"
        },
        {
          "internalType": "uint256",
          "name": "id",
          "type": "uint256"
        },
        {
          "internalType": "uint256",
          "name": "value",
          "type": "uint256"
        }
      ],
      "name": "burn",
      "outputs": [],
      "stateMutability": "nonpayable",
      "type": "function"
    },
    {
      "inputs": [
        {
          "internalType": "address",
          "name": "owner",
          "type": "address"
        },
        {
          "internalType": "uint256[]",
          "name": "ids",
          "type": "uint256[]"
        },
        {
          "internalType": "uint256[]",
          "name": "values",
          "type": "uint256[]"
        }
      ],
      "name": "burnBatch",
      "outputs": [],
      "stateMutability": "nonpayable",
      "type": "function"
    },
    {
      "inputs": [
        {
          "internalType": "address",
          "name": "account",
          "type": "address"
        },
        {
          "internalType": "address",
          "name": "operator",
          "type": "address"
        }
      ],
      "name": "isApprovedForAll",
      "outputs": [
        {
          "internalType": "bool",
          "name": "",
          "type": "bool"
        }
      ],
      "stateMutability": "view",
      "type": "function"
    },
    {
      "inputs": [
        {
          "internalType": "address",
          "name": "to",
          "type": "address"
        },
        {
          "internalType": "uint256",
          "name": "id",
          "type": "uint256"
        },
        {
          "internalType": "uint256",
          "name": "value",
          "type": "uint256"
        },
        {
          "internalType": "bytes",
          "name": "data",
          "type": "bytes"
        }
      ],
      "name": "mint",
      "outputs": [],
      "stateMutability": "nonpayable",
      "type": "function"
    },
    {
      "inputs": [
        {
          "internalType": "address",
          "name": "to",
          "type": "address"
        },
        {
          "internalType": "uint256[]",
          "name": "ids",
          "type": "uint256[]"
        },
        {
          "internalType": "uint256[]",
          "name": "values",
          "type": "uint256[]"
        },
        {
          "internalType": "bytes",
          "name": "data",
          "type": "bytes"
        }
      ],
      "name": "mintBatch",
      "outputs": [],
      "stateMutability": "nonpayable",
      "type": "function"
    },
    {
      "inputs": [],
      "name": "paused",
      "outputs": [
        {
          "internalType": "bool",
          "name": "",
          "type": "bool"
        }
      ],
      "stateMutability": "view",
      "type": "function"
    },
    {
      "inputs": [
        {
          "internalType": "address",
          "name": "from",
          "type": "address"
        },
        {
          "internalType": "address",
          "name": "to",
          "type": "address"
        },
        {
          "internalType": "uint256[]",
          "name": "ids",
          "type": "uint256[]"
        },
        {
          "internalType": "uint256[]",
          "name": "amounts",
          "type": "uint256[]"
        },
        {
          "internalType": "bytes",
          "name": "data",
          "type": "bytes"
        }
      ],
      "name": "safeBatchTransferFrom",
      "outputs": [],
      "stateMutability": "nonpayable",
      "type": "function"
    },
    {
      "inputs": [
        {
          "internalType": "address",
          "name": "from",
          "type": "address"
        },
        {
          "internalType": "address",
          "name": "to",
          "type": "address"
        },
        {
          "internalType": "uint256",
          "name": "id",
          "type": "uint256"
        },
        {
          "internalType": "uint256",
          "name": "amount",
          "type": "uint256"
        },
        {
          "internalType": "bytes",
          "name": "data",
          "type": "bytes"
        }
      ],
      "name": "safeTransferFrom",
      "outputs": [],
      "stateMutability": "nonpayable",
      "type": "function"
    },
    {
      "inputs": [
        {
          "internalType": "address",
          "name": "operator",
          "type": "address"
        },
        {
          "internalType": "bool",
          "name": "approved",
          "type": "bool"
        }
      ],
      "name": "setApprovalForAll",
      "outputs": [],
      "stateMutability": "nonpayable",
      "type": "function"
    },
    {
      "inputs": [
        {
          "internalType": "string",
          "name": "newuri",
          "type": "string"
        }
      ],
      "name": "setURI",
      "outputs": [],
      "stateMutability": "nonpayable",
      "type": "function"
    },
    {
      "inputs": [
        {
          "internalType": "bytes4",
          "name": "interfaceId",
          "type": "bytes4"
        }
      ],
      "name": "supportsInterface",
      "outputs": [
        {
          "internalType": "bool",
          "name": "",
          "type": "bool"
        }
      ],
      "stateMutability": "view",
      "type": "function"
    },
    {
      "inputs": [
        {
          "internalType": "uint256",
          "name": "",
          "type": "uint256"
        }
      ],
      "name": "uri",
      "outputs": [
        {
          "internalType": "string",
          "name": "",
          "type": "string"
        }
      ],
      "stateMutability": "view",
      "type": "function"
    },
    {
      "inputs": [],
      "name": "pause",
      "outputs": [],
      "stateMutability": "nonpayable",
      "type": "function"
    },
    {
      "inputs": [],
      "name": "unpause",
      "outputs": [],
      "stateMutability": "nonpayable",
      "type": "function"
    }
  ],
  "bytecode": "0x60806040523480156200001157600080fd5b5060405162003cfb38038062003cfb8339818101604052810190620000379190620001ac565b80806200004a816200006e60201b60201c565b50506000600360006101000a81548160ff0219169083151502179055505062000361565b8060029080519060200190620000869291906200008a565b5050565b828054620000989062000286565b90600052602060002090601f016020900481019282620000bc576000855562000108565b82601f10620000d757805160ff191683800117855562000108565b8280016001018555821562000108579182015b8281111562000107578251825591602001919060010190620000ea565b5b5090506200011791906200011b565b5090565b5b80821115620001365760008160009055506001016200011c565b5090565b6000620001516200014b846200021a565b620001f1565b9050828152602081018484840111156200016a57600080fd5b6200017784828562000250565b509392505050565b600082601f8301126200019157600080fd5b8151620001a38482602086016200013a565b91505092915050565b600060208284031215620001bf57600080fd5b600082015167ffffffffffffffff811115620001da57600080fd5b620001e8848285016200017f565b91505092915050565b6000620001fd62000210565b90506200020b8282620002bc565b919050565b6000604051905090565b600067ffffffffffffffff82111562000238576200023762000321565b5b620002438262000350565b9050602081019050919050565b60005b838110156200027057808201518184015260208101905062000253565b8381111562000280576000848401525b50505050565b600060028204905060018216806200029f57607f821691505b60208210811415620002b657620002b5620002f2565b5b50919050565b620002c78262000350565b810181811067ffffffffffffffff82111715620002e957620002e862000321565b5b80604052505050565b7f4e487b7100000000000000000000000000000000000000000000000000000000600052602260045260246000fd5b7f4e487b7100000000000000000000000000000000000000000000000000000000600052604160045260246000fd5b6000601f19601f8301169050919050565b61398a80620003716000396000f3fe608060405234801561001057600080fd5b50600436106100ff5760003560e01c80635c975abb11610097578063a22cb46511610066578063a22cb46514610282578063e985e9c51461029e578063f242432a146102ce578063f5298aca146102ea576100ff565b80635c975abb146102225780636b20c45414610240578063731133e91461025c5780638456cb5914610278576100ff565b80631f7fdffa116100d35780631f7fdffa146101b05780632eb2c2d6146101cc5780633f4ba83a146101e85780634e1273f4146101f2576100ff565b8062fdd58e1461010457806301ffc9a71461013457806302fe5305146101645780630e89341c14610180575b600080fd5b61011e600480360381019061011991906126b0565b610306565b60405161012b9190612fa5565b60405180910390f35b61014e60048036038101906101499190612822565b6103cf565b60405161015b9190612d68565b60405180910390f35b61017e60048036038101906101799190612874565b6104b1565b005b61019a600480360381019061019591906128b5565b6104bd565b6040516101a79190612d83565b60405180910390f35b6101ca60048036038101906101c591906125c9565b610551565b005b6101e660048036038101906101e191906123fc565b610563565b005b6101f0610604565b005b61020c600480360381019061020791906127b6565b61060e565b6040516102199190612d0f565b60405180910390f35b61022a6107bf565b6040516102379190612d68565b60405180910390f35b61025a6004803603810190610255919061254a565b6107d6565b005b6102766004803603810190610271919061273b565b6107e6565b005b6102806107f8565b005b61029c60048036038101906102979190612674565b610802565b005b6102b860048036038101906102b391906123c0565b610983565b6040516102c59190612d68565b60405180910390f35b6102e860048036038101906102e391906124bb565b610a17565b005b61030460048036038101906102ff91906126ec565b610ab8565b005b60008073ffffffffffffffffffffffffffffffffffffffff168373ffffffffffffffffffffffffffffffffffffffff161415610377576040517f08c379a000000000000000000000000000000000000000000000000000000000815260040161036e90612e05565b60405180910390fd5b60008083815260200190815260200160002060008473ffffffffffffffffffffffffffffffffffffffff1673ffffffffffffffffffffffffffffffffffffffff16815260200190815260200160002054905092915050565b60007fd9b67a26000000000000000000000000000000000000000000000000000000007bffffffffffffffffffffffffffffffffffffffffffffffffffffffff1916827bffffffffffffffffffffffffffffffffffffffffffffffffffffffff1916148061049a57507f0e89341c000000000000000000000000000000000000000000000000000000007bffffffffffffffffffffffffffffffffffffffffffffffffffffffff1916827bffffffffffffffffffffffffffffffffffffffffffffffffffffffff1916145b806104aa57506104a982610ac8565b5b9050919050565b6104ba81610b32565b50565b6060600280546104cc90613245565b80601f01602080910402602001604051908101604052809291908181526020018280546104f890613245565b80156105455780601f1061051a57610100808354040283529160200191610545565b820191906000526020600020905b81548152906001019060200180831161052857829003601f168201915b50505050509050919050565b61055d84848484610b4c565b50505050565b61056b610db6565b73ffffffffffffffffffffffffffffffffffffffff168573ffffffffffffffffffffffffffffffffffffffff1614806105b157506105b0856105ab610db6565b610983565b5b6105f0576040517f08c379a00000000000000000000000000000000000000000000000000000000081526004016105e790612ec5565b60405180910390fd5b6105fd8585858585610dbe565b5050505050565b61060c61111e565b565b60608151835114610654576040517f08c379a000000000000000000000000000000000000000000000000000000000815260040161064b90612f45565b60405180910390fd5b6000835167ffffffffffffffff811115610697577f4e487b7100000000000000000000000000000000000000000000000000000000600052604160045260246000fd5b6040519080825280602002602001820160405280156106c55781602001602082028036833780820191505090505b50905060005b84518110156107b45761075e858281518110610710577f4e487b7100000000000000000000000000000000000000000000000000000000600052603260045260246000fd5b6020026020010151858381518110610751577f4e487b7100000000000000000000000000000000000000000000000000000000600052603260045260246000fd5b6020026020010151610306565b828281518110610797577f4e487b7100000000000000000000000000000000000000000000000000000000600052603260045260246000fd5b602002602001018181525050806107ad906132a8565b90506106cb565b508091505092915050565b6000600360009054906101000a900460ff16905090565b6107e18383836111c0565b505050565b6107f2848484846114bd565b50505050565b610800611653565b565b8173ffffffffffffffffffffffffffffffffffffffff16610821610db6565b73ffffffffffffffffffffffffffffffffffffffff161415610878576040517f08c379a000000000000000000000000000000000000000000000000000000000815260040161086f90612f25565b60405180910390fd5b8060016000610885610db6565b73ffffffffffffffffffffffffffffffffffffffff1673ffffffffffffffffffffffffffffffffffffffff16815260200190815260200160002060008473ffffffffffffffffffffffffffffffffffffffff1673ffffffffffffffffffffffffffffffffffffffff16815260200190815260200160002060006101000a81548160ff0219169083151502179055508173ffffffffffffffffffffffffffffffffffffffff16610932610db6565b73ffffffffffffffffffffffffffffffffffffffff167f17307eab39ab6107e8899845ad3d59bd9653f200f220920489ca2b5937696c31836040516109779190612d68565b60405180910390a35050565b6000600160008473ffffffffffffffffffffffffffffffffffffffff1673ffffffffffffffffffffffffffffffffffffffff16815260200190815260200160002060008373ffffffffffffffffffffffffffffffffffffffff1673ffffffffffffffffffffffffffffffffffffffff16815260200190815260200160002060009054906101000a900460ff16905092915050565b610a1f610db6565b73ffffffffffffffffffffffffffffffffffffffff168573ffffffffffffffffffffffffffffffffffffffff161480610a655750610a6485610a5f610db6565b610983565b5b610aa4576040517f08c379a0000000000000000000000000000000000000000000000000000000008152600401610a9b90612e65565b60405180910390fd5b610ab185858585856116f6565b5050505050565b610ac3838383611978565b505050565b60007f01ffc9a7000000000000000000000000000000000000000000000000000000007bffffffffffffffffffffffffffffffffffffffffffffffffffffffff1916827bffffffffffffffffffffffffffffffffffffffffffffffffffffffff1916149050919050565b8060029080519060200190610b489291906120b8565b5050565b600073ffffffffffffffffffffffffffffffffffffffff168473ffffffffffffffffffffffffffffffffffffffff161415610bbc576040517f08c379a0000000000000000000000000000000000000000000000000000000008152600401610bb390612f85565b60405180910390fd5b8151835114610c00576040517f08c379a0000000000000000000000000000000000000000000000000000000008152600401610bf790612f65565b60405180910390fd5b6000610c0a610db6565b9050610c1b81600087878787611b95565b60005b8451811015610d2057838181518110610c60577f4e487b7100000000000000000000000000000000000000000000000000000000600052603260045260246000fd5b6020026020010151600080878481518110610ca4577f4e487b7100000000000000000000000000000000000000000000000000000000600052603260045260246000fd5b6020026020010151815260200190815260200160002060008873ffffffffffffffffffffffffffffffffffffffff1673ffffffffffffffffffffffffffffffffffffffff1681526020019081526020016000206000828254610d069190613139565b925050819055508080610d18906132a8565b915050610c1e565b508473ffffffffffffffffffffffffffffffffffffffff16600073ffffffffffffffffffffffffffffffffffffffff168273ffffffffffffffffffffffffffffffffffffffff167f4a39dc06d4c0dbc64b70af90fd698a233a518aa5d07e595d983b8c0526c8f7fb8787604051610d98929190612d31565b60405180910390a4610daf81600087878787611bab565b5050505050565b600033905090565b8151835114610e02576040517f08c379a0000000000000000000000000000000000000000000000000000000008152600401610df990612f65565b60405180910390fd5b600073ffffffffffffffffffffffffffffffffffffffff168473ffffffffffffffffffffffffffffffffffffffff161415610e72576040517f08c379a0000000000000000000000000000000000000000000000000000000008152600401610e6990612ea5565b60405180910390fd5b6000610e7c610db6565b9050610e8c818787878787611b95565b60005b8451811015611089576000858281518110610ed3577f4e487b7100000000000000000000000000000000000000000000000000000000600052603260045260246000fd5b602002602001015190506000858381518110610f18577f4e487b7100000000000000000000000000000000000000000000000000000000600052603260045260246000fd5b60200260200101519050600080600084815260200190815260200160002060008b73ffffffffffffffffffffffffffffffffffffffff1673ffffffffffffffffffffffffffffffffffffffff16815260200190815260200160002054905081811015610fb9576040517f08c379a0000000000000000000000000000000000000000000000000000000008152600401610fb090612f05565b60405180910390fd5b81810360008085815260200190815260200160002060008c73ffffffffffffffffffffffffffffffffffffffff1673ffffffffffffffffffffffffffffffffffffffff168152602001908152602001600020819055508160008085815260200190815260200160002060008b73ffffffffffffffffffffffffffffffffffffffff1673ffffffffffffffffffffffffffffffffffffffff168152602001908152602001600020600082825461106e9190613139565b9250508190555050505080611082906132a8565b9050610e8f565b508473ffffffffffffffffffffffffffffffffffffffff168673ffffffffffffffffffffffffffffffffffffffff168273ffffffffffffffffffffffffffffffffffffffff167f4a39dc06d4c0dbc64b70af90fd698a233a518aa5d07e595d983b8c0526c8f7fb8787604051611100929190612d31565b60405180910390a4611116818787878787611bab565b505050505050565b6111266107bf565b611165576040517f08c379a000000000000000000000000000000000000000000000000000000000815260040161115c90612de5565b60405180910390fd5b6000600360006101000a81548160ff0219169083151502179055507f5db9ee0a495bf2e6ff9c91a7834c1ba4fdd244a5e8aa4e537bd38aeae4b073aa6111a9610db6565b6040516111b69190612c32565b60405180910390a1565b600073ffffffffffffffffffffffffffffffffffffffff168373ffffffffffffffffffffffffffffffffffffffff161415611230576040517f08c379a000000000000000000000000000000000000000000000000000000000815260040161122790612ee5565b60405180910390fd5b8051825114611274576040517f08c379a000000000000000000000000000000000000000000000000000000000815260040161126b90612f65565b60405180910390fd5b600061127e610db6565b905061129e81856000868660405180602001604052806000815250611b95565b60005b83518110156114375760008482815181106112e5577f4e487b7100000000000000000000000000000000000000000000000000000000600052603260045260246000fd5b60200260200101519050600084838151811061132a577f4e487b7100000000000000000000000000000000000000000000000000000000600052603260045260246000fd5b60200260200101519050600080600084815260200190815260200160002060008973ffffffffffffffffffffffffffffffffffffffff1673ffffffffffffffffffffffffffffffffffffffff168152602001908152602001600020549050818110156113cb576040517f08c379a00000000000000000000000000000000000000000000000000000000081526004016113c290612e25565b60405180910390fd5b81810360008085815260200190815260200160002060008a73ffffffffffffffffffffffffffffffffffffffff1673ffffffffffffffffffffffffffffffffffffffff16815260200190815260200160002081905550505050808061142f906132a8565b9150506112a1565b50600073ffffffffffffffffffffffffffffffffffffffff168473ffffffffffffffffffffffffffffffffffffffff168273ffffffffffffffffffffffffffffffffffffffff167f4a39dc06d4c0dbc64b70af90fd698a233a518aa5d07e595d983b8c0526c8f7fb86866040516114af929190612d31565b60405180910390a450505050565b600073ffffffffffffffffffffffffffffffffffffffff168473ffffffffffffffffffffffffffffffffffffffff16141561152d576040517f08c379a000000000000000000000000000000000000000000000000000000000815260040161152490612f85565b60405180910390fd5b6000611537610db6565b90506115588160008761154988611d92565b61155288611d92565b87611b95565b8260008086815260200190815260200160002060008773ffffffffffffffffffffffffffffffffffffffff1673ffffffffffffffffffffffffffffffffffffffff16815260200190815260200160002060008282546115b79190613139565b925050819055508473ffffffffffffffffffffffffffffffffffffffff16600073ffffffffffffffffffffffffffffffffffffffff168273ffffffffffffffffffffffffffffffffffffffff167fc3d58168c5ae7397731d063d5bbf3d657854427343f4c083240f7aacaa2d0f628787604051611635929190612fc0565b60405180910390a461164c81600087878787611e58565b5050505050565b61165b6107bf565b1561169b576040517f08c379a000000000000000000000000000000000000000000000000000000000815260040161169290612e85565b60405180910390fd5b6001600360006101000a81548160ff0219169083151502179055507f62e78cea01bee320cd4e420270b5ea74000d11b0c9f74754ebdbfc544b05a2586116df610db6565b6040516116ec9190612c32565b60405180910390a1565b600073ffffffffffffffffffffffffffffffffffffffff168473ffffffffffffffffffffffffffffffffffffffff161415611766576040517f08c379a000000000000000000000000000000000000000000000000000000000815260040161175d90612ea5565b60405180910390fd5b6000611770610db6565b905061179081878761178188611d92565b61178a88611d92565b87611b95565b600080600086815260200190815260200160002060008873ffffffffffffffffffffffffffffffffffffffff1673ffffffffffffffffffffffffffffffffffffffff16815260200190815260200160002054905083811015611827576040517f08c379a000000000000000000000000000000000000000000000000000000000815260040161181e90612f05565b60405180910390fd5b83810360008087815260200190815260200160002060008973ffffffffffffffffffffffffffffffffffffffff1673ffffffffffffffffffffffffffffffffffffffff168152602001908152602001600020819055508360008087815260200190815260200160002060008873ffffffffffffffffffffffffffffffffffffffff1673ffffffffffffffffffffffffffffffffffffffff16815260200190815260200160002060008282546118dc9190613139565b925050819055508573ffffffffffffffffffffffffffffffffffffffff168773ffffffffffffffffffffffffffffffffffffffff168373ffffffffffffffffffffffffffffffffffffffff167fc3d58168c5ae7397731d063d5bbf3d657854427343f4c083240f7aacaa2d0f628888604051611959929190612fc0565b60405180910390a461196f828888888888611e58565b50505050505050565b600073ffffffffffffffffffffffffffffffffffffffff168373ffffffffffffffffffffffffffffffffffffffff1614156119e8576040517f08c379a00000000000000000000000000000000000000000000000000000000081526004016119df90612ee5565b60405180910390fd5b60006119f2610db6565b9050611a2281856000611a0487611d92565b611a0d87611d92565b60405180602001604052806000815250611b95565b600080600085815260200190815260200160002060008673ffffffffffffffffffffffffffffffffffffffff1673ffffffffffffffffffffffffffffffffffffffff16815260200190815260200160002054905082811015611ab9576040517f08c379a0000000000000000000000000000000000000000000000000000000008152600401611ab090612e25565b60405180910390fd5b82810360008086815260200190815260200160002060008773ffffffffffffffffffffffffffffffffffffffff1673ffffffffffffffffffffffffffffffffffffffff16815260200190815260200160002081905550600073ffffffffffffffffffffffffffffffffffffffff168573ffffffffffffffffffffffffffffffffffffffff168373ffffffffffffffffffffffffffffffffffffffff167fc3d58168c5ae7397731d063d5bbf3d657854427343f4c083240f7aacaa2d0f628787604051611b86929190612fc0565b60405180910390a45050505050565b611ba386868686868661203f565b505050505050565b611bca8473ffffffffffffffffffffffffffffffffffffffff1661209d565b15611d8a578373ffffffffffffffffffffffffffffffffffffffff1663bc197c8187878686866040518663ffffffff1660e01b8152600401611c10959493929190612c4d565b602060405180830381600087803b158015611c2a57600080fd5b505af1925050508015611c5b57506040513d601f19601f82011682018060405250810190611c58919061284b565b60015b611d0157611c6761337e565b806308c379a01415611cc45750611c7c613862565b80611c875750611cc6565b806040517f08c379a0000000000000000000000000000000000000000000000000000000008152600401611cbb9190612d83565b60405180910390fd5b505b6040517f08c379a0000000000000000000000000000000000000000000000000000000008152600401611cf890612da5565b60405180910390fd5b63bc197c8160e01b7bffffffffffffffffffffffffffffffffffffffffffffffffffffffff1916817bffffffffffffffffffffffffffffffffffffffffffffffffffffffff191614611d88576040517f08c379a0000000000000000000000000000000000000000000000000000000008152600401611d7f90612dc5565b60405180910390fd5b505b505050505050565b60606000600167ffffffffffffffff811115611dd7577f4e487b7100000000000000000000000000000000000000000000000000000000600052604160045260246000fd5b604051908082528060200260200182016040528015611e055781602001602082028036833780820191505090505b5090508281600081518110611e43577f4e487b7100000000000000000000000000000000000000000000000000000000600052603260045260246000fd5b60200260200101818152505080915050919050565b611e778473ffffffffffffffffffffffffffffffffffffffff1661209d565b15612037578373ffffffffffffffffffffffffffffffffffffffff1663f23a6e6187878686866040518663ffffffff1660e01b8152600401611ebd959493929190612cb5565b602060405180830381600087803b158015611ed757600080fd5b505af1925050508015611f0857506040513d601f19601f82011682018060405250810190611f05919061284b565b60015b611fae57611f1461337e565b806308c379a01415611f715750611f29613862565b80611f345750611f73565b806040517f08c379a0000000000000000000000000000000000000000000000000000000008152600401611f689190612d83565b60405180910390fd5b505b6040517f08c379a0000000000000000000000000000000000000000000000000000000008152600401611fa590612da5565b60405180910390fd5b63f23a6e6160e01b7bffffffffffffffffffffffffffffffffffffffffffffffffffffffff1916817bffffffffffffffffffffffffffffffffffffffffffffffffffffffff191614612035576040517f08c379a000000000000000000000000000000000000000000000000000000000815260040161202c90612dc5565b60405180910390fd5b505b505050505050565b61204d8686868686866120b0565b6120556107bf565b15612095576040517f08c379a000000000000000000000000000000000000000000000000000000000815260040161208c90612e45565b60405180910390fd5b505050505050565b600080823b905060008111915050919050565b505050505050565b8280546120c490613245565b90600052602060002090601f0160209004810192826120e6576000855561212d565b82601f106120ff57805160ff191683800117855561212d565b8280016001018555821561212d579182015b8281111561212c578251825591602001919060010190612111565b5b50905061213a919061213e565b5090565b5b8082111561215757600081600090555060010161213f565b5090565b600061216e6121698461300e565b612fe9565b9050808382526020820190508285602086028201111561218d57600080fd5b60005b858110156121bd57816121a388826122af565b845260208401935060208301925050600181019050612190565b5050509392505050565b60006121da6121d58461303a565b612fe9565b905080838252602082019050828560208602820111156121f957600080fd5b60005b85811015612229578161220f88826123ab565b8452602084019350602083019250506001810190506121fc565b5050509392505050565b600061224661224184613066565b612fe9565b90508281526020810184848401111561225e57600080fd5b612269848285613203565b509392505050565b600061228461227f84613097565b612fe9565b90508281526020810184848401111561229c57600080fd5b6122a7848285613203565b509392505050565b6000813590506122be816138f8565b92915050565b600082601f8301126122d557600080fd5b81356122e584826020860161215b565b91505092915050565b600082601f8301126122ff57600080fd5b813561230f8482602086016121c7565b91505092915050565b6000813590506123278161390f565b92915050565b60008135905061233c81613926565b92915050565b60008151905061235181613926565b92915050565b600082601f83011261236857600080fd5b8135612378848260208601612233565b91505092915050565b600082601f83011261239257600080fd5b81356123a2848260208601612271565b91505092915050565b6000813590506123ba8161393d565b92915050565b600080604083850312156123d357600080fd5b60006123e1858286016122af565b92505060206123f2858286016122af565b9150509250929050565b600080600080600060a0868803121561241457600080fd5b6000612422888289016122af565b9550506020612433888289016122af565b945050604086013567ffffffffffffffff81111561245057600080fd5b61245c888289016122ee565b935050606086013567ffffffffffffffff81111561247957600080fd5b612485888289016122ee565b925050608086013567ffffffffffffffff8111156124a257600080fd5b6124ae88828901612357565b9150509295509295909350565b600080600080600060a086880312156124d357600080fd5b60006124e1888289016122af565b95505060206124f2888289016122af565b9450506040612503888289016123ab565b9350506060612514888289016123ab565b925050608086013567ffffffffffffffff81111561253157600080fd5b61253d88828901612357565b9150509295509295909350565b60008060006060848603121561255f57600080fd5b600061256d868287016122af565b935050602084013567ffffffffffffffff81111561258a57600080fd5b612596868287016122ee565b925050604084013567ffffffffffffffff8111156125b357600080fd5b6125bf868287016122ee565b9150509250925092565b600080600080608085870312156125df57600080fd5b60006125ed878288016122af565b945050602085013567ffffffffffffffff81111561260a57600080fd5b612616878288016122ee565b935050604085013567ffffffffffffffff81111561263357600080fd5b61263f878288016122ee565b925050606085013567ffffffffffffffff81111561265c57600080fd5b61266887828801612357565b91505092959194509250565b6000806040838503121561268757600080fd5b6000612695858286016122af565b92505060206126a685828601612318565b9150509250929050565b600080604083850312156126c357600080fd5b60006126d1858286016122af565b92505060206126e2858286016123ab565b9150509250929050565b60008060006060848603121561270157600080fd5b600061270f868287016122af565b9350506020612720868287016123ab565b9250506040612731868287016123ab565b9150509250925092565b6000806000806080858703121561275157600080fd5b600061275f878288016122af565b9450506020612770878288016123ab565b9350506040612781878288016123ab565b925050606085013567ffffffffffffffff81111561279e57600080fd5b6127aa87828801612357565b91505092959194509250565b600080604083850312156127c957600080fd5b600083013567ffffffffffffffff8111156127e357600080fd5b6127ef858286016122c4565b925050602083013567ffffffffffffffff81111561280c57600080fd5b612818858286016122ee565b9150509250929050565b60006020828403121561283457600080fd5b60006128428482850161232d565b91505092915050565b60006020828403121561285d57600080fd5b600061286b84828501612342565b91505092915050565b60006020828403121561288657600080fd5b600082013567ffffffffffffffff8111156128a057600080fd5b6128ac84828501612381565b91505092915050565b6000602082840312156128c757600080fd5b60006128d5848285016123ab565b91505092915050565b60006128ea8383612c14565b60208301905092915050565b6128ff8161318f565b82525050565b6000612910826130d8565b61291a8185613106565b9350612925836130c8565b8060005b8381101561295657815161293d88826128de565b9750612948836130f9565b925050600181019050612929565b5085935050505092915050565b61296c816131a1565b82525050565b600061297d826130e3565b6129878185613117565b9350612997818560208601613212565b6129a0816133a0565b840191505092915050565b60006129b6826130ee565b6129c08185613128565b93506129d0818560208601613212565b6129d9816133a0565b840191505092915050565b60006129f1603483613128565b91506129fc826133be565b604082019050919050565b6000612a14602883613128565b9150612a1f8261340d565b604082019050919050565b6000612a37601483613128565b9150612a428261345c565b602082019050919050565b6000612a5a602b83613128565b9150612a6582613485565b604082019050919050565b6000612a7d602483613128565b9150612a88826134d4565b604082019050919050565b6000612aa0602c83613128565b9150612aab82613523565b604082019050919050565b6000612ac3602983613128565b9150612ace82613572565b604082019050919050565b6000612ae6601083613128565b9150612af1826135c1565b602082019050919050565b6000612b09602583613128565b9150612b14826135ea565b604082019050919050565b6000612b2c603283613128565b9150612b3782613639565b604082019050919050565b6000612b4f602383613128565b9150612b5a82613688565b604082019050919050565b6000612b72602a83613128565b9150612b7d826136d7565b604082019050919050565b6000612b95602983613128565b9150612ba082613726565b604082019050919050565b6000612bb8602983613128565b9150612bc382613775565b604082019050919050565b6000612bdb602883613128565b9150612be6826137c4565b604082019050919050565b6000612bfe602183613128565b9150612c0982613813565b604082019050919050565b612c1d816131f9565b82525050565b612c2c816131f9565b82525050565b6000602082019050612c4760008301846128f6565b92915050565b600060a082019050612c6260008301886128f6565b612c6f60208301876128f6565b8181036040830152612c818186612905565b90508181036060830152612c958185612905565b90508181036080830152612ca98184612972565b90509695505050505050565b600060a082019050612cca60008301886128f6565b612cd760208301876128f6565b612ce46040830186612c23565b612cf16060830185612c23565b8181036080830152612d038184612972565b90509695505050505050565b60006020820190508181036000830152612d298184612905565b905092915050565b60006040820190508181036000830152612d4b8185612905565b90508181036020830152612d5f8184612905565b90509392505050565b6000602082019050612d7d6000830184612963565b92915050565b60006020820190508181036000830152612d9d81846129ab565b905092915050565b60006020820190508181036000830152612dbe816129e4565b9050919050565b60006020820190508181036000830152612dde81612a07565b9050919050565b60006020820190508181036000830152612dfe81612a2a565b9050919050565b60006020820190508181036000830152612e1e81612a4d565b9050919050565b60006020820190508181036000830152612e3e81612a70565b9050919050565b60006020820190508181036000830152612e5e81612a93565b9050919050565b60006020820190508181036000830152612e7e81612ab6565b9050919050565b60006020820190508181036000830152612e9e81612ad9565b9050919050565b60006020820190508181036000830152612ebe81612afc565b9050919050565b60006020820190508181036000830152612ede81612b1f565b9050919050565b60006020820190508181036000830152612efe81612b42565b9050919050565b60006020820190508181036000830152612f1e81612b65565b9050919050565b60006020820190508181036000830152612f3e81612b88565b9050919050565b60006020820190508181036000830152612f5e81612bab565b9050919050565b60006020820190508181036000830152612f7e81612bce565b9050919050565b60006020820190508181036000830152612f9e81612bf1565b9050919050565b6000602082019050612fba6000830184612c23565b92915050565b6000604082019050612fd56000830185612c23565b612fe26020830184612c23565b9392505050565b6000612ff3613004565b9050612fff8282613277565b919050565b6000604051905090565b600067ffffffffffffffff8211156130295761302861334f565b5b602082029050602081019050919050565b600067ffffffffffffffff8211156130555761305461334f565b5b602082029050602081019050919050565b600067ffffffffffffffff8211156130815761308061334f565b5b61308a826133a0565b9050602081019050919050565b600067ffffffffffffffff8211156130b2576130b161334f565b5b6130bb826133a0565b9050602081019050919050565b6000819050602082019050919050565b600081519050919050565b600081519050919050565b600081519050919050565b6000602082019050919050565b600082825260208201905092915050565b600082825260208201905092915050565b600082825260208201905092915050565b6000613144826131f9565b915061314f836131f9565b9250827fffffffffffffffffffffffffffffffffffffffffffffffffffffffffffffffff03821115613184576131836132f1565b5b828201905092915050565b600061319a826131d9565b9050919050565b60008115159050919050565b60007fffffffff0000000000000000000000000000000000000000000000000000000082169050919050565b600073ffffffffffffffffffffffffffffffffffffffff82169050919050565b6000819050919050565b82818337600083830152505050565b60005b83811015613230578082015181840152602081019050613215565b8381111561323f576000848401525b50505050565b6000600282049050600182168061325d57607f821691505b6020821081141561327157613270613320565b5b50919050565b613280826133a0565b810181811067ffffffffffffffff8211171561329f5761329e61334f565b5b80604052505050565b60006132b3826131f9565b91507fffffffffffffffffffffffffffffffffffffffffffffffffffffffffffffffff8214156132e6576132e56132f1565b5b600182019050919050565b7f4e487b7100000000000000000000000000000000000000000000000000000000600052601160045260246000fd5b7f4e487b7100000000000000000000000000000000000000000000000000000000600052602260045260246000fd5b7f4e487b7100000000000000000000000000000000000000000000000000000000600052604160045260246000fd5b600060033d111561339d5760046000803e61339a6000516133b1565b90505b90565b6000601f19601f8301169050919050565b60008160e01c9050919050565b7f455243313135353a207472616e7366657220746f206e6f6e204552433131353560008201527f526563656976657220696d706c656d656e746572000000000000000000000000602082015250565b7f455243313135353a204552433131353552656365697665722072656a6563746560008201527f6420746f6b656e73000000000000000000000000000000000000000000000000602082015250565b7f5061757361626c653a206e6f7420706175736564000000000000000000000000600082015250565b7f455243313135353a2062616c616e636520717565727920666f7220746865207a60008201527f65726f2061646472657373000000000000000000000000000000000000000000602082015250565b7f455243313135353a206275726e20616d6f756e7420657863656564732062616c60008201527f616e636500000000000000000000000000000000000000000000000000000000602082015250565b7f455243313135355061757361626c653a20746f6b656e207472616e736665722060008201527f7768696c65207061757365640000000000000000000000000000000000000000602082015250565b7f455243313135353a2063616c6c6572206973206e6f74206f776e6572206e6f7260008201527f20617070726f7665640000000000000000000000000000000000000000000000602082015250565b7f5061757361626c653a2070617573656400000000000000000000000000000000600082015250565b7f455243313135353a207472616e7366657220746f20746865207a65726f20616460008201527f6472657373000000000000000000000000000000000000000000000000000000602082015250565b7f455243313135353a207472616e736665722063616c6c6572206973206e6f742060008201527f6f776e6572206e6f7220617070726f7665640000000000000000000000000000602082015250565b7f455243313135353a206275726e2066726f6d20746865207a65726f206164647260008201527f6573730000000000000000000000000000000000000000000000000000000000602082015250565b7f455243313135353a20696e73756666696369656e742062616c616e636520666f60008201527f72207472616e7366657200000000000000000000000000000000000000000000602082015250565b7f455243313135353a2073657474696e6720617070726f76616c2073746174757360008201527f20666f722073656c660000000000000000000000000000000000000000000000602082015250565b7f455243313135353a206163636f756e747320616e6420696473206c656e67746860008201527f206d69736d617463680000000000000000000000000000000000000000000000602082015250565b7f455243313135353a2069647320616e6420616d6f756e7473206c656e6774682060008201527f6d69736d61746368000000000000000000000000000000000000000000000000602082015250565b7f455243313135353a206d696e7420746f20746865207a65726f2061646472657360008201527f7300000000000000000000000000000000000000000000000000000000000000602082015250565b600060443d1015613872576138f5565b61387a613004565b60043d036004823e80513d602482011167ffffffffffffffff821117156138a25750506138f5565b808201805167ffffffffffffffff8111156138c057505050506138f5565b80602083010160043d0385018111156138dd5750505050506138f5565b6138ec82602001850186613277565b82955050505050505b90565b6139018161318f565b811461390c57600080fd5b50565b613918816131a1565b811461392357600080fd5b50565b61392f816131ad565b811461393a57600080fd5b50565b613946816131f9565b811461395157600080fd5b5056fea264697066735822122095b8ba0dfdad7c5538eddb45352d5ad3d42d83a85239bc23e4457f9ab56cc62164736f6c63430008020033",
  "immutableReferences": {},
  "source": "// SPDX-License-Identifier: MIT\n\npragma solidity ^0.8.0;\n\nimport \"./ERC1155Mock.sol\";\nimport \"../token/ERC1155/extensions/ERC1155Pausable.sol\";\n\ncontract ERC1155PausableMock is ERC1155Mock, ERC1155Pausable {\n    constructor(string memory uri) ERC1155Mock(uri) {}\n\n    function pause() external {\n        _pause();\n    }\n\n    function unpause() external {\n        _unpause();\n    }\n\n    function _beforeTokenTransfer(\n        address operator,\n        address from,\n        address to,\n        uint256[] memory ids,\n        uint256[] memory amounts,\n        bytes memory data\n    ) internal virtual override(ERC1155, ERC1155Pausable) {\n        super._beforeTokenTransfer(operator, from, to, ids, amounts, data);\n    }\n}\n",
  "sourcePath": "/home/sushant/Documents/blockchain_work/EatTheBlock/ecomapp2/contracts/openzeppelin/contracts/mocks/ERC1155PausableMock.sol",
  "compiler": {
    "name": "solc",
    "version": "0.8.2+commit.661d1103.Emscripten.clang"
  },
  "schemaVersion": "3.4.2",
  "updatedAt": "2021-08-09T18:32:24.116Z",
  "devdoc": {
    "kind": "dev",
    "methods": {
      "balanceOf(address,uint256)": {
        "details": "See {IERC1155-balanceOf}. Requirements: - `account` cannot be the zero address."
      },
      "balanceOfBatch(address[],uint256[])": {
        "details": "See {IERC1155-balanceOfBatch}. Requirements: - `accounts` and `ids` must have the same length."
      },
      "isApprovedForAll(address,address)": {
        "details": "See {IERC1155-isApprovedForAll}."
      },
      "paused()": {
        "details": "Returns true if the contract is paused, and false otherwise."
      },
      "safeBatchTransferFrom(address,address,uint256[],uint256[],bytes)": {
        "details": "See {IERC1155-safeBatchTransferFrom}."
      },
      "safeTransferFrom(address,address,uint256,uint256,bytes)": {
        "details": "See {IERC1155-safeTransferFrom}."
      },
      "setApprovalForAll(address,bool)": {
        "details": "See {IERC1155-setApprovalForAll}."
      },
      "supportsInterface(bytes4)": {
        "details": "See {IERC165-supportsInterface}."
      },
      "uri(uint256)": {
        "details": "See {IERC1155MetadataURI-uri}. This implementation returns the same URI for *all* token types. It relies on the token type ID substitution mechanism https://eips.ethereum.org/EIPS/eip-1155#metadata[defined in the EIP]. Clients calling this function must replace the `\\{id\\}` substring with the actual token type ID."
      }
    },
    "version": 1
  },
  "userdoc": {
    "kind": "user",
    "methods": {},
    "version": 1
  }
}