{
  "contractName": "ERC1820ImplementerMock",
  "abi": [
    {
      "inputs": [
        {
          "internalType": "bytes32",
          "name": "interfaceHash",
          "type": "bytes32"
        },
        {
          "internalType": "address",
          "name": "account",
          "type": "address"
        }
      ],
      "name": "canImplementInterfaceForAddress",
      "outputs": [
        {
          "internalType": "bytes32",
          "name": "",
          "type": "bytes32"
        }
      ],
      "stateMutability": "view",
      "type": "function"
    },
    {
      "inputs": [
        {
          "internalType": "bytes32",
          "name": "interfaceHash",
          "type": "bytes32"
        },
        {
          "internalType": "address",
          "name": "account",
          "type": "address"
        }
      ],
      "name": "registerInterfaceForAddress",
      "outputs": [],
      "stateMutability": "nonpayable",
      "type": "function"
    }
  ],
  "bytecode": "0x608060405234801561001057600080fd5b506102c7806100206000396000f3fe608060405234801561001057600080fd5b50600436106100365760003560e01c8063249cb3fa1461003b5780635536e45d1461006b575b600080fd5b610055600480360381019061005091906101c1565b610087565b604051610062919061020c565b60405180910390f35b610085600480360381019061008091906101c1565b61011d565b005b600080600084815260200190815260200160002060008373ffffffffffffffffffffffffffffffffffffffff1673ffffffffffffffffffffffffffffffffffffffff16815260200190815260200160002060009054906101000a900460ff166100f3576000801b610115565b7fa2ef4600d742022d532d4747cb3547474667d6f13804902513b2ec01c848f4b45b905092915050565b610127828261012b565b5050565b600160008084815260200190815260200160002060008373ffffffffffffffffffffffffffffffffffffffff1673ffffffffffffffffffffffffffffffffffffffff16815260200190815260200160002060006101000a81548160ff0219169083151502179055505050565b6000813590506101a681610263565b92915050565b6000813590506101bb8161027a565b92915050565b600080604083850312156101d457600080fd5b60006101e2858286016101ac565b92505060206101f385828601610197565b9150509250929050565b61020681610239565b82525050565b600060208201905061022160008301846101fd565b92915050565b600061023282610243565b9050919050565b6000819050919050565b600073ffffffffffffffffffffffffffffffffffffffff82169050919050565b61026c81610227565b811461027757600080fd5b50565b61028381610239565b811461028e57600080fd5b5056fea264697066735822122097fe9ac39cbf2c90b8efc9d7ae24ac34e9342d66b24cd3fdef5e7cea33bdfd7564736f6c63430008020033",
  "immutableReferences": {},
  "source": "// SPDX-License-Identifier: MIT\n\npragma solidity ^0.8.0;\n\nimport \"../utils/introspection/ERC1820Implementer.sol\";\n\ncontract ERC1820ImplementerMock is ERC1820Implementer {\n    function registerInterfaceForAddress(bytes32 interfaceHash, address account) public {\n        _registerInterfaceForAddress(interfaceHash, account);\n    }\n}\n",
  "sourcePath": "/home/sushant/Documents/blockchain_work/EatTheBlock/ecomapp2/contracts/openzeppelin/contracts/mocks/ERC1820ImplementerMock.sol",
  "compiler": {
    "name": "solc",
    "version": "0.8.2+commit.661d1103.Emscripten.clang"
  },
  "schemaVersion": "3.4.2",
  "updatedAt": "2021-08-09T18:32:24.187Z",
  "devdoc": {
    "kind": "dev",
    "methods": {
      "canImplementInterfaceForAddress(bytes32,address)": {
        "details": "See {IERC1820Implementer-canImplementInterfaceForAddress}."
      }
    },
    "version": 1
  },
  "userdoc": {
    "kind": "user",
    "methods": {},
    "version": 1
  }
}