{
  "contractName": "GovernorTimelockCompoundMock",
  "abi": [
    {
      "inputs": [
        {
          "internalType": "string",
          "name": "name_",
          "type": "string"
        },
        {
          "internalType": "contract ERC20Votes",
          "name": "token_",
          "type": "address"
        },
        {
          "internalType": "uint256",
          "name": "votingDelay_",
          "type": "uint256"
        },
        {
          "internalType": "uint256",
          "name": "votingPeriod_",
          "type": "uint256"
        },
        {
          "internalType": "contract ICompoundTimelock",
          "name": "timelock_",
          "type": "address"
        },
        {
          "internalType": "uint256",
          "name": "quorumNumerator_",
          "type": "uint256"
        }
      ],
      "stateMutability": "nonpayable",
      "type": "constructor"
    },
    {
      "anonymous": false,
      "inputs": [
        {
          "indexed": false,
          "internalType": "uint256",
          "name": "proposalId",
          "type": "uint256"
        }
      ],
      "name": "ProposalCanceled",
      "type": "event"
    },
    {
      "anonymous": false,
      "inputs": [
        {
          "indexed": false,
          "internalType": "uint256",
          "name": "proposalId",
          "type": "uint256"
        },
        {
          "indexed": false,
          "internalType": "address",
          "name": "proposer",
          "type": "address"
        },
        {
          "indexed": false,
          "internalType": "address[]",
          "name": "targets",
          "type": "address[]"
        },
        {
          "indexed": false,
          "internalType": "uint256[]",
          "name": "values",
          "type": "uint256[]"
        },
        {
          "indexed": false,
          "internalType": "string[]",
          "name": "signatures",
          "type": "string[]"
        },
        {
          "indexed": false,
          "internalType": "bytes[]",
          "name": "calldatas",
          "type": "bytes[]"
        },
        {
          "indexed": false,
          "internalType": "uint256",
          "name": "startBlock",
          "type": "uint256"
        },
        {
          "indexed": false,
          "internalType": "uint256",
          "name": "endBlock",
          "type": "uint256"
        },
        {
          "indexed": false,
          "internalType": "string",
          "name": "description",
          "type": "string"
        }
      ],
      "name": "ProposalCreated",
      "type": "event"
    },
    {
      "anonymous": false,
      "inputs": [
        {
          "indexed": false,
          "internalType": "uint256",
          "name": "proposalId",
          "type": "uint256"
        }
      ],
      "name": "ProposalExecuted",
      "type": "event"
    },
    {
      "anonymous": false,
      "inputs": [
        {
          "indexed": false,
          "internalType": "uint256",
          "name": "proposalId",
          "type": "uint256"
        },
        {
          "indexed": false,
          "internalType": "uint256",
          "name": "eta",
          "type": "uint256"
        }
      ],
      "name": "ProposalQueued",
      "type": "event"
    },
    {
      "anonymous": false,
      "inputs": [
        {
          "indexed": false,
          "internalType": "uint256",
          "name": "oldQuorumNumerator",
          "type": "uint256"
        },
        {
          "indexed": false,
          "internalType": "uint256",
          "name": "newQuorumNumerator",
          "type": "uint256"
        }
      ],
      "name": "QuorumNumeratorUpdated",
      "type": "event"
    },
    {
      "anonymous": false,
      "inputs": [
        {
          "indexed": false,
          "internalType": "address",
          "name": "oldTimelock",
          "type": "address"
        },
        {
          "indexed": false,
          "internalType": "address",
          "name": "newTimelock",
          "type": "address"
        }
      ],
      "name": "TimelockChange",
      "type": "event"
    },
    {
      "anonymous": false,
      "inputs": [
        {
          "indexed": true,
          "internalType": "address",
          "name": "voter",
          "type": "address"
        },
        {
          "indexed": false,
          "internalType": "uint256",
          "name": "proposalId",
          "type": "uint256"
        },
        {
          "indexed": false,
          "internalType": "uint8",
          "name": "support",
          "type": "uint8"
        },
        {
          "indexed": false,
          "internalType": "uint256",
          "name": "weight",
          "type": "uint256"
        },
        {
          "indexed": false,
          "internalType": "string",
          "name": "reason",
          "type": "string"
        }
      ],
      "name": "VoteCast",
      "type": "event"
    },
    {
      "inputs": [],
      "name": "BALLOT_TYPEHASH",
      "outputs": [
        {
          "internalType": "bytes32",
          "name": "",
          "type": "bytes32"
        }
      ],
      "stateMutability": "view",
      "type": "function"
    },
    {
      "inputs": [],
      "name": "COUNTING_MODE",
      "outputs": [
        {
          "internalType": "string",
          "name": "",
          "type": "string"
        }
      ],
      "stateMutability": "pure",
      "type": "function"
    },
    {
      "inputs": [],
      "name": "__acceptAdmin",
      "outputs": [],
      "stateMutability": "nonpayable",
      "type": "function"
    },
    {
      "inputs": [
        {
          "internalType": "uint256",
          "name": "proposalId",
          "type": "uint256"
        },
        {
          "internalType": "uint8",
          "name": "support",
          "type": "uint8"
        }
      ],
      "name": "castVote",
      "outputs": [
        {
          "internalType": "uint256",
          "name": "",
          "type": "uint256"
        }
      ],
      "stateMutability": "nonpayable",
      "type": "function"
    },
    {
      "inputs": [
        {
          "internalType": "uint256",
          "name": "proposalId",
          "type": "uint256"
        },
        {
          "internalType": "uint8",
          "name": "support",
          "type": "uint8"
        },
        {
          "internalType": "uint8",
          "name": "v",
          "type": "uint8"
        },
        {
          "internalType": "bytes32",
          "name": "r",
          "type": "bytes32"
        },
        {
          "internalType": "bytes32",
          "name": "s",
          "type": "bytes32"
        }
      ],
      "name": "castVoteBySig",
      "outputs": [
        {
          "internalType": "uint256",
          "name": "",
          "type": "uint256"
        }
      ],
      "stateMutability": "nonpayable",
      "type": "function"
    },
    {
      "inputs": [
        {
          "internalType": "uint256",
          "name": "proposalId",
          "type": "uint256"
        },
        {
          "internalType": "uint8",
          "name": "support",
          "type": "uint8"
        },
        {
          "internalType": "string",
          "name": "reason",
          "type": "string"
        }
      ],
      "name": "castVoteWithReason",
      "outputs": [
        {
          "internalType": "uint256",
          "name": "",
          "type": "uint256"
        }
      ],
      "stateMutability": "nonpayable",
      "type": "function"
    },
    {
      "inputs": [
        {
          "internalType": "address[]",
          "name": "targets",
          "type": "address[]"
        },
        {
          "internalType": "uint256[]",
          "name": "values",
          "type": "uint256[]"
        },
        {
          "internalType": "bytes[]",
          "name": "calldatas",
          "type": "bytes[]"
        },
        {
          "internalType": "bytes32",
          "name": "descriptionHash",
          "type": "bytes32"
        }
      ],
      "name": "execute",
      "outputs": [
        {
          "internalType": "uint256",
          "name": "",
          "type": "uint256"
        }
      ],
      "stateMutability": "payable",
      "type": "function"
    },
    {
      "inputs": [
        {
          "internalType": "uint256",
          "name": "proposalId",
          "type": "uint256"
        },
        {
          "internalType": "address",
          "name": "account",
          "type": "address"
        }
      ],
      "name": "hasVoted",
      "outputs": [
        {
          "internalType": "bool",
          "name": "",
          "type": "bool"
        }
      ],
      "stateMutability": "view",
      "type": "function"
    },
    {
      "inputs": [
        {
          "internalType": "address[]",
          "name": "targets",
          "type": "address[]"
        },
        {
          "internalType": "uint256[]",
          "name": "values",
          "type": "uint256[]"
        },
        {
          "internalType": "bytes[]",
          "name": "calldatas",
          "type": "bytes[]"
        },
        {
          "internalType": "bytes32",
          "name": "descriptionHash",
          "type": "bytes32"
        }
      ],
      "name": "hashProposal",
      "outputs": [
        {
          "internalType": "uint256",
          "name": "",
          "type": "uint256"
        }
      ],
      "stateMutability": "pure",
      "type": "function"
    },
    {
      "inputs": [],
      "name": "name",
      "outputs": [
        {
          "internalType": "string",
          "name": "",
          "type": "string"
        }
      ],
      "stateMutability": "view",
      "type": "function"
    },
    {
      "inputs": [
        {
          "internalType": "uint256",
          "name": "proposalId",
          "type": "uint256"
        }
      ],
      "name": "proposalDeadline",
      "outputs": [
        {
          "internalType": "uint256",
          "name": "",
          "type": "uint256"
        }
      ],
      "stateMutability": "view",
      "type": "function"
    },
    {
      "inputs": [
        {
          "internalType": "uint256",
          "name": "proposalId",
          "type": "uint256"
        }
      ],
      "name": "proposalEta",
      "outputs": [
        {
          "internalType": "uint256",
          "name": "",
          "type": "uint256"
        }
      ],
      "stateMutability": "view",
      "type": "function"
    },
    {
      "inputs": [
        {
          "internalType": "uint256",
          "name": "proposalId",
          "type": "uint256"
        }
      ],
      "name": "proposalSnapshot",
      "outputs": [
        {
          "internalType": "uint256",
          "name": "",
          "type": "uint256"
        }
      ],
      "stateMutability": "view",
      "type": "function"
    },
    {
      "inputs": [
        {
          "internalType": "uint256",
          "name": "proposalId",
          "type": "uint256"
        }
      ],
      "name": "proposalVotes",
      "outputs": [
        {
          "internalType": "uint256",
          "name": "againstVotes",
          "type": "uint256"
        },
        {
          "internalType": "uint256",
          "name": "forVotes",
          "type": "uint256"
        },
        {
          "internalType": "uint256",
          "name": "abstainVotes",
          "type": "uint256"
        }
      ],
      "stateMutability": "view",
      "type": "function"
    },
    {
      "inputs": [
        {
          "internalType": "address[]",
          "name": "targets",
          "type": "address[]"
        },
        {
          "internalType": "uint256[]",
          "name": "values",
          "type": "uint256[]"
        },
        {
          "internalType": "bytes[]",
          "name": "calldatas",
          "type": "bytes[]"
        },
        {
          "internalType": "string",
          "name": "description",
          "type": "string"
        }
      ],
      "name": "propose",
      "outputs": [
        {
          "internalType": "uint256",
          "name": "",
          "type": "uint256"
        }
      ],
      "stateMutability": "nonpayable",
      "type": "function"
    },
    {
      "inputs": [
        {
          "internalType": "address[]",
          "name": "targets",
          "type": "address[]"
        },
        {
          "internalType": "uint256[]",
          "name": "values",
          "type": "uint256[]"
        },
        {
          "internalType": "bytes[]",
          "name": "calldatas",
          "type": "bytes[]"
        },
        {
          "internalType": "bytes32",
          "name": "descriptionHash",
          "type": "bytes32"
        }
      ],
      "name": "queue",
      "outputs": [
        {
          "internalType": "uint256",
          "name": "",
          "type": "uint256"
        }
      ],
      "stateMutability": "nonpayable",
      "type": "function"
    },
    {
      "inputs": [],
      "name": "quorumDenominator",
      "outputs": [
        {
          "internalType": "uint256",
          "name": "",
          "type": "uint256"
        }
      ],
      "stateMutability": "view",
      "type": "function"
    },
    {
      "inputs": [],
      "name": "quorumNumerator",
      "outputs": [
        {
          "internalType": "uint256",
          "name": "",
          "type": "uint256"
        }
      ],
      "stateMutability": "view",
      "type": "function"
    },
    {
      "inputs": [],
      "name": "timelock",
      "outputs": [
        {
          "internalType": "address",
          "name": "",
          "type": "address"
        }
      ],
      "stateMutability": "view",
      "type": "function"
    },
    {
      "inputs": [],
      "name": "token",
      "outputs": [
        {
          "internalType": "contract ERC20Votes",
          "name": "",
          "type": "address"
        }
      ],
      "stateMutability": "view",
      "type": "function"
    },
    {
      "inputs": [
        {
          "internalType": "uint256",
          "name": "newQuorumNumerator",
          "type": "uint256"
        }
      ],
      "name": "updateQuorumNumerator",
      "outputs": [],
      "stateMutability": "nonpayable",
      "type": "function"
    },
    {
      "inputs": [
        {
          "internalType": "contract ICompoundTimelock",
          "name": "newTimelock",
          "type": "address"
        }
      ],
      "name": "updateTimelock",
      "outputs": [],
      "stateMutability": "nonpayable",
      "type": "function"
    },
    {
      "inputs": [],
      "name": "version",
      "outputs": [
        {
          "internalType": "string",
          "name": "",
          "type": "string"
        }
      ],
      "stateMutability": "view",
      "type": "function"
    },
    {
      "inputs": [
        {
          "internalType": "bytes4",
          "name": "interfaceId",
          "type": "bytes4"
        }
      ],
      "name": "supportsInterface",
      "outputs": [
        {
          "internalType": "bool",
          "name": "",
          "type": "bool"
        }
      ],
      "stateMutability": "view",
      "type": "function"
    },
    {
      "inputs": [],
      "name": "votingDelay",
      "outputs": [
        {
          "internalType": "uint256",
          "name": "",
          "type": "uint256"
        }
      ],
      "stateMutability": "view",
      "type": "function"
    },
    {
      "inputs": [],
      "name": "votingPeriod",
      "outputs": [
        {
          "internalType": "uint256",
          "name": "",
          "type": "uint256"
        }
      ],
      "stateMutability": "view",
      "type": "function"
    },
    {
      "inputs": [
        {
          "internalType": "uint256",
          "name": "blockNumber",
          "type": "uint256"
        }
      ],
      "name": "quorum",
      "outputs": [
        {
          "internalType": "uint256",
          "name": "",
          "type": "uint256"
        }
      ],
      "stateMutability": "view",
      "type": "function"
    },
    {
      "inputs": [
        {
          "internalType": "address[]",
          "name": "targets",
          "type": "address[]"
        },
        {
          "internalType": "uint256[]",
          "name": "values",
          "type": "uint256[]"
        },
        {
          "internalType": "bytes[]",
          "name": "calldatas",
          "type": "bytes[]"
        },
        {
          "internalType": "bytes32",
          "name": "salt",
          "type": "bytes32"
        }
      ],
      "name": "cancel",
      "outputs": [
        {
          "internalType": "uint256",
          "name": "proposalId",
          "type": "uint256"
        }
      ],
      "stateMutability": "nonpayable",
      "type": "function"
    },
    {
      "inputs": [
        {
          "internalType": "uint256",
          "name": "proposalId",
          "type": "uint256"
        }
      ],
      "name": "state",
      "outputs": [
        {
          "internalType": "enum IGovernor.ProposalState",
          "name": "",
          "type": "uint8"
        }
      ],
      "stateMutability": "view",
      "type": "function"
    },
    {
      "inputs": [
        {
          "internalType": "address",
          "name": "account",
          "type": "address"
        },
        {
          "internalType": "uint256",
          "name": "blockNumber",
          "type": "uint256"
        }
      ],
      "name": "getVotes",
      "outputs": [
        {
          "internalType": "uint256",
          "name": "",
          "type": "uint256"
        }
      ],
      "stateMutability": "view",
      "type": "function"
    }
  ],
  "bytecode": "0x6101806040523480156200001257600080fd5b5060405162005df138038062005df183398181016040528101906200003891906200048b565b80858388806200004d6200015f60201b60201c565b60008280519060200120905060008280519060200120905060007f8b73c3c69bb8fe3d512ecc4cf759cc79239f7b179b0ffacaa9a75d522b39400f90508260c081815250508160e081815250504660a08181525050620000b58184846200019c60201b60201c565b6080818152505080610100818152505050505050508060009080519060200190620000e292919062000324565b5050620000f581620001d860201b60201c565b508073ffffffffffffffffffffffffffffffffffffffff166101208173ffffffffffffffffffffffffffffffffffffffff1660601b815250505062000140816200027960201b60201c565b5083610140818152505082610160818152505050505050505062000935565b60606040518060400160405280600181526020017f3100000000000000000000000000000000000000000000000000000000000000815250905090565b60008383834630604051602001620001b9959493929190620005c1565b6040516020818303038152906040528051906020012090509392505050565b7f08f74ea46ef7894f65eabfb5e6e695de773a000b47c529ab559178069b226401600260009054906101000a900473ffffffffffffffffffffffffffffffffffffffff16826040516200022d92919062000594565b60405180910390a180600260006101000a81548173ffffffffffffffffffffffffffffffffffffffff021916908373ffffffffffffffffffffffffffffffffffffffff16021790555050565b620002896200031b60201b60201c565b811115620002ce576040517f08c379a0000000000000000000000000000000000000000000000000000000008152600401620002c5906200061e565b60405180910390fd5b60006004549050816004819055507f0553476bf02ef2726e8ce5ced78d63e26e602e4a2257b1f559418e24b463399781836040516200030f92919062000640565b60405180910390a15050565b60006064905090565b828054620003329062000797565b90600052602060002090601f016020900481019282620003565760008555620003a2565b82601f106200037157805160ff1916838001178555620003a2565b82800160010185558215620003a2579182015b82811115620003a157825182559160200191906001019062000384565b5b509050620003b19190620003b5565b5090565b5b80821115620003d0576000816000905550600101620003b6565b5090565b6000620003eb620003e58462000696565b6200066d565b9050828152602081018484840111156200040457600080fd5b6200041184828562000761565b509392505050565b6000815190506200042a81620008e7565b92915050565b600081519050620004418162000901565b92915050565b600082601f8301126200045957600080fd5b81516200046b848260208601620003d4565b91505092915050565b60008151905062000485816200091b565b92915050565b60008060008060008060c08789031215620004a557600080fd5b600087015167ffffffffffffffff811115620004c057600080fd5b620004ce89828a0162000447565b9650506020620004e189828a0162000419565b9550506040620004f489828a0162000474565b94505060606200050789828a0162000474565b93505060806200051a89828a0162000430565b92505060a06200052d89828a0162000474565b9150509295509295509295565b6200054581620006dd565b82525050565b620005568162000705565b82525050565b60006200056b604383620006cc565b9150620005788262000872565b606082019050919050565b6200058e8162000757565b82525050565b6000604082019050620005ab60008301856200053a565b620005ba60208301846200053a565b9392505050565b600060a082019050620005d860008301886200054b565b620005e760208301876200054b565b620005f660408301866200054b565b62000605606083018562000583565b6200061460808301846200053a565b9695505050505050565b6000602082019050818103600083015262000639816200055c565b9050919050565b600060408201905062000657600083018562000583565b62000666602083018462000583565b9392505050565b6000620006796200068c565b9050620006878282620007cd565b919050565b6000604051905090565b600067ffffffffffffffff821115620006b457620006b362000832565b5b620006bf8262000861565b9050602081019050919050565b600082825260208201905092915050565b6000620006ea8262000737565b9050919050565b6000620006fe8262000737565b9050919050565b6000819050919050565b60006200071c82620006dd565b9050919050565b60006200073082620006f1565b9050919050565b600073ffffffffffffffffffffffffffffffffffffffff82169050919050565b6000819050919050565b60005b838110156200078157808201518184015260208101905062000764565b8381111562000791576000848401525b50505050565b60006002820490506001821680620007b057607f821691505b60208210811415620007c757620007c662000803565b5b50919050565b620007d88262000861565b810181811067ffffffffffffffff82111715620007fa57620007f962000832565b5b80604052505050565b7f4e487b7100000000000000000000000000000000000000000000000000000000600052602260045260246000fd5b7f4e487b7100000000000000000000000000000000000000000000000000000000600052604160045260246000fd5b6000601f19601f8301169050919050565b7f476f7665726e6f72566f74657351756f72756d4672616374696f6e3a2071756f60008201527f72756d4e756d657261746f72206f7665722071756f72756d44656e6f6d696e6160208201527f746f720000000000000000000000000000000000000000000000000000000000604082015250565b620008f2816200070f565b8114620008fe57600080fd5b50565b6200090c8162000723565b81146200091857600080fd5b50565b620009268162000757565b81146200093257600080fd5b50565b60805160a05160c05160e051610100516101205160601c6101405161016051615445620009ac6000396000610801015260006110d60152600081816118d701528181611f350152611ffa015260006123e7015260006124290152600061240801526000612394015260006123bc01526154456000f3fe6080604052600436106101cd5760003560e01c80637b3c71d3116100f7578063c01f9e3711610095578063deaaa7cc11610064578063deaaa7cc1461071b578063eb9019d414610746578063f8ce560a14610783578063fc0c546a146107c0576101cd565b8063c01f9e371461064b578063c59057e414610688578063d33219b4146106c5578063dd4e2ba5146106f0576101cd565b8063a7713a70116100d1578063a7713a70146105a3578063a890c910146105ce578063ab58fb8e146105f7578063b9a6196114610634576101cd565b80637b3c71d3146104fe5780637d5e81e21461053b57806397c3d33414610578576101cd565b80633932abb11161016f578063452115d61161013e578063452115d61461041a578063544ffc9c1461045757806354fd4d501461049657806356781388146104c1576101cd565b80633932abb1146103385780633bccf4fd146103635780633e4f49e6146103a057806343859632146103dd576101cd565b806306fdde03116101ab57806306fdde0314610263578063160cbed71461028e5780632656227d146102cb5780632d63f693146102fb576101cd565b806301ffc9a7146101d257806302a251a31461020f57806306f3f9e61461023a575b600080fd5b3480156101de57600080fd5b506101f960048036038101906101f491906138b7565b6107eb565b604051610206919061429f565b60405180910390f35b34801561021b57600080fd5b506102246107fd565b604051610231919061463c565b60405180910390f35b34801561024657600080fd5b50610261600480360381019061025c919061394a565b610825565b005b34801561026f57600080fd5b506102786108ad565b60405161028591906143da565b60405180910390f35b34801561029a57600080fd5b506102b560048036038101906102b091906136f7565b61093f565b6040516102c2919061463c565b60405180910390f35b6102e560048036038101906102e091906136f7565b610e99565b6040516102f2919061463c565b60405180910390f35b34801561030757600080fd5b50610322600480360381019061031d919061394a565b611064565b60405161032f919061463c565b60405180910390f35b34801561034457600080fd5b5061034d6110d2565b60405161035a919061463c565b60405180910390f35b34801561036f57600080fd5b5061038a60048036038101906103859190613a80565b6110fa565b604051610397919061463c565b60405180910390f35b3480156103ac57600080fd5b506103c760048036038101906103c2919061394a565b611184565b6040516103d491906143bf565b60405180910390f35b3480156103e957600080fd5b5061040460048036038101906103ff919061399c565b611196565b604051610411919061429f565b60405180910390f35b34801561042657600080fd5b50610441600480360381019061043c91906136f7565b611201565b60405161044e919061463c565b60405180910390f35b34801561046357600080fd5b5061047e6004803603810190610479919061394a565b611219565b60405161048d93929190614730565b60405180910390f35b3480156104a257600080fd5b506104ab611251565b6040516104b891906143da565b60405180910390f35b3480156104cd57600080fd5b506104e860048036038101906104e391906139d8565b61128e565b6040516104f5919061463c565b60405180910390f35b34801561050a57600080fd5b5061052560048036038101906105209190613a14565b6112bf565b604051610532919061463c565b60405180910390f35b34801561054757600080fd5b50610562600480360381019061055d91906137a2565b611327565b60405161056f919061463c565b60405180910390f35b34801561058457600080fd5b5061058d6115ed565b60405161059a919061463c565b60405180910390f35b3480156105af57600080fd5b506105b86115f6565b6040516105c5919061463c565b60405180910390f35b3480156105da57600080fd5b506105f560048036038101906105f09190613921565b611600565b005b34801561060357600080fd5b5061061e6004803603810190610619919061394a565b611688565b60405161062b919061463c565b60405180910390f35b34801561064057600080fd5b506106496116f6565b005b34801561065757600080fd5b50610672600480360381019061066d919061394a565b61177a565b60405161067f919061463c565b60405180910390f35b34801561069457600080fd5b506106af60048036038101906106aa91906136f7565b6117e8565b6040516106bc919061463c565b60405180910390f35b3480156106d157600080fd5b506106da611824565b6040516106e79190614179565b60405180910390f35b3480156106fc57600080fd5b5061070561184e565b60405161071291906143da565b60405180910390f35b34801561072757600080fd5b5061073061188b565b60405161073d91906142ba565b60405180910390f35b34801561075257600080fd5b5061076d600480360381019061076891906136bb565b6118af565b60405161077a919061463c565b60405180910390f35b34801561078f57600080fd5b506107aa60048036038101906107a5919061394a565b6118c3565b6040516107b7919061463c565b60405180910390f35b3480156107cc57600080fd5b506107d56118d5565b6040516107e291906143a4565b60405180910390f35b60006107f6826118f9565b9050919050565b60007f0000000000000000000000000000000000000000000000000000000000000000905090565b61082d611973565b73ffffffffffffffffffffffffffffffffffffffff1661084b611982565b73ffffffffffffffffffffffffffffffffffffffff16146108a1576040517f08c379a00000000000000000000000000000000000000000000000000000000081526004016108989061441c565b60405180910390fd5b6108aa8161198a565b50565b6060600080546108bc90614c86565b80601f01602080910402602001604051908101604052809291908181526020018280546108e890614c86565b80156109355780601f1061090a57610100808354040283529160200191610935565b820191906000526020600020905b81548152906001019060200180831161091857829003601f168201915b5050505050905090565b60008061094e868686866117e8565b90506004600781111561098a577f4e487b7100000000000000000000000000000000000000000000000000000000600052602160045260246000fd5b61099382611184565b60078111156109cb577f4e487b7100000000000000000000000000000000000000000000000000000000600052602160045260246000fd5b14610a0b576040517f08c379a0000000000000000000000000000000000000000000000000000000008152600401610a029061457c565b60405180910390fd5b6000600260009054906101000a900473ffffffffffffffffffffffffffffffffffffffff1673ffffffffffffffffffffffffffffffffffffffff16636a42b8f86040518163ffffffff1660e01b815260040160206040518083038186803b158015610a7557600080fd5b505afa158015610a89573d6000803e3d6000fd5b505050506040513d601f19601f82011682018060405250810190610aad9190613973565b42610ab89190614a07565b9050610aea610ac682611a1f565b60036000858152602001908152602001600020600001611a7690919063ffffffff16565b60005b8751811015610e5257600260009054906101000a900473ffffffffffffffffffffffffffffffffffffffff1673ffffffffffffffffffffffffffffffffffffffff1663f2b06537898381518110610b6d577f4e487b7100000000000000000000000000000000000000000000000000000000600052603260045260246000fd5b6020026020010151898481518110610bae577f4e487b7100000000000000000000000000000000000000000000000000000000600052603260045260246000fd5b6020026020010151898581518110610bef577f4e487b7100000000000000000000000000000000000000000000000000000000600052603260045260246000fd5b602002602001015186604051602001610c0b94939291906141e6565b604051602081830303815290604052805190602001206040518263ffffffff1660e01b8152600401610c3d91906142ba565b60206040518083038186803b158015610c5557600080fd5b505afa158015610c69573d6000803e3d6000fd5b505050506040513d601f19601f82011682018060405250810190610c8d9190613865565b15610ccd576040517f08c379a0000000000000000000000000000000000000000000000000000000008152600401610cc49061449c565b60405180910390fd5b600260009054906101000a900473ffffffffffffffffffffffffffffffffffffffff1673ffffffffffffffffffffffffffffffffffffffff16633a66f901898381518110610d44577f4e487b7100000000000000000000000000000000000000000000000000000000600052603260045260246000fd5b6020026020010151898481518110610d85577f4e487b7100000000000000000000000000000000000000000000000000000000600052603260045260246000fd5b6020026020010151898581518110610dc6577f4e487b7100000000000000000000000000000000000000000000000000000000600052603260045260246000fd5b6020026020010151866040518563ffffffff1660e01b8152600401610dee94939291906141e6565b602060405180830381600087803b158015610e0857600080fd5b505af1158015610e1c573d6000803e3d6000fd5b505050506040513d601f19601f82011682018060405250810190610e40919061388e565b5080610e4b90614ce9565b9050610aed565b507f9a2e42fd6722813d69113e7d0079d3d940171428df7373df9c7f7617cfda28928282604051610e84929190614707565b60405180910390a18192505050949350505050565b600080610ea8868686866117e8565b90506000610eb582611184565b905060046007811115610ef1577f4e487b7100000000000000000000000000000000000000000000000000000000600052602160045260246000fd5b816007811115610f2a577f4e487b7100000000000000000000000000000000000000000000000000000000600052602160045260246000fd5b1480610fa6575060056007811115610f6b577f4e487b7100000000000000000000000000000000000000000000000000000000600052602160045260246000fd5b816007811115610fa4577f4e487b7100000000000000000000000000000000000000000000000000000000600052602160045260246000fd5b145b610fe5576040517f08c379a0000000000000000000000000000000000000000000000000000000008152600401610fdc9061457c565b60405180910390fd5b600180600084815260200190815260200160002060020160006101000a81548160ff0219169083151502179055507f712ae1383f79ac853f8d882153778e0260ef8f03b504e2866e0593e04d2b291f82604051611042919061463c565b60405180910390a16110578288888888611aa5565b8192505050949350505050565b60006110c1600160008481526020019081526020016000206000016040518060200160405290816000820160009054906101000a900467ffffffffffffffff1667ffffffffffffffff1667ffffffffffffffff1681525050611ab9565b67ffffffffffffffff169050919050565b60007f0000000000000000000000000000000000000000000000000000000000000000905090565b60008061115b6111537f150214d74d59b7d1e90c73fc22ef3d991dd0a76b046543d4d80ab92d2a50328f898960405160200161113893929190614328565b60405160208183030381529060405280519060200120611ac7565b868686611ae1565b905061117887828860405180602001604052806000815250611b0c565b91505095945050505050565b600061118f82611cac565b9050919050565b60006005600084815260200190815260200160002060030160008373ffffffffffffffffffffffffffffffffffffffff1673ffffffffffffffffffffffffffffffffffffffff16815260200190815260200160002060009054906101000a900460ff16905092915050565b600061120f85858585611e23565b9050949350505050565b600080600080600560008681526020019081526020016000209050806000015481600101548260020154935093509350509193909250565b60606040518060400160405280600181526020017f3100000000000000000000000000000000000000000000000000000000000000815250905090565b600080611299611982565b90506112b684828560405180602001604052806000815250611b0c565b91505092915050565b6000806112ca611982565b905061131c86828787878080601f016020809104026020016040519081016040528093929190818152602001838380828437600081840152601f19601f82011690508083019250505050505050611b0c565b915050949350505050565b60008061133d86868686805190602001206117e8565b90508451865114611383576040517f08c379a000000000000000000000000000000000000000000000000000000000815260040161137a9061447c565b60405180910390fd5b83518651146113c7576040517f08c379a00000000000000000000000000000000000000000000000000000000081526004016113be9061447c565b60405180910390fd5b600086511161140b576040517f08c379a0000000000000000000000000000000000000000000000000000000008152600401611402906144fc565b60405180910390fd5b600060016000838152602001908152602001600020905061146b816000016040518060200160405290816000820160009054906101000a900467ffffffffffffffff1667ffffffffffffffff1667ffffffffffffffff1681525050611e3b565b6114aa576040517f08c379a00000000000000000000000000000000000000000000000000000000081526004016114a1906145fc565b60405180910390fd5b60006114bc6114b76110d2565b611a1f565b6114c543611a1f565b6114cf9190614a5d565b905060006114e36114de6107fd565b611a1f565b826114ee9190614a5d565b90506115068284600001611e5590919063ffffffff16565b61151c8184600101611e5590919063ffffffff16565b7f7d84a6263ae0d98d3329bd7b46bb4e8d6f98cd35a7adb45c274c8b7fd5ebd5e084611546611982565b8b8b8d5167ffffffffffffffff811115611589577f4e487b7100000000000000000000000000000000000000000000000000000000600052604160045260246000fd5b6040519080825280602002602001820160405280156115bc57816020015b60608152602001906001900390816115a75790505b508c88888e6040516115d699989796959493929190614657565b60405180910390a183945050505050949350505050565b60006064905090565b6000600454905090565b611608611973565b73ffffffffffffffffffffffffffffffffffffffff16611626611982565b73ffffffffffffffffffffffffffffffffffffffff161461167c576040517f08c379a00000000000000000000000000000000000000000000000000000000081526004016116739061441c565b60405180910390fd5b61168581611e84565b50565b60006116e5600360008481526020019081526020016000206000016040518060200160405290816000820160009054906101000a900467ffffffffffffffff1667ffffffffffffffff1667ffffffffffffffff1681525050611f23565b67ffffffffffffffff169050919050565b600260009054906101000a900473ffffffffffffffffffffffffffffffffffffffff1673ffffffffffffffffffffffffffffffffffffffff16630e18b6816040518163ffffffff1660e01b8152600401600060405180830381600087803b15801561176057600080fd5b505af1158015611774573d6000803e3d6000fd5b50505050565b60006117d7600160008481526020019081526020016000206001016040518060200160405290816000820160009054906101000a900467ffffffffffffffff1667ffffffffffffffff1667ffffffffffffffff1681525050611ab9565b67ffffffffffffffff169050919050565b6000848484846040516020016118019493929190614245565b6040516020818303038152906040528051906020012060001c9050949350505050565b6000600260009054906101000a900473ffffffffffffffffffffffffffffffffffffffff16905090565b60606040518060400160405280602081526020017f737570706f72743d627261766f2671756f72756d3d666f722c6162737461696e815250905090565b7f150214d74d59b7d1e90c73fc22ef3d991dd0a76b046543d4d80ab92d2a50328f81565b60006118bb8383611f31565b905092915050565b60006118ce82611fe6565b9050919050565b7f000000000000000000000000000000000000000000000000000000000000000081565b60007f6e665ced000000000000000000000000000000000000000000000000000000007bffffffffffffffffffffffffffffffffffffffffffffffffffffffff1916827bffffffffffffffffffffffffffffffffffffffffffffffffffffffff1916148061196c575061196b826120bc565b5b9050919050565b600061197d612136565b905090565b600033905090565b6119926115ed565b8111156119d4576040517f08c379a00000000000000000000000000000000000000000000000000000000081526004016119cb9061443c565b60405180910390fd5b60006004549050816004819055507f0553476bf02ef2726e8ce5ced78d63e26e602e4a2257b1f559418e24b46339978183604051611a13929190614707565b60405180910390a15050565b600067ffffffffffffffff8016821115611a6e576040517f08c379a0000000000000000000000000000000000000000000000000000000008152600401611a659061453c565b60405180910390fd5b819050919050565b808260000160006101000a81548167ffffffffffffffff021916908367ffffffffffffffff1602179055505050565b611ab28585858585612160565b5050505050565b600081600001519050919050565b6000611ada611ad4612390565b83612453565b9050919050565b6000806000611af287878787612486565b91509150611aff81612593565b8192505050949350505050565b60008060016000878152602001908152602001600020905060016007811115611b5e577f4e487b7100000000000000000000000000000000000000000000000000000000600052602160045260246000fd5b611b6787611184565b6007811115611b9f577f4e487b7100000000000000000000000000000000000000000000000000000000600052602160045260246000fd5b14611bdf576040517f08c379a0000000000000000000000000000000000000000000000000000000008152600401611bd6906144dc565b60405180910390fd5b6000611c3d86611c2e846000016040518060200160405290816000820160009054906101000a900467ffffffffffffffff1667ffffffffffffffff1667ffffffffffffffff1681525050611ab9565b67ffffffffffffffff166118af565b9050611c4b878787846128e4565b8573ffffffffffffffffffffffffffffffffffffffff167fb8e138887d0aa13bab447e82de9d5c1777041ecd21ca36ba824ff1e6c07ddda488878488604051611c979493929190614767565b60405180910390a28092505050949350505050565b600080611cb883612b5c565b905060046007811115611cf4577f4e487b7100000000000000000000000000000000000000000000000000000000600052602160045260246000fd5b816007811115611d2d577f4e487b7100000000000000000000000000000000000000000000000000000000600052602160045260246000fd5b14611d3b5780915050611e1e565b6000611d4684611688565b90506000811415611d5b578192505050611e1e565b600260009054906101000a900473ffffffffffffffffffffffffffffffffffffffff1673ffffffffffffffffffffffffffffffffffffffff1663c1a287e26040518163ffffffff1660e01b815260040160206040518083038186803b158015611dc357600080fd5b505afa158015611dd7573d6000803e3d6000fd5b505050506040513d601f19601f82011682018060405250810190611dfb9190613973565b81611e069190614a07565b4210611e1757600692505050611e1e565b6005925050505b919050565b6000611e3185858585612d23565b9050949350505050565b600080826000015167ffffffffffffffff16149050919050565b808260000160006101000a81548167ffffffffffffffff021916908367ffffffffffffffff1602179055505050565b7f08f74ea46ef7894f65eabfb5e6e695de773a000b47c529ab559178069b226401600260009054906101000a900473ffffffffffffffffffffffffffffffffffffffff1682604051611ed7929190614194565b60405180910390a180600260006101000a81548173ffffffffffffffffffffffffffffffffffffffff021916908373ffffffffffffffffffffffffffffffffffffffff16021790555050565b600081600001519050919050565b60007f000000000000000000000000000000000000000000000000000000000000000073ffffffffffffffffffffffffffffffffffffffff16633a46b1a884846040518363ffffffff1660e01b8152600401611f8e9291906141bd565b60206040518083038186803b158015611fa657600080fd5b505afa158015611fba573d6000803e3d6000fd5b505050506040513d601f19601f82011682018060405250810190611fde9190613973565b905092915050565b6000611ff06115ed565b611ff86115f6565b7f000000000000000000000000000000000000000000000000000000000000000073ffffffffffffffffffffffffffffffffffffffff16638e539e8c856040518263ffffffff1660e01b8152600401612051919061463c565b60206040518083038186803b15801561206957600080fd5b505afa15801561207d573d6000803e3d6000fd5b505050506040513d601f19601f820116820180604052508101906120a19190613973565b6120ab9190614acc565b6120b59190614a9b565b9050919050565b60007fbf26d897000000000000000000000000000000000000000000000000000000007bffffffffffffffffffffffffffffffffffffffffffffffffffffffff1916827bffffffffffffffffffffffffffffffffffffffffffffffffffffffff1916148061212f575061212e82612ee7565b5b9050919050565b6000600260009054906101000a900473ffffffffffffffffffffffffffffffffffffffff16905090565b600061216b86611688565b9050600081116121b0576040517f08c379a00000000000000000000000000000000000000000000000000000000081526004016121a79061459c565b60405180910390fd5b60005b855181101561238757600260009054906101000a900473ffffffffffffffffffffffffffffffffffffffff1673ffffffffffffffffffffffffffffffffffffffff16630825f38f868381518110612233577f4e487b7100000000000000000000000000000000000000000000000000000000600052603260045260246000fd5b6020026020010151888481518110612274577f4e487b7100000000000000000000000000000000000000000000000000000000600052603260045260246000fd5b60200260200101518885815181106122b5577f4e487b7100000000000000000000000000000000000000000000000000000000600052603260045260246000fd5b60200260200101518886815181106122f6577f4e487b7100000000000000000000000000000000000000000000000000000000600052603260045260246000fd5b6020026020010151876040518663ffffffff1660e01b815260040161231e94939291906141e6565b6000604051808303818588803b15801561233757600080fd5b505af115801561234b573d6000803e3d6000fd5b50505050506040513d6000823e3d601f19601f8201168201806040525081019061237591906138e0565b508061238090614ce9565b90506121b3565b50505050505050565b60007f00000000000000000000000000000000000000000000000000000000000000004614156123e2577f00000000000000000000000000000000000000000000000000000000000000009050612450565b61244d7f00000000000000000000000000000000000000000000000000000000000000007f00000000000000000000000000000000000000000000000000000000000000007f0000000000000000000000000000000000000000000000000000000000000000612f51565b90505b90565b60008282604051602001612468929190614142565b60405160208183030381529060405280519060200120905092915050565b6000807f7fffffffffffffffffffffffffffffff5d576e7357a4501ddfe92f46681b20a08360001c11156124c157600060039150915061258a565b601b8560ff16141580156124d95750601c8560ff1614155b156124eb57600060049150915061258a565b600060018787878760405160008152602001604052604051612510949392919061435f565b6020604051602081039080840390855afa158015612532573d6000803e3d6000fd5b505050602060405103519050600073ffffffffffffffffffffffffffffffffffffffff168173ffffffffffffffffffffffffffffffffffffffff1614156125815760006001925092505061258a565b80600092509250505b94509492505050565b600060048111156125cd577f4e487b7100000000000000000000000000000000000000000000000000000000600052602160045260246000fd5b816004811115612606577f4e487b7100000000000000000000000000000000000000000000000000000000600052602160045260246000fd5b1415612611576128e1565b6001600481111561264b577f4e487b7100000000000000000000000000000000000000000000000000000000600052602160045260246000fd5b816004811115612684577f4e487b7100000000000000000000000000000000000000000000000000000000600052602160045260246000fd5b14156126c5576040517f08c379a00000000000000000000000000000000000000000000000000000000081526004016126bc906143fc565b60405180910390fd5b600260048111156126ff577f4e487b7100000000000000000000000000000000000000000000000000000000600052602160045260246000fd5b816004811115612738577f4e487b7100000000000000000000000000000000000000000000000000000000600052602160045260246000fd5b1415612779576040517f08c379a00000000000000000000000000000000000000000000000000000000081526004016127709061445c565b60405180910390fd5b600360048111156127b3577f4e487b7100000000000000000000000000000000000000000000000000000000600052602160045260246000fd5b8160048111156127ec577f4e487b7100000000000000000000000000000000000000000000000000000000600052602160045260246000fd5b141561282d576040517f08c379a0000000000000000000000000000000000000000000000000000000008152600401612824906144bc565b60405180910390fd5b600480811115612866577f4e487b7100000000000000000000000000000000000000000000000000000000600052602160045260246000fd5b81600481111561289f577f4e487b7100000000000000000000000000000000000000000000000000000000600052602160045260246000fd5b14156128e0576040517f08c379a00000000000000000000000000000000000000000000000000000000081526004016128d79061451c565b60405180910390fd5b5b50565b60006005600086815260200190815260200160002090508060030160008573ffffffffffffffffffffffffffffffffffffffff1673ffffffffffffffffffffffffffffffffffffffff16815260200190815260200160002060009054906101000a900460ff161561298a576040517f08c379a00000000000000000000000000000000000000000000000000000000081526004016129819061461c565b60405180910390fd5b60018160030160008673ffffffffffffffffffffffffffffffffffffffff1673ffffffffffffffffffffffffffffffffffffffff16815260200190815260200160002060006101000a81548160ff02191690831515021790555060006002811115612a1e577f4e487b7100000000000000000000000000000000000000000000000000000000600052602160045260246000fd5b60ff168360ff161415612a4b5781816000016000828254612a3f9190614a07565b92505081905550612b55565b60016002811115612a85577f4e487b7100000000000000000000000000000000000000000000000000000000600052602160045260246000fd5b60ff168360ff161415612ab25781816001016000828254612aa69190614a07565b92505081905550612b54565b600280811115612aeb577f4e487b7100000000000000000000000000000000000000000000000000000000600052602160045260246000fd5b60ff168360ff161415612b185781816002016000828254612b0c9190614a07565b92505081905550612b53565b6040517f08c379a0000000000000000000000000000000000000000000000000000000008152600401612b4a906145dc565b60405180910390fd5b5b5b5050505050565b60008060016000848152602001908152602001600020604051806080016040529081600082016040518060200160405290816000820160009054906101000a900467ffffffffffffffff1667ffffffffffffffff1667ffffffffffffffff16815250508152602001600182016040518060200160405290816000820160009054906101000a900467ffffffffffffffff1667ffffffffffffffff1667ffffffffffffffff168152505081526020016002820160009054906101000a900460ff161515151581526020016002820160019054906101000a900460ff1615151515815250509050806040015115612c55576007915050612d1e565b806060015115612c69576002915050612d1e565b612c768160000151612f8b565b15612c85576000915050612d1e565b612c928160200151612f8b565b15612ca1576001915050612d1e565b612cae8160200151612fa5565b15612ce357612cbc83612fd1565b8015612ccd5750612ccc83613018565b5b612cd8576003612cdb565b60045b915050612d1e565b6040517f08c379a0000000000000000000000000000000000000000000000000000000008152600401612d15906145bc565b60405180910390fd5b919050565b600080612d3286868686613043565b90506000612d3f82611688565b90506000811115612eda5760005b8751811015612eba57600260009054906101000a900473ffffffffffffffffffffffffffffffffffffffff1673ffffffffffffffffffffffffffffffffffffffff1663591fcdfe898381518110612dcd577f4e487b7100000000000000000000000000000000000000000000000000000000600052603260045260246000fd5b6020026020010151898481518110612e0e577f4e487b7100000000000000000000000000000000000000000000000000000000600052603260045260246000fd5b6020026020010151898581518110612e4f577f4e487b7100000000000000000000000000000000000000000000000000000000600052603260045260246000fd5b6020026020010151866040518563ffffffff1660e01b8152600401612e7794939291906141e6565b600060405180830381600087803b158015612e9157600080fd5b505af1158015612ea5573d6000803e3d6000fd5b5050505080612eb390614ce9565b9050612d4d565b50612ed960036000848152602001908152602001600020600001613280565b5b8192505050949350505050565b60007f01ffc9a7000000000000000000000000000000000000000000000000000000007bffffffffffffffffffffffffffffffffffffffffffffffffffffffff1916827bffffffffffffffffffffffffffffffffffffffffffffffffffffffff1916149050919050565b60008383834630604051602001612f6c9594939291906142d5565b6040516020818303038152906040528051906020012090509392505050565b600043826000015167ffffffffffffffff16119050919050565b6000612fb0826132af565b8015612fca575043826000015167ffffffffffffffff1611155b9050919050565b60008060056000848152602001908152602001600020905080600201548160010154612ffd9190614a07565b61300e61300985611064565b6118c3565b1115915050919050565b6000806005600084815260200190815260200160002090508060000154816001015411915050919050565b600080613052868686866117e8565b9050600061305f82611184565b90506002600781111561309b577f4e487b7100000000000000000000000000000000000000000000000000000000600052602160045260246000fd5b8160078111156130d4577f4e487b7100000000000000000000000000000000000000000000000000000000600052602160045260246000fd5b14158015613153575060066007811115613117577f4e487b7100000000000000000000000000000000000000000000000000000000600052602160045260246000fd5b816007811115613150577f4e487b7100000000000000000000000000000000000000000000000000000000600052602160045260246000fd5b14155b80156131cf5750600780811115613193577f4e487b7100000000000000000000000000000000000000000000000000000000600052602160045260246000fd5b8160078111156131cc577f4e487b7100000000000000000000000000000000000000000000000000000000600052602160045260246000fd5b14155b61320e576040517f08c379a00000000000000000000000000000000000000000000000000000000081526004016132059061455c565b60405180910390fd5b600180600084815260200190815260200160002060020160016101000a81548160ff0219169083151502179055507f789cf55be980739dad1d0699b93b58e806b51c9d96619bfa8fe0a28abaa7b30c8260405161326b919061463c565b60405180910390a18192505050949350505050565b60008160000160006101000a81548167ffffffffffffffff021916908367ffffffffffffffff16021790555050565b600080826000015167ffffffffffffffff16119050919050565b60006132dc6132d7846147d8565b6147b3565b905080838252602082019050828560208602820111156132fb57600080fd5b60005b8581101561332b578161331188826134b8565b8452602084019350602083019250506001810190506132fe565b5050509392505050565b600061334861334384614804565b6147b3565b9050808382526020820190508260005b85811015613388578135850161336e888261359f565b845260208401935060208301925050600181019050613358565b5050509392505050565b60006133a56133a084614830565b6147b3565b905080838252602082019050828560208602820111156133c457600080fd5b60005b858110156133f457816133da888261367c565b8452602084019350602083019250506001810190506133c7565b5050509392505050565b600061341161340c8461485c565b6147b3565b90508281526020810184848401111561342957600080fd5b613434848285614c44565b509392505050565b600061344f61344a8461485c565b6147b3565b90508281526020810184848401111561346757600080fd5b613472848285614c53565b509392505050565b600061348d6134888461488d565b6147b3565b9050828152602081018484840111156134a557600080fd5b6134b0848285614c44565b509392505050565b6000813590506134c78161536e565b92915050565b600082601f8301126134de57600080fd5b81356134ee8482602086016132c9565b91505092915050565b600082601f83011261350857600080fd5b8135613518848260208601613335565b91505092915050565b600082601f83011261353257600080fd5b8135613542848260208601613392565b91505092915050565b60008151905061355a81615385565b92915050565b60008135905061356f8161539c565b92915050565b6000815190506135848161539c565b92915050565b600081359050613599816153b3565b92915050565b600082601f8301126135b057600080fd5b81356135c08482602086016133fe565b91505092915050565b600082601f8301126135da57600080fd5b81516135ea84826020860161343c565b91505092915050565b600081359050613602816153ca565b92915050565b60008083601f84011261361a57600080fd5b8235905067ffffffffffffffff81111561363357600080fd5b60208301915083600182028301111561364b57600080fd5b9250929050565b600082601f83011261366357600080fd5b813561367384826020860161347a565b91505092915050565b60008135905061368b816153e1565b92915050565b6000815190506136a0816153e1565b92915050565b6000813590506136b5816153f8565b92915050565b600080604083850312156136ce57600080fd5b60006136dc858286016134b8565b92505060206136ed8582860161367c565b9150509250929050565b6000806000806080858703121561370d57600080fd5b600085013567ffffffffffffffff81111561372757600080fd5b613733878288016134cd565b945050602085013567ffffffffffffffff81111561375057600080fd5b61375c87828801613521565b935050604085013567ffffffffffffffff81111561377957600080fd5b613785878288016134f7565b925050606061379687828801613560565b91505092959194509250565b600080600080608085870312156137b857600080fd5b600085013567ffffffffffffffff8111156137d257600080fd5b6137de878288016134cd565b945050602085013567ffffffffffffffff8111156137fb57600080fd5b61380787828801613521565b935050604085013567ffffffffffffffff81111561382457600080fd5b613830878288016134f7565b925050606085013567ffffffffffffffff81111561384d57600080fd5b61385987828801613652565b91505092959194509250565b60006020828403121561387757600080fd5b60006138858482850161354b565b91505092915050565b6000602082840312156138a057600080fd5b60006138ae84828501613575565b91505092915050565b6000602082840312156138c957600080fd5b60006138d78482850161358a565b91505092915050565b6000602082840312156138f257600080fd5b600082015167ffffffffffffffff81111561390c57600080fd5b613918848285016135c9565b91505092915050565b60006020828403121561393357600080fd5b6000613941848285016135f3565b91505092915050565b60006020828403121561395c57600080fd5b600061396a8482850161367c565b91505092915050565b60006020828403121561398557600080fd5b600061399384828501613691565b91505092915050565b600080604083850312156139af57600080fd5b60006139bd8582860161367c565b92505060206139ce858286016134b8565b9150509250929050565b600080604083850312156139eb57600080fd5b60006139f98582860161367c565b9250506020613a0a858286016136a6565b9150509250929050565b60008060008060608587031215613a2a57600080fd5b6000613a388782880161367c565b9450506020613a49878288016136a6565b935050604085013567ffffffffffffffff811115613a6657600080fd5b613a7287828801613608565b925092505092959194509250565b600080600080600060a08688031215613a9857600080fd5b6000613aa68882890161367c565b9550506020613ab7888289016136a6565b9450506040613ac8888289016136a6565b9350506060613ad988828901613560565b9250506080613aea88828901613560565b9150509295509295909350565b6000613b038383613b4f565b60208301905092915050565b6000613b1b8383613d48565b905092915050565b6000613b2f8383613dd8565b905092915050565b6000613b438383614106565b60208301905092915050565b613b5881614b26565b82525050565b613b6781614b26565b82525050565b6000613b78826148fe565b613b828185614974565b9350613b8d836148be565b8060005b83811015613bbe578151613ba58882613af7565b9750613bb083614940565b925050600181019050613b91565b5085935050505092915050565b6000613bd682614909565b613be08185614985565b935083602082028501613bf2856148ce565b8060005b85811015613c2e5784840389528151613c0f8582613b0f565b9450613c1a8361494d565b925060208a01995050600181019050613bf6565b50829750879550505050505092915050565b6000613c4b82614914565b613c558185614996565b935083602082028501613c67856148de565b8060005b85811015613ca35784840389528151613c848582613b23565b9450613c8f8361495a565b925060208a01995050600181019050613c6b565b50829750879550505050505092915050565b6000613cc08261491f565b613cca81856149a7565b9350613cd5836148ee565b8060005b83811015613d06578151613ced8882613b37565b9750613cf883614967565b925050600181019050613cd9565b5085935050505092915050565b613d1c81614b4a565b82525050565b613d2b81614b56565b82525050565b613d42613d3d82614b56565b614d32565b82525050565b6000613d538261492a565b613d5d81856149b8565b9350613d6d818560208601614c53565b613d7681614e27565b840191505092915050565b6000613d8c8261492a565b613d9681856149c9565b9350613da6818560208601614c53565b613daf81614e27565b840191505092915050565b613dc381614bfc565b82525050565b613dd281614c20565b82525050565b6000613de382614935565b613ded81856149da565b9350613dfd818560208601614c53565b613e0681614e27565b840191505092915050565b6000613e1c82614935565b613e2681856149eb565b9350613e36818560208601614c53565b613e3f81614e27565b840191505092915050565b6000613e576018836149eb565b9150613e6282614e38565b602082019050919050565b6000613e7a6018836149eb565b9150613e8582614e61565b602082019050919050565b6000613e9d6043836149eb565b9150613ea882614e8a565b606082019050919050565b6000613ec0601f836149eb565b9150613ecb82614eff565b602082019050919050565b6000613ee36002836149fc565b9150613eee82614f28565b600282019050919050565b6000613f066021836149eb565b9150613f1182614f51565b604082019050919050565b6000613f296042836149eb565b9150613f3482614fa0565b606082019050919050565b6000613f4c6022836149eb565b9150613f5782615015565b604082019050919050565b6000613f6f6023836149eb565b9150613f7a82615064565b604082019050919050565b6000613f926018836149eb565b9150613f9d826150b3565b602082019050919050565b6000613fb56022836149eb565b9150613fc0826150dc565b604082019050919050565b6000613fd86026836149eb565b9150613fe38261512b565b604082019050919050565b6000613ffb601d836149eb565b91506140068261517a565b602082019050919050565b600061401e6021836149eb565b9150614029826151a3565b604082019050919050565b60006140416031836149eb565b915061404c826151f2565b604082019050919050565b6000614064601d836149eb565b915061406f82615241565b602082019050919050565b60006140876035836149eb565b91506140928261526a565b604082019050919050565b60006140aa6021836149eb565b91506140b5826152b9565b604082019050919050565b60006140cd6000836149eb565b91506140d882615308565b600082019050919050565b60006140f06029836149eb565b91506140fb8261530b565b604082019050919050565b61410f81614bd1565b82525050565b61411e81614bd1565b82525050565b61412d81614c32565b82525050565b61413c81614bef565b82525050565b600061414d82613ed6565b91506141598285613d31565b6020820191506141698284613d31565b6020820191508190509392505050565b600060208201905061418e6000830184613b5e565b92915050565b60006040820190506141a96000830185613b5e565b6141b66020830184613b5e565b9392505050565b60006040820190506141d26000830185613b5e565b6141df6020830184614115565b9392505050565b600060a0820190506141fb6000830187613b5e565b6142086020830186614115565b8181036040830152614219816140c0565b9050818103606083015261422d8185613d81565b905061423c6080830184614115565b95945050505050565b6000608082019050818103600083015261425f8187613b6d565b905081810360208301526142738186613cb5565b905081810360408301526142878185613bcb565b90506142966060830184613d22565b95945050505050565b60006020820190506142b46000830184613d13565b92915050565b60006020820190506142cf6000830184613d22565b92915050565b600060a0820190506142ea6000830188613d22565b6142f76020830187613d22565b6143046040830186613d22565b6143116060830185614115565b61431e6080830184613b5e565b9695505050505050565b600060608201905061433d6000830186613d22565b61434a6020830185614115565b6143576040830184614133565b949350505050565b60006080820190506143746000830187613d22565b6143816020830186614133565b61438e6040830185613d22565b61439b6060830184613d22565b95945050505050565b60006020820190506143b96000830184613dba565b92915050565b60006020820190506143d46000830184613dc9565b92915050565b600060208201905081810360008301526143f48184613e11565b905092915050565b6000602082019050818103600083015261441581613e4a565b9050919050565b6000602082019050818103600083015261443581613e6d565b9050919050565b6000602082019050818103600083015261445581613e90565b9050919050565b6000602082019050818103600083015261447581613eb3565b9050919050565b6000602082019050818103600083015261449581613ef9565b9050919050565b600060208201905081810360008301526144b581613f1c565b9050919050565b600060208201905081810360008301526144d581613f3f565b9050919050565b600060208201905081810360008301526144f581613f62565b9050919050565b6000602082019050818103600083015261451581613f85565b9050919050565b6000602082019050818103600083015261453581613fa8565b9050919050565b6000602082019050818103600083015261455581613fcb565b9050919050565b6000602082019050818103600083015261457581613fee565b9050919050565b6000602082019050818103600083015261459581614011565b9050919050565b600060208201905081810360008301526145b581614034565b9050919050565b600060208201905081810360008301526145d581614057565b9050919050565b600060208201905081810360008301526145f58161407a565b9050919050565b600060208201905081810360008301526146158161409d565b9050919050565b60006020820190508181036000830152614635816140e3565b9050919050565b60006020820190506146516000830184614115565b92915050565b60006101208201905061466d600083018c614115565b61467a602083018b613b5e565b818103604083015261468c818a613b6d565b905081810360608301526146a08189613cb5565b905081810360808301526146b48188613c40565b905081810360a08301526146c88187613bcb565b90506146d760c0830186614124565b6146e460e0830185614124565b8181036101008301526146f78184613e11565b90509a9950505050505050505050565b600060408201905061471c6000830185614115565b6147296020830184614115565b9392505050565b60006060820190506147456000830186614115565b6147526020830185614115565b61475f6040830184614115565b949350505050565b600060808201905061477c6000830187614115565b6147896020830186614133565b6147966040830185614115565b81810360608301526147a88184613e11565b905095945050505050565b60006147bd6147ce565b90506147c98282614cb8565b919050565b6000604051905090565b600067ffffffffffffffff8211156147f3576147f2614df8565b5b602082029050602081019050919050565b600067ffffffffffffffff82111561481f5761481e614df8565b5b602082029050602081019050919050565b600067ffffffffffffffff82111561484b5761484a614df8565b5b602082029050602081019050919050565b600067ffffffffffffffff82111561487757614876614df8565b5b61488082614e27565b9050602081019050919050565b600067ffffffffffffffff8211156148a8576148a7614df8565b5b6148b182614e27565b9050602081019050919050565b6000819050602082019050919050565b6000819050602082019050919050565b6000819050602082019050919050565b6000819050602082019050919050565b600081519050919050565b600081519050919050565b600081519050919050565b600081519050919050565b600081519050919050565b600081519050919050565b6000602082019050919050565b6000602082019050919050565b6000602082019050919050565b6000602082019050919050565b600082825260208201905092915050565b600082825260208201905092915050565b600082825260208201905092915050565b600082825260208201905092915050565b600082825260208201905092915050565b600082825260208201905092915050565b600082825260208201905092915050565b600082825260208201905092915050565b600081905092915050565b6000614a1282614bd1565b9150614a1d83614bd1565b9250827fffffffffffffffffffffffffffffffffffffffffffffffffffffffffffffffff03821115614a5257614a51614d3c565b5b828201905092915050565b6000614a6882614bdb565b9150614a7383614bdb565b92508267ffffffffffffffff03821115614a9057614a8f614d3c565b5b828201905092915050565b6000614aa682614bd1565b9150614ab183614bd1565b925082614ac157614ac0614d6b565b5b828204905092915050565b6000614ad782614bd1565b9150614ae283614bd1565b9250817fffffffffffffffffffffffffffffffffffffffffffffffffffffffffffffffff0483118215151615614b1b57614b1a614d3c565b5b828202905092915050565b6000614b3182614bb1565b9050919050565b6000614b4382614bb1565b9050919050565b60008115159050919050565b6000819050919050565b60007fffffffff0000000000000000000000000000000000000000000000000000000082169050919050565b6000614b9782614b38565b9050919050565b6000819050614bac8261535a565b919050565b600073ffffffffffffffffffffffffffffffffffffffff82169050919050565b6000819050919050565b600067ffffffffffffffff82169050919050565b600060ff82169050919050565b6000614c0782614c0e565b9050919050565b6000614c1982614bb1565b9050919050565b6000614c2b82614b9e565b9050919050565b6000614c3d82614bdb565b9050919050565b82818337600083830152505050565b60005b83811015614c71578082015181840152602081019050614c56565b83811115614c80576000848401525b50505050565b60006002820490506001821680614c9e57607f821691505b60208210811415614cb257614cb1614dc9565b5b50919050565b614cc182614e27565b810181811067ffffffffffffffff82111715614ce057614cdf614df8565b5b80604052505050565b6000614cf482614bd1565b91507fffffffffffffffffffffffffffffffffffffffffffffffffffffffffffffffff821415614d2757614d26614d3c565b5b600182019050919050565b6000819050919050565b7f4e487b7100000000000000000000000000000000000000000000000000000000600052601160045260246000fd5b7f4e487b7100000000000000000000000000000000000000000000000000000000600052601260045260246000fd5b7f4e487b7100000000000000000000000000000000000000000000000000000000600052602160045260246000fd5b7f4e487b7100000000000000000000000000000000000000000000000000000000600052602260045260246000fd5b7f4e487b7100000000000000000000000000000000000000000000000000000000600052604160045260246000fd5b6000601f19601f8301169050919050565b7f45434453413a20696e76616c6964207369676e61747572650000000000000000600082015250565b7f476f7665726e6f723a206f6e6c79476f7665726e616e63650000000000000000600082015250565b7f476f7665726e6f72566f74657351756f72756d4672616374696f6e3a2071756f60008201527f72756d4e756d657261746f72206f7665722071756f72756d44656e6f6d696e6160208201527f746f720000000000000000000000000000000000000000000000000000000000604082015250565b7f45434453413a20696e76616c6964207369676e6174757265206c656e67746800600082015250565b7f1901000000000000000000000000000000000000000000000000000000000000600082015250565b7f476f7665726e6f723a20696e76616c69642070726f706f73616c206c656e677460008201527f6800000000000000000000000000000000000000000000000000000000000000602082015250565b7f476f7665726e6f7254696d656c6f636b436f6d706f756e643a206964656e746960008201527f63616c2070726f706f73616c20616374696f6e20616c7265616479207175657560208201527f6564000000000000000000000000000000000000000000000000000000000000604082015250565b7f45434453413a20696e76616c6964207369676e6174757265202773272076616c60008201527f7565000000000000000000000000000000000000000000000000000000000000602082015250565b7f476f7665726e6f723a20766f7465206e6f742063757272656e746c792061637460008201527f6976650000000000000000000000000000000000000000000000000000000000602082015250565b7f476f7665726e6f723a20656d7074792070726f706f73616c0000000000000000600082015250565b7f45434453413a20696e76616c6964207369676e6174757265202776272076616c60008201527f7565000000000000000000000000000000000000000000000000000000000000602082015250565b7f53616665436173743a2076616c756520646f65736e27742066697420696e203660008201527f3420626974730000000000000000000000000000000000000000000000000000602082015250565b7f476f7665726e6f723a2070726f706f73616c206e6f7420616374697665000000600082015250565b7f476f7665726e6f723a2070726f706f73616c206e6f742073756363657373667560008201527f6c00000000000000000000000000000000000000000000000000000000000000602082015250565b7f476f7665726e6f7254696d656c6f636b436f6d706f756e643a2070726f706f7360008201527f616c206e6f742079657420717565756564000000000000000000000000000000602082015250565b7f476f7665726e6f723a20756e6b6e6f776e2070726f706f73616c206964000000600082015250565b7f476f7665726e6f72566f74696e6753696d706c653a20696e76616c696420766160008201527f6c756520666f7220656e756d20566f7465547970650000000000000000000000602082015250565b7f476f7665726e6f723a2070726f706f73616c20616c726561647920657869737460008201527f7300000000000000000000000000000000000000000000000000000000000000602082015250565b50565b7f476f7665726e6f72566f74696e6753696d706c653a20766f746520616c72656160008201527f6479206361737465640000000000000000000000000000000000000000000000602082015250565b6008811061536b5761536a614d9a565b5b50565b61537781614b26565b811461538257600080fd5b50565b61538e81614b4a565b811461539957600080fd5b50565b6153a581614b56565b81146153b057600080fd5b50565b6153bc81614b60565b81146153c757600080fd5b50565b6153d381614b8c565b81146153de57600080fd5b50565b6153ea81614bd1565b81146153f557600080fd5b50565b61540181614bef565b811461540c57600080fd5b5056fea26469706673582212204c5de85cc774a9a61cc8254d9563a20181104e1e65287755188db1fe1aa580ff64736f6c63430008020033",
  "immutableReferences": {
    "5743": [
      {
        "length": 32,
        "start": 6359
      },
      {
        "length": 32,
        "start": 7989
      },
      {
        "length": 32,
        "start": 8186
      }
    ],
    "11030": [
      {
        "length": 32,
        "start": 4310
      }
    ],
    "11032": [
      {
        "length": 32,
        "start": 2049
      }
    ],
    "24966": [
      {
        "length": 32,
        "start": 9148
      }
    ],
    "24968": [
      {
        "length": 32,
        "start": 9108
      }
    ],
    "24970": [
      {
        "length": 32,
        "start": 9224
      }
    ],
    "24972": [
      {
        "length": 32,
        "start": 9257
      }
    ],
    "24974": [
      {
        "length": 32,
        "start": 9191
      }
    ]
  },
  "source": "// SPDX-License-Identifier: MIT\n\npragma solidity ^0.8.0;\n\nimport \"../governance/extensions/GovernorTimelockCompound.sol\";\nimport \"../governance/extensions/GovernorCountingSimple.sol\";\nimport \"../governance/extensions/GovernorVotesQuorumFraction.sol\";\n\ncontract GovernorTimelockCompoundMock is GovernorTimelockCompound, GovernorVotesQuorumFraction, GovernorCountingSimple {\n    uint256 immutable _votingDelay;\n    uint256 immutable _votingPeriod;\n\n    constructor(\n        string memory name_,\n        ERC20Votes token_,\n        uint256 votingDelay_,\n        uint256 votingPeriod_,\n        ICompoundTimelock timelock_,\n        uint256 quorumNumerator_\n    )\n        Governor(name_)\n        GovernorTimelockCompound(timelock_)\n        GovernorVotes(token_)\n        GovernorVotesQuorumFraction(quorumNumerator_)\n    {\n        _votingDelay = votingDelay_;\n        _votingPeriod = votingPeriod_;\n    }\n\n    function supportsInterface(bytes4 interfaceId)\n        public\n        view\n        virtual\n        override(Governor, GovernorTimelockCompound)\n        returns (bool)\n    {\n        return super.supportsInterface(interfaceId);\n    }\n\n    function votingDelay() public view override returns (uint256) {\n        return _votingDelay;\n    }\n\n    function votingPeriod() public view override returns (uint256) {\n        return _votingPeriod;\n    }\n\n    function quorum(uint256 blockNumber)\n        public\n        view\n        override(IGovernor, GovernorVotesQuorumFraction)\n        returns (uint256)\n    {\n        return super.quorum(blockNumber);\n    }\n\n    function cancel(\n        address[] memory targets,\n        uint256[] memory values,\n        bytes[] memory calldatas,\n        bytes32 salt\n    ) public returns (uint256 proposalId) {\n        return _cancel(targets, values, calldatas, salt);\n    }\n\n    /**\n     * Overriding nightmare\n     */\n    function state(uint256 proposalId)\n        public\n        view\n        virtual\n        override(Governor, GovernorTimelockCompound)\n        returns (ProposalState)\n    {\n        return super.state(proposalId);\n    }\n\n    function _execute(\n        uint256 proposalId,\n        address[] memory targets,\n        uint256[] memory values,\n        bytes[] memory calldatas,\n        bytes32 descriptionHash\n    ) internal virtual override(Governor, GovernorTimelockCompound) {\n        super._execute(proposalId, targets, values, calldatas, descriptionHash);\n    }\n\n    function _cancel(\n        address[] memory targets,\n        uint256[] memory values,\n        bytes[] memory calldatas,\n        bytes32 salt\n    ) internal virtual override(Governor, GovernorTimelockCompound) returns (uint256 proposalId) {\n        return super._cancel(targets, values, calldatas, salt);\n    }\n\n    function getVotes(address account, uint256 blockNumber)\n        public\n        view\n        virtual\n        override(IGovernor, GovernorVotes)\n        returns (uint256)\n    {\n        return super.getVotes(account, blockNumber);\n    }\n\n    function _executor() internal view virtual override(Governor, GovernorTimelockCompound) returns (address) {\n        return super._executor();\n    }\n}\n",
  "sourcePath": "/home/sushant/Documents/blockchain_work/EatTheBlock/ecomapp2/contracts/openzeppelin/contracts/mocks/GovernorTimelockCompoundMock.sol",
  "compiler": {
    "name": "solc",
    "version": "0.8.2+commit.661d1103.Emscripten.clang"
  },
  "schemaVersion": "3.4.2",
  "updatedAt": "2021-08-09T18:32:24.516Z",
  "devdoc": {
    "kind": "dev",
    "methods": {
      "COUNTING_MODE()": {
        "details": "See {IGovernor-COUNTING_MODE}."
      },
      "__acceptAdmin()": {
        "details": "Accept admin right over the timelock."
      },
      "castVote(uint256,uint8)": {
        "details": "See {IGovernor-castVote}."
      },
      "castVoteBySig(uint256,uint8,uint8,bytes32,bytes32)": {
        "details": "See {IGovernor-castVoteBySig}."
      },
      "castVoteWithReason(uint256,uint8,string)": {
        "details": "See {IGovernor-castVoteWithReason}."
      },
      "execute(address[],uint256[],bytes[],bytes32)": {
        "details": "See {IGovernor-execute}."
      },
      "hasVoted(uint256,address)": {
        "details": "See {IGovernor-hasVoted}."
      },
      "hashProposal(address[],uint256[],bytes[],bytes32)": {
        "details": "See {IGovernor-hashProposal}. The proposal id is produced by hashing the RLC encoded `targets` array, the `values` array, the `calldatas` array and the descriptionHash (bytes32 which itself is the keccak256 hash of the description string). This proposal id can be produced from the proposal data which is part of the {ProposalCreated} event. It can even be computed in advance, before the proposal is submitted. Note that the chainId and the governor address are not part of the proposal id computation. Consequently, the same proposal (with same operation and same description) will have the same id if submitted on multiple governors accross multiple networks. This also means that in order to execute the same operation twice (on the same governor) the proposer will have to change the description in order to avoid proposal id conflicts."
      },
      "name()": {
        "details": "See {IGovernor-name}."
      },
      "proposalDeadline(uint256)": {
        "details": "See {IGovernor-proposalDeadline}."
      },
      "proposalEta(uint256)": {
        "details": "Public accessor to check the eta of a queued proposal"
      },
      "proposalSnapshot(uint256)": {
        "details": "See {IGovernor-proposalSnapshot}."
      },
      "proposalVotes(uint256)": {
        "details": "Accessor to the internal vote counts."
      },
      "propose(address[],uint256[],bytes[],string)": {
        "details": "See {IGovernor-propose}."
      },
      "queue(address[],uint256[],bytes[],bytes32)": {
        "details": "Function to queue a proposal to the timelock."
      },
      "timelock()": {
        "details": "Public accessor to check the address of the timelock"
      },
      "updateTimelock(address)": {
        "details": "Public endpoint to update the underlying timelock instance. Restricted to the timelock itself, so updates must be proposed, scheduled and executed using the {Governor} workflow. For security reason, the timelock must be handed over to another admin before setting up a new one. The two operations (hand over the timelock) and do the update can be batched in a single proposal. Note that if the timelock admin has been handed over in a previous operation, we refuse updates made through the timelock if admin of the timelock has already been accepted and the operation is executed outside the scope of governance."
      },
      "version()": {
        "details": "See {IGovernor-version}."
      },
      "votingDelay()": {
        "details": "delay, in number of block, between the proposal is created and the vote starts. This can be increassed to leave time for users to buy voting power, of delegate it, before the voting of a proposal starts."
      },
      "votingPeriod()": {
        "details": "delay, in number of blocks, between the vote start and vote ends. Note: the {votingDelay} can delay the start of the vote. This must be considered when setting the voting duration compared to the voting delay."
      }
    },
    "version": 1
  },
  "userdoc": {
    "kind": "user",
    "methods": {
      "state(uint256)": {
        "notice": "Overriding nightmare"
      },
      "votingDelay()": {
        "notice": "module:user-config"
      },
      "votingPeriod()": {
        "notice": "module:user-config"
      }
    },
    "version": 1
  }
}