{
  "contractName": "GovernorCompMock",
  "abi": [
    {
      "inputs": [
        {
          "internalType": "string",
          "name": "name_",
          "type": "string"
        },
        {
          "internalType": "contract ERC20VotesComp",
          "name": "token_",
          "type": "address"
        },
        {
          "internalType": "uint256",
          "name": "votingDelay_",
          "type": "uint256"
        },
        {
          "internalType": "uint256",
          "name": "votingPeriod_",
          "type": "uint256"
        }
      ],
      "stateMutability": "nonpayable",
      "type": "constructor"
    },
    {
      "anonymous": false,
      "inputs": [
        {
          "indexed": false,
          "internalType": "uint256",
          "name": "proposalId",
          "type": "uint256"
        }
      ],
      "name": "ProposalCanceled",
      "type": "event"
    },
    {
      "anonymous": false,
      "inputs": [
        {
          "indexed": false,
          "internalType": "uint256",
          "name": "proposalId",
          "type": "uint256"
        },
        {
          "indexed": false,
          "internalType": "address",
          "name": "proposer",
          "type": "address"
        },
        {
          "indexed": false,
          "internalType": "address[]",
          "name": "targets",
          "type": "address[]"
        },
        {
          "indexed": false,
          "internalType": "uint256[]",
          "name": "values",
          "type": "uint256[]"
        },
        {
          "indexed": false,
          "internalType": "string[]",
          "name": "signatures",
          "type": "string[]"
        },
        {
          "indexed": false,
          "internalType": "bytes[]",
          "name": "calldatas",
          "type": "bytes[]"
        },
        {
          "indexed": false,
          "internalType": "uint256",
          "name": "startBlock",
          "type": "uint256"
        },
        {
          "indexed": false,
          "internalType": "uint256",
          "name": "endBlock",
          "type": "uint256"
        },
        {
          "indexed": false,
          "internalType": "string",
          "name": "description",
          "type": "string"
        }
      ],
      "name": "ProposalCreated",
      "type": "event"
    },
    {
      "anonymous": false,
      "inputs": [
        {
          "indexed": false,
          "internalType": "uint256",
          "name": "proposalId",
          "type": "uint256"
        }
      ],
      "name": "ProposalExecuted",
      "type": "event"
    },
    {
      "anonymous": false,
      "inputs": [
        {
          "indexed": true,
          "internalType": "address",
          "name": "voter",
          "type": "address"
        },
        {
          "indexed": false,
          "internalType": "uint256",
          "name": "proposalId",
          "type": "uint256"
        },
        {
          "indexed": false,
          "internalType": "uint8",
          "name": "support",
          "type": "uint8"
        },
        {
          "indexed": false,
          "internalType": "uint256",
          "name": "weight",
          "type": "uint256"
        },
        {
          "indexed": false,
          "internalType": "string",
          "name": "reason",
          "type": "string"
        }
      ],
      "name": "VoteCast",
      "type": "event"
    },
    {
      "inputs": [],
      "name": "BALLOT_TYPEHASH",
      "outputs": [
        {
          "internalType": "bytes32",
          "name": "",
          "type": "bytes32"
        }
      ],
      "stateMutability": "view",
      "type": "function"
    },
    {
      "inputs": [],
      "name": "COUNTING_MODE",
      "outputs": [
        {
          "internalType": "string",
          "name": "",
          "type": "string"
        }
      ],
      "stateMutability": "pure",
      "type": "function"
    },
    {
      "inputs": [
        {
          "internalType": "uint256",
          "name": "proposalId",
          "type": "uint256"
        },
        {
          "internalType": "uint8",
          "name": "support",
          "type": "uint8"
        }
      ],
      "name": "castVote",
      "outputs": [
        {
          "internalType": "uint256",
          "name": "",
          "type": "uint256"
        }
      ],
      "stateMutability": "nonpayable",
      "type": "function"
    },
    {
      "inputs": [
        {
          "internalType": "uint256",
          "name": "proposalId",
          "type": "uint256"
        },
        {
          "internalType": "uint8",
          "name": "support",
          "type": "uint8"
        },
        {
          "internalType": "uint8",
          "name": "v",
          "type": "uint8"
        },
        {
          "internalType": "bytes32",
          "name": "r",
          "type": "bytes32"
        },
        {
          "internalType": "bytes32",
          "name": "s",
          "type": "bytes32"
        }
      ],
      "name": "castVoteBySig",
      "outputs": [
        {
          "internalType": "uint256",
          "name": "",
          "type": "uint256"
        }
      ],
      "stateMutability": "nonpayable",
      "type": "function"
    },
    {
      "inputs": [
        {
          "internalType": "uint256",
          "name": "proposalId",
          "type": "uint256"
        },
        {
          "internalType": "uint8",
          "name": "support",
          "type": "uint8"
        },
        {
          "internalType": "string",
          "name": "reason",
          "type": "string"
        }
      ],
      "name": "castVoteWithReason",
      "outputs": [
        {
          "internalType": "uint256",
          "name": "",
          "type": "uint256"
        }
      ],
      "stateMutability": "nonpayable",
      "type": "function"
    },
    {
      "inputs": [
        {
          "internalType": "address[]",
          "name": "targets",
          "type": "address[]"
        },
        {
          "internalType": "uint256[]",
          "name": "values",
          "type": "uint256[]"
        },
        {
          "internalType": "bytes[]",
          "name": "calldatas",
          "type": "bytes[]"
        },
        {
          "internalType": "bytes32",
          "name": "descriptionHash",
          "type": "bytes32"
        }
      ],
      "name": "execute",
      "outputs": [
        {
          "internalType": "uint256",
          "name": "",
          "type": "uint256"
        }
      ],
      "stateMutability": "payable",
      "type": "function"
    },
    {
      "inputs": [
        {
          "internalType": "uint256",
          "name": "proposalId",
          "type": "uint256"
        },
        {
          "internalType": "address",
          "name": "account",
          "type": "address"
        }
      ],
      "name": "hasVoted",
      "outputs": [
        {
          "internalType": "bool",
          "name": "",
          "type": "bool"
        }
      ],
      "stateMutability": "view",
      "type": "function"
    },
    {
      "inputs": [
        {
          "internalType": "address[]",
          "name": "targets",
          "type": "address[]"
        },
        {
          "internalType": "uint256[]",
          "name": "values",
          "type": "uint256[]"
        },
        {
          "internalType": "bytes[]",
          "name": "calldatas",
          "type": "bytes[]"
        },
        {
          "internalType": "bytes32",
          "name": "descriptionHash",
          "type": "bytes32"
        }
      ],
      "name": "hashProposal",
      "outputs": [
        {
          "internalType": "uint256",
          "name": "",
          "type": "uint256"
        }
      ],
      "stateMutability": "pure",
      "type": "function"
    },
    {
      "inputs": [],
      "name": "name",
      "outputs": [
        {
          "internalType": "string",
          "name": "",
          "type": "string"
        }
      ],
      "stateMutability": "view",
      "type": "function"
    },
    {
      "inputs": [
        {
          "internalType": "uint256",
          "name": "proposalId",
          "type": "uint256"
        }
      ],
      "name": "proposalDeadline",
      "outputs": [
        {
          "internalType": "uint256",
          "name": "",
          "type": "uint256"
        }
      ],
      "stateMutability": "view",
      "type": "function"
    },
    {
      "inputs": [
        {
          "internalType": "uint256",
          "name": "proposalId",
          "type": "uint256"
        }
      ],
      "name": "proposalSnapshot",
      "outputs": [
        {
          "internalType": "uint256",
          "name": "",
          "type": "uint256"
        }
      ],
      "stateMutability": "view",
      "type": "function"
    },
    {
      "inputs": [
        {
          "internalType": "uint256",
          "name": "proposalId",
          "type": "uint256"
        }
      ],
      "name": "proposalVotes",
      "outputs": [
        {
          "internalType": "uint256",
          "name": "againstVotes",
          "type": "uint256"
        },
        {
          "internalType": "uint256",
          "name": "forVotes",
          "type": "uint256"
        },
        {
          "internalType": "uint256",
          "name": "abstainVotes",
          "type": "uint256"
        }
      ],
      "stateMutability": "view",
      "type": "function"
    },
    {
      "inputs": [
        {
          "internalType": "address[]",
          "name": "targets",
          "type": "address[]"
        },
        {
          "internalType": "uint256[]",
          "name": "values",
          "type": "uint256[]"
        },
        {
          "internalType": "bytes[]",
          "name": "calldatas",
          "type": "bytes[]"
        },
        {
          "internalType": "string",
          "name": "description",
          "type": "string"
        }
      ],
      "name": "propose",
      "outputs": [
        {
          "internalType": "uint256",
          "name": "",
          "type": "uint256"
        }
      ],
      "stateMutability": "nonpayable",
      "type": "function"
    },
    {
      "inputs": [
        {
          "internalType": "uint256",
          "name": "proposalId",
          "type": "uint256"
        }
      ],
      "name": "state",
      "outputs": [
        {
          "internalType": "enum IGovernor.ProposalState",
          "name": "",
          "type": "uint8"
        }
      ],
      "stateMutability": "view",
      "type": "function"
    },
    {
      "inputs": [
        {
          "internalType": "bytes4",
          "name": "interfaceId",
          "type": "bytes4"
        }
      ],
      "name": "supportsInterface",
      "outputs": [
        {
          "internalType": "bool",
          "name": "",
          "type": "bool"
        }
      ],
      "stateMutability": "view",
      "type": "function"
    },
    {
      "inputs": [],
      "name": "token",
      "outputs": [
        {
          "internalType": "contract ERC20VotesComp",
          "name": "",
          "type": "address"
        }
      ],
      "stateMutability": "view",
      "type": "function"
    },
    {
      "inputs": [],
      "name": "version",
      "outputs": [
        {
          "internalType": "string",
          "name": "",
          "type": "string"
        }
      ],
      "stateMutability": "view",
      "type": "function"
    },
    {
      "stateMutability": "payable",
      "type": "receive"
    },
    {
      "inputs": [],
      "name": "votingDelay",
      "outputs": [
        {
          "internalType": "uint256",
          "name": "",
          "type": "uint256"
        }
      ],
      "stateMutability": "view",
      "type": "function"
    },
    {
      "inputs": [],
      "name": "votingPeriod",
      "outputs": [
        {
          "internalType": "uint256",
          "name": "",
          "type": "uint256"
        }
      ],
      "stateMutability": "view",
      "type": "function"
    },
    {
      "inputs": [
        {
          "internalType": "uint256",
          "name": "",
          "type": "uint256"
        }
      ],
      "name": "quorum",
      "outputs": [
        {
          "internalType": "uint256",
          "name": "",
          "type": "uint256"
        }
      ],
      "stateMutability": "pure",
      "type": "function"
    },
    {
      "inputs": [
        {
          "internalType": "address[]",
          "name": "targets",
          "type": "address[]"
        },
        {
          "internalType": "uint256[]",
          "name": "values",
          "type": "uint256[]"
        },
        {
          "internalType": "bytes[]",
          "name": "calldatas",
          "type": "bytes[]"
        },
        {
          "internalType": "bytes32",
          "name": "salt",
          "type": "bytes32"
        }
      ],
      "name": "cancel",
      "outputs": [
        {
          "internalType": "uint256",
          "name": "proposalId",
          "type": "uint256"
        }
      ],
      "stateMutability": "nonpayable",
      "type": "function"
    },
    {
      "inputs": [
        {
          "internalType": "address",
          "name": "account",
          "type": "address"
        },
        {
          "internalType": "uint256",
          "name": "blockNumber",
          "type": "uint256"
        }
      ],
      "name": "getVotes",
      "outputs": [
        {
          "internalType": "uint256",
          "name": "",
          "type": "uint256"
        }
      ],
      "stateMutability": "view",
      "type": "function"
    }
  ],
  "bytecode": "0x6101806040523480156200001257600080fd5b50604051620044d7380380620044d7833981810160405281019062000038919062000300565b8284806200004b6200013760201b60201c565b60008280519060200120905060008280519060200120905060007f8b73c3c69bb8fe3d512ecc4cf759cc79239f7b179b0ffacaa9a75d522b39400f90508260c081815250508160e081815250504660a08181525050620000b38184846200017460201b60201c565b6080818152505080610100818152505050505050508060009080519060200190620000e0929190620001b0565b50508073ffffffffffffffffffffffffffffffffffffffff166101208173ffffffffffffffffffffffffffffffffffffffff1660601b81525050508161014081815250508061016081815250505050505062000615565b60606040518060400160405280600181526020017f3100000000000000000000000000000000000000000000000000000000000000815250905090565b6000838383463060405160200162000191959493929190620003b8565b6040516020818303038152906040528051906020012090509392505050565b828054620001be9062000506565b90600052602060002090601f016020900481019282620001e257600085556200022e565b82601f10620001fd57805160ff19168380011785556200022e565b828001600101855582156200022e579182015b828111156200022d57825182559160200191906001019062000210565b5b5090506200023d919062000241565b5090565b5b808211156200025c57600081600090555060010162000242565b5090565b60006200027762000271846200043e565b62000415565b9050828152602081018484840111156200029057600080fd5b6200029d848285620004d0565b509392505050565b600081519050620002b681620005e1565b92915050565b600082601f830112620002ce57600080fd5b8151620002e084826020860162000260565b91505092915050565b600081519050620002fa81620005fb565b92915050565b600080600080608085870312156200031757600080fd5b600085015167ffffffffffffffff8111156200033257600080fd5b6200034087828801620002bc565b94505060206200035387828801620002a5565b93505060406200036687828801620002e9565b92505060606200037987828801620002e9565b91505092959194509250565b620003908162000474565b82525050565b620003a18162000488565b82525050565b620003b281620004c6565b82525050565b600060a082019050620003cf600083018862000396565b620003de602083018762000396565b620003ed604083018662000396565b620003fc6060830185620003a7565b6200040b608083018462000385565b9695505050505050565b60006200042162000434565b90506200042f82826200053c565b919050565b6000604051905090565b600067ffffffffffffffff8211156200045c576200045b620005a1565b5b6200046782620005d0565b9050602081019050919050565b60006200048182620004a6565b9050919050565b6000819050919050565b60006200049f8262000474565b9050919050565b600073ffffffffffffffffffffffffffffffffffffffff82169050919050565b6000819050919050565b60005b83811015620004f0578082015181840152602081019050620004d3565b8381111562000500576000848401525b50505050565b600060028204905060018216806200051f57607f821691505b6020821081141562000536576200053562000572565b5b50919050565b6200054782620005d0565b810181811067ffffffffffffffff82111715620005695762000568620005a1565b5b80604052505050565b7f4e487b7100000000000000000000000000000000000000000000000000000000600052602260045260246000fd5b7f4e487b7100000000000000000000000000000000000000000000000000000000600052604160045260246000fd5b6000601f19601f8301169050919050565b620005ec8162000492565b8114620005f857600080fd5b50565b6200060681620004c6565b81146200061257600080fd5b50565b60805160a05160c05160e051610100516101205160601c6101405161016051613e526200068560003960006106780152600061096b01526000818161115f015261190001526000611a7d01526000611abf01526000611a9e01526000611a2a01526000611a520152613e526000f3fe6080604052600436106101395760003560e01c806354fd4d50116100ab578063c59057e41161006f578063c59057e4146104c2578063dd4e2ba5146104ff578063deaaa7cc1461052a578063eb9019d414610555578063f8ce560a14610592578063fc0c546a146105cf57610140565b806354fd4d50146103a357806356781388146103ce5780637b3c71d31461040b5780637d5e81e214610448578063c01f9e371461048557610140565b80633932abb1116100fd5780633932abb1146102455780633bccf4fd146102705780633e4f49e6146102ad57806343859632146102ea578063452115d614610327578063544ffc9c1461036457610140565b806301ffc9a71461014557806302a251a31461018257806306fdde03146101ad5780632656227d146101d85780632d63f6931461020857610140565b3661014057005b600080fd5b34801561015157600080fd5b5061016c6004803603810190610167919061273b565b6105fa565b6040516101799190612f76565b60405180910390f35b34801561018e57600080fd5b50610197610674565b6040516101a49190613293565b60405180910390f35b3480156101b957600080fd5b506101c261069c565b6040516101cf91906130b1565b60405180910390f35b6101f260048036038101906101ed91906125cd565b61072e565b6040516101ff9190613293565b60405180910390f35b34801561021457600080fd5b5061022f600480360381019061022a9190612764565b6108f9565b60405161023c9190613293565b60405180910390f35b34801561025157600080fd5b5061025a610967565b6040516102679190613293565b60405180910390f35b34801561027c57600080fd5b5061029760048036038101906102929190612871565b61098f565b6040516102a49190613293565b60405180910390f35b3480156102b957600080fd5b506102d460048036038101906102cf9190612764565b610a19565b6040516102e19190613096565b60405180910390f35b3480156102f657600080fd5b50610311600480360381019061030c919061278d565b610be0565b60405161031e9190612f76565b60405180910390f35b34801561033357600080fd5b5061034e600480360381019061034991906125cd565b610c4b565b60405161035b9190613293565b60405180910390f35b34801561037057600080fd5b5061038b60048036038101906103869190612764565b610c63565b60405161039a9392919061335e565b60405180910390f35b3480156103af57600080fd5b506103b8610c9b565b6040516103c591906130b1565b60405180910390f35b3480156103da57600080fd5b506103f560048036038101906103f091906127c9565b610cd8565b6040516104029190613293565b60405180910390f35b34801561041757600080fd5b50610432600480360381019061042d9190612805565b610d09565b60405161043f9190613293565b60405180910390f35b34801561045457600080fd5b5061046f600480360381019061046a9190612678565b610d71565b60405161047c9190613293565b60405180910390f35b34801561049157600080fd5b506104ac60048036038101906104a79190612764565b611037565b6040516104b99190613293565b60405180910390f35b3480156104ce57600080fd5b506104e960048036038101906104e491906125cd565b6110a5565b6040516104f69190613293565b60405180910390f35b34801561050b57600080fd5b506105146110e1565b60405161052191906130b1565b60405180910390f35b34801561053657600080fd5b5061053f61111e565b60405161054c9190612f91565b60405180910390f35b34801561056157600080fd5b5061057c60048036038101906105779190612591565b611142565b6040516105899190613293565b60405180910390f35b34801561059e57600080fd5b506105b960048036038101906105b49190612764565b611156565b6040516105c69190613293565b60405180910390f35b3480156105db57600080fd5b506105e461115d565b6040516105f1919061307b565b60405180910390f35b60007fbf26d897000000000000000000000000000000000000000000000000000000007bffffffffffffffffffffffffffffffffffffffffffffffffffffffff1916827bffffffffffffffffffffffffffffffffffffffffffffffffffffffff1916148061066d575061066c82611181565b5b9050919050565b60007f0000000000000000000000000000000000000000000000000000000000000000905090565b6060600080546106ab90613817565b80601f01602080910402602001604051908101604052809291908181526020018280546106d790613817565b80156107245780601f106106f957610100808354040283529160200191610724565b820191906000526020600020905b81548152906001019060200180831161070757829003601f168201915b5050505050905090565b60008061073d868686866110a5565b9050600061074a82610a19565b905060046007811115610786577f4e487b7100000000000000000000000000000000000000000000000000000000600052602160045260246000fd5b8160078111156107bf577f4e487b7100000000000000000000000000000000000000000000000000000000600052602160045260246000fd5b148061083b575060056007811115610800577f4e487b7100000000000000000000000000000000000000000000000000000000600052602160045260246000fd5b816007811115610839577f4e487b7100000000000000000000000000000000000000000000000000000000600052602160045260246000fd5b145b61087a576040517f08c379a0000000000000000000000000000000000000000000000000000000008152600401610871906131f3565b60405180910390fd5b600180600084815260200190815260200160002060020160006101000a81548160ff0219169083151502179055507f712ae1383f79ac853f8d882153778e0260ef8f03b504e2866e0593e04d2b291f826040516108d79190613293565b60405180910390a16108ec82888888886111eb565b8192505050949350505050565b6000610956600160008481526020019081526020016000206000016040518060200160405290816000820160009054906101000a900467ffffffffffffffff1667ffffffffffffffff1667ffffffffffffffff168152505061136c565b67ffffffffffffffff169050919050565b60007f0000000000000000000000000000000000000000000000000000000000000000905090565b6000806109f06109e87f150214d74d59b7d1e90c73fc22ef3d991dd0a76b046543d4d80ab92d2a50328f89896040516020016109cd93929190612fff565b6040516020818303038152906040528051906020012061137a565b868686611394565b9050610a0d878288604051806020016040528060008152506113bf565b91505095945050505050565b60008060016000848152602001908152602001600020604051806080016040529081600082016040518060200160405290816000820160009054906101000a900467ffffffffffffffff1667ffffffffffffffff1667ffffffffffffffff16815250508152602001600182016040518060200160405290816000820160009054906101000a900467ffffffffffffffff1667ffffffffffffffff1667ffffffffffffffff168152505081526020016002820160009054906101000a900460ff161515151581526020016002820160019054906101000a900460ff1615151515815250509050806040015115610b12576007915050610bdb565b806060015115610b26576002915050610bdb565b610b33816000015161155f565b15610b42576000915050610bdb565b610b4f816020015161155f565b15610b5e576001915050610bdb565b610b6b8160200151611579565b15610ba057610b79836115a5565b8015610b8a5750610b89836115ec565b5b610b95576003610b98565b60045b915050610bdb565b6040517f08c379a0000000000000000000000000000000000000000000000000000000008152600401610bd290613213565b60405180910390fd5b919050565b60006002600084815260200190815260200160002060030160008373ffffffffffffffffffffffffffffffffffffffff1673ffffffffffffffffffffffffffffffffffffffff16815260200190815260200160002060009054906101000a900460ff16905092915050565b6000610c5985858585611617565b9050949350505050565b600080600080600260008681526020019081526020016000209050806000015481600101548260020154935093509350509193909250565b60606040518060400160405280600181526020017f3100000000000000000000000000000000000000000000000000000000000000815250905090565b600080610ce3611854565b9050610d00848285604051806020016040528060008152506113bf565b91505092915050565b600080610d14611854565b9050610d6686828787878080601f016020809104026020016040519081016040528093929190818152602001838380828437600081840152601f19601f820116905080830192505050505050506113bf565b915050949350505050565b600080610d8786868686805190602001206110a5565b90508451865114610dcd576040517f08c379a0000000000000000000000000000000000000000000000000000000008152600401610dc490613113565b60405180910390fd5b8351865114610e11576040517f08c379a0000000000000000000000000000000000000000000000000000000008152600401610e0890613113565b60405180910390fd5b6000865111610e55576040517f08c379a0000000000000000000000000000000000000000000000000000000008152600401610e4c90613173565b60405180910390fd5b6000600160008381526020019081526020016000209050610eb5816000016040518060200160405290816000820160009054906101000a900467ffffffffffffffff1667ffffffffffffffff1667ffffffffffffffff168152505061185c565b610ef4576040517f08c379a0000000000000000000000000000000000000000000000000000000008152600401610eeb90613253565b60405180910390fd5b6000610f06610f01610967565b611876565b610f0f43611876565b610f199190613685565b90506000610f2d610f28610674565b611876565b82610f389190613685565b9050610f5082846000016118cd90919063ffffffff16565b610f6681846001016118cd90919063ffffffff16565b7f7d84a6263ae0d98d3329bd7b46bb4e8d6f98cd35a7adb45c274c8b7fd5ebd5e084610f90611854565b8b8b8d5167ffffffffffffffff811115610fd3577f4e487b7100000000000000000000000000000000000000000000000000000000600052604160045260246000fd5b60405190808252806020026020018201604052801561100657816020015b6060815260200190600190039081610ff15790505b508c88888e604051611020999897969594939291906132ae565b60405180910390a183945050505050949350505050565b6000611094600160008481526020019081526020016000206001016040518060200160405290816000820160009054906101000a900467ffffffffffffffff1667ffffffffffffffff1667ffffffffffffffff168152505061136c565b67ffffffffffffffff169050919050565b6000848484846040516020016110be9493929190612f1c565b6040516020818303038152906040528051906020012060001c9050949350505050565b60606040518060400160405280602081526020017f737570706f72743d627261766f2671756f72756d3d666f722c6162737461696e815250905090565b7f150214d74d59b7d1e90c73fc22ef3d991dd0a76b046543d4d80ab92d2a50328f81565b600061114e83836118fc565b905092915050565b6000919050565b7f000000000000000000000000000000000000000000000000000000000000000081565b60007f01ffc9a7000000000000000000000000000000000000000000000000000000007bffffffffffffffffffffffffffffffffffffffffffffffffffffffff1916827bffffffffffffffffffffffffffffffffffffffffffffffffffffffff1916149050919050565b6000604051806060016040528060278152602001613df660279139905060005b855181101561136357600080878381518110611250577f4e487b7100000000000000000000000000000000000000000000000000000000600052603260045260246000fd5b602002602001015173ffffffffffffffffffffffffffffffffffffffff168784815181106112a7577f4e487b7100000000000000000000000000000000000000000000000000000000600052603260045260246000fd5b60200260200101518785815181106112e8577f4e487b7100000000000000000000000000000000000000000000000000000000600052603260045260246000fd5b60200260200101516040516112fd9190612ea5565b60006040518083038185875af1925050503d806000811461133a576040519150601f19603f3d011682016040523d82523d6000602084013e61133f565b606091505b509150915061134f8282866119bf565b5050508061135c9061387a565b905061120b565b50505050505050565b600081600001519050919050565b600061138d611387611a26565b83611ae9565b9050919050565b60008060006113a587878787611b1c565b915091506113b281611c29565b8192505050949350505050565b60008060016000878152602001908152602001600020905060016007811115611411577f4e487b7100000000000000000000000000000000000000000000000000000000600052602160045260246000fd5b61141a87610a19565b6007811115611452577f4e487b7100000000000000000000000000000000000000000000000000000000600052602160045260246000fd5b14611492576040517f08c379a000000000000000000000000000000000000000000000000000000000815260040161148990613153565b60405180910390fd5b60006114f0866114e1846000016040518060200160405290816000820160009054906101000a900467ffffffffffffffff1667ffffffffffffffff1667ffffffffffffffff168152505061136c565b67ffffffffffffffff16611142565b90506114fe87878784611f7a565b8573ffffffffffffffffffffffffffffffffffffffff167fb8e138887d0aa13bab447e82de9d5c1777041ecd21ca36ba824ff1e6c07ddda48887848860405161154a9493929190613395565b60405180910390a28092505050949350505050565b600043826000015167ffffffffffffffff16119050919050565b6000611584826121f2565b801561159e575043826000015167ffffffffffffffff1611155b9050919050565b600080600260008481526020019081526020016000209050806002015481600101546115d1919061362f565b6115e26115dd856108f9565b611156565b1115915050919050565b6000806002600084815260200190815260200160002090508060000154816001015411915050919050565b600080611626868686866110a5565b9050600061163382610a19565b90506002600781111561166f577f4e487b7100000000000000000000000000000000000000000000000000000000600052602160045260246000fd5b8160078111156116a8577f4e487b7100000000000000000000000000000000000000000000000000000000600052602160045260246000fd5b141580156117275750600660078111156116eb577f4e487b7100000000000000000000000000000000000000000000000000000000600052602160045260246000fd5b816007811115611724577f4e487b7100000000000000000000000000000000000000000000000000000000600052602160045260246000fd5b14155b80156117a35750600780811115611767577f4e487b7100000000000000000000000000000000000000000000000000000000600052602160045260246000fd5b8160078111156117a0577f4e487b7100000000000000000000000000000000000000000000000000000000600052602160045260246000fd5b14155b6117e2576040517f08c379a00000000000000000000000000000000000000000000000000000000081526004016117d9906131d3565b60405180910390fd5b600180600084815260200190815260200160002060020160016101000a81548160ff0219169083151502179055507f789cf55be980739dad1d0699b93b58e806b51c9d96619bfa8fe0a28abaa7b30c8260405161183f9190613293565b60405180910390a18192505050949350505050565b600033905090565b600080826000015167ffffffffffffffff16149050919050565b600067ffffffffffffffff80168211156118c5576040517f08c379a00000000000000000000000000000000000000000000000000000000081526004016118bc906131b3565b60405180910390fd5b819050919050565b808260000160006101000a81548167ffffffffffffffff021916908367ffffffffffffffff1602179055505050565b60007f000000000000000000000000000000000000000000000000000000000000000073ffffffffffffffffffffffffffffffffffffffff1663782d6fe184846040518363ffffffff1660e01b8152600401611959929190612ef3565b60206040518083038186803b15801561197157600080fd5b505afa158015611985573d6000803e3d6000fd5b505050506040513d601f19601f820116820180604052508101906119a991906128e8565b6bffffffffffffffffffffffff16905092915050565b606083156119cf57829050611a1f565b6000835111156119e25782518084602001fd5b816040517f08c379a0000000000000000000000000000000000000000000000000000000008152600401611a1691906130b1565b60405180910390fd5b9392505050565b60007f0000000000000000000000000000000000000000000000000000000000000000461415611a78577f00000000000000000000000000000000000000000000000000000000000000009050611ae6565b611ae37f00000000000000000000000000000000000000000000000000000000000000007f00000000000000000000000000000000000000000000000000000000000000007f000000000000000000000000000000000000000000000000000000000000000061220c565b90505b90565b60008282604051602001611afe929190612ebc565b60405160208183030381529060405280519060200120905092915050565b6000807f7fffffffffffffffffffffffffffffff5d576e7357a4501ddfe92f46681b20a08360001c1115611b57576000600391509150611c20565b601b8560ff1614158015611b6f5750601c8560ff1614155b15611b81576000600491509150611c20565b600060018787878760405160008152602001604052604051611ba69493929190613036565b6020604051602081039080840390855afa158015611bc8573d6000803e3d6000fd5b505050602060405103519050600073ffffffffffffffffffffffffffffffffffffffff168173ffffffffffffffffffffffffffffffffffffffff161415611c1757600060019250925050611c20565b80600092509250505b94509492505050565b60006004811115611c63577f4e487b7100000000000000000000000000000000000000000000000000000000600052602160045260246000fd5b816004811115611c9c577f4e487b7100000000000000000000000000000000000000000000000000000000600052602160045260246000fd5b1415611ca757611f77565b60016004811115611ce1577f4e487b7100000000000000000000000000000000000000000000000000000000600052602160045260246000fd5b816004811115611d1a577f4e487b7100000000000000000000000000000000000000000000000000000000600052602160045260246000fd5b1415611d5b576040517f08c379a0000000000000000000000000000000000000000000000000000000008152600401611d52906130d3565b60405180910390fd5b60026004811115611d95577f4e487b7100000000000000000000000000000000000000000000000000000000600052602160045260246000fd5b816004811115611dce577f4e487b7100000000000000000000000000000000000000000000000000000000600052602160045260246000fd5b1415611e0f576040517f08c379a0000000000000000000000000000000000000000000000000000000008152600401611e06906130f3565b60405180910390fd5b60036004811115611e49577f4e487b7100000000000000000000000000000000000000000000000000000000600052602160045260246000fd5b816004811115611e82577f4e487b7100000000000000000000000000000000000000000000000000000000600052602160045260246000fd5b1415611ec3576040517f08c379a0000000000000000000000000000000000000000000000000000000008152600401611eba90613133565b60405180910390fd5b600480811115611efc577f4e487b7100000000000000000000000000000000000000000000000000000000600052602160045260246000fd5b816004811115611f35577f4e487b7100000000000000000000000000000000000000000000000000000000600052602160045260246000fd5b1415611f76576040517f08c379a0000000000000000000000000000000000000000000000000000000008152600401611f6d90613193565b60405180910390fd5b5b50565b60006002600086815260200190815260200160002090508060030160008573ffffffffffffffffffffffffffffffffffffffff1673ffffffffffffffffffffffffffffffffffffffff16815260200190815260200160002060009054906101000a900460ff1615612020576040517f08c379a000000000000000000000000000000000000000000000000000000000815260040161201790613273565b60405180910390fd5b60018160030160008673ffffffffffffffffffffffffffffffffffffffff1673ffffffffffffffffffffffffffffffffffffffff16815260200190815260200160002060006101000a81548160ff021916908315150217905550600060028111156120b4577f4e487b7100000000000000000000000000000000000000000000000000000000600052602160045260246000fd5b60ff168360ff1614156120e157818160000160008282546120d5919061362f565b925050819055506121eb565b6001600281111561211b577f4e487b7100000000000000000000000000000000000000000000000000000000600052602160045260246000fd5b60ff168360ff161415612148578181600101600082825461213c919061362f565b925050819055506121ea565b600280811115612181577f4e487b7100000000000000000000000000000000000000000000000000000000600052602160045260246000fd5b60ff168360ff1614156121ae57818160020160008282546121a2919061362f565b925050819055506121e9565b6040517f08c379a00000000000000000000000000000000000000000000000000000000081526004016121e090613233565b60405180910390fd5b5b5b5050505050565b600080826000015167ffffffffffffffff16119050919050565b60008383834630604051602001612227959493929190612fac565b6040516020818303038152906040528051906020012090509392505050565b600061225961225484613406565b6133e1565b9050808382526020820190508285602086028201111561227857600080fd5b60005b858110156122a8578161228e88826123f7565b84526020840193506020830192505060018101905061227b565b5050509392505050565b60006122c56122c084613432565b6133e1565b9050808382526020820190508260005b8581101561230557813585016122eb88826124b4565b8452602084019350602083019250506001810190506122d5565b5050509392505050565b600061232261231d8461345e565b6133e1565b9050808382526020820190508285602086028201111561234157600080fd5b60005b8581101561237157816123578882612552565b845260208401935060208301925050600181019050612344565b5050509392505050565b600061238e6123898461348a565b6133e1565b9050828152602081018484840111156123a657600080fd5b6123b18482856137d5565b509392505050565b60006123cc6123c7846134bb565b6133e1565b9050828152602081018484840111156123e457600080fd5b6123ef8482856137d5565b509392505050565b60008135905061240681613d6b565b92915050565b600082601f83011261241d57600080fd5b813561242d848260208601612246565b91505092915050565b600082601f83011261244757600080fd5b81356124578482602086016122b2565b91505092915050565b600082601f83011261247157600080fd5b813561248184826020860161230f565b91505092915050565b60008135905061249981613d82565b92915050565b6000813590506124ae81613d99565b92915050565b600082601f8301126124c557600080fd5b81356124d584826020860161237b565b91505092915050565b60008083601f8401126124f057600080fd5b8235905067ffffffffffffffff81111561250957600080fd5b60208301915083600182028301111561252157600080fd5b9250929050565b600082601f83011261253957600080fd5b81356125498482602086016123b9565b91505092915050565b60008135905061256181613db0565b92915050565b60008135905061257681613dc7565b92915050565b60008151905061258b81613dde565b92915050565b600080604083850312156125a457600080fd5b60006125b2858286016123f7565b92505060206125c385828601612552565b9150509250929050565b600080600080608085870312156125e357600080fd5b600085013567ffffffffffffffff8111156125fd57600080fd5b6126098782880161240c565b945050602085013567ffffffffffffffff81111561262657600080fd5b61263287828801612460565b935050604085013567ffffffffffffffff81111561264f57600080fd5b61265b87828801612436565b925050606061266c8782880161248a565b91505092959194509250565b6000806000806080858703121561268e57600080fd5b600085013567ffffffffffffffff8111156126a857600080fd5b6126b48782880161240c565b945050602085013567ffffffffffffffff8111156126d157600080fd5b6126dd87828801612460565b935050604085013567ffffffffffffffff8111156126fa57600080fd5b61270687828801612436565b925050606085013567ffffffffffffffff81111561272357600080fd5b61272f87828801612528565b91505092959194509250565b60006020828403121561274d57600080fd5b600061275b8482850161249f565b91505092915050565b60006020828403121561277657600080fd5b600061278484828501612552565b91505092915050565b600080604083850312156127a057600080fd5b60006127ae85828601612552565b92505060206127bf858286016123f7565b9150509250929050565b600080604083850312156127dc57600080fd5b60006127ea85828601612552565b92505060206127fb85828601612567565b9150509250929050565b6000806000806060858703121561281b57600080fd5b600061282987828801612552565b945050602061283a87828801612567565b935050604085013567ffffffffffffffff81111561285757600080fd5b612863878288016124de565b925092505092959194509250565b600080600080600060a0868803121561288957600080fd5b600061289788828901612552565b95505060206128a888828901612567565b94505060406128b988828901612567565b93505060606128ca8882890161248a565b92505060806128db8882890161248a565b9150509295509295909350565b6000602082840312156128fa57600080fd5b60006129088482850161257c565b91505092915050565b600061291d8383612969565b60208301905092915050565b60006129358383612b62565b905092915050565b60006129498383612bea565b905092915050565b600061295d8383612e69565b60208301905092915050565b612972816136c3565b82525050565b612981816136c3565b82525050565b60006129928261352c565b61299c81856135a2565b93506129a7836134ec565b8060005b838110156129d85781516129bf8882612911565b97506129ca8361356e565b9250506001810190506129ab565b5085935050505092915050565b60006129f082613537565b6129fa81856135b3565b935083602082028501612a0c856134fc565b8060005b85811015612a485784840389528151612a298582612929565b9450612a348361357b565b925060208a01995050600181019050612a10565b50829750879550505050505092915050565b6000612a6582613542565b612a6f81856135c4565b935083602082028501612a818561350c565b8060005b85811015612abd5784840389528151612a9e858261293d565b9450612aa983613588565b925060208a01995050600181019050612a85565b50829750879550505050505092915050565b6000612ada8261354d565b612ae481856135d5565b9350612aef8361351c565b8060005b83811015612b20578151612b078882612951565b9750612b1283613595565b925050600181019050612af3565b5085935050505092915050565b612b36816136d5565b82525050565b612b45816136e1565b82525050565b612b5c612b57826136e1565b6138c3565b82525050565b6000612b6d82613558565b612b7781856135e6565b9350612b878185602086016137e4565b612b9081613989565b840191505092915050565b6000612ba682613558565b612bb081856135f7565b9350612bc08185602086016137e4565b80840191505092915050565b612bd58161378d565b82525050565b612be4816137b1565b82525050565b6000612bf582613563565b612bff8185613602565b9350612c0f8185602086016137e4565b612c1881613989565b840191505092915050565b6000612c2e82613563565b612c388185613613565b9350612c488185602086016137e4565b612c5181613989565b840191505092915050565b6000612c69601883613613565b9150612c748261399a565b602082019050919050565b6000612c8c601f83613613565b9150612c97826139c3565b602082019050919050565b6000612caf600283613624565b9150612cba826139ec565b600282019050919050565b6000612cd2602183613613565b9150612cdd82613a15565b604082019050919050565b6000612cf5602283613613565b9150612d0082613a64565b604082019050919050565b6000612d18602383613613565b9150612d2382613ab3565b604082019050919050565b6000612d3b601883613613565b9150612d4682613b02565b602082019050919050565b6000612d5e602283613613565b9150612d6982613b2b565b604082019050919050565b6000612d81602683613613565b9150612d8c82613b7a565b604082019050919050565b6000612da4601d83613613565b9150612daf82613bc9565b602082019050919050565b6000612dc7602183613613565b9150612dd282613bf2565b604082019050919050565b6000612dea601d83613613565b9150612df582613c41565b602082019050919050565b6000612e0d603583613613565b9150612e1882613c6a565b604082019050919050565b6000612e30602183613613565b9150612e3b82613cb9565b604082019050919050565b6000612e53602983613613565b9150612e5e82613d08565b604082019050919050565b612e728161374a565b82525050565b612e818161374a565b82525050565b612e90816137c3565b82525050565b612e9f81613768565b82525050565b6000612eb18284612b9b565b915081905092915050565b6000612ec782612ca2565b9150612ed38285612b4b565b602082019150612ee38284612b4b565b6020820191508190509392505050565b6000604082019050612f086000830185612978565b612f156020830184612e78565b9392505050565b60006080820190508181036000830152612f368187612987565b90508181036020830152612f4a8186612acf565b90508181036040830152612f5e81856129e5565b9050612f6d6060830184612b3c565b95945050505050565b6000602082019050612f8b6000830184612b2d565b92915050565b6000602082019050612fa66000830184612b3c565b92915050565b600060a082019050612fc16000830188612b3c565b612fce6020830187612b3c565b612fdb6040830186612b3c565b612fe86060830185612e78565b612ff56080830184612978565b9695505050505050565b60006060820190506130146000830186612b3c565b6130216020830185612e78565b61302e6040830184612e96565b949350505050565b600060808201905061304b6000830187612b3c565b6130586020830186612e96565b6130656040830185612b3c565b6130726060830184612b3c565b95945050505050565b60006020820190506130906000830184612bcc565b92915050565b60006020820190506130ab6000830184612bdb565b92915050565b600060208201905081810360008301526130cb8184612c23565b905092915050565b600060208201905081810360008301526130ec81612c5c565b9050919050565b6000602082019050818103600083015261310c81612c7f565b9050919050565b6000602082019050818103600083015261312c81612cc5565b9050919050565b6000602082019050818103600083015261314c81612ce8565b9050919050565b6000602082019050818103600083015261316c81612d0b565b9050919050565b6000602082019050818103600083015261318c81612d2e565b9050919050565b600060208201905081810360008301526131ac81612d51565b9050919050565b600060208201905081810360008301526131cc81612d74565b9050919050565b600060208201905081810360008301526131ec81612d97565b9050919050565b6000602082019050818103600083015261320c81612dba565b9050919050565b6000602082019050818103600083015261322c81612ddd565b9050919050565b6000602082019050818103600083015261324c81612e00565b9050919050565b6000602082019050818103600083015261326c81612e23565b9050919050565b6000602082019050818103600083015261328c81612e46565b9050919050565b60006020820190506132a86000830184612e78565b92915050565b6000610120820190506132c4600083018c612e78565b6132d1602083018b612978565b81810360408301526132e3818a612987565b905081810360608301526132f78189612acf565b9050818103608083015261330b8188612a5a565b905081810360a083015261331f81876129e5565b905061332e60c0830186612e87565b61333b60e0830185612e87565b81810361010083015261334e8184612c23565b90509a9950505050505050505050565b60006060820190506133736000830186612e78565b6133806020830185612e78565b61338d6040830184612e78565b949350505050565b60006080820190506133aa6000830187612e78565b6133b76020830186612e96565b6133c46040830185612e78565b81810360608301526133d68184612c23565b905095945050505050565b60006133eb6133fc565b90506133f78282613849565b919050565b6000604051905090565b600067ffffffffffffffff8211156134215761342061395a565b5b602082029050602081019050919050565b600067ffffffffffffffff82111561344d5761344c61395a565b5b602082029050602081019050919050565b600067ffffffffffffffff8211156134795761347861395a565b5b602082029050602081019050919050565b600067ffffffffffffffff8211156134a5576134a461395a565b5b6134ae82613989565b9050602081019050919050565b600067ffffffffffffffff8211156134d6576134d561395a565b5b6134df82613989565b9050602081019050919050565b6000819050602082019050919050565b6000819050602082019050919050565b6000819050602082019050919050565b6000819050602082019050919050565b600081519050919050565b600081519050919050565b600081519050919050565b600081519050919050565b600081519050919050565b600081519050919050565b6000602082019050919050565b6000602082019050919050565b6000602082019050919050565b6000602082019050919050565b600082825260208201905092915050565b600082825260208201905092915050565b600082825260208201905092915050565b600082825260208201905092915050565b600082825260208201905092915050565b600081905092915050565b600082825260208201905092915050565b600082825260208201905092915050565b600081905092915050565b600061363a8261374a565b91506136458361374a565b9250827fffffffffffffffffffffffffffffffffffffffffffffffffffffffffffffffff0382111561367a576136796138cd565b5b828201905092915050565b600061369082613754565b915061369b83613754565b92508267ffffffffffffffff038211156136b8576136b76138cd565b5b828201905092915050565b60006136ce8261372a565b9050919050565b60008115159050919050565b6000819050919050565b60007fffffffff0000000000000000000000000000000000000000000000000000000082169050919050565b600081905061372582613d57565b919050565b600073ffffffffffffffffffffffffffffffffffffffff82169050919050565b6000819050919050565b600067ffffffffffffffff82169050919050565b600060ff82169050919050565b60006bffffffffffffffffffffffff82169050919050565b60006137988261379f565b9050919050565b60006137aa8261372a565b9050919050565b60006137bc82613717565b9050919050565b60006137ce82613754565b9050919050565b82818337600083830152505050565b60005b838110156138025780820151818401526020810190506137e7565b83811115613811576000848401525b50505050565b6000600282049050600182168061382f57607f821691505b602082108114156138435761384261392b565b5b50919050565b61385282613989565b810181811067ffffffffffffffff821117156138715761387061395a565b5b80604052505050565b60006138858261374a565b91507fffffffffffffffffffffffffffffffffffffffffffffffffffffffffffffffff8214156138b8576138b76138cd565b5b600182019050919050565b6000819050919050565b7f4e487b7100000000000000000000000000000000000000000000000000000000600052601160045260246000fd5b7f4e487b7100000000000000000000000000000000000000000000000000000000600052602160045260246000fd5b7f4e487b7100000000000000000000000000000000000000000000000000000000600052602260045260246000fd5b7f4e487b7100000000000000000000000000000000000000000000000000000000600052604160045260246000fd5b6000601f19601f8301169050919050565b7f45434453413a20696e76616c6964207369676e61747572650000000000000000600082015250565b7f45434453413a20696e76616c6964207369676e6174757265206c656e67746800600082015250565b7f1901000000000000000000000000000000000000000000000000000000000000600082015250565b7f476f7665726e6f723a20696e76616c69642070726f706f73616c206c656e677460008201527f6800000000000000000000000000000000000000000000000000000000000000602082015250565b7f45434453413a20696e76616c6964207369676e6174757265202773272076616c60008201527f7565000000000000000000000000000000000000000000000000000000000000602082015250565b7f476f7665726e6f723a20766f7465206e6f742063757272656e746c792061637460008201527f6976650000000000000000000000000000000000000000000000000000000000602082015250565b7f476f7665726e6f723a20656d7074792070726f706f73616c0000000000000000600082015250565b7f45434453413a20696e76616c6964207369676e6174757265202776272076616c60008201527f7565000000000000000000000000000000000000000000000000000000000000602082015250565b7f53616665436173743a2076616c756520646f65736e27742066697420696e203660008201527f3420626974730000000000000000000000000000000000000000000000000000602082015250565b7f476f7665726e6f723a2070726f706f73616c206e6f7420616374697665000000600082015250565b7f476f7665726e6f723a2070726f706f73616c206e6f742073756363657373667560008201527f6c00000000000000000000000000000000000000000000000000000000000000602082015250565b7f476f7665726e6f723a20756e6b6e6f776e2070726f706f73616c206964000000600082015250565b7f476f7665726e6f72566f74696e6753696d706c653a20696e76616c696420766160008201527f6c756520666f7220656e756d20566f7465547970650000000000000000000000602082015250565b7f476f7665726e6f723a2070726f706f73616c20616c726561647920657869737460008201527f7300000000000000000000000000000000000000000000000000000000000000602082015250565b7f476f7665726e6f72566f74696e6753696d706c653a20766f746520616c72656160008201527f6479206361737465640000000000000000000000000000000000000000000000602082015250565b60088110613d6857613d676138fc565b5b50565b613d74816136c3565b8114613d7f57600080fd5b50565b613d8b816136e1565b8114613d9657600080fd5b50565b613da2816136eb565b8114613dad57600080fd5b50565b613db98161374a565b8114613dc457600080fd5b50565b613dd081613768565b8114613ddb57600080fd5b50565b613de781613775565b8114613df257600080fd5b5056fe476f7665726e6f723a2063616c6c20726576657274656420776974686f7574206d657373616765a2646970667358221220666fd6f7f66cc948d8e21f926557e32a00118780fdaf95f347e6074cfe99d69864736f6c63430008020033",
  "immutableReferences": {
    "5783": [
      {
        "length": 32,
        "start": 4447
      },
      {
        "length": 32,
        "start": 6400
      }
    ],
    "10452": [
      {
        "length": 32,
        "start": 2411
      }
    ],
    "10454": [
      {
        "length": 32,
        "start": 1656
      }
    ],
    "24966": [
      {
        "length": 32,
        "start": 6738
      }
    ],
    "24968": [
      {
        "length": 32,
        "start": 6698
      }
    ],
    "24970": [
      {
        "length": 32,
        "start": 6814
      }
    ],
    "24972": [
      {
        "length": 32,
        "start": 6847
      }
    ],
    "24974": [
      {
        "length": 32,
        "start": 6781
      }
    ]
  },
  "source": "// SPDX-License-Identifier: MIT\n\npragma solidity ^0.8.0;\n\nimport \"../governance/Governor.sol\";\nimport \"../governance/extensions/GovernorCountingSimple.sol\";\nimport \"../governance/extensions/GovernorVotesComp.sol\";\n\ncontract GovernorCompMock is Governor, GovernorVotesComp, GovernorCountingSimple {\n    uint256 immutable _votingDelay;\n    uint256 immutable _votingPeriod;\n\n    constructor(\n        string memory name_,\n        ERC20VotesComp token_,\n        uint256 votingDelay_,\n        uint256 votingPeriod_\n    ) Governor(name_) GovernorVotesComp(token_) {\n        _votingDelay = votingDelay_;\n        _votingPeriod = votingPeriod_;\n    }\n\n    receive() external payable {}\n\n    function votingDelay() public view override returns (uint256) {\n        return _votingDelay;\n    }\n\n    function votingPeriod() public view override returns (uint256) {\n        return _votingPeriod;\n    }\n\n    function quorum(uint256) public pure override returns (uint256) {\n        return 0;\n    }\n\n    function cancel(\n        address[] memory targets,\n        uint256[] memory values,\n        bytes[] memory calldatas,\n        bytes32 salt\n    ) public returns (uint256 proposalId) {\n        return _cancel(targets, values, calldatas, salt);\n    }\n\n    function getVotes(address account, uint256 blockNumber)\n        public\n        view\n        virtual\n        override(IGovernor, GovernorVotesComp)\n        returns (uint256)\n    {\n        return super.getVotes(account, blockNumber);\n    }\n}\n",
  "sourcePath": "/home/sushant/Documents/blockchain_work/EatTheBlock/ecomapp2/contracts/openzeppelin/contracts/mocks/GovernorCompMock.sol",
  "compiler": {
    "name": "solc",
    "version": "0.8.2+commit.661d1103.Emscripten.clang"
  },
  "schemaVersion": "3.4.2",
  "updatedAt": "2021-08-09T18:32:24.443Z",
  "devdoc": {
    "kind": "dev",
    "methods": {
      "COUNTING_MODE()": {
        "details": "See {IGovernor-COUNTING_MODE}."
      },
      "castVote(uint256,uint8)": {
        "details": "See {IGovernor-castVote}."
      },
      "castVoteBySig(uint256,uint8,uint8,bytes32,bytes32)": {
        "details": "See {IGovernor-castVoteBySig}."
      },
      "castVoteWithReason(uint256,uint8,string)": {
        "details": "See {IGovernor-castVoteWithReason}."
      },
      "execute(address[],uint256[],bytes[],bytes32)": {
        "details": "See {IGovernor-execute}."
      },
      "hasVoted(uint256,address)": {
        "details": "See {IGovernor-hasVoted}."
      },
      "hashProposal(address[],uint256[],bytes[],bytes32)": {
        "details": "See {IGovernor-hashProposal}. The proposal id is produced by hashing the RLC encoded `targets` array, the `values` array, the `calldatas` array and the descriptionHash (bytes32 which itself is the keccak256 hash of the description string). This proposal id can be produced from the proposal data which is part of the {ProposalCreated} event. It can even be computed in advance, before the proposal is submitted. Note that the chainId and the governor address are not part of the proposal id computation. Consequently, the same proposal (with same operation and same description) will have the same id if submitted on multiple governors accross multiple networks. This also means that in order to execute the same operation twice (on the same governor) the proposer will have to change the description in order to avoid proposal id conflicts."
      },
      "name()": {
        "details": "See {IGovernor-name}."
      },
      "proposalDeadline(uint256)": {
        "details": "See {IGovernor-proposalDeadline}."
      },
      "proposalSnapshot(uint256)": {
        "details": "See {IGovernor-proposalSnapshot}."
      },
      "proposalVotes(uint256)": {
        "details": "Accessor to the internal vote counts."
      },
      "propose(address[],uint256[],bytes[],string)": {
        "details": "See {IGovernor-propose}."
      },
      "state(uint256)": {
        "details": "See {IGovernor-state}."
      },
      "supportsInterface(bytes4)": {
        "details": "See {IERC165-supportsInterface}."
      },
      "version()": {
        "details": "See {IGovernor-version}."
      },
      "votingDelay()": {
        "details": "delay, in number of block, between the proposal is created and the vote starts. This can be increassed to leave time for users to buy voting power, of delegate it, before the voting of a proposal starts."
      },
      "votingPeriod()": {
        "details": "delay, in number of blocks, between the vote start and vote ends. Note: the {votingDelay} can delay the start of the vote. This must be considered when setting the voting duration compared to the voting delay."
      }
    },
    "version": 1
  },
  "userdoc": {
    "kind": "user",
    "methods": {
      "votingDelay()": {
        "notice": "module:user-config"
      },
      "votingPeriod()": {
        "notice": "module:user-config"
      }
    },
    "version": 1
  }
}