{
  "contractName": "GovernorMock",
  "abi": [
    {
      "inputs": [
        {
          "internalType": "string",
          "name": "name_",
          "type": "string"
        },
        {
          "internalType": "contract ERC20Votes",
          "name": "token_",
          "type": "address"
        },
        {
          "internalType": "uint256",
          "name": "votingDelay_",
          "type": "uint256"
        },
        {
          "internalType": "uint256",
          "name": "votingPeriod_",
          "type": "uint256"
        },
        {
          "internalType": "uint256",
          "name": "quorumNumerator_",
          "type": "uint256"
        }
      ],
      "stateMutability": "nonpayable",
      "type": "constructor"
    },
    {
      "anonymous": false,
      "inputs": [
        {
          "indexed": false,
          "internalType": "uint256",
          "name": "proposalId",
          "type": "uint256"
        }
      ],
      "name": "ProposalCanceled",
      "type": "event"
    },
    {
      "anonymous": false,
      "inputs": [
        {
          "indexed": false,
          "internalType": "uint256",
          "name": "proposalId",
          "type": "uint256"
        },
        {
          "indexed": false,
          "internalType": "address",
          "name": "proposer",
          "type": "address"
        },
        {
          "indexed": false,
          "internalType": "address[]",
          "name": "targets",
          "type": "address[]"
        },
        {
          "indexed": false,
          "internalType": "uint256[]",
          "name": "values",
          "type": "uint256[]"
        },
        {
          "indexed": false,
          "internalType": "string[]",
          "name": "signatures",
          "type": "string[]"
        },
        {
          "indexed": false,
          "internalType": "bytes[]",
          "name": "calldatas",
          "type": "bytes[]"
        },
        {
          "indexed": false,
          "internalType": "uint256",
          "name": "startBlock",
          "type": "uint256"
        },
        {
          "indexed": false,
          "internalType": "uint256",
          "name": "endBlock",
          "type": "uint256"
        },
        {
          "indexed": false,
          "internalType": "string",
          "name": "description",
          "type": "string"
        }
      ],
      "name": "ProposalCreated",
      "type": "event"
    },
    {
      "anonymous": false,
      "inputs": [
        {
          "indexed": false,
          "internalType": "uint256",
          "name": "proposalId",
          "type": "uint256"
        }
      ],
      "name": "ProposalExecuted",
      "type": "event"
    },
    {
      "anonymous": false,
      "inputs": [
        {
          "indexed": false,
          "internalType": "uint256",
          "name": "oldQuorumNumerator",
          "type": "uint256"
        },
        {
          "indexed": false,
          "internalType": "uint256",
          "name": "newQuorumNumerator",
          "type": "uint256"
        }
      ],
      "name": "QuorumNumeratorUpdated",
      "type": "event"
    },
    {
      "anonymous": false,
      "inputs": [
        {
          "indexed": true,
          "internalType": "address",
          "name": "voter",
          "type": "address"
        },
        {
          "indexed": false,
          "internalType": "uint256",
          "name": "proposalId",
          "type": "uint256"
        },
        {
          "indexed": false,
          "internalType": "uint8",
          "name": "support",
          "type": "uint8"
        },
        {
          "indexed": false,
          "internalType": "uint256",
          "name": "weight",
          "type": "uint256"
        },
        {
          "indexed": false,
          "internalType": "string",
          "name": "reason",
          "type": "string"
        }
      ],
      "name": "VoteCast",
      "type": "event"
    },
    {
      "inputs": [],
      "name": "BALLOT_TYPEHASH",
      "outputs": [
        {
          "internalType": "bytes32",
          "name": "",
          "type": "bytes32"
        }
      ],
      "stateMutability": "view",
      "type": "function"
    },
    {
      "inputs": [],
      "name": "COUNTING_MODE",
      "outputs": [
        {
          "internalType": "string",
          "name": "",
          "type": "string"
        }
      ],
      "stateMutability": "pure",
      "type": "function"
    },
    {
      "inputs": [
        {
          "internalType": "uint256",
          "name": "proposalId",
          "type": "uint256"
        },
        {
          "internalType": "uint8",
          "name": "support",
          "type": "uint8"
        }
      ],
      "name": "castVote",
      "outputs": [
        {
          "internalType": "uint256",
          "name": "",
          "type": "uint256"
        }
      ],
      "stateMutability": "nonpayable",
      "type": "function"
    },
    {
      "inputs": [
        {
          "internalType": "uint256",
          "name": "proposalId",
          "type": "uint256"
        },
        {
          "internalType": "uint8",
          "name": "support",
          "type": "uint8"
        },
        {
          "internalType": "uint8",
          "name": "v",
          "type": "uint8"
        },
        {
          "internalType": "bytes32",
          "name": "r",
          "type": "bytes32"
        },
        {
          "internalType": "bytes32",
          "name": "s",
          "type": "bytes32"
        }
      ],
      "name": "castVoteBySig",
      "outputs": [
        {
          "internalType": "uint256",
          "name": "",
          "type": "uint256"
        }
      ],
      "stateMutability": "nonpayable",
      "type": "function"
    },
    {
      "inputs": [
        {
          "internalType": "uint256",
          "name": "proposalId",
          "type": "uint256"
        },
        {
          "internalType": "uint8",
          "name": "support",
          "type": "uint8"
        },
        {
          "internalType": "string",
          "name": "reason",
          "type": "string"
        }
      ],
      "name": "castVoteWithReason",
      "outputs": [
        {
          "internalType": "uint256",
          "name": "",
          "type": "uint256"
        }
      ],
      "stateMutability": "nonpayable",
      "type": "function"
    },
    {
      "inputs": [
        {
          "internalType": "address[]",
          "name": "targets",
          "type": "address[]"
        },
        {
          "internalType": "uint256[]",
          "name": "values",
          "type": "uint256[]"
        },
        {
          "internalType": "bytes[]",
          "name": "calldatas",
          "type": "bytes[]"
        },
        {
          "internalType": "bytes32",
          "name": "descriptionHash",
          "type": "bytes32"
        }
      ],
      "name": "execute",
      "outputs": [
        {
          "internalType": "uint256",
          "name": "",
          "type": "uint256"
        }
      ],
      "stateMutability": "payable",
      "type": "function"
    },
    {
      "inputs": [
        {
          "internalType": "uint256",
          "name": "proposalId",
          "type": "uint256"
        },
        {
          "internalType": "address",
          "name": "account",
          "type": "address"
        }
      ],
      "name": "hasVoted",
      "outputs": [
        {
          "internalType": "bool",
          "name": "",
          "type": "bool"
        }
      ],
      "stateMutability": "view",
      "type": "function"
    },
    {
      "inputs": [
        {
          "internalType": "address[]",
          "name": "targets",
          "type": "address[]"
        },
        {
          "internalType": "uint256[]",
          "name": "values",
          "type": "uint256[]"
        },
        {
          "internalType": "bytes[]",
          "name": "calldatas",
          "type": "bytes[]"
        },
        {
          "internalType": "bytes32",
          "name": "descriptionHash",
          "type": "bytes32"
        }
      ],
      "name": "hashProposal",
      "outputs": [
        {
          "internalType": "uint256",
          "name": "",
          "type": "uint256"
        }
      ],
      "stateMutability": "pure",
      "type": "function"
    },
    {
      "inputs": [],
      "name": "name",
      "outputs": [
        {
          "internalType": "string",
          "name": "",
          "type": "string"
        }
      ],
      "stateMutability": "view",
      "type": "function"
    },
    {
      "inputs": [
        {
          "internalType": "uint256",
          "name": "proposalId",
          "type": "uint256"
        }
      ],
      "name": "proposalDeadline",
      "outputs": [
        {
          "internalType": "uint256",
          "name": "",
          "type": "uint256"
        }
      ],
      "stateMutability": "view",
      "type": "function"
    },
    {
      "inputs": [
        {
          "internalType": "uint256",
          "name": "proposalId",
          "type": "uint256"
        }
      ],
      "name": "proposalSnapshot",
      "outputs": [
        {
          "internalType": "uint256",
          "name": "",
          "type": "uint256"
        }
      ],
      "stateMutability": "view",
      "type": "function"
    },
    {
      "inputs": [
        {
          "internalType": "uint256",
          "name": "proposalId",
          "type": "uint256"
        }
      ],
      "name": "proposalVotes",
      "outputs": [
        {
          "internalType": "uint256",
          "name": "againstVotes",
          "type": "uint256"
        },
        {
          "internalType": "uint256",
          "name": "forVotes",
          "type": "uint256"
        },
        {
          "internalType": "uint256",
          "name": "abstainVotes",
          "type": "uint256"
        }
      ],
      "stateMutability": "view",
      "type": "function"
    },
    {
      "inputs": [
        {
          "internalType": "address[]",
          "name": "targets",
          "type": "address[]"
        },
        {
          "internalType": "uint256[]",
          "name": "values",
          "type": "uint256[]"
        },
        {
          "internalType": "bytes[]",
          "name": "calldatas",
          "type": "bytes[]"
        },
        {
          "internalType": "string",
          "name": "description",
          "type": "string"
        }
      ],
      "name": "propose",
      "outputs": [
        {
          "internalType": "uint256",
          "name": "",
          "type": "uint256"
        }
      ],
      "stateMutability": "nonpayable",
      "type": "function"
    },
    {
      "inputs": [
        {
          "internalType": "uint256",
          "name": "blockNumber",
          "type": "uint256"
        }
      ],
      "name": "quorum",
      "outputs": [
        {
          "internalType": "uint256",
          "name": "",
          "type": "uint256"
        }
      ],
      "stateMutability": "view",
      "type": "function"
    },
    {
      "inputs": [],
      "name": "quorumDenominator",
      "outputs": [
        {
          "internalType": "uint256",
          "name": "",
          "type": "uint256"
        }
      ],
      "stateMutability": "view",
      "type": "function"
    },
    {
      "inputs": [],
      "name": "quorumNumerator",
      "outputs": [
        {
          "internalType": "uint256",
          "name": "",
          "type": "uint256"
        }
      ],
      "stateMutability": "view",
      "type": "function"
    },
    {
      "inputs": [
        {
          "internalType": "uint256",
          "name": "proposalId",
          "type": "uint256"
        }
      ],
      "name": "state",
      "outputs": [
        {
          "internalType": "enum IGovernor.ProposalState",
          "name": "",
          "type": "uint8"
        }
      ],
      "stateMutability": "view",
      "type": "function"
    },
    {
      "inputs": [
        {
          "internalType": "bytes4",
          "name": "interfaceId",
          "type": "bytes4"
        }
      ],
      "name": "supportsInterface",
      "outputs": [
        {
          "internalType": "bool",
          "name": "",
          "type": "bool"
        }
      ],
      "stateMutability": "view",
      "type": "function"
    },
    {
      "inputs": [],
      "name": "token",
      "outputs": [
        {
          "internalType": "contract ERC20Votes",
          "name": "",
          "type": "address"
        }
      ],
      "stateMutability": "view",
      "type": "function"
    },
    {
      "inputs": [
        {
          "internalType": "uint256",
          "name": "newQuorumNumerator",
          "type": "uint256"
        }
      ],
      "name": "updateQuorumNumerator",
      "outputs": [],
      "stateMutability": "nonpayable",
      "type": "function"
    },
    {
      "inputs": [],
      "name": "version",
      "outputs": [
        {
          "internalType": "string",
          "name": "",
          "type": "string"
        }
      ],
      "stateMutability": "view",
      "type": "function"
    },
    {
      "stateMutability": "payable",
      "type": "receive"
    },
    {
      "inputs": [],
      "name": "votingDelay",
      "outputs": [
        {
          "internalType": "uint256",
          "name": "",
          "type": "uint256"
        }
      ],
      "stateMutability": "view",
      "type": "function"
    },
    {
      "inputs": [],
      "name": "votingPeriod",
      "outputs": [
        {
          "internalType": "uint256",
          "name": "",
          "type": "uint256"
        }
      ],
      "stateMutability": "view",
      "type": "function"
    },
    {
      "inputs": [
        {
          "internalType": "address[]",
          "name": "targets",
          "type": "address[]"
        },
        {
          "internalType": "uint256[]",
          "name": "values",
          "type": "uint256[]"
        },
        {
          "internalType": "bytes[]",
          "name": "calldatas",
          "type": "bytes[]"
        },
        {
          "internalType": "bytes32",
          "name": "salt",
          "type": "bytes32"
        }
      ],
      "name": "cancel",
      "outputs": [
        {
          "internalType": "uint256",
          "name": "proposalId",
          "type": "uint256"
        }
      ],
      "stateMutability": "nonpayable",
      "type": "function"
    },
    {
      "inputs": [
        {
          "internalType": "address",
          "name": "account",
          "type": "address"
        },
        {
          "internalType": "uint256",
          "name": "blockNumber",
          "type": "uint256"
        }
      ],
      "name": "getVotes",
      "outputs": [
        {
          "internalType": "uint256",
          "name": "",
          "type": "uint256"
        }
      ],
      "stateMutability": "view",
      "type": "function"
    }
  ],
  "bytecode": "0x6101806040523480156200001257600080fd5b5060405162004b3038038062004b308339818101604052810190620000389190620003bf565b808486806200004c6200014b60201b60201c565b60008280519060200120905060008280519060200120905060007f8b73c3c69bb8fe3d512ecc4cf759cc79239f7b179b0ffacaa9a75d522b39400f90508260c081815250508160e081815250504660a08181525050620000b48184846200018860201b60201c565b6080818152505080610100818152505050505050508060009080519060200190620000e19291906200026f565b50508073ffffffffffffffffffffffffffffffffffffffff166101208173ffffffffffffffffffffffffffffffffffffffff1660601b81525050506200012d81620001c460201b60201c565b508261014081815250508161016081815250505050505050620007e6565b60606040518060400160405280600181526020017f3100000000000000000000000000000000000000000000000000000000000000815250905090565b60008383834630604051602001620001a5959493929190620004b4565b6040516020818303038152906040528051906020012090509392505050565b620001d46200026660201b60201c565b81111562000219576040517f08c379a0000000000000000000000000000000000000000000000000000000008152600401620002109062000511565b60405180910390fd5b60006002549050816002819055507f0553476bf02ef2726e8ce5ced78d63e26e602e4a2257b1f559418e24b463399781836040516200025a92919062000533565b60405180910390a15050565b60006064905090565b8280546200027d9062000662565b90600052602060002090601f016020900481019282620002a15760008555620002ed565b82601f10620002bc57805160ff1916838001178555620002ed565b82800160010185558215620002ed579182015b82811115620002ec578251825591602001919060010190620002cf565b5b509050620002fc919062000300565b5090565b5b808211156200031b57600081600090555060010162000301565b5090565b600062000336620003308462000589565b62000560565b9050828152602081018484840111156200034f57600080fd5b6200035c8482856200062c565b509392505050565b6000815190506200037581620007b2565b92915050565b600082601f8301126200038d57600080fd5b81516200039f8482602086016200031f565b91505092915050565b600081519050620003b981620007cc565b92915050565b600080600080600060a08688031215620003d857600080fd5b600086015167ffffffffffffffff811115620003f357600080fd5b62000401888289016200037b565b9550506020620004148882890162000364565b94505060406200042788828901620003a8565b93505060606200043a88828901620003a8565b92505060806200044d88828901620003a8565b9150509295509295909350565b6200046581620005d0565b82525050565b6200047681620005e4565b82525050565b60006200048b604383620005bf565b915062000498826200073d565b606082019050919050565b620004ae8162000622565b82525050565b600060a082019050620004cb60008301886200046b565b620004da60208301876200046b565b620004e960408301866200046b565b620004f86060830185620004a3565b6200050760808301846200045a565b9695505050505050565b600060208201905081810360008301526200052c816200047c565b9050919050565b60006040820190506200054a6000830185620004a3565b620005596020830184620004a3565b9392505050565b60006200056c6200057f565b90506200057a828262000698565b919050565b6000604051905090565b600067ffffffffffffffff821115620005a757620005a6620006fd565b5b620005b2826200072c565b9050602081019050919050565b600082825260208201905092915050565b6000620005dd8262000602565b9050919050565b6000819050919050565b6000620005fb82620005d0565b9050919050565b600073ffffffffffffffffffffffffffffffffffffffff82169050919050565b6000819050919050565b60005b838110156200064c5780820151818401526020810190506200062f565b838111156200065c576000848401525b50505050565b600060028204905060018216806200067b57607f821691505b60208210811415620006925762000691620006ce565b5b50919050565b620006a3826200072c565b810181811067ffffffffffffffff82111715620006c557620006c4620006fd565b5b80604052505050565b7f4e487b7100000000000000000000000000000000000000000000000000000000600052602260045260246000fd5b7f4e487b7100000000000000000000000000000000000000000000000000000000600052604160045260246000fd5b6000601f19601f8301169050919050565b7f476f7665726e6f72566f74657351756f72756d4672616374696f6e3a2071756f60008201527f72756d4e756d657261746f72206f7665722071756f72756d44656e6f6d696e6160208201527f746f720000000000000000000000000000000000000000000000000000000000604082015250565b620007bd81620005ee565b8114620007c957600080fd5b50565b620007d78162000622565b8114620007e357600080fd5b50565b60805160a05160c05160e051610100516101205160601c61014051610160516142d36200085d600039600061072801526000610aa30152600081816112b5015281816113790152611bb701526000611d2601526000611d6801526000611d4701526000611cd301526000611cfb01526142d36000f3fe60806040526004361061016a5760003560e01c806354fd4d50116100d1578063c01f9e371161008a578063deaaa7cc11610064578063deaaa7cc146105da578063eb9019d414610605578063f8ce560a14610642578063fc0c546a1461067f57610171565b8063c01f9e3714610535578063c59057e414610572578063dd4e2ba5146105af57610171565b806354fd4d50146103fd57806356781388146104285780637b3c71d3146104655780637d5e81e2146104a257806397c3d334146104df578063a7713a701461050a57610171565b80633932abb1116101235780633932abb11461029f5780633bccf4fd146102ca5780633e4f49e6146103075780634385963214610344578063452115d614610381578063544ffc9c146103be57610171565b806301ffc9a71461017657806302a251a3146101b357806306f3f9e6146101de57806306fdde03146102075780632656227d146102325780632d63f6931461026257610171565b3661017157005b600080fd5b34801561018257600080fd5b5061019d600480360381019061019891906129e4565b6106aa565b6040516101aa9190613265565b60405180910390f35b3480156101bf57600080fd5b506101c8610724565b6040516101d591906135c2565b60405180910390f35b3480156101ea57600080fd5b5061020560048036038101906102009190612a0d565b61074c565b005b34801561021357600080fd5b5061021c6107d4565b60405161022991906133a0565b60405180910390f35b61024c60048036038101906102479190612876565b610866565b60405161025991906135c2565b60405180910390f35b34801561026e57600080fd5b5061028960048036038101906102849190612a0d565b610a31565b60405161029691906135c2565b60405180910390f35b3480156102ab57600080fd5b506102b4610a9f565b6040516102c191906135c2565b60405180910390f35b3480156102d657600080fd5b506102f160048036038101906102ec9190612b43565b610ac7565b6040516102fe91906135c2565b60405180910390f35b34801561031357600080fd5b5061032e60048036038101906103299190612a0d565b610b51565b60405161033b9190613385565b60405180910390f35b34801561035057600080fd5b5061036b60048036038101906103669190612a5f565b610d18565b6040516103789190613265565b60405180910390f35b34801561038d57600080fd5b506103a860048036038101906103a39190612876565b610d83565b6040516103b591906135c2565b60405180910390f35b3480156103ca57600080fd5b506103e560048036038101906103e09190612a0d565b610d9b565b6040516103f4939291906136b6565b60405180910390f35b34801561040957600080fd5b50610412610dd3565b60405161041f91906133a0565b60405180910390f35b34801561043457600080fd5b5061044f600480360381019061044a9190612a9b565b610e10565b60405161045c91906135c2565b60405180910390f35b34801561047157600080fd5b5061048c60048036038101906104879190612ad7565b610e41565b60405161049991906135c2565b60405180910390f35b3480156104ae57600080fd5b506104c960048036038101906104c49190612921565b610ea9565b6040516104d691906135c2565b60405180910390f35b3480156104eb57600080fd5b506104f461116f565b60405161050191906135c2565b60405180910390f35b34801561051657600080fd5b5061051f611178565b60405161052c91906135c2565b60405180910390f35b34801561054157600080fd5b5061055c60048036038101906105579190612a0d565b611182565b60405161056991906135c2565b60405180910390f35b34801561057e57600080fd5b5061059960048036038101906105949190612876565b6111f0565b6040516105a691906135c2565b60405180910390f35b3480156105bb57600080fd5b506105c461122c565b6040516105d191906133a0565b60405180910390f35b3480156105e657600080fd5b506105ef611269565b6040516105fc9190613280565b60405180910390f35b34801561061157600080fd5b5061062c6004803603810190610627919061283a565b61128d565b60405161063991906135c2565b60405180910390f35b34801561064e57600080fd5b5061066960048036038101906106649190612a0d565b6112a1565b60405161067691906135c2565b60405180910390f35b34801561068b57600080fd5b50610694611377565b6040516106a1919061336a565b60405180910390f35b60007fbf26d897000000000000000000000000000000000000000000000000000000007bffffffffffffffffffffffffffffffffffffffffffffffffffffffff1916827bffffffffffffffffffffffffffffffffffffffffffffffffffffffff1916148061071d575061071c8261139b565b5b9050919050565b60007f0000000000000000000000000000000000000000000000000000000000000000905090565b610754611405565b73ffffffffffffffffffffffffffffffffffffffff1661077261140d565b73ffffffffffffffffffffffffffffffffffffffff16146107c8576040517f08c379a00000000000000000000000000000000000000000000000000000000081526004016107bf906133e2565b60405180910390fd5b6107d181611415565b50565b6060600080546107e390613be2565b80601f016020809104026020016040519081016040528092919081815260200182805461080f90613be2565b801561085c5780601f106108315761010080835404028352916020019161085c565b820191906000526020600020905b81548152906001019060200180831161083f57829003601f168201915b5050505050905090565b600080610875868686866111f0565b9050600061088282610b51565b9050600460078111156108be577f4e487b7100000000000000000000000000000000000000000000000000000000600052602160045260246000fd5b8160078111156108f7577f4e487b7100000000000000000000000000000000000000000000000000000000600052602160045260246000fd5b1480610973575060056007811115610938577f4e487b7100000000000000000000000000000000000000000000000000000000600052602160045260246000fd5b816007811115610971577f4e487b7100000000000000000000000000000000000000000000000000000000600052602160045260246000fd5b145b6109b2576040517f08c379a00000000000000000000000000000000000000000000000000000000081526004016109a990613522565b60405180910390fd5b600180600084815260200190815260200160002060020160006101000a81548160ff0219169083151502179055507f712ae1383f79ac853f8d882153778e0260ef8f03b504e2866e0593e04d2b291f82604051610a0f91906135c2565b60405180910390a1610a2482888888886114aa565b8192505050949350505050565b6000610a8e600160008481526020019081526020016000206000016040518060200160405290816000820160009054906101000a900467ffffffffffffffff1667ffffffffffffffff1667ffffffffffffffff168152505061162b565b67ffffffffffffffff169050919050565b60007f0000000000000000000000000000000000000000000000000000000000000000905090565b600080610b28610b207f150214d74d59b7d1e90c73fc22ef3d991dd0a76b046543d4d80ab92d2a50328f8989604051602001610b05939291906132ee565b60405160208183030381529060405280519060200120611639565b868686611653565b9050610b458782886040518060200160405280600081525061167e565b91505095945050505050565b60008060016000848152602001908152602001600020604051806080016040529081600082016040518060200160405290816000820160009054906101000a900467ffffffffffffffff1667ffffffffffffffff1667ffffffffffffffff16815250508152602001600182016040518060200160405290816000820160009054906101000a900467ffffffffffffffff1667ffffffffffffffff1667ffffffffffffffff168152505081526020016002820160009054906101000a900460ff161515151581526020016002820160019054906101000a900460ff1615151515815250509050806040015115610c4a576007915050610d13565b806060015115610c5e576002915050610d13565b610c6b816000015161181e565b15610c7a576000915050610d13565b610c87816020015161181e565b15610c96576001915050610d13565b610ca38160200151611838565b15610cd857610cb183611864565b8015610cc25750610cc1836118ab565b5b610ccd576003610cd0565b60045b915050610d13565b6040517f08c379a0000000000000000000000000000000000000000000000000000000008152600401610d0a90613542565b60405180910390fd5b919050565b60006003600084815260200190815260200160002060030160008373ffffffffffffffffffffffffffffffffffffffff1673ffffffffffffffffffffffffffffffffffffffff16815260200190815260200160002060009054906101000a900460ff16905092915050565b6000610d91858585856118d6565b9050949350505050565b600080600080600360008681526020019081526020016000209050806000015481600101548260020154935093509350509193909250565b60606040518060400160405280600181526020017f3100000000000000000000000000000000000000000000000000000000000000815250905090565b600080610e1b61140d565b9050610e388482856040518060200160405280600081525061167e565b91505092915050565b600080610e4c61140d565b9050610e9e86828787878080601f016020809104026020016040519081016040528093929190818152602001838380828437600081840152601f19601f8201169050808301925050505050505061167e565b915050949350505050565b600080610ebf86868686805190602001206111f0565b90508451865114610f05576040517f08c379a0000000000000000000000000000000000000000000000000000000008152600401610efc90613442565b60405180910390fd5b8351865114610f49576040517f08c379a0000000000000000000000000000000000000000000000000000000008152600401610f4090613442565b60405180910390fd5b6000865111610f8d576040517f08c379a0000000000000000000000000000000000000000000000000000000008152600401610f84906134a2565b60405180910390fd5b6000600160008381526020019081526020016000209050610fed816000016040518060200160405290816000820160009054906101000a900467ffffffffffffffff1667ffffffffffffffff1667ffffffffffffffff1681525050611b13565b61102c576040517f08c379a000000000000000000000000000000000000000000000000000000000815260040161102390613582565b60405180910390fd5b600061103e611039610a9f565b611b2d565b61104743611b2d565b61105191906139dd565b90506000611065611060610724565b611b2d565b8261107091906139dd565b90506110888284600001611b8490919063ffffffff16565b61109e8184600101611b8490919063ffffffff16565b7f7d84a6263ae0d98d3329bd7b46bb4e8d6f98cd35a7adb45c274c8b7fd5ebd5e0846110c861140d565b8b8b8d5167ffffffffffffffff81111561110b577f4e487b7100000000000000000000000000000000000000000000000000000000600052604160045260246000fd5b60405190808252806020026020018201604052801561113e57816020015b60608152602001906001900390816111295790505b508c88888e604051611158999897969594939291906135dd565b60405180910390a183945050505050949350505050565b60006064905090565b6000600254905090565b60006111df600160008481526020019081526020016000206001016040518060200160405290816000820160009054906101000a900467ffffffffffffffff1667ffffffffffffffff1667ffffffffffffffff168152505061162b565b67ffffffffffffffff169050919050565b600084848484604051602001611209949392919061320b565b6040516020818303038152906040528051906020012060001c9050949350505050565b60606040518060400160405280602081526020017f737570706f72743d627261766f2671756f72756d3d666f722c6162737461696e815250905090565b7f150214d74d59b7d1e90c73fc22ef3d991dd0a76b046543d4d80ab92d2a50328f81565b60006112998383611bb3565b905092915050565b60006112ab61116f565b6112b3611178565b7f000000000000000000000000000000000000000000000000000000000000000073ffffffffffffffffffffffffffffffffffffffff16638e539e8c856040518263ffffffff1660e01b815260040161130c91906135c2565b60206040518083038186803b15801561132457600080fd5b505afa158015611338573d6000803e3d6000fd5b505050506040513d601f19601f8201168201806040525081019061135c9190612a36565b6113669190613a4c565b6113709190613a1b565b9050919050565b7f000000000000000000000000000000000000000000000000000000000000000081565b60007f01ffc9a7000000000000000000000000000000000000000000000000000000007bffffffffffffffffffffffffffffffffffffffffffffffffffffffff1916827bffffffffffffffffffffffffffffffffffffffffffffffffffffffff1916149050919050565b600030905090565b600033905090565b61141d61116f565b81111561145f576040517f08c379a000000000000000000000000000000000000000000000000000000000815260040161145690613402565b60405180910390fd5b60006002549050816002819055507f0553476bf02ef2726e8ce5ced78d63e26e602e4a2257b1f559418e24b4633997818360405161149e92919061368d565b60405180910390a15050565b600060405180606001604052806027815260200161427760279139905060005b85518110156116225760008087838151811061150f577f4e487b7100000000000000000000000000000000000000000000000000000000600052603260045260246000fd5b602002602001015173ffffffffffffffffffffffffffffffffffffffff16878481518110611566577f4e487b7100000000000000000000000000000000000000000000000000000000600052603260045260246000fd5b60200260200101518785815181106115a7577f4e487b7100000000000000000000000000000000000000000000000000000000600052603260045260246000fd5b60200260200101516040516115bc9190613194565b60006040518083038185875af1925050503d80600081146115f9576040519150601f19603f3d011682016040523d82523d6000602084013e6115fe565b606091505b509150915061160e828286611c68565b5050508061161b90613c45565b90506114ca565b50505050505050565b600081600001519050919050565b600061164c611646611ccf565b83611d92565b9050919050565b600080600061166487878787611dc5565b9150915061167181611ed2565b8192505050949350505050565b600080600160008781526020019081526020016000209050600160078111156116d0577f4e487b7100000000000000000000000000000000000000000000000000000000600052602160045260246000fd5b6116d987610b51565b6007811115611711577f4e487b7100000000000000000000000000000000000000000000000000000000600052602160045260246000fd5b14611751576040517f08c379a000000000000000000000000000000000000000000000000000000000815260040161174890613482565b60405180910390fd5b60006117af866117a0846000016040518060200160405290816000820160009054906101000a900467ffffffffffffffff1667ffffffffffffffff1667ffffffffffffffff168152505061162b565b67ffffffffffffffff1661128d565b90506117bd87878784612223565b8573ffffffffffffffffffffffffffffffffffffffff167fb8e138887d0aa13bab447e82de9d5c1777041ecd21ca36ba824ff1e6c07ddda48887848860405161180994939291906136ed565b60405180910390a28092505050949350505050565b600043826000015167ffffffffffffffff16119050919050565b60006118438261249b565b801561185d575043826000015167ffffffffffffffff1611155b9050919050565b600080600360008481526020019081526020016000209050806002015481600101546118909190613987565b6118a161189c85610a31565b6112a1565b1115915050919050565b6000806003600084815260200190815260200160002090508060000154816001015411915050919050565b6000806118e5868686866111f0565b905060006118f282610b51565b90506002600781111561192e577f4e487b7100000000000000000000000000000000000000000000000000000000600052602160045260246000fd5b816007811115611967577f4e487b7100000000000000000000000000000000000000000000000000000000600052602160045260246000fd5b141580156119e65750600660078111156119aa577f4e487b7100000000000000000000000000000000000000000000000000000000600052602160045260246000fd5b8160078111156119e3577f4e487b7100000000000000000000000000000000000000000000000000000000600052602160045260246000fd5b14155b8015611a625750600780811115611a26577f4e487b7100000000000000000000000000000000000000000000000000000000600052602160045260246000fd5b816007811115611a5f577f4e487b7100000000000000000000000000000000000000000000000000000000600052602160045260246000fd5b14155b611aa1576040517f08c379a0000000000000000000000000000000000000000000000000000000008152600401611a9890613502565b60405180910390fd5b600180600084815260200190815260200160002060020160016101000a81548160ff0219169083151502179055507f789cf55be980739dad1d0699b93b58e806b51c9d96619bfa8fe0a28abaa7b30c82604051611afe91906135c2565b60405180910390a18192505050949350505050565b600080826000015167ffffffffffffffff16149050919050565b600067ffffffffffffffff8016821115611b7c576040517f08c379a0000000000000000000000000000000000000000000000000000000008152600401611b73906134e2565b60405180910390fd5b819050919050565b808260000160006101000a81548167ffffffffffffffff021916908367ffffffffffffffff1602179055505050565b60007f000000000000000000000000000000000000000000000000000000000000000073ffffffffffffffffffffffffffffffffffffffff16633a46b1a884846040518363ffffffff1660e01b8152600401611c109291906131e2565b60206040518083038186803b158015611c2857600080fd5b505afa158015611c3c573d6000803e3d6000fd5b505050506040513d601f19601f82011682018060405250810190611c609190612a36565b905092915050565b60608315611c7857829050611cc8565b600083511115611c8b5782518084602001fd5b816040517f08c379a0000000000000000000000000000000000000000000000000000000008152600401611cbf91906133a0565b60405180910390fd5b9392505050565b60007f0000000000000000000000000000000000000000000000000000000000000000461415611d21577f00000000000000000000000000000000000000000000000000000000000000009050611d8f565b611d8c7f00000000000000000000000000000000000000000000000000000000000000007f00000000000000000000000000000000000000000000000000000000000000007f00000000000000000000000000000000000000000000000000000000000000006124b5565b90505b90565b60008282604051602001611da79291906131ab565b60405160208183030381529060405280519060200120905092915050565b6000807f7fffffffffffffffffffffffffffffff5d576e7357a4501ddfe92f46681b20a08360001c1115611e00576000600391509150611ec9565b601b8560ff1614158015611e185750601c8560ff1614155b15611e2a576000600491509150611ec9565b600060018787878760405160008152602001604052604051611e4f9493929190613325565b6020604051602081039080840390855afa158015611e71573d6000803e3d6000fd5b505050602060405103519050600073ffffffffffffffffffffffffffffffffffffffff168173ffffffffffffffffffffffffffffffffffffffff161415611ec057600060019250925050611ec9565b80600092509250505b94509492505050565b60006004811115611f0c577f4e487b7100000000000000000000000000000000000000000000000000000000600052602160045260246000fd5b816004811115611f45577f4e487b7100000000000000000000000000000000000000000000000000000000600052602160045260246000fd5b1415611f5057612220565b60016004811115611f8a577f4e487b7100000000000000000000000000000000000000000000000000000000600052602160045260246000fd5b816004811115611fc3577f4e487b7100000000000000000000000000000000000000000000000000000000600052602160045260246000fd5b1415612004576040517f08c379a0000000000000000000000000000000000000000000000000000000008152600401611ffb906133c2565b60405180910390fd5b6002600481111561203e577f4e487b7100000000000000000000000000000000000000000000000000000000600052602160045260246000fd5b816004811115612077577f4e487b7100000000000000000000000000000000000000000000000000000000600052602160045260246000fd5b14156120b8576040517f08c379a00000000000000000000000000000000000000000000000000000000081526004016120af90613422565b60405180910390fd5b600360048111156120f2577f4e487b7100000000000000000000000000000000000000000000000000000000600052602160045260246000fd5b81600481111561212b577f4e487b7100000000000000000000000000000000000000000000000000000000600052602160045260246000fd5b141561216c576040517f08c379a000000000000000000000000000000000000000000000000000000000815260040161216390613462565b60405180910390fd5b6004808111156121a5577f4e487b7100000000000000000000000000000000000000000000000000000000600052602160045260246000fd5b8160048111156121de577f4e487b7100000000000000000000000000000000000000000000000000000000600052602160045260246000fd5b141561221f576040517f08c379a0000000000000000000000000000000000000000000000000000000008152600401612216906134c2565b60405180910390fd5b5b50565b60006003600086815260200190815260200160002090508060030160008573ffffffffffffffffffffffffffffffffffffffff1673ffffffffffffffffffffffffffffffffffffffff16815260200190815260200160002060009054906101000a900460ff16156122c9576040517f08c379a00000000000000000000000000000000000000000000000000000000081526004016122c0906135a2565b60405180910390fd5b60018160030160008673ffffffffffffffffffffffffffffffffffffffff1673ffffffffffffffffffffffffffffffffffffffff16815260200190815260200160002060006101000a81548160ff0219169083151502179055506000600281111561235d577f4e487b7100000000000000000000000000000000000000000000000000000000600052602160045260246000fd5b60ff168360ff16141561238a578181600001600082825461237e9190613987565b92505081905550612494565b600160028111156123c4577f4e487b7100000000000000000000000000000000000000000000000000000000600052602160045260246000fd5b60ff168360ff1614156123f157818160010160008282546123e59190613987565b92505081905550612493565b60028081111561242a577f4e487b7100000000000000000000000000000000000000000000000000000000600052602160045260246000fd5b60ff168360ff161415612457578181600201600082825461244b9190613987565b92505081905550612492565b6040517f08c379a000000000000000000000000000000000000000000000000000000000815260040161248990613562565b60405180910390fd5b5b5b5050505050565b600080826000015167ffffffffffffffff16119050919050565b600083838346306040516020016124d095949392919061329b565b6040516020818303038152906040528051906020012090509392505050565b60006125026124fd8461375e565b613739565b9050808382526020820190508285602086028201111561252157600080fd5b60005b85811015612551578161253788826126a0565b845260208401935060208301925050600181019050612524565b5050509392505050565b600061256e6125698461378a565b613739565b9050808382526020820190508260005b858110156125ae5781358501612594888261275d565b84526020840193506020830192505060018101905061257e565b5050509392505050565b60006125cb6125c6846137b6565b613739565b905080838252602082019050828560208602820111156125ea57600080fd5b60005b8581101561261a578161260088826127fb565b8452602084019350602083019250506001810190506125ed565b5050509392505050565b6000612637612632846137e2565b613739565b90508281526020810184848401111561264f57600080fd5b61265a848285613ba0565b509392505050565b600061267561267084613813565b613739565b90508281526020810184848401111561268d57600080fd5b612698848285613ba0565b509392505050565b6000813590506126af81614203565b92915050565b600082601f8301126126c657600080fd5b81356126d68482602086016124ef565b91505092915050565b600082601f8301126126f057600080fd5b813561270084826020860161255b565b91505092915050565b600082601f83011261271a57600080fd5b813561272a8482602086016125b8565b91505092915050565b6000813590506127428161421a565b92915050565b60008135905061275781614231565b92915050565b600082601f83011261276e57600080fd5b813561277e848260208601612624565b91505092915050565b60008083601f84011261279957600080fd5b8235905067ffffffffffffffff8111156127b257600080fd5b6020830191508360018202830111156127ca57600080fd5b9250929050565b600082601f8301126127e257600080fd5b81356127f2848260208601612662565b91505092915050565b60008135905061280a81614248565b92915050565b60008151905061281f81614248565b92915050565b6000813590506128348161425f565b92915050565b6000806040838503121561284d57600080fd5b600061285b858286016126a0565b925050602061286c858286016127fb565b9150509250929050565b6000806000806080858703121561288c57600080fd5b600085013567ffffffffffffffff8111156128a657600080fd5b6128b2878288016126b5565b945050602085013567ffffffffffffffff8111156128cf57600080fd5b6128db87828801612709565b935050604085013567ffffffffffffffff8111156128f857600080fd5b612904878288016126df565b925050606061291587828801612733565b91505092959194509250565b6000806000806080858703121561293757600080fd5b600085013567ffffffffffffffff81111561295157600080fd5b61295d878288016126b5565b945050602085013567ffffffffffffffff81111561297a57600080fd5b61298687828801612709565b935050604085013567ffffffffffffffff8111156129a357600080fd5b6129af878288016126df565b925050606085013567ffffffffffffffff8111156129cc57600080fd5b6129d8878288016127d1565b91505092959194509250565b6000602082840312156129f657600080fd5b6000612a0484828501612748565b91505092915050565b600060208284031215612a1f57600080fd5b6000612a2d848285016127fb565b91505092915050565b600060208284031215612a4857600080fd5b6000612a5684828501612810565b91505092915050565b60008060408385031215612a7257600080fd5b6000612a80858286016127fb565b9250506020612a91858286016126a0565b9150509250929050565b60008060408385031215612aae57600080fd5b6000612abc858286016127fb565b9250506020612acd85828601612825565b9150509250929050565b60008060008060608587031215612aed57600080fd5b6000612afb878288016127fb565b9450506020612b0c87828801612825565b935050604085013567ffffffffffffffff811115612b2957600080fd5b612b3587828801612787565b925092505092959194509250565b600080600080600060a08688031215612b5b57600080fd5b6000612b69888289016127fb565b9550506020612b7a88828901612825565b9450506040612b8b88828901612825565b9350506060612b9c88828901612733565b9250506080612bad88828901612733565b9150509295509295909350565b6000612bc68383612c12565b60208301905092915050565b6000612bde8383612e0b565b905092915050565b6000612bf28383612e93565b905092915050565b6000612c068383613158565b60208301905092915050565b612c1b81613aa6565b82525050565b612c2a81613aa6565b82525050565b6000612c3b82613884565b612c4581856138fa565b9350612c5083613844565b8060005b83811015612c81578151612c688882612bba565b9750612c73836138c6565b925050600181019050612c54565b5085935050505092915050565b6000612c998261388f565b612ca3818561390b565b935083602082028501612cb585613854565b8060005b85811015612cf15784840389528151612cd28582612bd2565b9450612cdd836138d3565b925060208a01995050600181019050612cb9565b50829750879550505050505092915050565b6000612d0e8261389a565b612d18818561391c565b935083602082028501612d2a85613864565b8060005b85811015612d665784840389528151612d478582612be6565b9450612d52836138e0565b925060208a01995050600181019050612d2e565b50829750879550505050505092915050565b6000612d83826138a5565b612d8d818561392d565b9350612d9883613874565b8060005b83811015612dc9578151612db08882612bfa565b9750612dbb836138ed565b925050600181019050612d9c565b5085935050505092915050565b612ddf81613ab8565b82525050565b612dee81613ac4565b82525050565b612e05612e0082613ac4565b613c8e565b82525050565b6000612e16826138b0565b612e20818561393e565b9350612e30818560208601613baf565b612e3981613d83565b840191505092915050565b6000612e4f826138b0565b612e59818561394f565b9350612e69818560208601613baf565b80840191505092915050565b612e7e81613b58565b82525050565b612e8d81613b7c565b82525050565b6000612e9e826138bb565b612ea8818561395a565b9350612eb8818560208601613baf565b612ec181613d83565b840191505092915050565b6000612ed7826138bb565b612ee1818561396b565b9350612ef1818560208601613baf565b612efa81613d83565b840191505092915050565b6000612f1260188361396b565b9150612f1d82613d94565b602082019050919050565b6000612f3560188361396b565b9150612f4082613dbd565b602082019050919050565b6000612f5860438361396b565b9150612f6382613de6565b606082019050919050565b6000612f7b601f8361396b565b9150612f8682613e5b565b602082019050919050565b6000612f9e60028361397c565b9150612fa982613e84565b600282019050919050565b6000612fc160218361396b565b9150612fcc82613ead565b604082019050919050565b6000612fe460228361396b565b9150612fef82613efc565b604082019050919050565b600061300760238361396b565b915061301282613f4b565b604082019050919050565b600061302a60188361396b565b915061303582613f9a565b602082019050919050565b600061304d60228361396b565b915061305882613fc3565b604082019050919050565b600061307060268361396b565b915061307b82614012565b604082019050919050565b6000613093601d8361396b565b915061309e82614061565b602082019050919050565b60006130b660218361396b565b91506130c18261408a565b604082019050919050565b60006130d9601d8361396b565b91506130e4826140d9565b602082019050919050565b60006130fc60358361396b565b915061310782614102565b604082019050919050565b600061311f60218361396b565b915061312a82614151565b604082019050919050565b600061314260298361396b565b915061314d826141a0565b604082019050919050565b61316181613b2d565b82525050565b61317081613b2d565b82525050565b61317f81613b8e565b82525050565b61318e81613b4b565b82525050565b60006131a08284612e44565b915081905092915050565b60006131b682612f91565b91506131c28285612df4565b6020820191506131d28284612df4565b6020820191508190509392505050565b60006040820190506131f76000830185612c21565b6132046020830184613167565b9392505050565b600060808201905081810360008301526132258187612c30565b905081810360208301526132398186612d78565b9050818103604083015261324d8185612c8e565b905061325c6060830184612de5565b95945050505050565b600060208201905061327a6000830184612dd6565b92915050565b60006020820190506132956000830184612de5565b92915050565b600060a0820190506132b06000830188612de5565b6132bd6020830187612de5565b6132ca6040830186612de5565b6132d76060830185613167565b6132e46080830184612c21565b9695505050505050565b60006060820190506133036000830186612de5565b6133106020830185613167565b61331d6040830184613185565b949350505050565b600060808201905061333a6000830187612de5565b6133476020830186613185565b6133546040830185612de5565b6133616060830184612de5565b95945050505050565b600060208201905061337f6000830184612e75565b92915050565b600060208201905061339a6000830184612e84565b92915050565b600060208201905081810360008301526133ba8184612ecc565b905092915050565b600060208201905081810360008301526133db81612f05565b9050919050565b600060208201905081810360008301526133fb81612f28565b9050919050565b6000602082019050818103600083015261341b81612f4b565b9050919050565b6000602082019050818103600083015261343b81612f6e565b9050919050565b6000602082019050818103600083015261345b81612fb4565b9050919050565b6000602082019050818103600083015261347b81612fd7565b9050919050565b6000602082019050818103600083015261349b81612ffa565b9050919050565b600060208201905081810360008301526134bb8161301d565b9050919050565b600060208201905081810360008301526134db81613040565b9050919050565b600060208201905081810360008301526134fb81613063565b9050919050565b6000602082019050818103600083015261351b81613086565b9050919050565b6000602082019050818103600083015261353b816130a9565b9050919050565b6000602082019050818103600083015261355b816130cc565b9050919050565b6000602082019050818103600083015261357b816130ef565b9050919050565b6000602082019050818103600083015261359b81613112565b9050919050565b600060208201905081810360008301526135bb81613135565b9050919050565b60006020820190506135d76000830184613167565b92915050565b6000610120820190506135f3600083018c613167565b613600602083018b612c21565b8181036040830152613612818a612c30565b905081810360608301526136268189612d78565b9050818103608083015261363a8188612d03565b905081810360a083015261364e8187612c8e565b905061365d60c0830186613176565b61366a60e0830185613176565b81810361010083015261367d8184612ecc565b90509a9950505050505050505050565b60006040820190506136a26000830185613167565b6136af6020830184613167565b9392505050565b60006060820190506136cb6000830186613167565b6136d86020830185613167565b6136e56040830184613167565b949350505050565b60006080820190506137026000830187613167565b61370f6020830186613185565b61371c6040830185613167565b818103606083015261372e8184612ecc565b905095945050505050565b6000613743613754565b905061374f8282613c14565b919050565b6000604051905090565b600067ffffffffffffffff82111561377957613778613d54565b5b602082029050602081019050919050565b600067ffffffffffffffff8211156137a5576137a4613d54565b5b602082029050602081019050919050565b600067ffffffffffffffff8211156137d1576137d0613d54565b5b602082029050602081019050919050565b600067ffffffffffffffff8211156137fd576137fc613d54565b5b61380682613d83565b9050602081019050919050565b600067ffffffffffffffff82111561382e5761382d613d54565b5b61383782613d83565b9050602081019050919050565b6000819050602082019050919050565b6000819050602082019050919050565b6000819050602082019050919050565b6000819050602082019050919050565b600081519050919050565b600081519050919050565b600081519050919050565b600081519050919050565b600081519050919050565b600081519050919050565b6000602082019050919050565b6000602082019050919050565b6000602082019050919050565b6000602082019050919050565b600082825260208201905092915050565b600082825260208201905092915050565b600082825260208201905092915050565b600082825260208201905092915050565b600082825260208201905092915050565b600081905092915050565b600082825260208201905092915050565b600082825260208201905092915050565b600081905092915050565b600061399282613b2d565b915061399d83613b2d565b9250827fffffffffffffffffffffffffffffffffffffffffffffffffffffffffffffffff038211156139d2576139d1613c98565b5b828201905092915050565b60006139e882613b37565b91506139f383613b37565b92508267ffffffffffffffff03821115613a1057613a0f613c98565b5b828201905092915050565b6000613a2682613b2d565b9150613a3183613b2d565b925082613a4157613a40613cc7565b5b828204905092915050565b6000613a5782613b2d565b9150613a6283613b2d565b9250817fffffffffffffffffffffffffffffffffffffffffffffffffffffffffffffffff0483118215151615613a9b57613a9a613c98565b5b828202905092915050565b6000613ab182613b0d565b9050919050565b60008115159050919050565b6000819050919050565b60007fffffffff0000000000000000000000000000000000000000000000000000000082169050919050565b6000819050613b08826141ef565b919050565b600073ffffffffffffffffffffffffffffffffffffffff82169050919050565b6000819050919050565b600067ffffffffffffffff82169050919050565b600060ff82169050919050565b6000613b6382613b6a565b9050919050565b6000613b7582613b0d565b9050919050565b6000613b8782613afa565b9050919050565b6000613b9982613b37565b9050919050565b82818337600083830152505050565b60005b83811015613bcd578082015181840152602081019050613bb2565b83811115613bdc576000848401525b50505050565b60006002820490506001821680613bfa57607f821691505b60208210811415613c0e57613c0d613d25565b5b50919050565b613c1d82613d83565b810181811067ffffffffffffffff82111715613c3c57613c3b613d54565b5b80604052505050565b6000613c5082613b2d565b91507fffffffffffffffffffffffffffffffffffffffffffffffffffffffffffffffff821415613c8357613c82613c98565b5b600182019050919050565b6000819050919050565b7f4e487b7100000000000000000000000000000000000000000000000000000000600052601160045260246000fd5b7f4e487b7100000000000000000000000000000000000000000000000000000000600052601260045260246000fd5b7f4e487b7100000000000000000000000000000000000000000000000000000000600052602160045260246000fd5b7f4e487b7100000000000000000000000000000000000000000000000000000000600052602260045260246000fd5b7f4e487b7100000000000000000000000000000000000000000000000000000000600052604160045260246000fd5b6000601f19601f8301169050919050565b7f45434453413a20696e76616c6964207369676e61747572650000000000000000600082015250565b7f476f7665726e6f723a206f6e6c79476f7665726e616e63650000000000000000600082015250565b7f476f7665726e6f72566f74657351756f72756d4672616374696f6e3a2071756f60008201527f72756d4e756d657261746f72206f7665722071756f72756d44656e6f6d696e6160208201527f746f720000000000000000000000000000000000000000000000000000000000604082015250565b7f45434453413a20696e76616c6964207369676e6174757265206c656e67746800600082015250565b7f1901000000000000000000000000000000000000000000000000000000000000600082015250565b7f476f7665726e6f723a20696e76616c69642070726f706f73616c206c656e677460008201527f6800000000000000000000000000000000000000000000000000000000000000602082015250565b7f45434453413a20696e76616c6964207369676e6174757265202773272076616c60008201527f7565000000000000000000000000000000000000000000000000000000000000602082015250565b7f476f7665726e6f723a20766f7465206e6f742063757272656e746c792061637460008201527f6976650000000000000000000000000000000000000000000000000000000000602082015250565b7f476f7665726e6f723a20656d7074792070726f706f73616c0000000000000000600082015250565b7f45434453413a20696e76616c6964207369676e6174757265202776272076616c60008201527f7565000000000000000000000000000000000000000000000000000000000000602082015250565b7f53616665436173743a2076616c756520646f65736e27742066697420696e203660008201527f3420626974730000000000000000000000000000000000000000000000000000602082015250565b7f476f7665726e6f723a2070726f706f73616c206e6f7420616374697665000000600082015250565b7f476f7665726e6f723a2070726f706f73616c206e6f742073756363657373667560008201527f6c00000000000000000000000000000000000000000000000000000000000000602082015250565b7f476f7665726e6f723a20756e6b6e6f776e2070726f706f73616c206964000000600082015250565b7f476f7665726e6f72566f74696e6753696d706c653a20696e76616c696420766160008201527f6c756520666f7220656e756d20566f7465547970650000000000000000000000602082015250565b7f476f7665726e6f723a2070726f706f73616c20616c726561647920657869737460008201527f7300000000000000000000000000000000000000000000000000000000000000602082015250565b7f476f7665726e6f72566f74696e6753696d706c653a20766f746520616c72656160008201527f6479206361737465640000000000000000000000000000000000000000000000602082015250565b60088110614200576141ff613cf6565b5b50565b61420c81613aa6565b811461421757600080fd5b50565b61422381613ac4565b811461422e57600080fd5b50565b61423a81613ace565b811461424557600080fd5b50565b61425181613b2d565b811461425c57600080fd5b50565b61426881613b4b565b811461427357600080fd5b5056fe476f7665726e6f723a2063616c6c20726576657274656420776974686f7574206d657373616765a2646970667358221220b5307cd4b7124aeb12ac8314a3ba66b52824a67576bae93a6b467946c6eca8e364736f6c63430008020033",
  "immutableReferences": {
    "5743": [
      {
        "length": 32,
        "start": 4789
      },
      {
        "length": 32,
        "start": 4985
      },
      {
        "length": 32,
        "start": 7095
      }
    ],
    "10917": [
      {
        "length": 32,
        "start": 2723
      }
    ],
    "10919": [
      {
        "length": 32,
        "start": 1832
      }
    ],
    "24966": [
      {
        "length": 32,
        "start": 7419
      }
    ],
    "24968": [
      {
        "length": 32,
        "start": 7379
      }
    ],
    "24970": [
      {
        "length": 32,
        "start": 7495
      }
    ],
    "24972": [
      {
        "length": 32,
        "start": 7528
      }
    ],
    "24974": [
      {
        "length": 32,
        "start": 7462
      }
    ]
  },
  "source": "// SPDX-License-Identifier: MIT\n\npragma solidity ^0.8.0;\n\nimport \"../governance/Governor.sol\";\nimport \"../governance/extensions/GovernorCountingSimple.sol\";\nimport \"../governance/extensions/GovernorVotesQuorumFraction.sol\";\n\ncontract GovernorMock is Governor, GovernorVotesQuorumFraction, GovernorCountingSimple {\n    uint256 immutable _votingDelay;\n    uint256 immutable _votingPeriod;\n\n    constructor(\n        string memory name_,\n        ERC20Votes token_,\n        uint256 votingDelay_,\n        uint256 votingPeriod_,\n        uint256 quorumNumerator_\n    ) Governor(name_) GovernorVotes(token_) GovernorVotesQuorumFraction(quorumNumerator_) {\n        _votingDelay = votingDelay_;\n        _votingPeriod = votingPeriod_;\n    }\n\n    receive() external payable {}\n\n    function votingDelay() public view override returns (uint256) {\n        return _votingDelay;\n    }\n\n    function votingPeriod() public view override returns (uint256) {\n        return _votingPeriod;\n    }\n\n    function cancel(\n        address[] memory targets,\n        uint256[] memory values,\n        bytes[] memory calldatas,\n        bytes32 salt\n    ) public returns (uint256 proposalId) {\n        return _cancel(targets, values, calldatas, salt);\n    }\n\n    function getVotes(address account, uint256 blockNumber)\n        public\n        view\n        virtual\n        override(IGovernor, GovernorVotes)\n        returns (uint256)\n    {\n        return super.getVotes(account, blockNumber);\n    }\n}\n",
  "sourcePath": "/home/sushant/Documents/blockchain_work/EatTheBlock/ecomapp2/contracts/openzeppelin/contracts/mocks/GovernorMock.sol",
  "compiler": {
    "name": "solc",
    "version": "0.8.2+commit.661d1103.Emscripten.clang"
  },
  "schemaVersion": "3.4.2",
  "updatedAt": "2021-08-09T18:32:24.495Z",
  "devdoc": {
    "kind": "dev",
    "methods": {
      "COUNTING_MODE()": {
        "details": "See {IGovernor-COUNTING_MODE}."
      },
      "castVote(uint256,uint8)": {
        "details": "See {IGovernor-castVote}."
      },
      "castVoteBySig(uint256,uint8,uint8,bytes32,bytes32)": {
        "details": "See {IGovernor-castVoteBySig}."
      },
      "castVoteWithReason(uint256,uint8,string)": {
        "details": "See {IGovernor-castVoteWithReason}."
      },
      "execute(address[],uint256[],bytes[],bytes32)": {
        "details": "See {IGovernor-execute}."
      },
      "hasVoted(uint256,address)": {
        "details": "See {IGovernor-hasVoted}."
      },
      "hashProposal(address[],uint256[],bytes[],bytes32)": {
        "details": "See {IGovernor-hashProposal}. The proposal id is produced by hashing the RLC encoded `targets` array, the `values` array, the `calldatas` array and the descriptionHash (bytes32 which itself is the keccak256 hash of the description string). This proposal id can be produced from the proposal data which is part of the {ProposalCreated} event. It can even be computed in advance, before the proposal is submitted. Note that the chainId and the governor address are not part of the proposal id computation. Consequently, the same proposal (with same operation and same description) will have the same id if submitted on multiple governors accross multiple networks. This also means that in order to execute the same operation twice (on the same governor) the proposer will have to change the description in order to avoid proposal id conflicts."
      },
      "name()": {
        "details": "See {IGovernor-name}."
      },
      "proposalDeadline(uint256)": {
        "details": "See {IGovernor-proposalDeadline}."
      },
      "proposalSnapshot(uint256)": {
        "details": "See {IGovernor-proposalSnapshot}."
      },
      "proposalVotes(uint256)": {
        "details": "Accessor to the internal vote counts."
      },
      "propose(address[],uint256[],bytes[],string)": {
        "details": "See {IGovernor-propose}."
      },
      "quorum(uint256)": {
        "details": "Minimum number of casted voted requiered for a proposal to be successful. Note: The `blockNumber` parameter corresponds to the snaphot used for counting vote. This allows to scale the quroum depending on values such as the totalSupply of a token at this block (see {ERC20Votes})."
      },
      "state(uint256)": {
        "details": "See {IGovernor-state}."
      },
      "supportsInterface(bytes4)": {
        "details": "See {IERC165-supportsInterface}."
      },
      "version()": {
        "details": "See {IGovernor-version}."
      },
      "votingDelay()": {
        "details": "delay, in number of block, between the proposal is created and the vote starts. This can be increassed to leave time for users to buy voting power, of delegate it, before the voting of a proposal starts."
      },
      "votingPeriod()": {
        "details": "delay, in number of blocks, between the vote start and vote ends. Note: the {votingDelay} can delay the start of the vote. This must be considered when setting the voting duration compared to the voting delay."
      }
    },
    "version": 1
  },
  "userdoc": {
    "kind": "user",
    "methods": {
      "quorum(uint256)": {
        "notice": "module:user-config"
      },
      "votingDelay()": {
        "notice": "module:user-config"
      },
      "votingPeriod()": {
        "notice": "module:user-config"
      }
    },
    "version": 1
  }
}