{
  "contractName": "GovernorCompatibilityBravoMock",
  "abi": [
    {
      "inputs": [
        {
          "internalType": "string",
          "name": "name_",
          "type": "string"
        },
        {
          "internalType": "contract ERC20VotesComp",
          "name": "token_",
          "type": "address"
        },
        {
          "internalType": "uint256",
          "name": "votingDelay_",
          "type": "uint256"
        },
        {
          "internalType": "uint256",
          "name": "votingPeriod_",
          "type": "uint256"
        },
        {
          "internalType": "uint256",
          "name": "proposalThreshold_",
          "type": "uint256"
        },
        {
          "internalType": "contract ICompoundTimelock",
          "name": "timelock_",
          "type": "address"
        }
      ],
      "stateMutability": "nonpayable",
      "type": "constructor"
    },
    {
      "anonymous": false,
      "inputs": [
        {
          "indexed": false,
          "internalType": "uint256",
          "name": "proposalId",
          "type": "uint256"
        }
      ],
      "name": "ProposalCanceled",
      "type": "event"
    },
    {
      "anonymous": false,
      "inputs": [
        {
          "indexed": false,
          "internalType": "uint256",
          "name": "proposalId",
          "type": "uint256"
        },
        {
          "indexed": false,
          "internalType": "address",
          "name": "proposer",
          "type": "address"
        },
        {
          "indexed": false,
          "internalType": "address[]",
          "name": "targets",
          "type": "address[]"
        },
        {
          "indexed": false,
          "internalType": "uint256[]",
          "name": "values",
          "type": "uint256[]"
        },
        {
          "indexed": false,
          "internalType": "string[]",
          "name": "signatures",
          "type": "string[]"
        },
        {
          "indexed": false,
          "internalType": "bytes[]",
          "name": "calldatas",
          "type": "bytes[]"
        },
        {
          "indexed": false,
          "internalType": "uint256",
          "name": "startBlock",
          "type": "uint256"
        },
        {
          "indexed": false,
          "internalType": "uint256",
          "name": "endBlock",
          "type": "uint256"
        },
        {
          "indexed": false,
          "internalType": "string",
          "name": "description",
          "type": "string"
        }
      ],
      "name": "ProposalCreated",
      "type": "event"
    },
    {
      "anonymous": false,
      "inputs": [
        {
          "indexed": false,
          "internalType": "uint256",
          "name": "proposalId",
          "type": "uint256"
        }
      ],
      "name": "ProposalExecuted",
      "type": "event"
    },
    {
      "anonymous": false,
      "inputs": [
        {
          "indexed": false,
          "internalType": "uint256",
          "name": "proposalId",
          "type": "uint256"
        },
        {
          "indexed": false,
          "internalType": "uint256",
          "name": "eta",
          "type": "uint256"
        }
      ],
      "name": "ProposalQueued",
      "type": "event"
    },
    {
      "anonymous": false,
      "inputs": [
        {
          "indexed": false,
          "internalType": "address",
          "name": "oldTimelock",
          "type": "address"
        },
        {
          "indexed": false,
          "internalType": "address",
          "name": "newTimelock",
          "type": "address"
        }
      ],
      "name": "TimelockChange",
      "type": "event"
    },
    {
      "anonymous": false,
      "inputs": [
        {
          "indexed": true,
          "internalType": "address",
          "name": "voter",
          "type": "address"
        },
        {
          "indexed": false,
          "internalType": "uint256",
          "name": "proposalId",
          "type": "uint256"
        },
        {
          "indexed": false,
          "internalType": "uint8",
          "name": "support",
          "type": "uint8"
        },
        {
          "indexed": false,
          "internalType": "uint256",
          "name": "weight",
          "type": "uint256"
        },
        {
          "indexed": false,
          "internalType": "string",
          "name": "reason",
          "type": "string"
        }
      ],
      "name": "VoteCast",
      "type": "event"
    },
    {
      "inputs": [],
      "name": "BALLOT_TYPEHASH",
      "outputs": [
        {
          "internalType": "bytes32",
          "name": "",
          "type": "bytes32"
        }
      ],
      "stateMutability": "view",
      "type": "function"
    },
    {
      "inputs": [],
      "name": "COUNTING_MODE",
      "outputs": [
        {
          "internalType": "string",
          "name": "",
          "type": "string"
        }
      ],
      "stateMutability": "pure",
      "type": "function"
    },
    {
      "inputs": [],
      "name": "__acceptAdmin",
      "outputs": [],
      "stateMutability": "nonpayable",
      "type": "function"
    },
    {
      "inputs": [
        {
          "internalType": "uint256",
          "name": "proposalId",
          "type": "uint256"
        },
        {
          "internalType": "uint8",
          "name": "support",
          "type": "uint8"
        }
      ],
      "name": "castVote",
      "outputs": [
        {
          "internalType": "uint256",
          "name": "",
          "type": "uint256"
        }
      ],
      "stateMutability": "nonpayable",
      "type": "function"
    },
    {
      "inputs": [
        {
          "internalType": "uint256",
          "name": "proposalId",
          "type": "uint256"
        },
        {
          "internalType": "uint8",
          "name": "support",
          "type": "uint8"
        },
        {
          "internalType": "uint8",
          "name": "v",
          "type": "uint8"
        },
        {
          "internalType": "bytes32",
          "name": "r",
          "type": "bytes32"
        },
        {
          "internalType": "bytes32",
          "name": "s",
          "type": "bytes32"
        }
      ],
      "name": "castVoteBySig",
      "outputs": [
        {
          "internalType": "uint256",
          "name": "",
          "type": "uint256"
        }
      ],
      "stateMutability": "nonpayable",
      "type": "function"
    },
    {
      "inputs": [
        {
          "internalType": "uint256",
          "name": "proposalId",
          "type": "uint256"
        },
        {
          "internalType": "uint8",
          "name": "support",
          "type": "uint8"
        },
        {
          "internalType": "string",
          "name": "reason",
          "type": "string"
        }
      ],
      "name": "castVoteWithReason",
      "outputs": [
        {
          "internalType": "uint256",
          "name": "",
          "type": "uint256"
        }
      ],
      "stateMutability": "nonpayable",
      "type": "function"
    },
    {
      "inputs": [
        {
          "internalType": "uint256",
          "name": "proposalId",
          "type": "uint256"
        }
      ],
      "name": "getActions",
      "outputs": [
        {
          "internalType": "address[]",
          "name": "targets",
          "type": "address[]"
        },
        {
          "internalType": "uint256[]",
          "name": "values",
          "type": "uint256[]"
        },
        {
          "internalType": "string[]",
          "name": "signatures",
          "type": "string[]"
        },
        {
          "internalType": "bytes[]",
          "name": "calldatas",
          "type": "bytes[]"
        }
      ],
      "stateMutability": "view",
      "type": "function"
    },
    {
      "inputs": [
        {
          "internalType": "uint256",
          "name": "proposalId",
          "type": "uint256"
        },
        {
          "internalType": "address",
          "name": "voter",
          "type": "address"
        }
      ],
      "name": "getReceipt",
      "outputs": [
        {
          "components": [
            {
              "internalType": "bool",
              "name": "hasVoted",
              "type": "bool"
            },
            {
              "internalType": "uint8",
              "name": "support",
              "type": "uint8"
            },
            {
              "internalType": "uint96",
              "name": "votes",
              "type": "uint96"
            }
          ],
          "internalType": "struct IGovernorCompatibilityBravo.Receipt",
          "name": "",
          "type": "tuple"
        }
      ],
      "stateMutability": "view",
      "type": "function"
    },
    {
      "inputs": [
        {
          "internalType": "uint256",
          "name": "proposalId",
          "type": "uint256"
        },
        {
          "internalType": "address",
          "name": "account",
          "type": "address"
        }
      ],
      "name": "hasVoted",
      "outputs": [
        {
          "internalType": "bool",
          "name": "",
          "type": "bool"
        }
      ],
      "stateMutability": "view",
      "type": "function"
    },
    {
      "inputs": [
        {
          "internalType": "address[]",
          "name": "targets",
          "type": "address[]"
        },
        {
          "internalType": "uint256[]",
          "name": "values",
          "type": "uint256[]"
        },
        {
          "internalType": "bytes[]",
          "name": "calldatas",
          "type": "bytes[]"
        },
        {
          "internalType": "bytes32",
          "name": "descriptionHash",
          "type": "bytes32"
        }
      ],
      "name": "hashProposal",
      "outputs": [
        {
          "internalType": "uint256",
          "name": "",
          "type": "uint256"
        }
      ],
      "stateMutability": "pure",
      "type": "function"
    },
    {
      "inputs": [],
      "name": "name",
      "outputs": [
        {
          "internalType": "string",
          "name": "",
          "type": "string"
        }
      ],
      "stateMutability": "view",
      "type": "function"
    },
    {
      "inputs": [
        {
          "internalType": "uint256",
          "name": "proposalId",
          "type": "uint256"
        }
      ],
      "name": "proposalDeadline",
      "outputs": [
        {
          "internalType": "uint256",
          "name": "",
          "type": "uint256"
        }
      ],
      "stateMutability": "view",
      "type": "function"
    },
    {
      "inputs": [
        {
          "internalType": "uint256",
          "name": "proposalId",
          "type": "uint256"
        }
      ],
      "name": "proposalSnapshot",
      "outputs": [
        {
          "internalType": "uint256",
          "name": "",
          "type": "uint256"
        }
      ],
      "stateMutability": "view",
      "type": "function"
    },
    {
      "inputs": [
        {
          "internalType": "uint256",
          "name": "proposalId",
          "type": "uint256"
        }
      ],
      "name": "proposals",
      "outputs": [
        {
          "internalType": "uint256",
          "name": "id",
          "type": "uint256"
        },
        {
          "internalType": "address",
          "name": "proposer",
          "type": "address"
        },
        {
          "internalType": "uint256",
          "name": "eta",
          "type": "uint256"
        },
        {
          "internalType": "uint256",
          "name": "startBlock",
          "type": "uint256"
        },
        {
          "internalType": "uint256",
          "name": "endBlock",
          "type": "uint256"
        },
        {
          "internalType": "uint256",
          "name": "forVotes",
          "type": "uint256"
        },
        {
          "internalType": "uint256",
          "name": "againstVotes",
          "type": "uint256"
        },
        {
          "internalType": "uint256",
          "name": "abstainVotes",
          "type": "uint256"
        },
        {
          "internalType": "bool",
          "name": "canceled",
          "type": "bool"
        },
        {
          "internalType": "bool",
          "name": "executed",
          "type": "bool"
        }
      ],
      "stateMutability": "view",
      "type": "function"
    },
    {
      "inputs": [],
      "name": "quorumVotes",
      "outputs": [
        {
          "internalType": "uint256",
          "name": "",
          "type": "uint256"
        }
      ],
      "stateMutability": "view",
      "type": "function"
    },
    {
      "inputs": [],
      "name": "timelock",
      "outputs": [
        {
          "internalType": "address",
          "name": "",
          "type": "address"
        }
      ],
      "stateMutability": "view",
      "type": "function"
    },
    {
      "inputs": [],
      "name": "token",
      "outputs": [
        {
          "internalType": "contract ERC20VotesComp",
          "name": "",
          "type": "address"
        }
      ],
      "stateMutability": "view",
      "type": "function"
    },
    {
      "inputs": [
        {
          "internalType": "contract ICompoundTimelock",
          "name": "newTimelock",
          "type": "address"
        }
      ],
      "name": "updateTimelock",
      "outputs": [],
      "stateMutability": "nonpayable",
      "type": "function"
    },
    {
      "inputs": [],
      "name": "version",
      "outputs": [
        {
          "internalType": "string",
          "name": "",
          "type": "string"
        }
      ],
      "stateMutability": "view",
      "type": "function"
    },
    {
      "inputs": [
        {
          "internalType": "bytes4",
          "name": "interfaceId",
          "type": "bytes4"
        }
      ],
      "name": "supportsInterface",
      "outputs": [
        {
          "internalType": "bool",
          "name": "",
          "type": "bool"
        }
      ],
      "stateMutability": "view",
      "type": "function"
    },
    {
      "inputs": [],
      "name": "votingDelay",
      "outputs": [
        {
          "internalType": "uint256",
          "name": "",
          "type": "uint256"
        }
      ],
      "stateMutability": "view",
      "type": "function"
    },
    {
      "inputs": [],
      "name": "votingPeriod",
      "outputs": [
        {
          "internalType": "uint256",
          "name": "",
          "type": "uint256"
        }
      ],
      "stateMutability": "view",
      "type": "function"
    },
    {
      "inputs": [],
      "name": "proposalThreshold",
      "outputs": [
        {
          "internalType": "uint256",
          "name": "",
          "type": "uint256"
        }
      ],
      "stateMutability": "view",
      "type": "function"
    },
    {
      "inputs": [
        {
          "internalType": "uint256",
          "name": "",
          "type": "uint256"
        }
      ],
      "name": "quorum",
      "outputs": [
        {
          "internalType": "uint256",
          "name": "",
          "type": "uint256"
        }
      ],
      "stateMutability": "pure",
      "type": "function"
    },
    {
      "inputs": [
        {
          "internalType": "uint256",
          "name": "proposalId",
          "type": "uint256"
        }
      ],
      "name": "state",
      "outputs": [
        {
          "internalType": "enum IGovernor.ProposalState",
          "name": "",
          "type": "uint8"
        }
      ],
      "stateMutability": "view",
      "type": "function"
    },
    {
      "inputs": [
        {
          "internalType": "uint256",
          "name": "proposalId",
          "type": "uint256"
        }
      ],
      "name": "proposalEta",
      "outputs": [
        {
          "internalType": "uint256",
          "name": "",
          "type": "uint256"
        }
      ],
      "stateMutability": "view",
      "type": "function"
    },
    {
      "inputs": [
        {
          "internalType": "address[]",
          "name": "targets",
          "type": "address[]"
        },
        {
          "internalType": "uint256[]",
          "name": "values",
          "type": "uint256[]"
        },
        {
          "internalType": "bytes[]",
          "name": "calldatas",
          "type": "bytes[]"
        },
        {
          "internalType": "string",
          "name": "description",
          "type": "string"
        }
      ],
      "name": "propose",
      "outputs": [
        {
          "internalType": "uint256",
          "name": "",
          "type": "uint256"
        }
      ],
      "stateMutability": "nonpayable",
      "type": "function"
    },
    {
      "inputs": [
        {
          "internalType": "address[]",
          "name": "targets",
          "type": "address[]"
        },
        {
          "internalType": "uint256[]",
          "name": "values",
          "type": "uint256[]"
        },
        {
          "internalType": "string[]",
          "name": "signatures",
          "type": "string[]"
        },
        {
          "internalType": "bytes[]",
          "name": "calldatas",
          "type": "bytes[]"
        },
        {
          "internalType": "string",
          "name": "description",
          "type": "string"
        }
      ],
      "name": "propose",
      "outputs": [
        {
          "internalType": "uint256",
          "name": "",
          "type": "uint256"
        }
      ],
      "stateMutability": "nonpayable",
      "type": "function"
    },
    {
      "inputs": [
        {
          "internalType": "address[]",
          "name": "targets",
          "type": "address[]"
        },
        {
          "internalType": "uint256[]",
          "name": "values",
          "type": "uint256[]"
        },
        {
          "internalType": "bytes[]",
          "name": "calldatas",
          "type": "bytes[]"
        },
        {
          "internalType": "bytes32",
          "name": "salt",
          "type": "bytes32"
        }
      ],
      "name": "queue",
      "outputs": [
        {
          "internalType": "uint256",
          "name": "",
          "type": "uint256"
        }
      ],
      "stateMutability": "nonpayable",
      "type": "function"
    },
    {
      "inputs": [
        {
          "internalType": "uint256",
          "name": "proposalId",
          "type": "uint256"
        }
      ],
      "name": "queue",
      "outputs": [],
      "stateMutability": "nonpayable",
      "type": "function"
    },
    {
      "inputs": [
        {
          "internalType": "address[]",
          "name": "targets",
          "type": "address[]"
        },
        {
          "internalType": "uint256[]",
          "name": "values",
          "type": "uint256[]"
        },
        {
          "internalType": "bytes[]",
          "name": "calldatas",
          "type": "bytes[]"
        },
        {
          "internalType": "bytes32",
          "name": "salt",
          "type": "bytes32"
        }
      ],
      "name": "execute",
      "outputs": [
        {
          "internalType": "uint256",
          "name": "",
          "type": "uint256"
        }
      ],
      "stateMutability": "payable",
      "type": "function"
    },
    {
      "inputs": [
        {
          "internalType": "uint256",
          "name": "proposalId",
          "type": "uint256"
        }
      ],
      "name": "execute",
      "outputs": [],
      "stateMutability": "payable",
      "type": "function"
    },
    {
      "inputs": [
        {
          "internalType": "uint256",
          "name": "proposalId",
          "type": "uint256"
        }
      ],
      "name": "cancel",
      "outputs": [],
      "stateMutability": "nonpayable",
      "type": "function"
    },
    {
      "inputs": [
        {
          "internalType": "address[]",
          "name": "targets",
          "type": "address[]"
        },
        {
          "internalType": "uint256[]",
          "name": "values",
          "type": "uint256[]"
        },
        {
          "internalType": "bytes[]",
          "name": "calldatas",
          "type": "bytes[]"
        },
        {
          "internalType": "bytes32",
          "name": "salt",
          "type": "bytes32"
        }
      ],
      "name": "cancel",
      "outputs": [
        {
          "internalType": "uint256",
          "name": "proposalId",
          "type": "uint256"
        }
      ],
      "stateMutability": "nonpayable",
      "type": "function"
    },
    {
      "inputs": [
        {
          "internalType": "address",
          "name": "account",
          "type": "address"
        },
        {
          "internalType": "uint256",
          "name": "blockNumber",
          "type": "uint256"
        }
      ],
      "name": "getVotes",
      "outputs": [
        {
          "internalType": "uint256",
          "name": "",
          "type": "uint256"
        }
      ],
      "stateMutability": "view",
      "type": "function"
    }
  ],
  "bytecode": "0x6101a06040523480156200001257600080fd5b506040516200777a3803806200777a8339818101604052810190620000389190620003d6565b848187806200004c6200015560201b60201c565b60008280519060200120905060008280519060200120905060007f8b73c3c69bb8fe3d512ecc4cf759cc79239f7b179b0ffacaa9a75d522b39400f90508260c081815250508160e081815250504660a08181525050620000b48184846200019260201b60201c565b6080818152505080610100818152505050505050508060009080519060200190620000e19291906200026f565b5050620000f481620001ce60201b60201c565b508073ffffffffffffffffffffffffffffffffffffffff166101208173ffffffffffffffffffffffffffffffffffffffff1660601b815250505083610140818152505082610160818152505081610180818152505050505050505062000784565b60606040518060400160405280600181526020017f3100000000000000000000000000000000000000000000000000000000000000815250905090565b60008383834630604051602001620001af959493929190620004e5565b6040516020818303038152906040528051906020012090509392505050565b7f08f74ea46ef7894f65eabfb5e6e695de773a000b47c529ab559178069b226401600360009054906101000a900473ffffffffffffffffffffffffffffffffffffffff168260405162000223929190620004b8565b60405180910390a180600360006101000a81548173ffffffffffffffffffffffffffffffffffffffff021916908373ffffffffffffffffffffffffffffffffffffffff16021790555050565b8280546200027d906200065b565b90600052602060002090601f016020900481019282620002a15760008555620002ed565b82601f10620002bc57805160ff1916838001178555620002ed565b82800160010185558215620002ed579182015b82811115620002ec578251825591602001919060010190620002cf565b5b509050620002fc919062000300565b5090565b5b808211156200031b57600081600090555060010162000301565b5090565b60006200033662000330846200056b565b62000542565b9050828152602081018484840111156200034f57600080fd5b6200035c84828562000625565b509392505050565b600081519050620003758162000736565b92915050565b6000815190506200038c8162000750565b92915050565b600082601f830112620003a457600080fd5b8151620003b68482602086016200031f565b91505092915050565b600081519050620003d0816200076a565b92915050565b60008060008060008060c08789031215620003f057600080fd5b600087015167ffffffffffffffff8111156200040b57600080fd5b6200041989828a0162000392565b96505060206200042c89828a0162000364565b95505060406200043f89828a01620003bf565b94505060606200045289828a01620003bf565b93505060806200046589828a01620003bf565b92505060a06200047889828a016200037b565b9150509295509295509295565b6200049081620005a1565b82525050565b620004a181620005c9565b82525050565b620004b2816200061b565b82525050565b6000604082019050620004cf600083018562000485565b620004de602083018462000485565b9392505050565b600060a082019050620004fc600083018862000496565b6200050b602083018762000496565b6200051a604083018662000496565b620005296060830185620004a7565b62000538608083018462000485565b9695505050505050565b60006200054e62000561565b90506200055c828262000691565b919050565b6000604051905090565b600067ffffffffffffffff821115620005895762000588620006f6565b5b620005948262000725565b9050602081019050919050565b6000620005ae82620005fb565b9050919050565b6000620005c282620005fb565b9050919050565b6000819050919050565b6000620005e082620005a1565b9050919050565b6000620005f482620005b5565b9050919050565b600073ffffffffffffffffffffffffffffffffffffffff82169050919050565b6000819050919050565b60005b838110156200064557808201518184015260208101905062000628565b8381111562000655576000848401525b50505050565b600060028204905060018216806200067457607f821691505b602082108114156200068b576200068a620006c7565b5b50919050565b6200069c8262000725565b810181811067ffffffffffffffff82111715620006be57620006bd620006f6565b5b80604052505050565b7f4e487b7100000000000000000000000000000000000000000000000000000000600052602260045260246000fd5b7f4e487b7100000000000000000000000000000000000000000000000000000000600052604160045260246000fd5b6000601f19601f8301169050919050565b6200074181620005d3565b81146200074d57600080fd5b50565b6200075b81620005e7565b81146200076757600080fd5b50565b62000775816200061b565b81146200078157600080fd5b50565b60805160a05160c05160e051610100516101205160601c610140516101605161018051616f7b620007ff600039600061156601526000610acb01526000610efc015260008181611b300152612e730152600061309d015260006130df015260006130be0152600061304a015260006130720152616f7b6000f3fe6080604052600436106102045760003560e01c80637b3c71d311610118578063da95691a116100a0578063e23a9a521161006f578063e23a9a521461082a578063eb9019d414610867578063f8ce560a146108a4578063fc0c546a146108e1578063fe0d94c11461090c57610204565b8063da95691a1461076e578063dd4e2ba5146107ab578063ddf0b009146107d6578063deaaa7cc146107ff57610204565b8063b58131b0116100e7578063b58131b014610687578063b9a61961146106b2578063c01f9e37146106c9578063c59057e414610706578063d33219b41461074357610204565b80637b3c71d3146105a75780637d5e81e2146105e4578063a890c91014610621578063ab58fb8e1461064a57610204565b8063328dd9821161019b57806340e58ee51161016a57806340e58ee51461049c57806343859632146104c5578063452115d61461050257806354fd4d501461053f578063567813881461056a57610204565b8063328dd982146103b75780633932abb1146103f75780633bccf4fd146104225780633e4f49e61461045f57610204565b8063160cbed7116101d7578063160cbed7146102e257806324bc1a641461031f5780632656227d1461034a5780632d63f6931461037a57610204565b8063013cf08b1461020957806301ffc9a71461024f57806302a251a31461028c57806306fdde03146102b7575b600080fd5b34801561021557600080fd5b50610230600480360381019061022b91906151a4565b610928565b6040516102469a99989796959493929190616165565b60405180910390f35b34801561025b57600080fd5b5061027660048036038101906102719190615111565b610ab5565b6040516102839190615c80565b60405180910390f35b34801561029857600080fd5b506102a1610ac7565b6040516102ae919061609a565b60405180910390f35b3480156102c357600080fd5b506102cc610aef565b6040516102d99190615ddd565b60405180910390f35b3480156102ee57600080fd5b5061030960048036038101906103049190614e62565b610b81565b604051610316919061609a565b60405180910390f35b34801561032b57600080fd5b50610334610b99565b604051610341919061609a565b60405180910390f35b610364600480360381019061035f9190614e62565b610bb5565b604051610371919061609a565b60405180910390f35b34801561038657600080fd5b506103a1600480360381019061039c91906151a4565b610bcd565b6040516103ae919061609a565b60405180910390f35b3480156103c357600080fd5b506103de60048036038101906103d991906151a4565b610c3b565b6040516103ee9493929190615c1f565b60405180910390f35b34801561040357600080fd5b5061040c610ef8565b604051610419919061609a565b60405180910390f35b34801561042e57600080fd5b50610449600480360381019061044491906152da565b610f20565b604051610456919061609a565b60405180910390f35b34801561046b57600080fd5b50610486600480360381019061048191906151a4565b610faa565b6040516104939190615dc2565b60405180910390f35b3480156104a857600080fd5b506104c360048036038101906104be91906151a4565b610fbc565b005b3480156104d157600080fd5b506104ec60048036038101906104e791906151f6565b611354565b6040516104f99190615c80565b60405180910390f35b34801561050e57600080fd5b5061052960048036038101906105249190614e62565b6113c2565b604051610536919061609a565b60405180910390f35b34801561054b57600080fd5b506105546113da565b6040516105619190615ddd565b60405180910390f35b34801561057657600080fd5b50610591600480360381019061058c9190615232565b611417565b60405161059e919061609a565b60405180910390f35b3480156105b357600080fd5b506105ce60048036038101906105c9919061526e565b611448565b6040516105db919061609a565b60405180910390f35b3480156105f057600080fd5b5061060b60048036038101906106069190614f0d565b6114b0565b604051610618919061609a565b60405180910390f35b34801561062d57600080fd5b506106486004803603810190610643919061517b565b6114c8565b005b34801561065657600080fd5b50610671600480360381019061066c91906151a4565b611550565b60405161067e919061609a565b60405180910390f35b34801561069357600080fd5b5061069c611562565b6040516106a9919061609a565b60405180910390f35b3480156106be57600080fd5b506106c761158a565b005b3480156106d557600080fd5b506106f060048036038101906106eb91906151a4565b61160e565b6040516106fd919061609a565b60405180910390f35b34801561071257600080fd5b5061072d60048036038101906107289190614e62565b61167c565b60405161073a919061609a565b60405180910390f35b34801561074f57600080fd5b506107586116b8565b6040516107659190615af9565b60405180910390f35b34801561077a57600080fd5b5061079560048036038101906107909190614fd0565b6116e2565b6040516107a2919061609a565b60405180910390f35b3480156107b757600080fd5b506107c0611719565b6040516107cd9190615ddd565b60405180910390f35b3480156107e257600080fd5b506107fd60048036038101906107f891906151a4565b611756565b005b34801561080b57600080fd5b50610814611a0b565b6040516108219190615c9b565b60405180910390f35b34801561083657600080fd5b50610851600480360381019061084c91906151f6565b611a2f565b60405161085e919061607f565b60405180910390f35b34801561087357600080fd5b5061088e60048036038101906108899190614e26565b611b13565b60405161089b919061609a565b60405180910390f35b3480156108b057600080fd5b506108cb60048036038101906108c691906151a4565b611b27565b6040516108d8919061609a565b60405180910390f35b3480156108ed57600080fd5b506108f6611b2e565b6040516109039190615da7565b60405180910390f35b610926600480360381019061092191906151a4565b611b52565b005b6000806000806000806000806000808a99506109438b611550565b975061094e8b610bcd565b96506109598b61160e565b95506000600260008d815260200190815260200160002090508060000160009054906101000a900473ffffffffffffffffffffffffffffffffffffffff16995080600501549550806006015494508060070154935060006109b98d610faa565b9050600260078111156109f5577f4e487b7100000000000000000000000000000000000000000000000000000000600052602160045260246000fd5b816007811115610a2e577f4e487b7100000000000000000000000000000000000000000000000000000000600052602160045260246000fd5b149350600780811115610a6a577f4e487b7100000000000000000000000000000000000000000000000000000000600052602160045260246000fd5b816007811115610aa3577f4e487b7100000000000000000000000000000000000000000000000000000000600052602160045260246000fd5b14925050509193959799509193959799565b6000610ac082611e07565b9050919050565b60007f0000000000000000000000000000000000000000000000000000000000000000905090565b606060008054610afe90616736565b80601f0160208091040260200160405190810160405280929190818152602001828054610b2a90616736565b8015610b775780601f10610b4c57610100808354040283529160200191610b77565b820191906000526020600020905b815481529060010190602001808311610b5a57829003601f168201915b5050505050905090565b6000610b8f85858585611e81565b9050949350505050565b6000610bb0600143610bab919061658a565b611b27565b905090565b6000610bc3858585856123db565b9050949350505050565b6000610c2a600160008481526020019081526020016000206000016040518060200160405290816000820160009054906101000a900467ffffffffffffffff1667ffffffffffffffff1667ffffffffffffffff16815250506125a6565b67ffffffffffffffff169050919050565b60608060608060006002600087815260200190815260200160002090508060010181600201826003018360040183805480602002602001604051908101604052809291908181526020018280548015610ce957602002820191906000526020600020905b8160009054906101000a900473ffffffffffffffffffffffffffffffffffffffff1673ffffffffffffffffffffffffffffffffffffffff1681526020019060010190808311610c9f575b5050505050935082805480602002602001604051908101604052809291908181526020018280548015610d3b57602002820191906000526020600020905b815481526020019060010190808311610d27575b5050505050925081805480602002602001604051908101604052809291908181526020016000905b82821015610e0f578382906000526020600020018054610d8290616736565b80601f0160208091040260200160405190810160405280929190818152602001828054610dae90616736565b8015610dfb5780601f10610dd057610100808354040283529160200191610dfb565b820191906000526020600020905b815481529060010190602001808311610dde57829003601f168201915b505050505081526020019060010190610d63565b50505050915080805480602002602001604051908101604052809291908181526020016000905b82821015610ee2578382906000526020600020018054610e5590616736565b80601f0160208091040260200160405190810160405280929190818152602001828054610e8190616736565b8015610ece5780601f10610ea357610100808354040283529160200191610ece565b820191906000526020600020905b815481529060010190602001808311610eb157829003601f168201915b505050505081526020019060010190610e36565b5050505090509450945094509450509193509193565b60007f0000000000000000000000000000000000000000000000000000000000000000905090565b600080610f81610f797f150214d74d59b7d1e90c73fc22ef3d991dd0a76b046543d4d80ab92d2a50328f8989604051602001610f5e93929190615d09565b604051602081830303815290604052805190602001206125b4565b8686866125ce565b9050610f9e878288604051806020016040528060008152506125f9565b91505095945050505050565b6000610fb582612799565b9050919050565b60006002600083815260200190815260200160002090508060000160009054906101000a900473ffffffffffffffffffffffffffffffffffffffff1673ffffffffffffffffffffffffffffffffffffffff16611016612910565b73ffffffffffffffffffffffffffffffffffffffff161480611077575061103b611562565b6110758260000160009054906101000a900473ffffffffffffffffffffffffffffffffffffffff16600143611070919061658a565b611b13565b105b6110b6576040517f08c379a00000000000000000000000000000000000000000000000000000000081526004016110ad9061605f565b60405180910390fd5b61134f8160010180548060200260200160405190810160405280929190818152602001828054801561113d57602002820191906000526020600020905b8160009054906101000a900473ffffffffffffffffffffffffffffffffffffffff1673ffffffffffffffffffffffffffffffffffffffff16815260200190600101908083116110f3575b50505050508260020180548060200260200160405190810160405280929190818152602001828054801561119057602002820191906000526020600020905b81548152602001906001019080831161117c575b505050505061134584600301805480602002602001604051908101604052809291908181526020016000905b828210156112685783829060005260206000200180546111db90616736565b80601f016020809104026020016040519081016040528092919081815260200182805461120790616736565b80156112545780601f1061122957610100808354040283529160200191611254565b820191906000526020600020905b81548152906001019060200180831161123757829003601f168201915b5050505050815260200190600101906111bc565b5050505085600401805480602002602001604051908101604052809291908181526020016000905b8282101561133c5783829060005260206000200180546112af90616736565b80601f01602080910402602001604051908101604052809291908181526020018280546112db90616736565b80156113285780601f106112fd57610100808354040283529160200191611328565b820191906000526020600020905b81548152906001019060200180831161130b57829003601f168201915b505050505081526020019060010190611290565b50505050612918565b8460090154612b93565b505050565b60006002600084815260200190815260200160002060080160008373ffffffffffffffffffffffffffffffffffffffff1673ffffffffffffffffffffffffffffffffffffffff16815260200190815260200160002060000160009054906101000a900460ff16905092915050565b60006113d085858585612b93565b9050949350505050565b60606040518060400160405280600181526020017f3100000000000000000000000000000000000000000000000000000000000000815250905090565b600080611422612910565b905061143f848285604051806020016040528060008152506125f9565b91505092915050565b600080611453612910565b90506114a586828787878080601f016020809104026020016040519081016040528093929190818152602001838380828437600081840152601f19601f820116905080830192505050505050506125f9565b915050949350505050565b60006114be85858585612bab565b9050949350505050565b6114d0612c4c565b73ffffffffffffffffffffffffffffffffffffffff166114ee612910565b73ffffffffffffffffffffffffffffffffffffffff1614611544576040517f08c379a000000000000000000000000000000000000000000000000000000000815260040161153b90615e1f565b60405180910390fd5b61154d81612c5b565b50565b600061155b82612cfa565b9050919050565b60007f0000000000000000000000000000000000000000000000000000000000000000905090565b600360009054906101000a900473ffffffffffffffffffffffffffffffffffffffff1673ffffffffffffffffffffffffffffffffffffffff16630e18b6816040518163ffffffff1660e01b8152600401600060405180830381600087803b1580156115f457600080fd5b505af1158015611608573d6000803e3d6000fd5b50505050565b600061166b600160008481526020019081526020016000206001016040518060200160405290816000820160009054906101000a900467ffffffffffffffff1667ffffffffffffffff1667ffffffffffffffff16815250506125a6565b67ffffffffffffffff169050919050565b6000848484846040516020016116959493929190615bc5565b6040516020818303038152906040528051906020012060001c9050949350505050565b6000600360009054906101000a900473ffffffffffffffffffffffffffffffffffffffff16905090565b60006116f96116ef612910565b8787878787612d68565b61170e86866117088787612918565b856114b0565b905095945050505050565b60606040518060400160405280601a81526020017f737570706f72743d627261766f2671756f72756d3d627261766f000000000000815250905090565b6000600260008381526020019081526020016000209050611a06816001018054806020026020016040519081016040528092919081815260200182805480156117f457602002820191906000526020600020905b8160009054906101000a900473ffffffffffffffffffffffffffffffffffffffff1673ffffffffffffffffffffffffffffffffffffffff16815260200190600101908083116117aa575b50505050508260020180548060200260200160405190810160405280929190818152602001828054801561184757602002820191906000526020600020905b815481526020019060010190808311611833575b50505050506119fc84600301805480602002602001604051908101604052809291908181526020016000905b8282101561191f57838290600052602060002001805461189290616736565b80601f01602080910402602001604051908101604052809291908181526020018280546118be90616736565b801561190b5780601f106118e05761010080835404028352916020019161190b565b820191906000526020600020905b8154815290600101906020018083116118ee57829003601f168201915b505050505081526020019060010190611873565b5050505085600401805480602002602001604051908101604052809291908181526020016000905b828210156119f357838290600052602060002001805461196690616736565b80601f016020809104026020016040519081016040528092919081815260200182805461199290616736565b80156119df5780601f106119b4576101008083540402835291602001916119df565b820191906000526020600020905b8154815290600101906020018083116119c257829003601f168201915b505050505081526020019060010190611947565b50505050612918565b8460090154610b81565b505050565b7f150214d74d59b7d1e90c73fc22ef3d991dd0a76b046543d4d80ab92d2a50328f81565b611a376145dc565b6002600084815260200190815260200160002060080160008373ffffffffffffffffffffffffffffffffffffffff1673ffffffffffffffffffffffffffffffffffffffff1681526020019081526020016000206040518060600160405290816000820160009054906101000a900460ff161515151581526020016000820160019054906101000a900460ff1660ff1660ff1681526020016000820160029054906101000a90046bffffffffffffffffffffffff166bffffffffffffffffffffffff166bffffffffffffffffffffffff1681525050905092915050565b6000611b1f8383612e6f565b905092915050565b6000919050565b7f000000000000000000000000000000000000000000000000000000000000000081565b6000600260008381526020019081526020016000209050611e0281600101805480602002602001604051908101604052809291908181526020018280548015611bf057602002820191906000526020600020905b8160009054906101000a900473ffffffffffffffffffffffffffffffffffffffff1673ffffffffffffffffffffffffffffffffffffffff1681526020019060010190808311611ba6575b505050505082600201805480602002602001604051908101604052809291908181526020018280548015611c4357602002820191906000526020600020905b815481526020019060010190808311611c2f575b5050505050611df884600301805480602002602001604051908101604052809291908181526020016000905b82821015611d1b578382906000526020600020018054611c8e90616736565b80601f0160208091040260200160405190810160405280929190818152602001828054611cba90616736565b8015611d075780601f10611cdc57610100808354040283529160200191611d07565b820191906000526020600020905b815481529060010190602001808311611cea57829003601f168201915b505050505081526020019060010190611c6f565b5050505085600401805480602002602001604051908101604052809291908181526020016000905b82821015611def578382906000526020600020018054611d6290616736565b80601f0160208091040260200160405190810160405280929190818152602001828054611d8e90616736565b8015611ddb5780601f10611db057610100808354040283529160200191611ddb565b820191906000526020600020905b815481529060010190602001808311611dbe57829003601f168201915b505050505081526020019060010190611d43565b50505050612918565b8460090154610bb5565b505050565b60007f6e665ced000000000000000000000000000000000000000000000000000000007bffffffffffffffffffffffffffffffffffffffffffffffffffffffff1916827bffffffffffffffffffffffffffffffffffffffffffffffffffffffff19161480611e7a5750611e7982612f32565b5b9050919050565b600080611e908686868661167c565b905060046007811115611ecc577f4e487b7100000000000000000000000000000000000000000000000000000000600052602160045260246000fd5b611ed582610faa565b6007811115611f0d577f4e487b7100000000000000000000000000000000000000000000000000000000600052602160045260246000fd5b14611f4d576040517f08c379a0000000000000000000000000000000000000000000000000000000008152600401611f4490615fbf565b60405180910390fd5b6000600360009054906101000a900473ffffffffffffffffffffffffffffffffffffffff1673ffffffffffffffffffffffffffffffffffffffff16636a42b8f86040518163ffffffff1660e01b815260040160206040518083038186803b158015611fb757600080fd5b505afa158015611fcb573d6000803e3d6000fd5b505050506040513d601f19601f82011682018060405250810190611fef91906151cd565b42611ffa91906164f6565b905061202c61200882612fac565b6004600085815260200190815260200160002060000161300390919063ffffffff16565b60005b875181101561239457600360009054906101000a900473ffffffffffffffffffffffffffffffffffffffff1673ffffffffffffffffffffffffffffffffffffffff1663f2b065378983815181106120af577f4e487b7100000000000000000000000000000000000000000000000000000000600052603260045260246000fd5b60200260200101518984815181106120f0577f4e487b7100000000000000000000000000000000000000000000000000000000600052603260045260246000fd5b6020026020010151898581518110612131577f4e487b7100000000000000000000000000000000000000000000000000000000600052603260045260246000fd5b60200260200101518660405160200161214d9493929190615b66565b604051602081830303815290604052805190602001206040518263ffffffff1660e01b815260040161217f9190615c9b565b60206040518083038186803b15801561219757600080fd5b505afa1580156121ab573d6000803e3d6000fd5b505050506040513d601f19601f820116820180604052508101906121cf91906150bf565b1561220f576040517f08c379a000000000000000000000000000000000000000000000000000000000815260040161220690615ebf565b60405180910390fd5b600360009054906101000a900473ffffffffffffffffffffffffffffffffffffffff1673ffffffffffffffffffffffffffffffffffffffff16633a66f901898381518110612286577f4e487b7100000000000000000000000000000000000000000000000000000000600052603260045260246000fd5b60200260200101518984815181106122c7577f4e487b7100000000000000000000000000000000000000000000000000000000600052603260045260246000fd5b6020026020010151898581518110612308577f4e487b7100000000000000000000000000000000000000000000000000000000600052603260045260246000fd5b6020026020010151866040518563ffffffff1660e01b81526004016123309493929190615b66565b602060405180830381600087803b15801561234a57600080fd5b505af115801561235e573d6000803e3d6000fd5b505050506040513d601f19601f8201168201806040525081019061238291906150e8565b508061238d90616799565b905061202f565b507f9a2e42fd6722813d69113e7d0079d3d940171428df7373df9c7f7617cfda289282826040516123c6929190616201565b60405180910390a18192505050949350505050565b6000806123ea8686868661167c565b905060006123f782610faa565b905060046007811115612433577f4e487b7100000000000000000000000000000000000000000000000000000000600052602160045260246000fd5b81600781111561246c577f4e487b7100000000000000000000000000000000000000000000000000000000600052602160045260246000fd5b14806124e85750600560078111156124ad577f4e487b7100000000000000000000000000000000000000000000000000000000600052602160045260246000fd5b8160078111156124e6577f4e487b7100000000000000000000000000000000000000000000000000000000600052602160045260246000fd5b145b612527576040517f08c379a000000000000000000000000000000000000000000000000000000000815260040161251e90615fbf565b60405180910390fd5b600180600084815260200190815260200160002060020160006101000a81548160ff0219169083151502179055507f712ae1383f79ac853f8d882153778e0260ef8f03b504e2866e0593e04d2b291f82604051612584919061609a565b60405180910390a16125998288888888613032565b8192505050949350505050565b600081600001519050919050565b60006125c76125c1613046565b83613109565b9050919050565b60008060006125df8787878761313c565b915091506125ec81613249565b8192505050949350505050565b6000806001600087815260200190815260200160002090506001600781111561264b577f4e487b7100000000000000000000000000000000000000000000000000000000600052602160045260246000fd5b61265487610faa565b600781111561268c577f4e487b7100000000000000000000000000000000000000000000000000000000600052602160045260246000fd5b146126cc576040517f08c379a00000000000000000000000000000000000000000000000000000000081526004016126c390615eff565b60405180910390fd5b600061272a8661271b846000016040518060200160405290816000820160009054906101000a900467ffffffffffffffff1667ffffffffffffffff1667ffffffffffffffff16815250506125a6565b67ffffffffffffffff16611b13565b90506127388787878461359a565b8573ffffffffffffffffffffffffffffffffffffffff167fb8e138887d0aa13bab447e82de9d5c1777041ecd21ca36ba824ff1e6c07ddda488878488604051612784949392919061622a565b60405180910390a28092505050949350505050565b6000806127a583613836565b9050600460078111156127e1577f4e487b7100000000000000000000000000000000000000000000000000000000600052602160045260246000fd5b81600781111561281a577f4e487b7100000000000000000000000000000000000000000000000000000000600052602160045260246000fd5b14612828578091505061290b565b600061283384611550565b9050600081141561284857819250505061290b565b600360009054906101000a900473ffffffffffffffffffffffffffffffffffffffff1673ffffffffffffffffffffffffffffffffffffffff1663c1a287e26040518163ffffffff1660e01b815260040160206040518083038186803b1580156128b057600080fd5b505afa1580156128c4573d6000803e3d6000fd5b505050506040513d601f19601f820116820180604052508101906128e891906151cd565b816128f391906164f6565b42106129045760069250505061290b565b6005925050505b919050565b600033905090565b60606000825167ffffffffffffffff81111561295d577f4e487b7100000000000000000000000000000000000000000000000000000000600052604160045260246000fd5b60405190808252806020026020018201604052801561299057816020015b606081526020019060019003908161297b5790505b50905060005b8451811015612b885760008582815181106129da577f4e487b7100000000000000000000000000000000000000000000000000000000600052603260045260246000fd5b60200260200101515114612af157848181518110612a21577f4e487b7100000000000000000000000000000000000000000000000000000000600052603260045260246000fd5b6020026020010151848281518110612a62577f4e487b7100000000000000000000000000000000000000000000000000000000600052603260045260246000fd5b6020026020010151604051602401612a7a9190615d85565b60405160208183030381529060405290604051612a979190615aab565b60405180910390207bffffffffffffffffffffffffffffffffffffffffffffffffffffffff19166020820180517bffffffffffffffffffffffffffffffffffffffffffffffffffffffff8381831617835250505050612b33565b838181518110612b2a577f4e487b7100000000000000000000000000000000000000000000000000000000600052603260045260246000fd5b60200260200101515b828281518110612b6c577f4e487b7100000000000000000000000000000000000000000000000000000000600052603260045260246000fd5b602002602001018190525080612b8190616799565b9050612996565b508091505092915050565b6000612ba1858585856139fd565b9050949350505050565b6000612c36612bb8612910565b8686865167ffffffffffffffff811115612bfb577f4e487b7100000000000000000000000000000000000000000000000000000000600052604160045260246000fd5b604051908082528060200260200182016040528015612c2e57816020015b6060815260200190600190039081612c195790505b508787612d68565b612c4285858585613bc1565b9050949350505050565b6000612c56613c38565b905090565b7f08f74ea46ef7894f65eabfb5e6e695de773a000b47c529ab559178069b226401600360009054906101000a900473ffffffffffffffffffffffffffffffffffffffff1682604051612cae929190615b14565b60405180910390a180600360006101000a81548173ffffffffffffffffffffffffffffffffffffffff021916908373ffffffffffffffffffffffffffffffffffffffff16021790555050565b6000612d57600460008481526020019081526020016000206000016040518060200160405290816000820160009054906101000a900467ffffffffffffffff1667ffffffffffffffff1667ffffffffffffffff1681525050613c62565b67ffffffffffffffff169050919050565b6000818051906020012090506000612d8b8787612d858888612918565b8561167c565b905060006002600083815260200190815260200160002090506000801b81600901541415612e6457888160000160006101000a81548173ffffffffffffffffffffffffffffffffffffffff021916908373ffffffffffffffffffffffffffffffffffffffff16021790555087816001019080519060200190612e0e929190614610565b5086816002019080519060200190612e2792919061469a565b5085816003019080519060200190612e409291906146e7565b5084816004019080519060200190612e59929190614747565b508281600901819055505b505050505050505050565b60007f000000000000000000000000000000000000000000000000000000000000000073ffffffffffffffffffffffffffffffffffffffff1663782d6fe184846040518363ffffffff1660e01b8152600401612ecc929190615b3d565b60206040518083038186803b158015612ee457600080fd5b505afa158015612ef8573d6000803e3d6000fd5b505050506040513d601f19601f82011682018060405250810190612f1c9190615351565b6bffffffffffffffffffffffff16905092915050565b60007fbf26d897000000000000000000000000000000000000000000000000000000007bffffffffffffffffffffffffffffffffffffffffffffffffffffffff1916827bffffffffffffffffffffffffffffffffffffffffffffffffffffffff19161480612fa55750612fa482613c70565b5b9050919050565b600067ffffffffffffffff8016821115612ffb576040517f08c379a0000000000000000000000000000000000000000000000000000000008152600401612ff290615f5f565b60405180910390fd5b819050919050565b808260000160006101000a81548167ffffffffffffffff021916908367ffffffffffffffff1602179055505050565b61303f8585858585613cda565b5050505050565b60007f0000000000000000000000000000000000000000000000000000000000000000461415613098577f00000000000000000000000000000000000000000000000000000000000000009050613106565b6131037f00000000000000000000000000000000000000000000000000000000000000007f00000000000000000000000000000000000000000000000000000000000000007f0000000000000000000000000000000000000000000000000000000000000000613f0a565b90505b90565b6000828260405160200161311e929190615ac2565b60405160208183030381529060405280519060200120905092915050565b6000807f7fffffffffffffffffffffffffffffff5d576e7357a4501ddfe92f46681b20a08360001c1115613177576000600391509150613240565b601b8560ff161415801561318f5750601c8560ff1614155b156131a1576000600491509150613240565b6000600187878787604051600081526020016040526040516131c69493929190615d40565b6020604051602081039080840390855afa1580156131e8573d6000803e3d6000fd5b505050602060405103519050600073ffffffffffffffffffffffffffffffffffffffff168173ffffffffffffffffffffffffffffffffffffffff16141561323757600060019250925050613240565b80600092509250505b94509492505050565b60006004811115613283577f4e487b7100000000000000000000000000000000000000000000000000000000600052602160045260246000fd5b8160048111156132bc577f4e487b7100000000000000000000000000000000000000000000000000000000600052602160045260246000fd5b14156132c757613597565b60016004811115613301577f4e487b7100000000000000000000000000000000000000000000000000000000600052602160045260246000fd5b81600481111561333a577f4e487b7100000000000000000000000000000000000000000000000000000000600052602160045260246000fd5b141561337b576040517f08c379a000000000000000000000000000000000000000000000000000000000815260040161337290615dff565b60405180910390fd5b600260048111156133b5577f4e487b7100000000000000000000000000000000000000000000000000000000600052602160045260246000fd5b8160048111156133ee577f4e487b7100000000000000000000000000000000000000000000000000000000600052602160045260246000fd5b141561342f576040517f08c379a000000000000000000000000000000000000000000000000000000000815260040161342690615e7f565b60405180910390fd5b60036004811115613469577f4e487b7100000000000000000000000000000000000000000000000000000000600052602160045260246000fd5b8160048111156134a2577f4e487b7100000000000000000000000000000000000000000000000000000000600052602160045260246000fd5b14156134e3576040517f08c379a00000000000000000000000000000000000000000000000000000000081526004016134da90615edf565b60405180910390fd5b60048081111561351c577f4e487b7100000000000000000000000000000000000000000000000000000000600052602160045260246000fd5b816004811115613555577f4e487b7100000000000000000000000000000000000000000000000000000000600052602160045260246000fd5b1415613596576040517f08c379a000000000000000000000000000000000000000000000000000000000815260040161358d90615f3f565b60405180910390fd5b5b50565b600060026000868152602001908152602001600020905060008160080160008673ffffffffffffffffffffffffffffffffffffffff1673ffffffffffffffffffffffffffffffffffffffff16815260200190815260200160002090508060000160009054906101000a900460ff1615613648576040517f08c379a000000000000000000000000000000000000000000000000000000000815260040161363f90615f7f565b60405180910390fd5b60018160000160006101000a81548160ff021916908315150217905550838160000160016101000a81548160ff021916908360ff16021790555061368b83613f44565b8160000160026101000a8154816bffffffffffffffffffffffff02191690836bffffffffffffffffffffffff160217905550600060028111156136f7577f4e487b7100000000000000000000000000000000000000000000000000000000600052602160045260246000fd5b60ff168460ff161415613724578282600601600082825461371891906164f6565b9250508190555061382e565b6001600281111561375e577f4e487b7100000000000000000000000000000000000000000000000000000000600052602160045260246000fd5b60ff168460ff16141561378b578282600501600082825461377f91906164f6565b9250508190555061382d565b6002808111156137c4577f4e487b7100000000000000000000000000000000000000000000000000000000600052602160045260246000fd5b60ff168460ff1614156137f157828260070160008282546137e591906164f6565b9250508190555061382c565b6040517f08c379a000000000000000000000000000000000000000000000000000000000815260040161382390615fff565b60405180910390fd5b5b5b505050505050565b60008060016000848152602001908152602001600020604051806080016040529081600082016040518060200160405290816000820160009054906101000a900467ffffffffffffffff1667ffffffffffffffff1667ffffffffffffffff16815250508152602001600182016040518060200160405290816000820160009054906101000a900467ffffffffffffffff1667ffffffffffffffff1667ffffffffffffffff168152505081526020016002820160009054906101000a900460ff161515151581526020016002820160019054906101000a900460ff161515151581525050905080604001511561392f5760079150506139f8565b8060600151156139435760029150506139f8565b6139508160000151613f9f565b1561395f5760009150506139f8565b61396c8160200151613f9f565b1561397b5760019150506139f8565b6139888160200151613fb9565b156139bd5761399683613fe5565b80156139a757506139a68361401c565b5b6139b25760036139b5565b60045b9150506139f8565b6040517f08c379a00000000000000000000000000000000000000000000000000000000081526004016139ef9061601f565b60405180910390fd5b919050565b600080613a0c86868686614047565b90506000613a1982611550565b90506000811115613bb45760005b8751811015613b9457600360009054906101000a900473ffffffffffffffffffffffffffffffffffffffff1673ffffffffffffffffffffffffffffffffffffffff1663591fcdfe898381518110613aa7577f4e487b7100000000000000000000000000000000000000000000000000000000600052603260045260246000fd5b6020026020010151898481518110613ae8577f4e487b7100000000000000000000000000000000000000000000000000000000600052603260045260246000fd5b6020026020010151898581518110613b29577f4e487b7100000000000000000000000000000000000000000000000000000000600052603260045260246000fd5b6020026020010151866040518563ffffffff1660e01b8152600401613b519493929190615b66565b600060405180830381600087803b158015613b6b57600080fd5b505af1158015613b7f573d6000803e3d6000fd5b5050505080613b8d90616799565b9050613a27565b50613bb360046000848152602001908152602001600020600001614284565b5b8192505050949350505050565b6000613bcb611562565b613be133600143613bdc919061658a565b611b13565b1015613c22576040517f08c379a0000000000000000000000000000000000000000000000000000000008152600401613c1990615e5f565b60405180910390fd5b613c2e858585856142b3565b9050949350505050565b6000600360009054906101000a900473ffffffffffffffffffffffffffffffffffffffff16905090565b600081600001519050919050565b60007f01ffc9a7000000000000000000000000000000000000000000000000000000007bffffffffffffffffffffffffffffffffffffffffffffffffffffffff1916827bffffffffffffffffffffffffffffffffffffffffffffffffffffffff1916149050919050565b6000613ce586611550565b905060008111613d2a576040517f08c379a0000000000000000000000000000000000000000000000000000000008152600401613d2190615fdf565b60405180910390fd5b60005b8551811015613f0157600360009054906101000a900473ffffffffffffffffffffffffffffffffffffffff1673ffffffffffffffffffffffffffffffffffffffff16630825f38f868381518110613dad577f4e487b7100000000000000000000000000000000000000000000000000000000600052603260045260246000fd5b6020026020010151888481518110613dee577f4e487b7100000000000000000000000000000000000000000000000000000000600052603260045260246000fd5b6020026020010151888581518110613e2f577f4e487b7100000000000000000000000000000000000000000000000000000000600052603260045260246000fd5b6020026020010151888681518110613e70577f4e487b7100000000000000000000000000000000000000000000000000000000600052603260045260246000fd5b6020026020010151876040518663ffffffff1660e01b8152600401613e989493929190615b66565b6000604051808303818588803b158015613eb157600080fd5b505af1158015613ec5573d6000803e3d6000fd5b50505050506040513d6000823e3d601f19601f82011682018060405250810190613eef919061513a565b5080613efa90616799565b9050613d2d565b50505050505050565b60008383834630604051602001613f25959493929190615cb6565b6040516020818303038152906040528051906020012090509392505050565b60006bffffffffffffffffffffffff8016821115613f97576040517f08c379a0000000000000000000000000000000000000000000000000000000008152600401613f8e90615e3f565b60405180910390fd5b819050919050565b600043826000015167ffffffffffffffff16119050919050565b6000613fc482614579565b8015613fde575043826000015167ffffffffffffffff1611155b9050919050565b600080600260008481526020019081526020016000209050806005015461401361400e85610bcd565b611b27565b10915050919050565b6000806002600084815260200190815260200160002090508060060154816005015411915050919050565b6000806140568686868661167c565b9050600061406382610faa565b90506002600781111561409f577f4e487b7100000000000000000000000000000000000000000000000000000000600052602160045260246000fd5b8160078111156140d8577f4e487b7100000000000000000000000000000000000000000000000000000000600052602160045260246000fd5b1415801561415757506006600781111561411b577f4e487b7100000000000000000000000000000000000000000000000000000000600052602160045260246000fd5b816007811115614154577f4e487b7100000000000000000000000000000000000000000000000000000000600052602160045260246000fd5b14155b80156141d35750600780811115614197577f4e487b7100000000000000000000000000000000000000000000000000000000600052602160045260246000fd5b8160078111156141d0577f4e487b7100000000000000000000000000000000000000000000000000000000600052602160045260246000fd5b14155b614212576040517f08c379a000000000000000000000000000000000000000000000000000000000815260040161420990615f9f565b60405180910390fd5b600180600084815260200190815260200160002060020160016101000a81548160ff0219169083151502179055507f789cf55be980739dad1d0699b93b58e806b51c9d96619bfa8fe0a28abaa7b30c8260405161426f919061609a565b60405180910390a18192505050949350505050565b60008160000160006101000a81548167ffffffffffffffff021916908367ffffffffffffffff16021790555050565b6000806142c9868686868051906020012061167c565b9050845186511461430f576040517f08c379a000000000000000000000000000000000000000000000000000000000815260040161430690615e9f565b60405180910390fd5b8351865114614353576040517f08c379a000000000000000000000000000000000000000000000000000000000815260040161434a90615e9f565b60405180910390fd5b6000865111614397576040517f08c379a000000000000000000000000000000000000000000000000000000000815260040161438e90615f1f565b60405180910390fd5b60006001600083815260200190815260200160002090506143f7816000016040518060200160405290816000820160009054906101000a900467ffffffffffffffff1667ffffffffffffffff1667ffffffffffffffff1681525050614593565b614436576040517f08c379a000000000000000000000000000000000000000000000000000000000815260040161442d9061603f565b60405180910390fd5b6000614448614443610ef8565b612fac565b61445143612fac565b61445b919061654c565b9050600061446f61446a610ac7565b612fac565b8261447a919061654c565b905061449282846000016145ad90919063ffffffff16565b6144a881846001016145ad90919063ffffffff16565b7f7d84a6263ae0d98d3329bd7b46bb4e8d6f98cd35a7adb45c274c8b7fd5ebd5e0846144d2612910565b8b8b8d5167ffffffffffffffff811115614515577f4e487b7100000000000000000000000000000000000000000000000000000000600052604160045260246000fd5b60405190808252806020026020018201604052801561454857816020015b60608152602001906001900390816145335790505b508c88888e604051614562999897969594939291906160b5565b60405180910390a183945050505050949350505050565b600080826000015167ffffffffffffffff16119050919050565b600080826000015167ffffffffffffffff16149050919050565b808260000160006101000a81548167ffffffffffffffff021916908367ffffffffffffffff1602179055505050565b6040518060600160405280600015158152602001600060ff16815260200160006bffffffffffffffffffffffff1681525090565b828054828255906000526020600020908101928215614689579160200282015b828111156146885782518260006101000a81548173ffffffffffffffffffffffffffffffffffffffff021916908373ffffffffffffffffffffffffffffffffffffffff16021790555091602001919060010190614630565b5b50905061469691906147a7565b5090565b8280548282559060005260206000209081019282156146d6579160200282015b828111156146d55782518255916020019190600101906146ba565b5b5090506146e391906147a7565b5090565b828054828255906000526020600020908101928215614736579160200282015b828111156147355782518290805190602001906147259291906147c4565b5091602001919060010190614707565b5b509050614743919061484a565b5090565b828054828255906000526020600020908101928215614796579160200282015b8281111561479557825182908051906020019061478592919061486e565b5091602001919060010190614767565b5b5090506147a391906148f4565b5090565b5b808211156147c05760008160009055506001016147a8565b5090565b8280546147d090616736565b90600052602060002090601f0160209004810192826147f25760008555614839565b82601f1061480b57805160ff1916838001178555614839565b82800160010185558215614839579182015b8281111561483857825182559160200191906001019061481d565b5b50905061484691906147a7565b5090565b5b8082111561486a57600081816148619190614918565b5060010161484b565b5090565b82805461487a90616736565b90600052602060002090601f01602090048101928261489c57600085556148e3565b82601f106148b557805160ff19168380011785556148e3565b828001600101855582156148e3579182015b828111156148e25782518255916020019190600101906148c7565b5b5090506148f091906147a7565b5090565b5b80821115614914576000818161490b9190614958565b506001016148f5565b5090565b50805461492490616736565b6000825580601f106149365750614955565b601f01602090049060005260206000209081019061495491906147a7565b5b50565b50805461496490616736565b6000825580601f106149765750614995565b601f01602090049060005260206000209081019061499491906147a7565b5b50565b60006149ab6149a68461629b565b616276565b905080838252602082019050828560208602820111156149ca57600080fd5b60005b858110156149fa57816149e08882614be4565b8452602084019350602083019250506001810190506149cd565b5050509392505050565b6000614a17614a12846162c7565b616276565b9050808382526020820190508260005b85811015614a575781358501614a3d8882614cf5565b845260208401935060208301925050600181019050614a27565b5050509392505050565b6000614a74614a6f846162f3565b616276565b9050808382526020820190508260005b85811015614ab45781358501614a9a8882614da8565b845260208401935060208301925050600181019050614a84565b5050509392505050565b6000614ad1614acc8461631f565b616276565b90508083825260208201905082856020860282011115614af057600080fd5b60005b85811015614b205781614b068882614dd2565b845260208401935060208301925050600181019050614af3565b5050509392505050565b6000614b3d614b388461634b565b616276565b905082815260208101848484011115614b5557600080fd5b614b608482856166f4565b509392505050565b6000614b7b614b768461634b565b616276565b905082815260208101848484011115614b9357600080fd5b614b9e848285616703565b509392505050565b6000614bb9614bb48461637c565b616276565b905082815260208101848484011115614bd157600080fd5b614bdc8482856166f4565b509392505050565b600081359050614bf381616e8d565b92915050565b600082601f830112614c0a57600080fd5b8135614c1a848260208601614998565b91505092915050565b600082601f830112614c3457600080fd5b8135614c44848260208601614a04565b91505092915050565b600082601f830112614c5e57600080fd5b8135614c6e848260208601614a61565b91505092915050565b600082601f830112614c8857600080fd5b8135614c98848260208601614abe565b91505092915050565b600081519050614cb081616ea4565b92915050565b600081359050614cc581616ebb565b92915050565b600081519050614cda81616ebb565b92915050565b600081359050614cef81616ed2565b92915050565b600082601f830112614d0657600080fd5b8135614d16848260208601614b2a565b91505092915050565b600082601f830112614d3057600080fd5b8151614d40848260208601614b68565b91505092915050565b600081359050614d5881616ee9565b92915050565b60008083601f840112614d7057600080fd5b8235905067ffffffffffffffff811115614d8957600080fd5b602083019150836001820283011115614da157600080fd5b9250929050565b600082601f830112614db957600080fd5b8135614dc9848260208601614ba6565b91505092915050565b600081359050614de181616f00565b92915050565b600081519050614df681616f00565b92915050565b600081359050614e0b81616f17565b92915050565b600081519050614e2081616f2e565b92915050565b60008060408385031215614e3957600080fd5b6000614e4785828601614be4565b9250506020614e5885828601614dd2565b9150509250929050565b60008060008060808587031215614e7857600080fd5b600085013567ffffffffffffffff811115614e9257600080fd5b614e9e87828801614bf9565b945050602085013567ffffffffffffffff811115614ebb57600080fd5b614ec787828801614c77565b935050604085013567ffffffffffffffff811115614ee457600080fd5b614ef087828801614c23565b9250506060614f0187828801614cb6565b91505092959194509250565b60008060008060808587031215614f2357600080fd5b600085013567ffffffffffffffff811115614f3d57600080fd5b614f4987828801614bf9565b945050602085013567ffffffffffffffff811115614f6657600080fd5b614f7287828801614c77565b935050604085013567ffffffffffffffff811115614f8f57600080fd5b614f9b87828801614c23565b925050606085013567ffffffffffffffff811115614fb857600080fd5b614fc487828801614da8565b91505092959194509250565b600080600080600060a08688031215614fe857600080fd5b600086013567ffffffffffffffff81111561500257600080fd5b61500e88828901614bf9565b955050602086013567ffffffffffffffff81111561502b57600080fd5b61503788828901614c77565b945050604086013567ffffffffffffffff81111561505457600080fd5b61506088828901614c4d565b935050606086013567ffffffffffffffff81111561507d57600080fd5b61508988828901614c23565b925050608086013567ffffffffffffffff8111156150a657600080fd5b6150b288828901614da8565b9150509295509295909350565b6000602082840312156150d157600080fd5b60006150df84828501614ca1565b91505092915050565b6000602082840312156150fa57600080fd5b600061510884828501614ccb565b91505092915050565b60006020828403121561512357600080fd5b600061513184828501614ce0565b91505092915050565b60006020828403121561514c57600080fd5b600082015167ffffffffffffffff81111561516657600080fd5b61517284828501614d1f565b91505092915050565b60006020828403121561518d57600080fd5b600061519b84828501614d49565b91505092915050565b6000602082840312156151b657600080fd5b60006151c484828501614dd2565b91505092915050565b6000602082840312156151df57600080fd5b60006151ed84828501614de7565b91505092915050565b6000806040838503121561520957600080fd5b600061521785828601614dd2565b925050602061522885828601614be4565b9150509250929050565b6000806040838503121561524557600080fd5b600061525385828601614dd2565b925050602061526485828601614dfc565b9150509250929050565b6000806000806060858703121561528457600080fd5b600061529287828801614dd2565b94505060206152a387828801614dfc565b935050604085013567ffffffffffffffff8111156152c057600080fd5b6152cc87828801614d5e565b925092505092959194509250565b600080600080600060a086880312156152f257600080fd5b600061530088828901614dd2565b955050602061531188828901614dfc565b945050604061532288828901614dfc565b935050606061533388828901614cb6565b925050608061534488828901614cb6565b9150509295509295909350565b60006020828403121561536357600080fd5b600061537184828501614e11565b91505092915050565b600061538683836153d2565b60208301905092915050565b600061539e83836155da565b905092915050565b60006153b2838361566a565b905092915050565b60006153c68383615a51565b60208301905092915050565b6153db816165be565b82525050565b6153ea816165be565b82525050565b60006153fb826163ed565b6154058185616463565b9350615410836163ad565b8060005b83811015615441578151615428888261537a565b97506154338361642f565b925050600181019050615414565b5085935050505092915050565b6000615459826163f8565b6154638185616474565b935083602082028501615475856163bd565b8060005b858110156154b157848403895281516154928582615392565b945061549d8361643c565b925060208a01995050600181019050615479565b50829750879550505050505092915050565b60006154ce82616403565b6154d88185616485565b9350836020820285016154ea856163cd565b8060005b85811015615526578484038952815161550785826153a6565b945061551283616449565b925060208a019950506001810190506154ee565b50829750879550505050505092915050565b60006155438261640e565b61554d8185616496565b9350615558836163dd565b8060005b8381101561558957815161557088826153ba565b975061557b83616456565b92505060018101905061555c565b5085935050505092915050565b61559f816165e2565b82525050565b6155ae816165e2565b82525050565b6155bd816165ee565b82525050565b6155d46155cf826165ee565b6167e2565b82525050565b60006155e582616419565b6155ef81856164a7565b93506155ff818560208601616703565b615608816168a8565b840191505092915050565b600061561e82616419565b61562881856164b8565b9350615638818560208601616703565b615641816168a8565b840191505092915050565b615655816166ac565b82525050565b615664816166d0565b82525050565b600061567582616424565b61567f81856164c9565b935061568f818560208601616703565b615698816168a8565b840191505092915050565b60006156ae82616424565b6156b881856164da565b93506156c8818560208601616703565b6156d1816168a8565b840191505092915050565b60006156e782616424565b6156f181856164eb565b9350615701818560208601616703565b80840191505092915050565b600061571a6018836164da565b9150615725826168b9565b602082019050919050565b600061573d6018836164da565b9150615748826168e2565b602082019050919050565b60006157606026836164da565b915061576b8261690b565b604082019050919050565b60006157836043836164da565b915061578e8261695a565b606082019050919050565b60006157a6601f836164da565b91506157b1826169cf565b602082019050919050565b60006157c96002836164eb565b91506157d4826169f8565b600282019050919050565b60006157ec6021836164da565b91506157f782616a21565b604082019050919050565b600061580f6042836164da565b915061581a82616a70565b606082019050919050565b60006158326022836164da565b915061583d82616ae5565b604082019050919050565b60006158556023836164da565b915061586082616b34565b604082019050919050565b60006158786018836164da565b915061588382616b83565b602082019050919050565b600061589b6022836164da565b91506158a682616bac565b604082019050919050565b60006158be6026836164da565b91506158c982616bfb565b604082019050919050565b60006158e1602f836164da565b91506158ec82616c4a565b604082019050919050565b6000615904601d836164da565b915061590f82616c99565b602082019050919050565b60006159276021836164da565b915061593282616cc2565b604082019050919050565b600061594a6031836164da565b915061595582616d11565b604082019050919050565b600061596d602d836164da565b915061597882616d60565b604082019050919050565b6000615990601d836164da565b915061599b82616daf565b602082019050919050565b60006159b36021836164da565b91506159be82616dd8565b604082019050919050565b60006159d66000836164da565b91506159e182616e27565b600082019050919050565b60006159f96027836164da565b9150615a0482616e2a565b604082019050919050565b606082016000820151615a256000850182615596565b506020820151615a386020850182615a7e565b506040820151615a4b6040850182615a9c565b50505050565b615a5a81616669565b82525050565b615a6981616669565b82525050565b615a78816166e2565b82525050565b615a8781616687565b82525050565b615a9681616687565b82525050565b615aa581616694565b82525050565b6000615ab782846156dc565b915081905092915050565b6000615acd826157bc565b9150615ad982856155c3565b602082019150615ae982846155c3565b6020820191508190509392505050565b6000602082019050615b0e60008301846153e1565b92915050565b6000604082019050615b2960008301856153e1565b615b3660208301846153e1565b9392505050565b6000604082019050615b5260008301856153e1565b615b5f6020830184615a60565b9392505050565b600060a082019050615b7b60008301876153e1565b615b886020830186615a60565b8181036040830152615b99816159c9565b90508181036060830152615bad8185615613565b9050615bbc6080830184615a60565b95945050505050565b60006080820190508181036000830152615bdf81876153f0565b90508181036020830152615bf38186615538565b90508181036040830152615c07818561544e565b9050615c1660608301846155b4565b95945050505050565b60006080820190508181036000830152615c3981876153f0565b90508181036020830152615c4d8186615538565b90508181036040830152615c6181856154c3565b90508181036060830152615c75818461544e565b905095945050505050565b6000602082019050615c9560008301846155a5565b92915050565b6000602082019050615cb060008301846155b4565b92915050565b600060a082019050615ccb60008301886155b4565b615cd860208301876155b4565b615ce560408301866155b4565b615cf26060830185615a60565b615cff60808301846153e1565b9695505050505050565b6000606082019050615d1e60008301866155b4565b615d2b6020830185615a60565b615d386040830184615a8d565b949350505050565b6000608082019050615d5560008301876155b4565b615d626020830186615a8d565b615d6f60408301856155b4565b615d7c60608301846155b4565b95945050505050565b60006020820190508181036000830152615d9f8184615613565b905092915050565b6000602082019050615dbc600083018461564c565b92915050565b6000602082019050615dd7600083018461565b565b92915050565b60006020820190508181036000830152615df781846156a3565b905092915050565b60006020820190508181036000830152615e188161570d565b9050919050565b60006020820190508181036000830152615e3881615730565b9050919050565b60006020820190508181036000830152615e5881615753565b9050919050565b60006020820190508181036000830152615e7881615776565b9050919050565b60006020820190508181036000830152615e9881615799565b9050919050565b60006020820190508181036000830152615eb8816157df565b9050919050565b60006020820190508181036000830152615ed881615802565b9050919050565b60006020820190508181036000830152615ef881615825565b9050919050565b60006020820190508181036000830152615f1881615848565b9050919050565b60006020820190508181036000830152615f388161586b565b9050919050565b60006020820190508181036000830152615f588161588e565b9050919050565b60006020820190508181036000830152615f78816158b1565b9050919050565b60006020820190508181036000830152615f98816158d4565b9050919050565b60006020820190508181036000830152615fb8816158f7565b9050919050565b60006020820190508181036000830152615fd88161591a565b9050919050565b60006020820190508181036000830152615ff88161593d565b9050919050565b6000602082019050818103600083015261601881615960565b9050919050565b6000602082019050818103600083015261603881615983565b9050919050565b60006020820190508181036000830152616058816159a6565b9050919050565b60006020820190508181036000830152616078816159ec565b9050919050565b60006060820190506160946000830184615a0f565b92915050565b60006020820190506160af6000830184615a60565b92915050565b6000610120820190506160cb600083018c615a60565b6160d8602083018b6153e1565b81810360408301526160ea818a6153f0565b905081810360608301526160fe8189615538565b9050818103608083015261611281886154c3565b905081810360a0830152616126818761544e565b905061613560c0830186615a6f565b61614260e0830185615a6f565b81810361010083015261615581846156a3565b90509a9950505050505050505050565b60006101408201905061617b600083018d615a60565b616188602083018c6153e1565b616195604083018b615a60565b6161a2606083018a615a60565b6161af6080830189615a60565b6161bc60a0830188615a60565b6161c960c0830187615a60565b6161d660e0830186615a60565b6161e46101008301856155a5565b6161f26101208301846155a5565b9b9a5050505050505050505050565b60006040820190506162166000830185615a60565b6162236020830184615a60565b9392505050565b600060808201905061623f6000830187615a60565b61624c6020830186615a8d565b6162596040830185615a60565b818103606083015261626b81846156a3565b905095945050505050565b6000616280616291565b905061628c8282616768565b919050565b6000604051905090565b600067ffffffffffffffff8211156162b6576162b5616879565b5b602082029050602081019050919050565b600067ffffffffffffffff8211156162e2576162e1616879565b5b602082029050602081019050919050565b600067ffffffffffffffff82111561630e5761630d616879565b5b602082029050602081019050919050565b600067ffffffffffffffff82111561633a57616339616879565b5b602082029050602081019050919050565b600067ffffffffffffffff82111561636657616365616879565b5b61636f826168a8565b9050602081019050919050565b600067ffffffffffffffff82111561639757616396616879565b5b6163a0826168a8565b9050602081019050919050565b6000819050602082019050919050565b6000819050602082019050919050565b6000819050602082019050919050565b6000819050602082019050919050565b600081519050919050565b600081519050919050565b600081519050919050565b600081519050919050565b600081519050919050565b600081519050919050565b6000602082019050919050565b6000602082019050919050565b6000602082019050919050565b6000602082019050919050565b600082825260208201905092915050565b600082825260208201905092915050565b600082825260208201905092915050565b600082825260208201905092915050565b600082825260208201905092915050565b600082825260208201905092915050565b600082825260208201905092915050565b600082825260208201905092915050565b600081905092915050565b600061650182616669565b915061650c83616669565b9250827fffffffffffffffffffffffffffffffffffffffffffffffffffffffffffffffff03821115616541576165406167ec565b5b828201905092915050565b600061655782616673565b915061656283616673565b92508267ffffffffffffffff0382111561657f5761657e6167ec565b5b828201905092915050565b600061659582616669565b91506165a083616669565b9250828210156165b3576165b26167ec565b5b828203905092915050565b60006165c982616649565b9050919050565b60006165db82616649565b9050919050565b60008115159050919050565b6000819050919050565b60007fffffffff0000000000000000000000000000000000000000000000000000000082169050919050565b600061662f826165d0565b9050919050565b600081905061664482616e79565b919050565b600073ffffffffffffffffffffffffffffffffffffffff82169050919050565b6000819050919050565b600067ffffffffffffffff82169050919050565b600060ff82169050919050565b60006bffffffffffffffffffffffff82169050919050565b60006166b7826166be565b9050919050565b60006166c982616649565b9050919050565b60006166db82616636565b9050919050565b60006166ed82616673565b9050919050565b82818337600083830152505050565b60005b83811015616721578082015181840152602081019050616706565b83811115616730576000848401525b50505050565b6000600282049050600182168061674e57607f821691505b602082108114156167625761676161684a565b5b50919050565b616771826168a8565b810181811067ffffffffffffffff821117156167905761678f616879565b5b80604052505050565b60006167a482616669565b91507fffffffffffffffffffffffffffffffffffffffffffffffffffffffffffffffff8214156167d7576167d66167ec565b5b600182019050919050565b6000819050919050565b7f4e487b7100000000000000000000000000000000000000000000000000000000600052601160045260246000fd5b7f4e487b7100000000000000000000000000000000000000000000000000000000600052602160045260246000fd5b7f4e487b7100000000000000000000000000000000000000000000000000000000600052602260045260246000fd5b7f4e487b7100000000000000000000000000000000000000000000000000000000600052604160045260246000fd5b6000601f19601f8301169050919050565b7f45434453413a20696e76616c6964207369676e61747572650000000000000000600082015250565b7f476f7665726e6f723a206f6e6c79476f7665726e616e63650000000000000000600082015250565b7f53616665436173743a2076616c756520646f65736e27742066697420696e203960008201527f3620626974730000000000000000000000000000000000000000000000000000602082015250565b7f476f7665726e6f72436f6d7061746962696c697479427261766f3a2070726f7060008201527f6f73657220766f7465732062656c6f772070726f706f73616c2074687265736860208201527f6f6c640000000000000000000000000000000000000000000000000000000000604082015250565b7f45434453413a20696e76616c6964207369676e6174757265206c656e67746800600082015250565b7f1901000000000000000000000000000000000000000000000000000000000000600082015250565b7f476f7665726e6f723a20696e76616c69642070726f706f73616c206c656e677460008201527f6800000000000000000000000000000000000000000000000000000000000000602082015250565b7f476f7665726e6f7254696d656c6f636b436f6d706f756e643a206964656e746960008201527f63616c2070726f706f73616c20616374696f6e20616c7265616479207175657560208201527f6564000000000000000000000000000000000000000000000000000000000000604082015250565b7f45434453413a20696e76616c6964207369676e6174757265202773272076616c60008201527f7565000000000000000000000000000000000000000000000000000000000000602082015250565b7f476f7665726e6f723a20766f7465206e6f742063757272656e746c792061637460008201527f6976650000000000000000000000000000000000000000000000000000000000602082015250565b7f476f7665726e6f723a20656d7074792070726f706f73616c0000000000000000600082015250565b7f45434453413a20696e76616c6964207369676e6174757265202776272076616c60008201527f7565000000000000000000000000000000000000000000000000000000000000602082015250565b7f53616665436173743a2076616c756520646f65736e27742066697420696e203660008201527f3420626974730000000000000000000000000000000000000000000000000000602082015250565b7f476f7665726e6f72436f6d7061746962696c697479427261766f3a20766f746560008201527f20616c7265616479206361737465640000000000000000000000000000000000602082015250565b7f476f7665726e6f723a2070726f706f73616c206e6f7420616374697665000000600082015250565b7f476f7665726e6f723a2070726f706f73616c206e6f742073756363657373667560008201527f6c00000000000000000000000000000000000000000000000000000000000000602082015250565b7f476f7665726e6f7254696d656c6f636b436f6d706f756e643a2070726f706f7360008201527f616c206e6f742079657420717565756564000000000000000000000000000000602082015250565b7f476f7665726e6f72436f6d7061746962696c697479427261766f3a20696e766160008201527f6c696420766f7465207479706500000000000000000000000000000000000000602082015250565b7f476f7665726e6f723a20756e6b6e6f776e2070726f706f73616c206964000000600082015250565b7f476f7665726e6f723a2070726f706f73616c20616c726561647920657869737460008201527f7300000000000000000000000000000000000000000000000000000000000000602082015250565b50565b7f476f7665726e6f72427261766f3a2070726f706f7365722061626f766520746860008201527f726573686f6c6400000000000000000000000000000000000000000000000000602082015250565b60088110616e8a57616e8961681b565b5b50565b616e96816165be565b8114616ea157600080fd5b50565b616ead816165e2565b8114616eb857600080fd5b50565b616ec4816165ee565b8114616ecf57600080fd5b50565b616edb816165f8565b8114616ee657600080fd5b50565b616ef281616624565b8114616efd57600080fd5b50565b616f0981616669565b8114616f1457600080fd5b50565b616f2081616687565b8114616f2b57600080fd5b50565b616f3781616694565b8114616f4257600080fd5b5056fea26469706673582212209250605c84b5b571cd050b31cc25e306d1ea353f07e063ee83f4598be8a6690764736f6c63430008020033",
  "immutableReferences": {
    "5783": [
      {
        "length": 32,
        "start": 6960
      },
      {
        "length": 32,
        "start": 11891
      }
    ],
    "10571": [
      {
        "length": 32,
        "start": 3836
      }
    ],
    "10573": [
      {
        "length": 32,
        "start": 2763
      }
    ],
    "10575": [
      {
        "length": 32,
        "start": 5478
      }
    ],
    "24966": [
      {
        "length": 32,
        "start": 12402
      }
    ],
    "24968": [
      {
        "length": 32,
        "start": 12362
      }
    ],
    "24970": [
      {
        "length": 32,
        "start": 12478
      }
    ],
    "24972": [
      {
        "length": 32,
        "start": 12511
      }
    ],
    "24974": [
      {
        "length": 32,
        "start": 12445
      }
    ]
  },
  "source": "// SPDX-License-Identifier: MIT\n\npragma solidity ^0.8.0;\n\nimport \"../governance/compatibility/GovernorCompatibilityBravo.sol\";\nimport \"../governance/extensions/GovernorVotesComp.sol\";\nimport \"../governance/extensions/GovernorTimelockCompound.sol\";\n\ncontract GovernorCompatibilityBravoMock is GovernorCompatibilityBravo, GovernorTimelockCompound, GovernorVotesComp {\n    uint256 immutable _votingDelay;\n    uint256 immutable _votingPeriod;\n    uint256 immutable _proposalThreshold;\n\n    constructor(\n        string memory name_,\n        ERC20VotesComp token_,\n        uint256 votingDelay_,\n        uint256 votingPeriod_,\n        uint256 proposalThreshold_,\n        ICompoundTimelock timelock_\n    ) Governor(name_) GovernorVotesComp(token_) GovernorTimelockCompound(timelock_) {\n        _votingDelay = votingDelay_;\n        _votingPeriod = votingPeriod_;\n        _proposalThreshold = proposalThreshold_;\n    }\n\n    function supportsInterface(bytes4 interfaceId)\n        public\n        view\n        virtual\n        override(IERC165, Governor, GovernorTimelockCompound)\n        returns (bool)\n    {\n        return super.supportsInterface(interfaceId);\n    }\n\n    function votingDelay() public view override returns (uint256) {\n        return _votingDelay;\n    }\n\n    function votingPeriod() public view override returns (uint256) {\n        return _votingPeriod;\n    }\n\n    function proposalThreshold() public view virtual override returns (uint256) {\n        return _proposalThreshold;\n    }\n\n    function quorum(uint256) public pure override returns (uint256) {\n        return 0;\n    }\n\n    function state(uint256 proposalId)\n        public\n        view\n        virtual\n        override(IGovernor, Governor, GovernorTimelockCompound)\n        returns (ProposalState)\n    {\n        return super.state(proposalId);\n    }\n\n    function proposalEta(uint256 proposalId)\n        public\n        view\n        virtual\n        override(IGovernorTimelock, GovernorTimelockCompound)\n        returns (uint256)\n    {\n        return super.proposalEta(proposalId);\n    }\n\n    function propose(\n        address[] memory targets,\n        uint256[] memory values,\n        bytes[] memory calldatas,\n        string memory description\n    ) public virtual override(IGovernor, Governor, GovernorCompatibilityBravo) returns (uint256) {\n        return super.propose(targets, values, calldatas, description);\n    }\n\n    function queue(\n        address[] memory targets,\n        uint256[] memory values,\n        bytes[] memory calldatas,\n        bytes32 salt\n    ) public virtual override(IGovernorTimelock, GovernorTimelockCompound) returns (uint256) {\n        return super.queue(targets, values, calldatas, salt);\n    }\n\n    function execute(\n        address[] memory targets,\n        uint256[] memory values,\n        bytes[] memory calldatas,\n        bytes32 salt\n    ) public payable virtual override(IGovernor, Governor) returns (uint256) {\n        return super.execute(targets, values, calldatas, salt);\n    }\n\n    function _execute(\n        uint256 proposalId,\n        address[] memory targets,\n        uint256[] memory values,\n        bytes[] memory calldatas,\n        bytes32 descriptionHash\n    ) internal virtual override(Governor, GovernorTimelockCompound) {\n        super._execute(proposalId, targets, values, calldatas, descriptionHash);\n    }\n\n    /**\n     * @notice WARNING: this is for mock purposes only. Ability to the _cancel function should be restricted for live\n     * deployments.\n     */\n    function cancel(\n        address[] memory targets,\n        uint256[] memory values,\n        bytes[] memory calldatas,\n        bytes32 salt\n    ) public returns (uint256 proposalId) {\n        return _cancel(targets, values, calldatas, salt);\n    }\n\n    function _cancel(\n        address[] memory targets,\n        uint256[] memory values,\n        bytes[] memory calldatas,\n        bytes32 salt\n    ) internal virtual override(Governor, GovernorTimelockCompound) returns (uint256 proposalId) {\n        return super._cancel(targets, values, calldatas, salt);\n    }\n\n    function getVotes(address account, uint256 blockNumber)\n        public\n        view\n        virtual\n        override(IGovernor, GovernorVotesComp)\n        returns (uint256)\n    {\n        return super.getVotes(account, blockNumber);\n    }\n\n    function _executor() internal view virtual override(Governor, GovernorTimelockCompound) returns (address) {\n        return super._executor();\n    }\n}\n",
  "sourcePath": "/home/sushant/Documents/blockchain_work/EatTheBlock/ecomapp2/contracts/openzeppelin/contracts/mocks/GovernorCompatibilityBravoMock.sol",
  "compiler": {
    "name": "solc",
    "version": "0.8.2+commit.661d1103.Emscripten.clang"
  },
  "schemaVersion": "3.4.2",
  "updatedAt": "2021-08-09T18:32:24.465Z",
  "devdoc": {
    "kind": "dev",
    "methods": {
      "COUNTING_MODE()": {
        "details": "A description of the possible `support` values for {castVote} and the way these votes are counted, meant to be consumed by UIs to show correct vote options and interpret the results. The string is a URL-encoded sequence of key-value pairs that each describe one aspect, for example `support=bravo&quorum=for,abstain`. There are 2 standard keys: `support` and `quorum`. - `support=bravo` refers to the vote options 0 = For, 1 = Against, 2 = Abstain, as in `GovernorBravo`. - `quorum=bravo` means that only For votes are counted towards quorum. - `quorum=for,abstain` means that both For and Abstain votes are counted towards quorum. NOTE: The string can be decoded by the standard https://developer.mozilla.org/en-US/docs/Web/API/URLSearchParams[`URLSearchParams`] JavaScript class."
      },
      "__acceptAdmin()": {
        "details": "Accept admin right over the timelock."
      },
      "cancel(uint256)": {
        "details": "Cancels a proposal only if sender is the proposer, or proposer delegates dropped below proposal threshold."
      },
      "castVote(uint256,uint8)": {
        "details": "See {IGovernor-castVote}."
      },
      "castVoteBySig(uint256,uint8,uint8,bytes32,bytes32)": {
        "details": "See {IGovernor-castVoteBySig}."
      },
      "castVoteWithReason(uint256,uint8,string)": {
        "details": "See {IGovernor-castVoteWithReason}."
      },
      "execute(uint256)": {
        "details": "See {IGovernorCompatibilityBravo-execute}."
      },
      "getActions(uint256)": {
        "details": "See {IGovernorCompatibilityBravo-getActions}."
      },
      "getReceipt(uint256,address)": {
        "details": "See {IGovernorCompatibilityBravo-getReceipt}."
      },
      "hasVoted(uint256,address)": {
        "details": "See {IGovernor-hasVoted}."
      },
      "hashProposal(address[],uint256[],bytes[],bytes32)": {
        "details": "See {IGovernor-hashProposal}. The proposal id is produced by hashing the RLC encoded `targets` array, the `values` array, the `calldatas` array and the descriptionHash (bytes32 which itself is the keccak256 hash of the description string). This proposal id can be produced from the proposal data which is part of the {ProposalCreated} event. It can even be computed in advance, before the proposal is submitted. Note that the chainId and the governor address are not part of the proposal id computation. Consequently, the same proposal (with same operation and same description) will have the same id if submitted on multiple governors accross multiple networks. This also means that in order to execute the same operation twice (on the same governor) the proposer will have to change the description in order to avoid proposal id conflicts."
      },
      "name()": {
        "details": "See {IGovernor-name}."
      },
      "proposalDeadline(uint256)": {
        "details": "See {IGovernor-proposalDeadline}."
      },
      "proposalSnapshot(uint256)": {
        "details": "See {IGovernor-proposalSnapshot}."
      },
      "proposalThreshold()": {
        "details": "Part of the Governor Bravo's interface: _\"The number of votes required in order for a voter to become a proposer\"_."
      },
      "proposals(uint256)": {
        "details": "See {IGovernorCompatibilityBravo-proposals}."
      },
      "propose(address[],uint256[],string[],bytes[],string)": {
        "details": "See {IGovernorCompatibilityBravo-propose}."
      },
      "queue(uint256)": {
        "details": "See {IGovernorCompatibilityBravo-queue}."
      },
      "quorumVotes()": {
        "details": "See {IGovernorCompatibilityBravo-quorumVotes}."
      },
      "timelock()": {
        "details": "Public accessor to check the address of the timelock"
      },
      "updateTimelock(address)": {
        "details": "Public endpoint to update the underlying timelock instance. Restricted to the timelock itself, so updates must be proposed, scheduled and executed using the {Governor} workflow. For security reason, the timelock must be handed over to another admin before setting up a new one. The two operations (hand over the timelock) and do the update can be batched in a single proposal. Note that if the timelock admin has been handed over in a previous operation, we refuse updates made through the timelock if admin of the timelock has already been accepted and the operation is executed outside the scope of governance."
      },
      "version()": {
        "details": "See {IGovernor-version}."
      },
      "votingDelay()": {
        "details": "delay, in number of block, between the proposal is created and the vote starts. This can be increassed to leave time for users to buy voting power, of delegate it, before the voting of a proposal starts."
      },
      "votingPeriod()": {
        "details": "delay, in number of blocks, between the vote start and vote ends. Note: the {votingDelay} can delay the start of the vote. This must be considered when setting the voting duration compared to the voting delay."
      }
    },
    "version": 1
  },
  "userdoc": {
    "kind": "user",
    "methods": {
      "COUNTING_MODE()": {
        "notice": "module:voting"
      },
      "cancel(address[],uint256[],bytes[],bytes32)": {
        "notice": "WARNING: this is for mock purposes only. Ability to the _cancel function should be restricted for live deployments."
      },
      "votingDelay()": {
        "notice": "module:user-config"
      },
      "votingPeriod()": {
        "notice": "module:user-config"
      }
    },
    "version": 1
  }
}