{
  "contractName": "GovernorTimelockControlMock",
  "abi": [
    {
      "inputs": [
        {
          "internalType": "string",
          "name": "name_",
          "type": "string"
        },
        {
          "internalType": "contract ERC20Votes",
          "name": "token_",
          "type": "address"
        },
        {
          "internalType": "uint256",
          "name": "votingDelay_",
          "type": "uint256"
        },
        {
          "internalType": "uint256",
          "name": "votingPeriod_",
          "type": "uint256"
        },
        {
          "internalType": "contract TimelockController",
          "name": "timelock_",
          "type": "address"
        },
        {
          "internalType": "uint256",
          "name": "quorumNumerator_",
          "type": "uint256"
        }
      ],
      "stateMutability": "nonpayable",
      "type": "constructor"
    },
    {
      "anonymous": false,
      "inputs": [
        {
          "indexed": false,
          "internalType": "uint256",
          "name": "proposalId",
          "type": "uint256"
        }
      ],
      "name": "ProposalCanceled",
      "type": "event"
    },
    {
      "anonymous": false,
      "inputs": [
        {
          "indexed": false,
          "internalType": "uint256",
          "name": "proposalId",
          "type": "uint256"
        },
        {
          "indexed": false,
          "internalType": "address",
          "name": "proposer",
          "type": "address"
        },
        {
          "indexed": false,
          "internalType": "address[]",
          "name": "targets",
          "type": "address[]"
        },
        {
          "indexed": false,
          "internalType": "uint256[]",
          "name": "values",
          "type": "uint256[]"
        },
        {
          "indexed": false,
          "internalType": "string[]",
          "name": "signatures",
          "type": "string[]"
        },
        {
          "indexed": false,
          "internalType": "bytes[]",
          "name": "calldatas",
          "type": "bytes[]"
        },
        {
          "indexed": false,
          "internalType": "uint256",
          "name": "startBlock",
          "type": "uint256"
        },
        {
          "indexed": false,
          "internalType": "uint256",
          "name": "endBlock",
          "type": "uint256"
        },
        {
          "indexed": false,
          "internalType": "string",
          "name": "description",
          "type": "string"
        }
      ],
      "name": "ProposalCreated",
      "type": "event"
    },
    {
      "anonymous": false,
      "inputs": [
        {
          "indexed": false,
          "internalType": "uint256",
          "name": "proposalId",
          "type": "uint256"
        }
      ],
      "name": "ProposalExecuted",
      "type": "event"
    },
    {
      "anonymous": false,
      "inputs": [
        {
          "indexed": false,
          "internalType": "uint256",
          "name": "proposalId",
          "type": "uint256"
        },
        {
          "indexed": false,
          "internalType": "uint256",
          "name": "eta",
          "type": "uint256"
        }
      ],
      "name": "ProposalQueued",
      "type": "event"
    },
    {
      "anonymous": false,
      "inputs": [
        {
          "indexed": false,
          "internalType": "uint256",
          "name": "oldQuorumNumerator",
          "type": "uint256"
        },
        {
          "indexed": false,
          "internalType": "uint256",
          "name": "newQuorumNumerator",
          "type": "uint256"
        }
      ],
      "name": "QuorumNumeratorUpdated",
      "type": "event"
    },
    {
      "anonymous": false,
      "inputs": [
        {
          "indexed": false,
          "internalType": "address",
          "name": "oldTimelock",
          "type": "address"
        },
        {
          "indexed": false,
          "internalType": "address",
          "name": "newTimelock",
          "type": "address"
        }
      ],
      "name": "TimelockChange",
      "type": "event"
    },
    {
      "anonymous": false,
      "inputs": [
        {
          "indexed": true,
          "internalType": "address",
          "name": "voter",
          "type": "address"
        },
        {
          "indexed": false,
          "internalType": "uint256",
          "name": "proposalId",
          "type": "uint256"
        },
        {
          "indexed": false,
          "internalType": "uint8",
          "name": "support",
          "type": "uint8"
        },
        {
          "indexed": false,
          "internalType": "uint256",
          "name": "weight",
          "type": "uint256"
        },
        {
          "indexed": false,
          "internalType": "string",
          "name": "reason",
          "type": "string"
        }
      ],
      "name": "VoteCast",
      "type": "event"
    },
    {
      "inputs": [],
      "name": "BALLOT_TYPEHASH",
      "outputs": [
        {
          "internalType": "bytes32",
          "name": "",
          "type": "bytes32"
        }
      ],
      "stateMutability": "view",
      "type": "function"
    },
    {
      "inputs": [],
      "name": "COUNTING_MODE",
      "outputs": [
        {
          "internalType": "string",
          "name": "",
          "type": "string"
        }
      ],
      "stateMutability": "pure",
      "type": "function"
    },
    {
      "inputs": [
        {
          "internalType": "uint256",
          "name": "proposalId",
          "type": "uint256"
        },
        {
          "internalType": "uint8",
          "name": "support",
          "type": "uint8"
        }
      ],
      "name": "castVote",
      "outputs": [
        {
          "internalType": "uint256",
          "name": "",
          "type": "uint256"
        }
      ],
      "stateMutability": "nonpayable",
      "type": "function"
    },
    {
      "inputs": [
        {
          "internalType": "uint256",
          "name": "proposalId",
          "type": "uint256"
        },
        {
          "internalType": "uint8",
          "name": "support",
          "type": "uint8"
        },
        {
          "internalType": "uint8",
          "name": "v",
          "type": "uint8"
        },
        {
          "internalType": "bytes32",
          "name": "r",
          "type": "bytes32"
        },
        {
          "internalType": "bytes32",
          "name": "s",
          "type": "bytes32"
        }
      ],
      "name": "castVoteBySig",
      "outputs": [
        {
          "internalType": "uint256",
          "name": "",
          "type": "uint256"
        }
      ],
      "stateMutability": "nonpayable",
      "type": "function"
    },
    {
      "inputs": [
        {
          "internalType": "uint256",
          "name": "proposalId",
          "type": "uint256"
        },
        {
          "internalType": "uint8",
          "name": "support",
          "type": "uint8"
        },
        {
          "internalType": "string",
          "name": "reason",
          "type": "string"
        }
      ],
      "name": "castVoteWithReason",
      "outputs": [
        {
          "internalType": "uint256",
          "name": "",
          "type": "uint256"
        }
      ],
      "stateMutability": "nonpayable",
      "type": "function"
    },
    {
      "inputs": [
        {
          "internalType": "address[]",
          "name": "targets",
          "type": "address[]"
        },
        {
          "internalType": "uint256[]",
          "name": "values",
          "type": "uint256[]"
        },
        {
          "internalType": "bytes[]",
          "name": "calldatas",
          "type": "bytes[]"
        },
        {
          "internalType": "bytes32",
          "name": "descriptionHash",
          "type": "bytes32"
        }
      ],
      "name": "execute",
      "outputs": [
        {
          "internalType": "uint256",
          "name": "",
          "type": "uint256"
        }
      ],
      "stateMutability": "payable",
      "type": "function"
    },
    {
      "inputs": [
        {
          "internalType": "uint256",
          "name": "proposalId",
          "type": "uint256"
        },
        {
          "internalType": "address",
          "name": "account",
          "type": "address"
        }
      ],
      "name": "hasVoted",
      "outputs": [
        {
          "internalType": "bool",
          "name": "",
          "type": "bool"
        }
      ],
      "stateMutability": "view",
      "type": "function"
    },
    {
      "inputs": [
        {
          "internalType": "address[]",
          "name": "targets",
          "type": "address[]"
        },
        {
          "internalType": "uint256[]",
          "name": "values",
          "type": "uint256[]"
        },
        {
          "internalType": "bytes[]",
          "name": "calldatas",
          "type": "bytes[]"
        },
        {
          "internalType": "bytes32",
          "name": "descriptionHash",
          "type": "bytes32"
        }
      ],
      "name": "hashProposal",
      "outputs": [
        {
          "internalType": "uint256",
          "name": "",
          "type": "uint256"
        }
      ],
      "stateMutability": "pure",
      "type": "function"
    },
    {
      "inputs": [],
      "name": "name",
      "outputs": [
        {
          "internalType": "string",
          "name": "",
          "type": "string"
        }
      ],
      "stateMutability": "view",
      "type": "function"
    },
    {
      "inputs": [
        {
          "internalType": "uint256",
          "name": "proposalId",
          "type": "uint256"
        }
      ],
      "name": "proposalDeadline",
      "outputs": [
        {
          "internalType": "uint256",
          "name": "",
          "type": "uint256"
        }
      ],
      "stateMutability": "view",
      "type": "function"
    },
    {
      "inputs": [
        {
          "internalType": "uint256",
          "name": "proposalId",
          "type": "uint256"
        }
      ],
      "name": "proposalEta",
      "outputs": [
        {
          "internalType": "uint256",
          "name": "",
          "type": "uint256"
        }
      ],
      "stateMutability": "view",
      "type": "function"
    },
    {
      "inputs": [
        {
          "internalType": "uint256",
          "name": "proposalId",
          "type": "uint256"
        }
      ],
      "name": "proposalSnapshot",
      "outputs": [
        {
          "internalType": "uint256",
          "name": "",
          "type": "uint256"
        }
      ],
      "stateMutability": "view",
      "type": "function"
    },
    {
      "inputs": [
        {
          "internalType": "uint256",
          "name": "proposalId",
          "type": "uint256"
        }
      ],
      "name": "proposalVotes",
      "outputs": [
        {
          "internalType": "uint256",
          "name": "againstVotes",
          "type": "uint256"
        },
        {
          "internalType": "uint256",
          "name": "forVotes",
          "type": "uint256"
        },
        {
          "internalType": "uint256",
          "name": "abstainVotes",
          "type": "uint256"
        }
      ],
      "stateMutability": "view",
      "type": "function"
    },
    {
      "inputs": [
        {
          "internalType": "address[]",
          "name": "targets",
          "type": "address[]"
        },
        {
          "internalType": "uint256[]",
          "name": "values",
          "type": "uint256[]"
        },
        {
          "internalType": "bytes[]",
          "name": "calldatas",
          "type": "bytes[]"
        },
        {
          "internalType": "string",
          "name": "description",
          "type": "string"
        }
      ],
      "name": "propose",
      "outputs": [
        {
          "internalType": "uint256",
          "name": "",
          "type": "uint256"
        }
      ],
      "stateMutability": "nonpayable",
      "type": "function"
    },
    {
      "inputs": [
        {
          "internalType": "address[]",
          "name": "targets",
          "type": "address[]"
        },
        {
          "internalType": "uint256[]",
          "name": "values",
          "type": "uint256[]"
        },
        {
          "internalType": "bytes[]",
          "name": "calldatas",
          "type": "bytes[]"
        },
        {
          "internalType": "bytes32",
          "name": "descriptionHash",
          "type": "bytes32"
        }
      ],
      "name": "queue",
      "outputs": [
        {
          "internalType": "uint256",
          "name": "",
          "type": "uint256"
        }
      ],
      "stateMutability": "nonpayable",
      "type": "function"
    },
    {
      "inputs": [],
      "name": "quorumDenominator",
      "outputs": [
        {
          "internalType": "uint256",
          "name": "",
          "type": "uint256"
        }
      ],
      "stateMutability": "view",
      "type": "function"
    },
    {
      "inputs": [],
      "name": "quorumNumerator",
      "outputs": [
        {
          "internalType": "uint256",
          "name": "",
          "type": "uint256"
        }
      ],
      "stateMutability": "view",
      "type": "function"
    },
    {
      "inputs": [],
      "name": "timelock",
      "outputs": [
        {
          "internalType": "address",
          "name": "",
          "type": "address"
        }
      ],
      "stateMutability": "view",
      "type": "function"
    },
    {
      "inputs": [],
      "name": "token",
      "outputs": [
        {
          "internalType": "contract ERC20Votes",
          "name": "",
          "type": "address"
        }
      ],
      "stateMutability": "view",
      "type": "function"
    },
    {
      "inputs": [
        {
          "internalType": "uint256",
          "name": "newQuorumNumerator",
          "type": "uint256"
        }
      ],
      "name": "updateQuorumNumerator",
      "outputs": [],
      "stateMutability": "nonpayable",
      "type": "function"
    },
    {
      "inputs": [
        {
          "internalType": "contract TimelockController",
          "name": "newTimelock",
          "type": "address"
        }
      ],
      "name": "updateTimelock",
      "outputs": [],
      "stateMutability": "nonpayable",
      "type": "function"
    },
    {
      "inputs": [],
      "name": "version",
      "outputs": [
        {
          "internalType": "string",
          "name": "",
          "type": "string"
        }
      ],
      "stateMutability": "view",
      "type": "function"
    },
    {
      "inputs": [
        {
          "internalType": "bytes4",
          "name": "interfaceId",
          "type": "bytes4"
        }
      ],
      "name": "supportsInterface",
      "outputs": [
        {
          "internalType": "bool",
          "name": "",
          "type": "bool"
        }
      ],
      "stateMutability": "view",
      "type": "function"
    },
    {
      "inputs": [],
      "name": "votingDelay",
      "outputs": [
        {
          "internalType": "uint256",
          "name": "",
          "type": "uint256"
        }
      ],
      "stateMutability": "view",
      "type": "function"
    },
    {
      "inputs": [],
      "name": "votingPeriod",
      "outputs": [
        {
          "internalType": "uint256",
          "name": "",
          "type": "uint256"
        }
      ],
      "stateMutability": "view",
      "type": "function"
    },
    {
      "inputs": [
        {
          "internalType": "uint256",
          "name": "blockNumber",
          "type": "uint256"
        }
      ],
      "name": "quorum",
      "outputs": [
        {
          "internalType": "uint256",
          "name": "",
          "type": "uint256"
        }
      ],
      "stateMutability": "view",
      "type": "function"
    },
    {
      "inputs": [
        {
          "internalType": "address[]",
          "name": "targets",
          "type": "address[]"
        },
        {
          "internalType": "uint256[]",
          "name": "values",
          "type": "uint256[]"
        },
        {
          "internalType": "bytes[]",
          "name": "calldatas",
          "type": "bytes[]"
        },
        {
          "internalType": "bytes32",
          "name": "descriptionHash",
          "type": "bytes32"
        }
      ],
      "name": "cancel",
      "outputs": [
        {
          "internalType": "uint256",
          "name": "proposalId",
          "type": "uint256"
        }
      ],
      "stateMutability": "nonpayable",
      "type": "function"
    },
    {
      "inputs": [
        {
          "internalType": "uint256",
          "name": "proposalId",
          "type": "uint256"
        }
      ],
      "name": "state",
      "outputs": [
        {
          "internalType": "enum IGovernor.ProposalState",
          "name": "",
          "type": "uint8"
        }
      ],
      "stateMutability": "view",
      "type": "function"
    },
    {
      "inputs": [
        {
          "internalType": "address",
          "name": "account",
          "type": "address"
        },
        {
          "internalType": "uint256",
          "name": "blockNumber",
          "type": "uint256"
        }
      ],
      "name": "getVotes",
      "outputs": [
        {
          "internalType": "uint256",
          "name": "",
          "type": "uint256"
        }
      ],
      "stateMutability": "view",
      "type": "function"
    }
  ],
  "bytecode": "0x6101806040523480156200001257600080fd5b50604051620056d2380380620056d283398181016040528101906200003891906200048b565b80858388806200004d6200015f60201b60201c565b60008280519060200120905060008280519060200120905060007f8b73c3c69bb8fe3d512ecc4cf759cc79239f7b179b0ffacaa9a75d522b39400f90508260c081815250508160e081815250504660a08181525050620000b58184846200019c60201b60201c565b6080818152505080610100818152505050505050508060009080519060200190620000e292919062000324565b5050620000f581620001d860201b60201c565b508073ffffffffffffffffffffffffffffffffffffffff166101208173ffffffffffffffffffffffffffffffffffffffff1660601b815250505062000140816200027960201b60201c565b5083610140818152505082610160818152505050505050505062000935565b60606040518060400160405280600181526020017f3100000000000000000000000000000000000000000000000000000000000000815250905090565b60008383834630604051602001620001b9959493929190620005c1565b6040516020818303038152906040528051906020012090509392505050565b7f08f74ea46ef7894f65eabfb5e6e695de773a000b47c529ab559178069b226401600260009054906101000a900473ffffffffffffffffffffffffffffffffffffffff16826040516200022d92919062000594565b60405180910390a180600260006101000a81548173ffffffffffffffffffffffffffffffffffffffff021916908373ffffffffffffffffffffffffffffffffffffffff16021790555050565b620002896200031b60201b60201c565b811115620002ce576040517f08c379a0000000000000000000000000000000000000000000000000000000008152600401620002c5906200061e565b60405180910390fd5b60006004549050816004819055507f0553476bf02ef2726e8ce5ced78d63e26e602e4a2257b1f559418e24b463399781836040516200030f92919062000640565b60405180910390a15050565b60006064905090565b828054620003329062000797565b90600052602060002090601f016020900481019282620003565760008555620003a2565b82601f106200037157805160ff1916838001178555620003a2565b82800160010185558215620003a2579182015b82811115620003a157825182559160200191906001019062000384565b5b509050620003b19190620003b5565b5090565b5b80821115620003d0576000816000905550600101620003b6565b5090565b6000620003eb620003e58462000696565b6200066d565b9050828152602081018484840111156200040457600080fd5b6200041184828562000761565b509392505050565b6000815190506200042a81620008e7565b92915050565b600081519050620004418162000901565b92915050565b600082601f8301126200045957600080fd5b81516200046b848260208601620003d4565b91505092915050565b60008151905062000485816200091b565b92915050565b60008060008060008060c08789031215620004a557600080fd5b600087015167ffffffffffffffff811115620004c057600080fd5b620004ce89828a0162000447565b9650506020620004e189828a0162000419565b9550506040620004f489828a0162000474565b94505060606200050789828a0162000474565b93505060806200051a89828a0162000430565b92505060a06200052d89828a0162000474565b9150509295509295509295565b6200054581620006dd565b82525050565b620005568162000705565b82525050565b60006200056b604383620006cc565b9150620005788262000872565b606082019050919050565b6200058e8162000757565b82525050565b6000604082019050620005ab60008301856200053a565b620005ba60208301846200053a565b9392505050565b600060a082019050620005d860008301886200054b565b620005e760208301876200054b565b620005f660408301866200054b565b62000605606083018562000583565b6200061460808301846200053a565b9695505050505050565b6000602082019050818103600083015262000639816200055c565b9050919050565b600060408201905062000657600083018562000583565b62000666602083018462000583565b9392505050565b6000620006796200068c565b9050620006878282620007cd565b919050565b6000604051905090565b600067ffffffffffffffff821115620006b457620006b362000832565b5b620006bf8262000861565b9050602081019050919050565b600082825260208201905092915050565b6000620006ea8262000737565b9050919050565b6000620006fe8262000737565b9050919050565b6000819050919050565b60006200071c82620006dd565b9050919050565b60006200073082620006f1565b9050919050565b600073ffffffffffffffffffffffffffffffffffffffff82169050919050565b6000819050919050565b60005b838110156200078157808201518184015260208101905062000764565b8381111562000791576000848401525b50505050565b60006002820490506001821680620007b057607f821691505b60208210811415620007c757620007c662000803565b5b50919050565b620007d88262000861565b810181811067ffffffffffffffff82111715620007fa57620007f962000832565b5b80604052505050565b7f4e487b7100000000000000000000000000000000000000000000000000000000600052602260045260246000fd5b7f4e487b7100000000000000000000000000000000000000000000000000000000600052604160045260246000fd5b6000601f19601f8301169050919050565b7f476f7665726e6f72566f74657351756f72756d4672616374696f6e3a2071756f60008201527f72756d4e756d657261746f72206f7665722071756f72756d44656e6f6d696e6160208201527f746f720000000000000000000000000000000000000000000000000000000000604082015250565b620008f2816200070f565b8114620008fe57600080fd5b50565b6200090c8162000723565b81146200091857600080fd5b50565b620009268162000757565b81146200093257600080fd5b50565b60805160a05160c05160e051610100516101205160601c6101405161016051614d26620009ac60003960006107df01526000610e7e01526000818161166901528181611c960152611d5b01526000611fb601526000611ff801526000611fd701526000611f6301526000611f8b0152614d266000f3fe6080604052600436106101c25760003560e01c806356781388116100f7578063c01f9e3711610095578063deaaa7cc11610064578063deaaa7cc146106f9578063eb9019d414610724578063f8ce560a14610761578063fc0c546a1461079e576101c2565b8063c01f9e3714610629578063c59057e414610666578063d33219b4146106a3578063dd4e2ba5146106ce576101c2565b806397c3d334116100d157806397c3d3341461056d578063a7713a7014610598578063a890c910146105c3578063ab58fb8e146105ec576101c2565b806356781388146104b65780637b3c71d3146104f35780637d5e81e214610530576101c2565b80633932abb111610164578063438596321161013e57806343859632146103d2578063452115d61461040f578063544ffc9c1461044c57806354fd4d501461048b576101c2565b80633932abb11461032d5780633bccf4fd146103585780633e4f49e614610395576101c2565b806306fdde03116101a057806306fdde0314610258578063160cbed7146102835780632656227d146102c05780632d63f693146102f0576101c2565b806301ffc9a7146101c757806302a251a31461020457806306f3f9e61461022f575b600080fd5b3480156101d357600080fd5b506101ee60048036038101906101e9919061331d565b6107c9565b6040516101fb9190613cb0565b60405180910390f35b34801561021057600080fd5b506102196107db565b604051610226919061400d565b60405180910390f35b34801561023b57600080fd5b506102566004803603810190610251919061336f565b610803565b005b34801561026457600080fd5b5061026d61088b565b60405161027a9190613deb565b60405180910390f35b34801561028f57600080fd5b506102aa60048036038101906102a5919061315d565b61091d565b6040516102b7919061400d565b60405180910390f35b6102da60048036038101906102d5919061315d565b610c41565b6040516102e7919061400d565b60405180910390f35b3480156102fc57600080fd5b506103176004803603810190610312919061336f565b610e0c565b604051610324919061400d565b60405180910390f35b34801561033957600080fd5b50610342610e7a565b60405161034f919061400d565b60405180910390f35b34801561036457600080fd5b5061037f600480360381019061037a91906134a5565b610ea2565b60405161038c919061400d565b60405180910390f35b3480156103a157600080fd5b506103bc60048036038101906103b7919061336f565b610f2c565b6040516103c99190613dd0565b60405180910390f35b3480156103de57600080fd5b506103f960048036038101906103f491906133c1565b610f3e565b6040516104069190613cb0565b60405180910390f35b34801561041b57600080fd5b506104366004803603810190610431919061315d565b610fa9565b604051610443919061400d565b60405180910390f35b34801561045857600080fd5b50610473600480360381019061046e919061336f565b610fc1565b60405161048293929190614101565b60405180910390f35b34801561049757600080fd5b506104a0610ff9565b6040516104ad9190613deb565b60405180910390f35b3480156104c257600080fd5b506104dd60048036038101906104d891906133fd565b611036565b6040516104ea919061400d565b60405180910390f35b3480156104ff57600080fd5b5061051a60048036038101906105159190613439565b611067565b604051610527919061400d565b60405180910390f35b34801561053c57600080fd5b5061055760048036038101906105529190613208565b6110cf565b604051610564919061400d565b60405180910390f35b34801561057957600080fd5b50610582611395565b60405161058f919061400d565b60405180910390f35b3480156105a457600080fd5b506105ad61139e565b6040516105ba919061400d565b60405180910390f35b3480156105cf57600080fd5b506105ea60048036038101906105e59190613346565b6113a8565b005b3480156105f857600080fd5b50610613600480360381019061060e919061336f565b611430565b604051610620919061400d565b60405180910390f35b34801561063557600080fd5b50610650600480360381019061064b919061336f565b61150c565b60405161065d919061400d565b60405180910390f35b34801561067257600080fd5b5061068d6004803603810190610688919061315d565b61157a565b60405161069a919061400d565b60405180910390f35b3480156106af57600080fd5b506106b86115b6565b6040516106c59190613b0b565b60405180910390f35b3480156106da57600080fd5b506106e36115e0565b6040516106f09190613deb565b60405180910390f35b34801561070557600080fd5b5061070e61161d565b60405161071b9190613ccb565b60405180910390f35b34801561073057600080fd5b5061074b60048036038101906107469190613121565b611641565b604051610758919061400d565b60405180910390f35b34801561076d57600080fd5b506107886004803603810190610783919061336f565b611655565b604051610795919061400d565b60405180910390f35b3480156107aa57600080fd5b506107b3611667565b6040516107c09190613db5565b60405180910390f35b60006107d48261168b565b9050919050565b60007f0000000000000000000000000000000000000000000000000000000000000000905090565b61080b611705565b73ffffffffffffffffffffffffffffffffffffffff16610829611714565b73ffffffffffffffffffffffffffffffffffffffff161461087f576040517f08c379a000000000000000000000000000000000000000000000000000000000815260040161087690613e2d565b60405180910390fd5b6108888161171c565b50565b60606000805461089a9061466a565b80601f01602080910402602001604051908101604052809291908181526020018280546108c69061466a565b80156109135780601f106108e857610100808354040283529160200191610913565b820191906000526020600020905b8154815290600101906020018083116108f657829003601f168201915b5050505050905090565b60008061092c8686868661157a565b905060046007811115610968577f4e487b7100000000000000000000000000000000000000000000000000000000600052602160045260246000fd5b61097182610f2c565b60078111156109a9577f4e487b7100000000000000000000000000000000000000000000000000000000600052602160045260246000fd5b146109e9576040517f08c379a00000000000000000000000000000000000000000000000000000000081526004016109e090613f6d565b60405180910390fd5b6000600260009054906101000a900473ffffffffffffffffffffffffffffffffffffffff1673ffffffffffffffffffffffffffffffffffffffff1663f27a0c926040518163ffffffff1660e01b815260040160206040518083038186803b158015610a5357600080fd5b505afa158015610a67573d6000803e3d6000fd5b505050506040513d601f19601f82011682018060405250810190610a8b9190613398565b9050600260009054906101000a900473ffffffffffffffffffffffffffffffffffffffff1673ffffffffffffffffffffffffffffffffffffffff1663b1c5f4278888886000896040518663ffffffff1660e01b8152600401610af1959493929190613bd2565b60206040518083038186803b158015610b0957600080fd5b505afa158015610b1d573d6000803e3d6000fd5b505050506040513d601f19601f82011682018060405250810190610b4191906132f4565b6003600084815260200190815260200160002081905550600260009054906101000a900473ffffffffffffffffffffffffffffffffffffffff1673ffffffffffffffffffffffffffffffffffffffff16638f2a0bb0888888600089876040518763ffffffff1660e01b8152600401610bbe96959493929190613c3a565b600060405180830381600087803b158015610bd857600080fd5b505af1158015610bec573d6000803e3d6000fd5b505050507f9a2e42fd6722813d69113e7d0079d3d940171428df7373df9c7f7617cfda2892828242610c1e91906143c7565b604051610c2c9291906140d8565b60405180910390a18192505050949350505050565b600080610c508686868661157a565b90506000610c5d82610f2c565b905060046007811115610c99577f4e487b7100000000000000000000000000000000000000000000000000000000600052602160045260246000fd5b816007811115610cd2577f4e487b7100000000000000000000000000000000000000000000000000000000600052602160045260246000fd5b1480610d4e575060056007811115610d13577f4e487b7100000000000000000000000000000000000000000000000000000000600052602160045260246000fd5b816007811115610d4c577f4e487b7100000000000000000000000000000000000000000000000000000000600052602160045260246000fd5b145b610d8d576040517f08c379a0000000000000000000000000000000000000000000000000000000008152600401610d8490613f6d565b60405180910390fd5b600180600084815260200190815260200160002060020160006101000a81548160ff0219169083151502179055507f712ae1383f79ac853f8d882153778e0260ef8f03b504e2866e0593e04d2b291f82604051610dea919061400d565b60405180910390a1610dff82888888886117b1565b8192505050949350505050565b6000610e69600160008481526020019081526020016000206000016040518060200160405290816000820160009054906101000a900467ffffffffffffffff1667ffffffffffffffff1667ffffffffffffffff16815250506117c5565b67ffffffffffffffff169050919050565b60007f0000000000000000000000000000000000000000000000000000000000000000905090565b600080610f03610efb7f150214d74d59b7d1e90c73fc22ef3d991dd0a76b046543d4d80ab92d2a50328f8989604051602001610ee093929190613d39565b604051602081830303815290604052805190602001206117d3565b8686866117ed565b9050610f2087828860405180602001604052806000815250611818565b91505095945050505050565b6000610f37826119b8565b9050919050565b60006005600084815260200190815260200160002060030160008373ffffffffffffffffffffffffffffffffffffffff1673ffffffffffffffffffffffffffffffffffffffff16815260200190815260200160002060009054906101000a900460ff16905092915050565b6000610fb785858585611b3b565b9050949350505050565b600080600080600560008681526020019081526020016000209050806000015481600101548260020154935093509350509193909250565b60606040518060400160405280600181526020017f3100000000000000000000000000000000000000000000000000000000000000815250905090565b600080611041611714565b905061105e84828560405180602001604052806000815250611818565b91505092915050565b600080611072611714565b90506110c486828787878080601f016020809104026020016040519081016040528093929190818152602001838380828437600081840152601f19601f82011690508083019250505050505050611818565b915050949350505050565b6000806110e5868686868051906020012061157a565b9050845186511461112b576040517f08c379a000000000000000000000000000000000000000000000000000000000815260040161112290613e8d565b60405180910390fd5b835186511461116f576040517f08c379a000000000000000000000000000000000000000000000000000000000815260040161116690613e8d565b60405180910390fd5b60008651116111b3576040517f08c379a00000000000000000000000000000000000000000000000000000000081526004016111aa90613eed565b60405180910390fd5b6000600160008381526020019081526020016000209050611213816000016040518060200160405290816000820160009054906101000a900467ffffffffffffffff1667ffffffffffffffff1667ffffffffffffffff1681525050611b53565b611252576040517f08c379a000000000000000000000000000000000000000000000000000000000815260040161124990613fcd565b60405180910390fd5b600061126461125f610e7a565b611b6d565b61126d43611b6d565b611277919061441d565b9050600061128b6112866107db565b611b6d565b82611296919061441d565b90506112ae8284600001611bc490919063ffffffff16565b6112c48184600101611bc490919063ffffffff16565b7f7d84a6263ae0d98d3329bd7b46bb4e8d6f98cd35a7adb45c274c8b7fd5ebd5e0846112ee611714565b8b8b8d5167ffffffffffffffff811115611331577f4e487b7100000000000000000000000000000000000000000000000000000000600052604160045260246000fd5b60405190808252806020026020018201604052801561136457816020015b606081526020019060019003908161134f5790505b508c88888e60405161137e99989796959493929190614028565b60405180910390a183945050505050949350505050565b60006064905090565b6000600454905090565b6113b0611705565b73ffffffffffffffffffffffffffffffffffffffff166113ce611714565b73ffffffffffffffffffffffffffffffffffffffff1614611424576040517f08c379a000000000000000000000000000000000000000000000000000000000815260040161141b90613e2d565b60405180910390fd5b61142d81611bf3565b50565b600080600260009054906101000a900473ffffffffffffffffffffffffffffffffffffffff1673ffffffffffffffffffffffffffffffffffffffff1663d45c443560036000868152602001908152602001600020546040518263ffffffff1660e01b81526004016114a19190613ccb565b60206040518083038186803b1580156114b957600080fd5b505afa1580156114cd573d6000803e3d6000fd5b505050506040513d601f19601f820116820180604052508101906114f19190613398565b9050600181146115015780611504565b60005b915050919050565b6000611569600160008481526020019081526020016000206001016040518060200160405290816000820160009054906101000a900467ffffffffffffffff1667ffffffffffffffff1667ffffffffffffffff16815250506117c5565b67ffffffffffffffff169050919050565b6000848484846040516020016115939493929190613b78565b6040516020818303038152906040528051906020012060001c9050949350505050565b6000600260009054906101000a900473ffffffffffffffffffffffffffffffffffffffff16905090565b60606040518060400160405280602081526020017f737570706f72743d627261766f2671756f72756d3d666f722c6162737461696e815250905090565b7f150214d74d59b7d1e90c73fc22ef3d991dd0a76b046543d4d80ab92d2a50328f81565b600061164d8383611c92565b905092915050565b600061166082611d47565b9050919050565b7f000000000000000000000000000000000000000000000000000000000000000081565b60007f6e665ced000000000000000000000000000000000000000000000000000000007bffffffffffffffffffffffffffffffffffffffffffffffffffffffff1916827bffffffffffffffffffffffffffffffffffffffffffffffffffffffff191614806116fe57506116fd82611e1d565b5b9050919050565b600061170f611e97565b905090565b600033905090565b611724611395565b811115611766576040517f08c379a000000000000000000000000000000000000000000000000000000000815260040161175d90613e4d565b60405180910390fd5b60006004549050816004819055507f0553476bf02ef2726e8ce5ced78d63e26e602e4a2257b1f559418e24b463399781836040516117a59291906140d8565b60405180910390a15050565b6117be8585858585611ec1565b5050505050565b600081600001519050919050565b60006117e66117e0611f5f565b83612022565b9050919050565b60008060006117fe87878787612055565b9150915061180b81612162565b8192505050949350505050565b6000806001600087815260200190815260200160002090506001600781111561186a577f4e487b7100000000000000000000000000000000000000000000000000000000600052602160045260246000fd5b61187387610f2c565b60078111156118ab577f4e487b7100000000000000000000000000000000000000000000000000000000600052602160045260246000fd5b146118eb576040517f08c379a00000000000000000000000000000000000000000000000000000000081526004016118e290613ecd565b60405180910390fd5b60006119498661193a846000016040518060200160405290816000820160009054906101000a900467ffffffffffffffff1667ffffffffffffffff1667ffffffffffffffff16815250506117c5565b67ffffffffffffffff16611641565b9050611957878787846124b3565b8573ffffffffffffffffffffffffffffffffffffffff167fb8e138887d0aa13bab447e82de9d5c1777041ecd21ca36ba824ff1e6c07ddda4888784886040516119a39493929190614138565b60405180910390a28092505050949350505050565b6000806119c48361272b565b905060046007811115611a00577f4e487b7100000000000000000000000000000000000000000000000000000000600052602160045260246000fd5b816007811115611a39577f4e487b7100000000000000000000000000000000000000000000000000000000600052602160045260246000fd5b14611a475780915050611b36565b6000600360008581526020019081526020016000205490506000801b811415611a74578192505050611b36565b600260009054906101000a900473ffffffffffffffffffffffffffffffffffffffff1673ffffffffffffffffffffffffffffffffffffffff16632ab0f529826040518263ffffffff1660e01b8152600401611acf9190613ccb565b60206040518083038186803b158015611ae757600080fd5b505afa158015611afb573d6000803e3d6000fd5b505050506040513d601f19601f82011682018060405250810190611b1f91906132cb565b15611b2f57600792505050611b36565b6005925050505b919050565b6000611b49858585856128f2565b9050949350505050565b600080826000015167ffffffffffffffff16149050919050565b600067ffffffffffffffff8016821115611bbc576040517f08c379a0000000000000000000000000000000000000000000000000000000008152600401611bb390613f2d565b60405180910390fd5b819050919050565b808260000160006101000a81548167ffffffffffffffff021916908367ffffffffffffffff1602179055505050565b7f08f74ea46ef7894f65eabfb5e6e695de773a000b47c529ab559178069b226401600260009054906101000a900473ffffffffffffffffffffffffffffffffffffffff1682604051611c46929190613b26565b60405180910390a180600260006101000a81548173ffffffffffffffffffffffffffffffffffffffff021916908373ffffffffffffffffffffffffffffffffffffffff16021790555050565b60007f000000000000000000000000000000000000000000000000000000000000000073ffffffffffffffffffffffffffffffffffffffff16633a46b1a884846040518363ffffffff1660e01b8152600401611cef929190613b4f565b60206040518083038186803b158015611d0757600080fd5b505afa158015611d1b573d6000803e3d6000fd5b505050506040513d601f19601f82011682018060405250810190611d3f9190613398565b905092915050565b6000611d51611395565b611d5961139e565b7f000000000000000000000000000000000000000000000000000000000000000073ffffffffffffffffffffffffffffffffffffffff16638e539e8c856040518263ffffffff1660e01b8152600401611db2919061400d565b60206040518083038186803b158015611dca57600080fd5b505afa158015611dde573d6000803e3d6000fd5b505050506040513d601f19601f82011682018060405250810190611e029190613398565b611e0c919061448c565b611e16919061445b565b9050919050565b60007fbf26d897000000000000000000000000000000000000000000000000000000007bffffffffffffffffffffffffffffffffffffffffffffffffffffffff1916827bffffffffffffffffffffffffffffffffffffffffffffffffffffffff19161480611e905750611e8f826129e4565b5b9050919050565b6000600260009054906101000a900473ffffffffffffffffffffffffffffffffffffffff16905090565b600260009054906101000a900473ffffffffffffffffffffffffffffffffffffffff1673ffffffffffffffffffffffffffffffffffffffff1663e38335e5348686866000876040518763ffffffff1660e01b8152600401611f26959493929190613bd2565b6000604051808303818588803b158015611f3f57600080fd5b505af1158015611f53573d6000803e3d6000fd5b50505050505050505050565b60007f0000000000000000000000000000000000000000000000000000000000000000461415611fb1577f0000000000000000000000000000000000000000000000000000000000000000905061201f565b61201c7f00000000000000000000000000000000000000000000000000000000000000007f00000000000000000000000000000000000000000000000000000000000000007f0000000000000000000000000000000000000000000000000000000000000000612a4e565b90505b90565b60008282604051602001612037929190613ad4565b60405160208183030381529060405280519060200120905092915050565b6000807f7fffffffffffffffffffffffffffffff5d576e7357a4501ddfe92f46681b20a08360001c1115612090576000600391509150612159565b601b8560ff16141580156120a85750601c8560ff1614155b156120ba576000600491509150612159565b6000600187878787604051600081526020016040526040516120df9493929190613d70565b6020604051602081039080840390855afa158015612101573d6000803e3d6000fd5b505050602060405103519050600073ffffffffffffffffffffffffffffffffffffffff168173ffffffffffffffffffffffffffffffffffffffff16141561215057600060019250925050612159565b80600092509250505b94509492505050565b6000600481111561219c577f4e487b7100000000000000000000000000000000000000000000000000000000600052602160045260246000fd5b8160048111156121d5577f4e487b7100000000000000000000000000000000000000000000000000000000600052602160045260246000fd5b14156121e0576124b0565b6001600481111561221a577f4e487b7100000000000000000000000000000000000000000000000000000000600052602160045260246000fd5b816004811115612253577f4e487b7100000000000000000000000000000000000000000000000000000000600052602160045260246000fd5b1415612294576040517f08c379a000000000000000000000000000000000000000000000000000000000815260040161228b90613e0d565b60405180910390fd5b600260048111156122ce577f4e487b7100000000000000000000000000000000000000000000000000000000600052602160045260246000fd5b816004811115612307577f4e487b7100000000000000000000000000000000000000000000000000000000600052602160045260246000fd5b1415612348576040517f08c379a000000000000000000000000000000000000000000000000000000000815260040161233f90613e6d565b60405180910390fd5b60036004811115612382577f4e487b7100000000000000000000000000000000000000000000000000000000600052602160045260246000fd5b8160048111156123bb577f4e487b7100000000000000000000000000000000000000000000000000000000600052602160045260246000fd5b14156123fc576040517f08c379a00000000000000000000000000000000000000000000000000000000081526004016123f390613ead565b60405180910390fd5b600480811115612435577f4e487b7100000000000000000000000000000000000000000000000000000000600052602160045260246000fd5b81600481111561246e577f4e487b7100000000000000000000000000000000000000000000000000000000600052602160045260246000fd5b14156124af576040517f08c379a00000000000000000000000000000000000000000000000000000000081526004016124a690613f0d565b60405180910390fd5b5b50565b60006005600086815260200190815260200160002090508060030160008573ffffffffffffffffffffffffffffffffffffffff1673ffffffffffffffffffffffffffffffffffffffff16815260200190815260200160002060009054906101000a900460ff1615612559576040517f08c379a000000000000000000000000000000000000000000000000000000000815260040161255090613fed565b60405180910390fd5b60018160030160008673ffffffffffffffffffffffffffffffffffffffff1673ffffffffffffffffffffffffffffffffffffffff16815260200190815260200160002060006101000a81548160ff021916908315150217905550600060028111156125ed577f4e487b7100000000000000000000000000000000000000000000000000000000600052602160045260246000fd5b60ff168360ff16141561261a578181600001600082825461260e91906143c7565b92505081905550612724565b60016002811115612654577f4e487b7100000000000000000000000000000000000000000000000000000000600052602160045260246000fd5b60ff168360ff161415612681578181600101600082825461267591906143c7565b92505081905550612723565b6002808111156126ba577f4e487b7100000000000000000000000000000000000000000000000000000000600052602160045260246000fd5b60ff168360ff1614156126e757818160020160008282546126db91906143c7565b92505081905550612722565b6040517f08c379a000000000000000000000000000000000000000000000000000000000815260040161271990613fad565b60405180910390fd5b5b5b5050505050565b60008060016000848152602001908152602001600020604051806080016040529081600082016040518060200160405290816000820160009054906101000a900467ffffffffffffffff1667ffffffffffffffff1667ffffffffffffffff16815250508152602001600182016040518060200160405290816000820160009054906101000a900467ffffffffffffffff1667ffffffffffffffff1667ffffffffffffffff168152505081526020016002820160009054906101000a900460ff161515151581526020016002820160019054906101000a900460ff16151515158152505090508060400151156128245760079150506128ed565b8060600151156128385760029150506128ed565b6128458160000151612a88565b156128545760009150506128ed565b6128618160200151612a88565b156128705760019150506128ed565b61287d8160200151612aa2565b156128b25761288b83612ace565b801561289c575061289b83612b15565b5b6128a75760036128aa565b60045b9150506128ed565b6040517f08c379a00000000000000000000000000000000000000000000000000000000081526004016128e490613f8d565b60405180910390fd5b919050565b60008061290186868686612b40565b90506000801b6003600083815260200190815260200160002054146129d857600260009054906101000a900473ffffffffffffffffffffffffffffffffffffffff1673ffffffffffffffffffffffffffffffffffffffff1663c4d252f560036000848152602001908152602001600020546040518263ffffffff1660e01b815260040161298e9190613ccb565b600060405180830381600087803b1580156129a857600080fd5b505af11580156129bc573d6000803e3d6000fd5b5050505060036000828152602001908152602001600020600090555b80915050949350505050565b60007f01ffc9a7000000000000000000000000000000000000000000000000000000007bffffffffffffffffffffffffffffffffffffffffffffffffffffffff1916827bffffffffffffffffffffffffffffffffffffffffffffffffffffffff1916149050919050565b60008383834630604051602001612a69959493929190613ce6565b6040516020818303038152906040528051906020012090509392505050565b600043826000015167ffffffffffffffff16119050919050565b6000612aad82612d7d565b8015612ac7575043826000015167ffffffffffffffff1611155b9050919050565b60008060056000848152602001908152602001600020905080600201548160010154612afa91906143c7565b612b0b612b0685610e0c565b611655565b1115915050919050565b6000806005600084815260200190815260200160002090508060000154816001015411915050919050565b600080612b4f8686868661157a565b90506000612b5c82610f2c565b905060026007811115612b98577f4e487b7100000000000000000000000000000000000000000000000000000000600052602160045260246000fd5b816007811115612bd1577f4e487b7100000000000000000000000000000000000000000000000000000000600052602160045260246000fd5b14158015612c50575060066007811115612c14577f4e487b7100000000000000000000000000000000000000000000000000000000600052602160045260246000fd5b816007811115612c4d577f4e487b7100000000000000000000000000000000000000000000000000000000600052602160045260246000fd5b14155b8015612ccc5750600780811115612c90577f4e487b7100000000000000000000000000000000000000000000000000000000600052602160045260246000fd5b816007811115612cc9577f4e487b7100000000000000000000000000000000000000000000000000000000600052602160045260246000fd5b14155b612d0b576040517f08c379a0000000000000000000000000000000000000000000000000000000008152600401612d0290613f4d565b60405180910390fd5b600180600084815260200190815260200160002060020160016101000a81548160ff0219169083151502179055507f789cf55be980739dad1d0699b93b58e806b51c9d96619bfa8fe0a28abaa7b30c82604051612d68919061400d565b60405180910390a18192505050949350505050565b600080826000015167ffffffffffffffff16119050919050565b6000612daa612da5846141a9565b614184565b90508083825260208201905082856020860282011115612dc957600080fd5b60005b85811015612df95781612ddf8882612f48565b845260208401935060208301925050600181019050612dcc565b5050509392505050565b6000612e16612e11846141d5565b614184565b9050808382526020820190508260005b85811015612e565781358501612e3c888261302f565b845260208401935060208301925050600181019050612e26565b5050509392505050565b6000612e73612e6e84614201565b614184565b90508083825260208201905082856020860282011115612e9257600080fd5b60005b85811015612ec25781612ea888826130e2565b845260208401935060208301925050600181019050612e95565b5050509392505050565b6000612edf612eda8461422d565b614184565b905082815260208101848484011115612ef757600080fd5b612f02848285614628565b509392505050565b6000612f1d612f188461425e565b614184565b905082815260208101848484011115612f3557600080fd5b612f40848285614628565b509392505050565b600081359050612f5781614c4f565b92915050565b600082601f830112612f6e57600080fd5b8135612f7e848260208601612d97565b91505092915050565b600082601f830112612f9857600080fd5b8135612fa8848260208601612e03565b91505092915050565b600082601f830112612fc257600080fd5b8135612fd2848260208601612e60565b91505092915050565b600081519050612fea81614c66565b92915050565b600081359050612fff81614c7d565b92915050565b60008151905061301481614c7d565b92915050565b60008135905061302981614c94565b92915050565b600082601f83011261304057600080fd5b8135613050848260208601612ecc565b91505092915050565b60008135905061306881614cab565b92915050565b60008083601f84011261308057600080fd5b8235905067ffffffffffffffff81111561309957600080fd5b6020830191508360018202830111156130b157600080fd5b9250929050565b600082601f8301126130c957600080fd5b81356130d9848260208601612f0a565b91505092915050565b6000813590506130f181614cc2565b92915050565b60008151905061310681614cc2565b92915050565b60008135905061311b81614cd9565b92915050565b6000806040838503121561313457600080fd5b600061314285828601612f48565b9250506020613153858286016130e2565b9150509250929050565b6000806000806080858703121561317357600080fd5b600085013567ffffffffffffffff81111561318d57600080fd5b61319987828801612f5d565b945050602085013567ffffffffffffffff8111156131b657600080fd5b6131c287828801612fb1565b935050604085013567ffffffffffffffff8111156131df57600080fd5b6131eb87828801612f87565b92505060606131fc87828801612ff0565b91505092959194509250565b6000806000806080858703121561321e57600080fd5b600085013567ffffffffffffffff81111561323857600080fd5b61324487828801612f5d565b945050602085013567ffffffffffffffff81111561326157600080fd5b61326d87828801612fb1565b935050604085013567ffffffffffffffff81111561328a57600080fd5b61329687828801612f87565b925050606085013567ffffffffffffffff8111156132b357600080fd5b6132bf878288016130b8565b91505092959194509250565b6000602082840312156132dd57600080fd5b60006132eb84828501612fdb565b91505092915050565b60006020828403121561330657600080fd5b600061331484828501613005565b91505092915050565b60006020828403121561332f57600080fd5b600061333d8482850161301a565b91505092915050565b60006020828403121561335857600080fd5b600061336684828501613059565b91505092915050565b60006020828403121561338157600080fd5b600061338f848285016130e2565b91505092915050565b6000602082840312156133aa57600080fd5b60006133b8848285016130f7565b91505092915050565b600080604083850312156133d457600080fd5b60006133e2858286016130e2565b92505060206133f385828601612f48565b9150509250929050565b6000806040838503121561341057600080fd5b600061341e858286016130e2565b925050602061342f8582860161310c565b9150509250929050565b6000806000806060858703121561344f57600080fd5b600061345d878288016130e2565b945050602061346e8782880161310c565b935050604085013567ffffffffffffffff81111561348b57600080fd5b6134978782880161306e565b925092505092959194509250565b600080600080600060a086880312156134bd57600080fd5b60006134cb888289016130e2565b95505060206134dc8882890161310c565b94505060406134ed8882890161310c565b93505060606134fe88828901612ff0565b925050608061350f88828901612ff0565b9150509295509295909350565b60006135288383613574565b60208301905092915050565b6000613540838361376d565b905092915050565b600061355483836137d3565b905092915050565b60006135688383613a98565b60208301905092915050565b61357d816144e6565b82525050565b61358c816144e6565b82525050565b600061359d826142cf565b6135a78185614345565b93506135b28361428f565b8060005b838110156135e35781516135ca888261351c565b97506135d583614311565b9250506001810190506135b6565b5085935050505092915050565b60006135fb826142da565b6136058185614356565b9350836020820285016136178561429f565b8060005b8581101561365357848403895281516136348582613534565b945061363f8361431e565b925060208a0199505060018101905061361b565b50829750879550505050505092915050565b6000613670826142e5565b61367a8185614367565b93508360208202850161368c856142af565b8060005b858110156136c857848403895281516136a98582613548565b94506136b48361432b565b925060208a01995050600181019050613690565b50829750879550505050505092915050565b60006136e5826142f0565b6136ef8185614378565b93506136fa836142bf565b8060005b8381101561372b578151613712888261355c565b975061371d83614338565b9250506001810190506136fe565b5085935050505092915050565b6137418161450a565b82525050565b61375081614516565b82525050565b61376761376282614516565b6146cd565b82525050565b6000613778826142fb565b6137828185614389565b9350613792818560208601614637565b61379b816147c2565b840191505092915050565b6137af816145c6565b82525050565b6137be816145ea565b82525050565b6137cd816145fc565b82525050565b60006137de82614306565b6137e8818561439a565b93506137f8818560208601614637565b613801816147c2565b840191505092915050565b600061381782614306565b61382181856143ab565b9350613831818560208601614637565b61383a816147c2565b840191505092915050565b60006138526018836143ab565b915061385d826147e0565b602082019050919050565b60006138756018836143ab565b915061388082614809565b602082019050919050565b60006138986043836143ab565b91506138a382614832565b606082019050919050565b60006138bb601f836143ab565b91506138c6826148a7565b602082019050919050565b60006138de6002836143bc565b91506138e9826148d0565b600282019050919050565b60006139016021836143ab565b915061390c826148f9565b604082019050919050565b60006139246022836143ab565b915061392f82614948565b604082019050919050565b60006139476023836143ab565b915061395282614997565b604082019050919050565b600061396a6018836143ab565b9150613975826149e6565b602082019050919050565b600061398d6022836143ab565b915061399882614a0f565b604082019050919050565b60006139b06026836143ab565b91506139bb82614a5e565b604082019050919050565b60006139d3601d836143ab565b91506139de82614aad565b602082019050919050565b60006139f66021836143ab565b9150613a0182614ad6565b604082019050919050565b6000613a19601d836143ab565b9150613a2482614b25565b602082019050919050565b6000613a3c6035836143ab565b9150613a4782614b4e565b604082019050919050565b6000613a5f6021836143ab565b9150613a6a82614b9d565b604082019050919050565b6000613a826029836143ab565b9150613a8d82614bec565b604082019050919050565b613aa18161459b565b82525050565b613ab08161459b565b82525050565b613abf81614616565b82525050565b613ace816145b9565b82525050565b6000613adf826138d1565b9150613aeb8285613756565b602082019150613afb8284613756565b6020820191508190509392505050565b6000602082019050613b206000830184613583565b92915050565b6000604082019050613b3b6000830185613583565b613b486020830184613583565b9392505050565b6000604082019050613b646000830185613583565b613b716020830184613aa7565b9392505050565b60006080820190508181036000830152613b928187613592565b90508181036020830152613ba681866136da565b90508181036040830152613bba81856135f0565b9050613bc96060830184613747565b95945050505050565b600060a0820190508181036000830152613bec8188613592565b90508181036020830152613c0081876136da565b90508181036040830152613c1481866135f0565b9050613c2360608301856137c4565b613c306080830184613747565b9695505050505050565b600060c0820190508181036000830152613c548189613592565b90508181036020830152613c6881886136da565b90508181036040830152613c7c81876135f0565b9050613c8b60608301866137c4565b613c986080830185613747565b613ca560a0830184613aa7565b979650505050505050565b6000602082019050613cc56000830184613738565b92915050565b6000602082019050613ce06000830184613747565b92915050565b600060a082019050613cfb6000830188613747565b613d086020830187613747565b613d156040830186613747565b613d226060830185613aa7565b613d2f6080830184613583565b9695505050505050565b6000606082019050613d4e6000830186613747565b613d5b6020830185613aa7565b613d686040830184613ac5565b949350505050565b6000608082019050613d856000830187613747565b613d926020830186613ac5565b613d9f6040830185613747565b613dac6060830184613747565b95945050505050565b6000602082019050613dca60008301846137a6565b92915050565b6000602082019050613de560008301846137b5565b92915050565b60006020820190508181036000830152613e05818461380c565b905092915050565b60006020820190508181036000830152613e2681613845565b9050919050565b60006020820190508181036000830152613e4681613868565b9050919050565b60006020820190508181036000830152613e668161388b565b9050919050565b60006020820190508181036000830152613e86816138ae565b9050919050565b60006020820190508181036000830152613ea6816138f4565b9050919050565b60006020820190508181036000830152613ec681613917565b9050919050565b60006020820190508181036000830152613ee68161393a565b9050919050565b60006020820190508181036000830152613f068161395d565b9050919050565b60006020820190508181036000830152613f2681613980565b9050919050565b60006020820190508181036000830152613f46816139a3565b9050919050565b60006020820190508181036000830152613f66816139c6565b9050919050565b60006020820190508181036000830152613f86816139e9565b9050919050565b60006020820190508181036000830152613fa681613a0c565b9050919050565b60006020820190508181036000830152613fc681613a2f565b9050919050565b60006020820190508181036000830152613fe681613a52565b9050919050565b6000602082019050818103600083015261400681613a75565b9050919050565b60006020820190506140226000830184613aa7565b92915050565b60006101208201905061403e600083018c613aa7565b61404b602083018b613583565b818103604083015261405d818a613592565b9050818103606083015261407181896136da565b905081810360808301526140858188613665565b905081810360a083015261409981876135f0565b90506140a860c0830186613ab6565b6140b560e0830185613ab6565b8181036101008301526140c8818461380c565b90509a9950505050505050505050565b60006040820190506140ed6000830185613aa7565b6140fa6020830184613aa7565b9392505050565b60006060820190506141166000830186613aa7565b6141236020830185613aa7565b6141306040830184613aa7565b949350505050565b600060808201905061414d6000830187613aa7565b61415a6020830186613ac5565b6141676040830185613aa7565b8181036060830152614179818461380c565b905095945050505050565b600061418e61419f565b905061419a828261469c565b919050565b6000604051905090565b600067ffffffffffffffff8211156141c4576141c3614793565b5b602082029050602081019050919050565b600067ffffffffffffffff8211156141f0576141ef614793565b5b602082029050602081019050919050565b600067ffffffffffffffff82111561421c5761421b614793565b5b602082029050602081019050919050565b600067ffffffffffffffff82111561424857614247614793565b5b614251826147c2565b9050602081019050919050565b600067ffffffffffffffff82111561427957614278614793565b5b614282826147c2565b9050602081019050919050565b6000819050602082019050919050565b6000819050602082019050919050565b6000819050602082019050919050565b6000819050602082019050919050565b600081519050919050565b600081519050919050565b600081519050919050565b600081519050919050565b600081519050919050565b600081519050919050565b6000602082019050919050565b6000602082019050919050565b6000602082019050919050565b6000602082019050919050565b600082825260208201905092915050565b600082825260208201905092915050565b600082825260208201905092915050565b600082825260208201905092915050565b600082825260208201905092915050565b600082825260208201905092915050565b600082825260208201905092915050565b600081905092915050565b60006143d28261459b565b91506143dd8361459b565b9250827fffffffffffffffffffffffffffffffffffffffffffffffffffffffffffffffff03821115614412576144116146d7565b5b828201905092915050565b6000614428826145a5565b9150614433836145a5565b92508267ffffffffffffffff038211156144505761444f6146d7565b5b828201905092915050565b60006144668261459b565b91506144718361459b565b92508261448157614480614706565b5b828204905092915050565b60006144978261459b565b91506144a28361459b565b9250817fffffffffffffffffffffffffffffffffffffffffffffffffffffffffffffffff04831182151516156144db576144da6146d7565b5b828202905092915050565b60006144f18261457b565b9050919050565b60006145038261457b565b9050919050565b60008115159050919050565b6000819050919050565b60007fffffffff0000000000000000000000000000000000000000000000000000000082169050919050565b6000614557826144f8565b9050919050565b600081905061456c82614c3b565b919050565b6000819050919050565b600073ffffffffffffffffffffffffffffffffffffffff82169050919050565b6000819050919050565b600067ffffffffffffffff82169050919050565b600060ff82169050919050565b60006145d1826145d8565b9050919050565b60006145e38261457b565b9050919050565b60006145f58261455e565b9050919050565b600061460f61460a83614571565b6147d3565b9050919050565b6000614621826145a5565b9050919050565b82818337600083830152505050565b60005b8381101561465557808201518184015260208101905061463a565b83811115614664576000848401525b50505050565b6000600282049050600182168061468257607f821691505b6020821081141561469657614695614764565b5b50919050565b6146a5826147c2565b810181811067ffffffffffffffff821117156146c4576146c3614793565b5b80604052505050565b6000819050919050565b7f4e487b7100000000000000000000000000000000000000000000000000000000600052601160045260246000fd5b7f4e487b7100000000000000000000000000000000000000000000000000000000600052601260045260246000fd5b7f4e487b7100000000000000000000000000000000000000000000000000000000600052602160045260246000fd5b7f4e487b7100000000000000000000000000000000000000000000000000000000600052602260045260246000fd5b7f4e487b7100000000000000000000000000000000000000000000000000000000600052604160045260246000fd5b6000601f19601f8301169050919050565b60008160001b9050919050565b7f45434453413a20696e76616c6964207369676e61747572650000000000000000600082015250565b7f476f7665726e6f723a206f6e6c79476f7665726e616e63650000000000000000600082015250565b7f476f7665726e6f72566f74657351756f72756d4672616374696f6e3a2071756f60008201527f72756d4e756d657261746f72206f7665722071756f72756d44656e6f6d696e6160208201527f746f720000000000000000000000000000000000000000000000000000000000604082015250565b7f45434453413a20696e76616c6964207369676e6174757265206c656e67746800600082015250565b7f1901000000000000000000000000000000000000000000000000000000000000600082015250565b7f476f7665726e6f723a20696e76616c69642070726f706f73616c206c656e677460008201527f6800000000000000000000000000000000000000000000000000000000000000602082015250565b7f45434453413a20696e76616c6964207369676e6174757265202773272076616c60008201527f7565000000000000000000000000000000000000000000000000000000000000602082015250565b7f476f7665726e6f723a20766f7465206e6f742063757272656e746c792061637460008201527f6976650000000000000000000000000000000000000000000000000000000000602082015250565b7f476f7665726e6f723a20656d7074792070726f706f73616c0000000000000000600082015250565b7f45434453413a20696e76616c6964207369676e6174757265202776272076616c60008201527f7565000000000000000000000000000000000000000000000000000000000000602082015250565b7f53616665436173743a2076616c756520646f65736e27742066697420696e203660008201527f3420626974730000000000000000000000000000000000000000000000000000602082015250565b7f476f7665726e6f723a2070726f706f73616c206e6f7420616374697665000000600082015250565b7f476f7665726e6f723a2070726f706f73616c206e6f742073756363657373667560008201527f6c00000000000000000000000000000000000000000000000000000000000000602082015250565b7f476f7665726e6f723a20756e6b6e6f776e2070726f706f73616c206964000000600082015250565b7f476f7665726e6f72566f74696e6753696d706c653a20696e76616c696420766160008201527f6c756520666f7220656e756d20566f7465547970650000000000000000000000602082015250565b7f476f7665726e6f723a2070726f706f73616c20616c726561647920657869737460008201527f7300000000000000000000000000000000000000000000000000000000000000602082015250565b7f476f7665726e6f72566f74696e6753696d706c653a20766f746520616c72656160008201527f6479206361737465640000000000000000000000000000000000000000000000602082015250565b60088110614c4c57614c4b614735565b5b50565b614c58816144e6565b8114614c6357600080fd5b50565b614c6f8161450a565b8114614c7a57600080fd5b50565b614c8681614516565b8114614c9157600080fd5b50565b614c9d81614520565b8114614ca857600080fd5b50565b614cb48161454c565b8114614cbf57600080fd5b50565b614ccb8161459b565b8114614cd657600080fd5b50565b614ce2816145b9565b8114614ced57600080fd5b5056fea264697066735822122081faf9d468711b1620d694db5d8a166cf0af9e4cf6d7c7acc39d2b7859a9abd664736f6c63430008020033",
  "immutableReferences": {
    "5743": [
      {
        "length": 32,
        "start": 5737
      },
      {
        "length": 32,
        "start": 7318
      },
      {
        "length": 32,
        "start": 7515
      }
    ],
    "11266": [
      {
        "length": 32,
        "start": 3710
      }
    ],
    "11268": [
      {
        "length": 32,
        "start": 2015
      }
    ],
    "24966": [
      {
        "length": 32,
        "start": 8075
      }
    ],
    "24968": [
      {
        "length": 32,
        "start": 8035
      }
    ],
    "24970": [
      {
        "length": 32,
        "start": 8151
      }
    ],
    "24972": [
      {
        "length": 32,
        "start": 8184
      }
    ],
    "24974": [
      {
        "length": 32,
        "start": 8118
      }
    ]
  },
  "source": "// SPDX-License-Identifier: MIT\n\npragma solidity ^0.8.0;\n\nimport \"../governance/extensions/GovernorTimelockControl.sol\";\nimport \"../governance/extensions/GovernorCountingSimple.sol\";\nimport \"../governance/extensions/GovernorVotesQuorumFraction.sol\";\n\ncontract GovernorTimelockControlMock is GovernorTimelockControl, GovernorVotesQuorumFraction, GovernorCountingSimple {\n    uint256 immutable _votingDelay;\n    uint256 immutable _votingPeriod;\n\n    constructor(\n        string memory name_,\n        ERC20Votes token_,\n        uint256 votingDelay_,\n        uint256 votingPeriod_,\n        TimelockController timelock_,\n        uint256 quorumNumerator_\n    )\n        Governor(name_)\n        GovernorTimelockControl(timelock_)\n        GovernorVotes(token_)\n        GovernorVotesQuorumFraction(quorumNumerator_)\n    {\n        _votingDelay = votingDelay_;\n        _votingPeriod = votingPeriod_;\n    }\n\n    function supportsInterface(bytes4 interfaceId)\n        public\n        view\n        virtual\n        override(Governor, GovernorTimelockControl)\n        returns (bool)\n    {\n        return super.supportsInterface(interfaceId);\n    }\n\n    function votingDelay() public view override returns (uint256) {\n        return _votingDelay;\n    }\n\n    function votingPeriod() public view override returns (uint256) {\n        return _votingPeriod;\n    }\n\n    function quorum(uint256 blockNumber)\n        public\n        view\n        override(IGovernor, GovernorVotesQuorumFraction)\n        returns (uint256)\n    {\n        return super.quorum(blockNumber);\n    }\n\n    function cancel(\n        address[] memory targets,\n        uint256[] memory values,\n        bytes[] memory calldatas,\n        bytes32 descriptionHash\n    ) public returns (uint256 proposalId) {\n        return _cancel(targets, values, calldatas, descriptionHash);\n    }\n\n    /**\n     * Overriding nightmare\n     */\n    function state(uint256 proposalId)\n        public\n        view\n        virtual\n        override(Governor, GovernorTimelockControl)\n        returns (ProposalState)\n    {\n        return super.state(proposalId);\n    }\n\n    function _execute(\n        uint256 proposalId,\n        address[] memory targets,\n        uint256[] memory values,\n        bytes[] memory calldatas,\n        bytes32 descriptionHash\n    ) internal virtual override(Governor, GovernorTimelockControl) {\n        super._execute(proposalId, targets, values, calldatas, descriptionHash);\n    }\n\n    function _cancel(\n        address[] memory targets,\n        uint256[] memory values,\n        bytes[] memory calldatas,\n        bytes32 descriptionHash\n    ) internal virtual override(Governor, GovernorTimelockControl) returns (uint256 proposalId) {\n        return super._cancel(targets, values, calldatas, descriptionHash);\n    }\n\n    function getVotes(address account, uint256 blockNumber)\n        public\n        view\n        virtual\n        override(IGovernor, GovernorVotes)\n        returns (uint256)\n    {\n        return super.getVotes(account, blockNumber);\n    }\n\n    function _executor() internal view virtual override(Governor, GovernorTimelockControl) returns (address) {\n        return super._executor();\n    }\n}\n",
  "sourcePath": "/home/sushant/Documents/blockchain_work/EatTheBlock/ecomapp2/contracts/openzeppelin/contracts/mocks/GovernorTimelockControlMock.sol",
  "compiler": {
    "name": "solc",
    "version": "0.8.2+commit.661d1103.Emscripten.clang"
  },
  "schemaVersion": "3.4.2",
  "updatedAt": "2021-08-09T18:32:24.541Z",
  "devdoc": {
    "kind": "dev",
    "methods": {
      "COUNTING_MODE()": {
        "details": "See {IGovernor-COUNTING_MODE}."
      },
      "castVote(uint256,uint8)": {
        "details": "See {IGovernor-castVote}."
      },
      "castVoteBySig(uint256,uint8,uint8,bytes32,bytes32)": {
        "details": "See {IGovernor-castVoteBySig}."
      },
      "castVoteWithReason(uint256,uint8,string)": {
        "details": "See {IGovernor-castVoteWithReason}."
      },
      "execute(address[],uint256[],bytes[],bytes32)": {
        "details": "See {IGovernor-execute}."
      },
      "hasVoted(uint256,address)": {
        "details": "See {IGovernor-hasVoted}."
      },
      "hashProposal(address[],uint256[],bytes[],bytes32)": {
        "details": "See {IGovernor-hashProposal}. The proposal id is produced by hashing the RLC encoded `targets` array, the `values` array, the `calldatas` array and the descriptionHash (bytes32 which itself is the keccak256 hash of the description string). This proposal id can be produced from the proposal data which is part of the {ProposalCreated} event. It can even be computed in advance, before the proposal is submitted. Note that the chainId and the governor address are not part of the proposal id computation. Consequently, the same proposal (with same operation and same description) will have the same id if submitted on multiple governors accross multiple networks. This also means that in order to execute the same operation twice (on the same governor) the proposer will have to change the description in order to avoid proposal id conflicts."
      },
      "name()": {
        "details": "See {IGovernor-name}."
      },
      "proposalDeadline(uint256)": {
        "details": "See {IGovernor-proposalDeadline}."
      },
      "proposalEta(uint256)": {
        "details": "Public accessor to check the eta of a queued proposal"
      },
      "proposalSnapshot(uint256)": {
        "details": "See {IGovernor-proposalSnapshot}."
      },
      "proposalVotes(uint256)": {
        "details": "Accessor to the internal vote counts."
      },
      "propose(address[],uint256[],bytes[],string)": {
        "details": "See {IGovernor-propose}."
      },
      "queue(address[],uint256[],bytes[],bytes32)": {
        "details": "Function to queue a proposal to the timelock."
      },
      "timelock()": {
        "details": "Public accessor to check the address of the timelock"
      },
      "updateTimelock(address)": {
        "details": "Public endpoint to update the underlying timelock instance. Restricted to the timelock itself, so updates must be proposed, scheduled and executed using the {Governor} workflow."
      },
      "version()": {
        "details": "See {IGovernor-version}."
      },
      "votingDelay()": {
        "details": "delay, in number of block, between the proposal is created and the vote starts. This can be increassed to leave time for users to buy voting power, of delegate it, before the voting of a proposal starts."
      },
      "votingPeriod()": {
        "details": "delay, in number of blocks, between the vote start and vote ends. Note: the {votingDelay} can delay the start of the vote. This must be considered when setting the voting duration compared to the voting delay."
      }
    },
    "version": 1
  },
  "userdoc": {
    "kind": "user",
    "methods": {
      "state(uint256)": {
        "notice": "Overriding nightmare"
      },
      "votingDelay()": {
        "notice": "module:user-config"
      },
      "votingPeriod()": {
        "notice": "module:user-config"
      }
    },
    "version": 1
  }
}