{
  "contractName": "UUPSUpgradeableMock",
  "abi": [
    {
      "anonymous": false,
      "inputs": [
        {
          "indexed": false,
          "internalType": "address",
          "name": "previousAdmin",
          "type": "address"
        },
        {
          "indexed": false,
          "internalType": "address",
          "name": "newAdmin",
          "type": "address"
        }
      ],
      "name": "AdminChanged",
      "type": "event"
    },
    {
      "anonymous": false,
      "inputs": [
        {
          "indexed": true,
          "internalType": "address",
          "name": "beacon",
          "type": "address"
        }
      ],
      "name": "BeaconUpgraded",
      "type": "event"
    },
    {
      "anonymous": false,
      "inputs": [
        {
          "indexed": true,
          "internalType": "address",
          "name": "implementation",
          "type": "address"
        }
      ],
      "name": "Upgraded",
      "type": "event"
    },
    {
      "inputs": [],
      "name": "current",
      "outputs": [
        {
          "internalType": "uint256",
          "name": "",
          "type": "uint256"
        }
      ],
      "stateMutability": "view",
      "type": "function"
    },
    {
      "inputs": [],
      "name": "decrement",
      "outputs": [],
      "stateMutability": "nonpayable",
      "type": "function"
    },
    {
      "inputs": [],
      "name": "increment",
      "outputs": [],
      "stateMutability": "nonpayable",
      "type": "function"
    },
    {
      "inputs": [],
      "name": "reset",
      "outputs": [],
      "stateMutability": "nonpayable",
      "type": "function"
    },
    {
      "inputs": [
        {
          "internalType": "address",
          "name": "newImplementation",
          "type": "address"
        }
      ],
      "name": "upgradeTo",
      "outputs": [],
      "stateMutability": "nonpayable",
      "type": "function"
    },
    {
      "inputs": [
        {
          "internalType": "address",
          "name": "newImplementation",
          "type": "address"
        },
        {
          "internalType": "bytes",
          "name": "data",
          "type": "bytes"
        }
      ],
      "name": "upgradeToAndCall",
      "outputs": [],
      "stateMutability": "payable",
      "type": "function"
    }
  ],
  "bytecode": "0x608060405234801561001057600080fd5b50610cca806100206000396000f3fe6080604052600436106100555760003560e01c80632baeceb71461005a5780633659cfe6146100715780634f1ef2861461009a5780639fa6a6e3146100b6578063d09de08a146100e1578063d826f88f146100f8575b600080fd5b34801561006657600080fd5b5061006f61010f565b005b34801561007d57600080fd5b5061009860048036038101906100939190610749565b61011b565b005b6100b460048036038101906100af9190610772565b610142565b005b3480156100c257600080fd5b506100cb61015b565b6040516100d891906109ae565b60405180910390f35b3480156100ed57600080fd5b506100f661016c565b005b34801561010457600080fd5b5061010d610178565b005b6101196000610184565b565b610124816101e0565b61013f816040518060200160405280600081525060006101e3565b50565b61014b826101e0565b610157828260016101e3565b5050565b600061016760006103b4565b905090565b61017660006103c2565b565b61018260006103d8565b565b600081600001549050600081116101d0576040517f08c379a00000000000000000000000000000000000000000000000000000000081526004016101c79061092e565b60405180910390fd5b6001810382600001819055505050565b50565b60006101ed6103e5565b90506101f88461043c565b6000835111806102055750815b156102165761021484846104f5565b505b60006102447f4910fdfa16fed3260ed0e7147f7cc6da11a60208b5b9406d12a635614ffd914360001b610522565b90508060000160009054906101000a900460ff166103ad5760018160000160006101000a81548160ff021916908315150217905550610310858360405160240161028e91906108f1565b6040516020818303038152906040527f3659cfe6000000000000000000000000000000000000000000000000000000007bffffffffffffffffffffffffffffffffffffffffffffffffffffffff19166020820180517bffffffffffffffffffffffffffffffffffffffffffffffffffffffff83818316178352505050506104f5565b5060008160000160006101000a81548160ff0219169083151502179055506103366103e5565b73ffffffffffffffffffffffffffffffffffffffff168273ffffffffffffffffffffffffffffffffffffffff16146103a3576040517f08c379a000000000000000000000000000000000000000000000000000000000815260040161039a9061094e565b60405180910390fd5b6103ac8561052c565b5b5050505050565b600081600001549050919050565b6001816000016000828254019250508190555050565b6000816000018190555050565b60006104137f360894a13ba1a3210667c828492db98dca3e2076cc3735a920a3ca505d382bbc60001b61057b565b60000160009054906101000a900473ffffffffffffffffffffffffffffffffffffffff16905090565b61044581610585565b610484576040517f08c379a000000000000000000000000000000000000000000000000000000000815260040161047b9061096e565b60405180910390fd5b806104b17f360894a13ba1a3210667c828492db98dca3e2076cc3735a920a3ca505d382bbc60001b61057b565b60000160006101000a81548173ffffffffffffffffffffffffffffffffffffffff021916908373ffffffffffffffffffffffffffffffffffffffff16021790555050565b606061051a8383604051806060016040528060278152602001610c6e60279139610598565b905092915050565b6000819050919050565b6105358161043c565b8073ffffffffffffffffffffffffffffffffffffffff167fbc7cd75a20ee27fd9adebab32041f755214dbc6bffa90cc0225b39da2e5c2d3b60405160405180910390a250565b6000819050919050565b600080823b905060008111915050919050565b60606105a384610585565b6105e2576040517f08c379a00000000000000000000000000000000000000000000000000000000081526004016105d99061098e565b60405180910390fd5b6000808573ffffffffffffffffffffffffffffffffffffffff168560405161060a91906108da565b600060405180830381855af49150503d8060008114610645576040519150601f19603f3d011682016040523d82523d6000602084013e61064a565b606091505b509150915061065a828286610665565b925050509392505050565b60608315610675578290506106c5565b6000835111156106885782518084602001fd5b816040517f08c379a00000000000000000000000000000000000000000000000000000000081526004016106bc919061090c565b60405180910390fd5b9392505050565b60006106df6106da846109ee565b6109c9565b9050828152602081018484840111156106f757600080fd5b610702848285610a8d565b509392505050565b60008135905061071981610c56565b92915050565b600082601f83011261073057600080fd5b81356107408482602086016106cc565b91505092915050565b60006020828403121561075b57600080fd5b60006107698482850161070a565b91505092915050565b6000806040838503121561078557600080fd5b60006107938582860161070a565b925050602083013567ffffffffffffffff8111156107b057600080fd5b6107bc8582860161071f565b9150509250929050565b6107cf81610a51565b82525050565b60006107e082610a1f565b6107ea8185610a35565b93506107fa818560208601610a9c565b80840191505092915050565b600061081182610a2a565b61081b8185610a40565b935061082b818560208601610a9c565b61083481610b2f565b840191505092915050565b600061084c601b83610a40565b915061085782610b40565b602082019050919050565b600061086f602f83610a40565b915061087a82610b69565b604082019050919050565b6000610892602d83610a40565b915061089d82610bb8565b604082019050919050565b60006108b5602683610a40565b91506108c082610c07565b604082019050919050565b6108d481610a83565b82525050565b60006108e682846107d5565b915081905092915050565b600060208201905061090660008301846107c6565b92915050565b600060208201905081810360008301526109268184610806565b905092915050565b600060208201905081810360008301526109478161083f565b9050919050565b6000602082019050818103600083015261096781610862565b9050919050565b6000602082019050818103600083015261098781610885565b9050919050565b600060208201905081810360008301526109a7816108a8565b9050919050565b60006020820190506109c360008301846108cb565b92915050565b60006109d36109e4565b90506109df8282610acf565b919050565b6000604051905090565b600067ffffffffffffffff821115610a0957610a08610b00565b5b610a1282610b2f565b9050602081019050919050565b600081519050919050565b600081519050919050565b600081905092915050565b600082825260208201905092915050565b6000610a5c82610a63565b9050919050565b600073ffffffffffffffffffffffffffffffffffffffff82169050919050565b6000819050919050565b82818337600083830152505050565b60005b83811015610aba578082015181840152602081019050610a9f565b83811115610ac9576000848401525b50505050565b610ad882610b2f565b810181811067ffffffffffffffff82111715610af757610af6610b00565b5b80604052505050565b7f4e487b7100000000000000000000000000000000000000000000000000000000600052604160045260246000fd5b6000601f19601f8301169050919050565b7f436f756e7465723a2064656372656d656e74206f766572666c6f770000000000600082015250565b7f45524331393637557067726164653a207570677261646520627265616b73206660008201527f7572746865722075706772616465730000000000000000000000000000000000602082015250565b7f455243313936373a206e657720696d706c656d656e746174696f6e206973206e60008201527f6f74206120636f6e747261637400000000000000000000000000000000000000602082015250565b7f416464726573733a2064656c65676174652063616c6c20746f206e6f6e2d636f60008201527f6e74726163740000000000000000000000000000000000000000000000000000602082015250565b610c5f81610a51565b8114610c6a57600080fd5b5056fe416464726573733a206c6f772d6c6576656c2064656c65676174652063616c6c206661696c6564a26469706673582212207576803d3e7fd7b40b3b4b53a6c3c88dc30a438d447f8c59dae554b4bdd9d52664736f6c63430008020033",
  "immutableReferences": {},
  "source": "// SPDX-License-Identifier: MIT\n\npragma solidity ^0.8.0;\n\nimport \"../CountersImpl.sol\";\nimport \"../../proxy/utils/UUPSUpgradeable.sol\";\n\ncontract UUPSUpgradeableMock is CountersImpl, UUPSUpgradeable {\n    // Not having any checks in this function is dangerous! Do not do this outside tests!\n    function _authorizeUpgrade(address) internal virtual override {}\n}\n\ncontract UUPSUpgradeableUnsafeMock is UUPSUpgradeableMock {\n    function upgradeTo(address newImplementation) external virtual override {\n        ERC1967Upgrade._upgradeToAndCall(newImplementation, bytes(\"\"), false);\n    }\n\n    function upgradeToAndCall(address newImplementation, bytes memory data) external payable virtual override {\n        ERC1967Upgrade._upgradeToAndCall(newImplementation, data, false);\n    }\n}\n\ncontract UUPSUpgradeableBrokenMock is UUPSUpgradeableMock {\n    function upgradeTo(address) external virtual override {\n        // pass\n    }\n\n    function upgradeToAndCall(address, bytes memory) external payable virtual override {\n        // pass\n    }\n}\n",
  "sourcePath": "/home/sushant/Documents/blockchain_work/EatTheBlock/ecomapp2/contracts/openzeppelin/contracts/mocks/UUPS/TestInProd.sol",
  "compiler": {
    "name": "solc",
    "version": "0.8.2+commit.661d1103.Emscripten.clang"
  },
  "schemaVersion": "3.4.2",
  "updatedAt": "2021-08-09T18:32:24.717Z",
  "devdoc": {
    "kind": "dev",
    "methods": {
      "upgradeTo(address)": {
        "details": "Upgrade the implementation of the proxy to `newImplementation`. Calls {_authorizeUpgrade}. Emits an {Upgraded} event."
      },
      "upgradeToAndCall(address,bytes)": {
        "details": "Upgrade the implementation of the proxy to `newImplementation`, and subsequently execute the function call encoded in `data`. Calls {_authorizeUpgrade}. Emits an {Upgraded} event."
      }
    },
    "version": 1
  },
  "userdoc": {
    "kind": "user",
    "methods": {},
    "version": 1
  }
}